:020000040800F2
:10000000B028002075C60108C59B0108C79B0108E0
:1000100000000000000000000000000000000000E0
:10002000000000000000000000000000476500081C
:100030000000000000000000B7660008CB9B01082C
:10004000E76A0008C78D0008F99B0108DFAB0008CC
:1000500007AC0008F79B0108F59B0108DD9B010830
:1000600007BA0008ABCF00083D9D010843D1000846
:1000700067E00008D39B0108631301082F430108C0
:100080009B490108579F0108C7B9010800000000FB
:10009000D3B9010891C8010893C801082D9D010832
:1000A00095C8010897C8010899C801089BC80108AC
:1000B0009DC80108519D01089FC80108A1C80108F9
:1000C00030B503000C0015006A1E002D04D0257801
:1000D0001D70641C5B1CF6E730BD10B503001400F6
:1000E000621E002C03D00C001C705B1CF7E710BDD7
:1000F00070B503001C000D0000201600721E002EBB
:1001000006D020782E78801B6D1C641C0028F4D04B
:1001100070BD00B50278002A04D002788A4201D06E
:10012000401CF7E7007800BD30B5002423001A001A
:10013000042A26D2AF4C0C2555436459002C1CD000
:10014000AC4C0C25554364598025AD004559AC4253
:1001500015D1A84C0C255543641964688225AD005F
:100160004559AC420BD1A34C0C2555436419248945
:10017000A14D455BAC4202D103E001242300521C97
:10018000D6E7042A08D1002B01D1022901D1002091
:1001900000E01220C0B20EE0002908D195480C21E1
:1001A0004A438018408980214900884201D11020AB
:1001B00000E00020C0B230BD00B5002108000428D6
:1001C00007D28C490C2242438958002901D0401C97
:1001D000F5E7042801D1002000E0012000BD30B582
:1001E000020000200300042B1DD282480C245C4333
:1001F00000598024A4001459A04212D17D480C2437
:100200005C43001940688224A4001459A04208D11C
:1002100078480C245C4300190089774C145BA04299
:1002200001D05B1CDFE7042B2BD100200300042B43
:1002300007D270480C245C430059002801D05B1C95
:10024000F5E7042B01D1002038E080208000105811
:10025000684C0C255D436051822080001058654C2D
:100260000C255D43641960606348105A614C0C258D
:100270005D436419208100205E4C0C255D436419A8
:100280006081002908D05B480C245C430019408938
:10029000002801D0002011E0002902D08020400079
:1002A00005E054480C245C4300194089401C514C23
:1002B0000C255D43641960815B1C180030BD30B5AE
:1002C0000200521E042A20D24A4B0C2454431B190C
:1002D0005B89190089B280235B00994201D1002318
:1002E000190089B2002900D0491E424B0C24544306
:1002F0001B19598189B2002904D100233D4C0C25DA
:10030000554363510023180001E002231800C0B2D6
:1003100030BD10B50022110004290CD2354A0C233F
:100320004B43D258824204D10022324B0C244C431E
:100330001A51491CF0E710BDF8B5050000278120CF
:100340008000285C00282ED08B20800028580400D4
:100350000123220029007B48285C01F014FD0028BD
:1003600002D0012007001EE000208121890068548E
:10037000882080002858201A8621890069588842E0
:1003800011D27148285C0600022E0CD38620800012
:10039000285824180123220029006A48285C01F00B
:1003A000F2FC761EF0E73800C0B2F2BD70B5060070
:1003B0000C0000258B2080003058844217D030007C
:1003C000FFF7BAFF0500EDB2002D10D10123220086
:1003D00031005C48305C01F0BBFC002804D00020F8
:1003E000C0430400012005008B2080003450280009
:1003F000C0B270BDA41400200602000038B504008D
:100400002000FFF799FF0500EDB2002D00D082E03B
:1004100080208000205C032873D14C48205C012898
:100420006FD18022920000212000FFF756FE552058
:10043000FF2149006054AA20454960545220207091
:10044000522060706120A0704120E0707220F22183
:10045000490060547220FF21E63160544120F321AD
:10046000490060546120FF21E831605484208000FD
:100470002058F4214900605484208000205880B224
:10048000000AFF21EA316054842080002058000CCB
:10049000F52149006054842080002058000EFF217F
:1004A000EC316054832080002058F62149006054CC
:1004B00083208000205880B2000AFF21EE31605472
:1004C000832080002058000CF721490060548320CD
:1004D00080002058000EFF21F031605487208000FA
:1004E0002058401C8B218900605001238B20800004
:1004F000225821001348205C01F045FC00201349DC
:100500006054002200210F48205C01F057FC0028B5
:1005100001D0012005002800C0B232BD00B50200A4
:10052000891E852080001058801E814201D3002042
:1005300006E00848105C41438A20800010580818E3
:1005400000BD0000010200000302000005020000DF
:10055000FF01000002020000F0B583B005000F00AB
:10056000022F04D3852080002858874202D301201F
:10057000009084E00020C043009080208000285C30
:10058000012804D079D3032852D035D375E03C003C
:100590002000400824188820800028582100490A9B
:1005A00041182800FFF702FF002868D120008021B1
:1005B000890001F03AFC685C0600641C8820800019
:1005C00028582100490A41182800FFF7EFFE0028AB
:1005D00055D120008021890001F027FC685C0002D1
:1005E00030430600F80703D530000009009002E010
:1005F0003005000D009042E0882080002858390026
:10060000090A41182800FFF7D1FE002837D102203F
:1006100078438021890001F008FC68180190019856
:100620004078000201990978084380B2009026E0E2
:100630008820800028583900C90941182800FFF790
:10064000B5FE00281BD1042078438021890001F0E9
:10065000ECFB681801900198C07801060198807839
:100660000004084301994978090201430198007880
:10067000084300010009009001E00120009000986B
:10068000FEBDF0B583B005000F001400022F04D3A7
:10069000852080002858874203D3022069460871CC
:1006A000BCE080208000285C012805D000D2B2E0A8
:1006B00003287DD058D3AEE03E0030004008361805
:1006C0008820800028583100490A41182800FFF787
:1006D0006DFE6946087168460079002800D09DE0EB
:1006E00030008021890001F0A0FB68180090761C82
:1006F000F80707D5009800780107090F20000001CE
:10070000084300E020000099087001208121890041
:1007100068548820800028583100490A4118280070
:10072000FFF744FE6946087168460079002875D1D4
:1007300030008021890001F078FB68180090F807EC
:1007400002D52000000908E000980078F02101405F
:100750002000000A0007000F0843009908700120DC
:1007600081218900685459E0882080002858390088
:10077000090A41182800FFF719FE69460871684602
:10078000007900284AD1022078438021890001F0B5
:100790004CFB68180090200000990870200080B27F
:1007A000000A00994870012081218900685435E0D1
:1007B0008820800028583900C90941182800FFF70F
:1007C000F5FD6946087168460079002826D10420A5
:1007D00078438021890001F028FB68180090009878
:1007E000C0780006000F0007204304002000009995
:1007F0000870200080B2000A009948702000000CA8
:10080000009988702000000E0099C8700120812195
:100810008900685402E00220694608716846007940
:10082000FEBDF8B504000D00022D04D38520800024
:100830002058854202D30220070038E0002007003C
:10084000852080002058854231D229002000FFF702
:1008500083FE0600002E2AD0012E02D102200700BE
:1008600025E00020C043864202D1012007001EE09F
:10087000002229002000FFF704FF0700FFB2002F2D
:1008800015D18420800020580021C94388420CD013
:10089000842080002058401C8421890060509F489B
:1008A000205C012101439D4821543500C8E73800F0
:1008B000C0B2F2BDF0B583B005000F00002F0FD11C
:1008C00083208000285800900098002805D00098C8
:1008D000852189006958884219D30120009016E0CB
:1008E00039002800FFF738FE0600022E01D2012051
:1008F0006AE00020C043864201D1300064E08520D8
:1009000080002858864201D230005DE000970098B0
:100910000400641C852080002858844206D30220ED
:1009200004000098A04201D200204DE021002800E0
:10093000FFF712FE0600002E0BD1794A2100280095
:10094000FFF79FFE6946087168460079002816D1B6
:100950000CE00020C043864201D0012E01D13000BE
:1009600032E000988442D4D100202DE0002F06D040
:10097000220039002800FFF784FE694608716846A6
:100980000079002817D1832080002C50842080001B
:1009900028580021C943884215D084208000285857
:1009A000401E8421890068505C48285C0121014375
:1009B0005A48295407E068460079012802D10024EA
:1009C000E44300E001242000FEBDF2B504008920CC
:1009D00080002058001D07000098400A80218900EF
:1009E0006158C34A895C01F020FA050038680600A6
:1009F0003F1D002E01D1002007E0B54202D2386829
:100A0000281802E0AD1B3F1DF0E7F2BDF0B583B042
:100A100005000C002000B749685282208000285849
:100A20000600012E07D080208000285885218900EB
:100A30004058864201D302206FE0002E0ED1802064
:100A40008000285880218900405C032806D180203E
:100A5000800028588921890040580600002E11D1B5
:100A600080208000285882218900405A844201D386
:100A7000022052E0802080002858892189004058B7
:100A800001902BE08020800028589949405C10217B
:100A900048430700BC421AD3310080208000285808
:100AA000FFF75AFD06000020C043864201D1012015
:100AB00033E0022E07D3802080002858852189004A
:100AC0004058864201D3022027E0E41BE2E73100D0
:100AD000802080002858FFF721FD019083208000AE
:100AE0002E500198002801D1022016E00198210023
:100AF0000909401884218900685080208000285806
:100B000000902000102101F090F92020414300982E
:100B100040188521890068500020FEBD05020000B4
:100B2000FFFFFF0FF0B583B004000F007148205A9B
:100B3000401C0190019880B2002804D084208000DD
:100B40002058002801D10420D1E00198102101F0A3
:100B50006CF9002900D0B7E0842080002058401CA8
:100B600084218900605083208000205800280BD108
:100B7000019880218900615882229200895A884216
:100B800000D2A1E00420B2E0019800098021890090
:100B90006158574A895C491E0140002900D093E002
:100BA000832080002158802080002058FFF7D4FC4B
:100BB0000600022E01D2022099E00020C0438642A6
:100BC00001D1012093E080208000205885218900F8
:100BD000405886426CD3002F01D1042087E0832047
:100BE00080002158802080002058FFF763FE060017
:100BF000002E01D107207AE0012E01D1022076E0FB
:100C00000020C043864201D1012070E08020800096
:100C10002058FFF791FB002801D0012067E08022D7
:100C200092000021802080002058FFF756FA310002
:100C3000802080002058FFF771FC802189006158D6
:100C40008B229200885000200500802080002058D0
:100C50002749405C85421ED20120802189006158CD
:100C6000812292008854802080002058FFF764FB86
:100C7000002801D001203AE08020800020588B21FC
:100C800089004058401C8021890061588B229200C5
:100C900088506D1CD9E78020800020588B21890066
:100CA0004058401B8021890061588B229200885057
:100CB0008320800026503100802080002058FFF7DC
:100CC0002DFC84218900605001980A4960528020DF
:100CD0008000205800900198102101F0A6F82020F3
:100CE0004143009840188521890060500020FEBDD6
:100CF0000202000006020000F8B504000F00002107
:100D00002000FFF783FE0600F6B2002E27D1002058
:100D10000500842080002158802080002058FFF7A3
:100D200045FB0600F6B2002E19D185208000205820
:100D30000078E52805D0852080002058007800281C
:100D400003D16D1CBD4202D109E000200500012144
:100D50002000FFF7E7FE0600F6B2002ED9D0F6B26B
:100D6000042E01D1072006003000C0B2F2BD10B53C
:100D70000200CB7E1B028C7E23439BB21800802393
:100D80009B00D35C032B06D10400487D00020B7D41
:100D900018430004204310BD0A0082760A0092B274
:100DA000120AC2760A00120C02750A00120C92B2E4
:100DB000120A42757047F8B5040000212000FFF7C1
:100DC00025FE0500EDB2002D02D02800C0B22DE0B6
:100DD000842080002158802080002058FFF7E6FA08
:100DE0000500EDB2002D1FD185208000205806009F
:100DF00030780700FFB2002F02D10420050013E075
:100E0000F07A000708D40B22862080002158300099
:100E1000FFF76EF9002807D000212000FFF782FEBF
:100E20000500EDB2002DD3D02800C0B2F2BD38B518
:100E3000040001212000FFF75FFF0500EDB2002D47
:100E400022D1842080002158802080002058FFF784
:100E5000ADFA0500EDB2002D16D12022002185202B
:100E600080002058FFF739F90B2286208000215896
:100E7000852080002058FFF723F901208021890078
:100E800061588122920088542800C0B232BDF3B567
:100E900083B004980068070038782F2802D038788B
:100EA0005C2801D17F1CF7E7039886218900405810
:100EB00000900B2220210098FFF70FF90020050079
:100EC000EDB22E000196082002900198385C0400D3
:100ED0000198401C0190E4B2212C05DBE4B22F2CD8
:100EE00002D0E4B25C2C07D101983818049908604C
:100EF000E4B2212C42DA3FE0E4B22E2C02D0029878
:100F000086420DD30298082802D1E4B22E2C01D0DB
:100F1000062056E0082006000B200290AD00D4E722
:100F2000E4B2802C07DB2800032505438448E4B2A3
:100F3000001980380478E4B221008248FFF7E9F80C
:100F4000002801D006203CE0E4B2412C06DBE4B2EC
:100F50005B2C03DA28000225054309E0E4B2612C8A
:100F600006DBE4B27B2C03DA280001250543203C94
:100F700000988455761CA8E7042400E00024002E85
:100F800001D106201DE000980078E52802D1052057
:100F9000009908700298082800D1AD00EDB2A807AA
:100FA000800F012802D1200010240443EDB20C2050
:100FB0002840042802D12000082404430098C47269
:100FC000002005B0F0BD0000F2B5040000980078E4
:100FD0002F2803D0009800785C2802D10098401C8C
:100FE000009000208221890060500098007820281D
:100FF00009D200212000FFF709FD0500002085210E
:101000008900605031E069462000FFF740FF05008D
:10101000EDB2002D29D12000FFF7CDFE050086207E
:1010200080002058C07A0700EDB2002D07D0EDB245
:10103000042D03D1780701D40520050015E07807B9
:1010400013D48520800020580600F07AC00602D410
:101050000520050009E03100802080002058FFF7BE
:1010600086FE822189006050CDE72800C0B2F2BD23
:1010700030B501000020C0430D68002D1ED00D6862
:101080002B001D78212D04D31D783A2D01D05B1C37
:10109000F7E71D783A2D0FD10D682A001578303DFD
:1010A0002C00521C0A2C06D29A4204D1002C02D1E8
:1010B00020005B1C0B6001E00025280030BD38B526
:1010C00005000C0000208121890068540020C043E5
:1010D0008B218900685021002800FFF767F900285C
:1010E00001D003202BE01848285C0002FF214900B2
:1010F000695C084380B21549884201D002201EE095
:101100003820285C00043721695C0902014336203D
:10111000285C08430E49884201D100200FE054208A
:10112000285C00045321695C090201435220285CB9
:1011300008430749884201D1002000E0012032BD68
:101140003CA7010864C40108FF01000055AA000083
:1011500046415400F7B58CB000200C9908600D98FA
:10116000FFF786FF07900798002801D50B2034E28F
:10117000AD4807990422514340580400002C01D186
:101180000C202AE20C98046080208000205C00285B
:1011900015D0A648205C00F0ADFD69460870684691
:1011A0000078C0070BD40EA80078002805D0684648
:1011B0000078400701D50A200FE200200DE2002050
:1011C0008021890060540798984960549748205CB2
:1011D00000F0A2FD6946087068460078C00701D596
:1011E0000320FAE10EA80078002805D068460078B0
:1011F000400701D50A20F0E1002007003900200057
:10120000FFF75DFF0600F6B2012E3DD1002005007C
:10121000042D20D2102068432018DF2149004018F7
:1012200002900298007900280ED00298C07A010638
:101230000298807A000408430299497A090201431E
:101240000298007A084300E0002008A904226A43BB
:1012500088506D1CDCE700200500002D00D06D1EBD
:1012600008A80421694340580700002F04D0390022
:101270002000FFF724FF00E002200600F6B2002E57
:1012800002D06D1C042DEBD3F6B2032E01D1012048
:10129000A3E1F6B2002E01D00D209EE1207B0002DA
:1012A000E17A084380B280218900884201D00D2074
:1012B00093E1E07D0002A17D084380B20190019896
:1012C00000280ED12720205C01062620205C000487
:1012D00008432521615C090201432420205C084366
:1012E00001900198862189006050207CBC4960549F
:1012F000BB48205C012805D0B948205C022801D0F9
:101300000D206AE10198B649615C48430190607B19
:10131000B4496054B348205C002806D0B148205C32
:10132000B049615C491E084201D00D2055E1A07C06
:101330000002617C08438221890060528220800083
:10134000205A102100F071FD002901D00D2044E148
:10135000207D0002E17C084380B2049004980028BC
:101360000ED12320205C01062220205C00040843CB
:101370002121615C090201432020205C0843049084
:10138000E07B0002A17B08436946488068464088AC
:10139000002801D10D2020E16846408801994018BD
:1013A00082218900615A090940180690049806991B
:1013B000884201D20D2010E104980699401A89490B
:1013C000615C00F032FD03900398002801D10D20EC
:1013D00003E1012006000398B449884201D30220AA
:1013E00006000398B249884201D3032006000398FF
:1013F000801C852189006050872080002750684626
:1014000040883818882189006050069838188A2149
:1014100089006050F6B2032E22D182208000205A2B
:10142000002805D00D20D8E0E415002001020000BE
:101430002F20205C01062E20205C000408432D2173
:10144000615C090201432C20205C0843892189004A
:10145000605085208000205804214843059026E0F4
:1014600082208000205A002801D10D20B5E088207C
:101470008000205801994018892189006050F6B2F7
:10148000022E06D185208000205802214843059075
:101490000DE0852080002058032148434008852125
:1014A0008900615C0A00D207D20F8018059086205F
:1014B0008000205805997F4A8918490A884201D23C
:1014C0000D208AE00020C0438421890060508420E0
:1014D0008000205883218900605080207649605424
:1014E000F6B2032E69D13120205C00023021615C0C
:1014F000084380B2012860D13900491C2000FEF762
:1015000055FF002859D100206B4960546948205C80
:101510000002FF214900615C084380B267498842AC
:101520004BD1E0780006A1780904014360780002FD
:10153000084321780143624881423ED1FF20E830D0
:10154000205C0106F3204000205C00040843FF21DA
:10155000E631615C09020143F2204000205C08434F
:101560005849884229D1FF20EC30205C0106F52043
:101570004000205C00040843FF21EA31615C09025D
:101580000143F4204000205C08438421890060501E
:10159000FF20F030205C0106F7204000205C0004B2
:1015A0000843FF21EE31615C09020143F62040004F
:1015B000205C0843832189006050802080002654ED
:1015C00041480088401C404908803F480088C8497D
:1015D00060522000FEF79DFE00200FB0F0BD00001D
:1015E000030200000202000038B504002500002DAF
:1015F0001FD080208000285800281AD0802080002A
:10160000285880218900405C002812D0802080006A
:101610002858B749405A81218900695A884208D11F
:10162000802080002858B349405C00F063FBC0076D
:1016300001D5092000E0002032BDF3B581B01400CF
:10164000029800906846FFF713FD0500002D01D5B4
:101650000B202AE0A8480421694340580600002EC8
:1016600006D03000FEF755FE00208021890070541E
:101670000198002804D0002001998022920088540B
:1016800001989D4904226A4388500198002802D09D
:10169000E4B2012C01D0002007E0002202A901A839
:1016A000FFF758FD07003800C0B2FEBDF60F00007E
:1016B000F6FF0000FF0100000502000055AA00002F
:1016C000525261417272416198160020F2B5FFB02A
:1016D0008FB007001400002F01D1092005E1002080
:1016E000802189007850E406E40EFE2222408EA973
:1016F00005A880239B00C018FFF72CFD0500EDB264
:10170000002D00D0EFE002A88B908E9905A8FFF77E
:101710005BFC05008A980600EDB2002D0ED1002E6C
:1017200002D10620050009E0FE20044201D001217B
:1017300000E0002105A8FEF7F7FC05001C2004428C
:1017400068D0EDB2002D12D0EDB2042D09D1FEF714
:1017500033FD002803D005A8FFF769FB00E0122045
:1017600005002000082404438A9806000AE0F07A65
:101770001121084202D00720050003E0600701D5CF
:1017800008200500EDB2002D54D1200752D500F0FD
:1017900031FB00900098B073009880B2000AF0739B
:1017A0000098000C30740098000E70740020F072E5
:1017B00000203077002070770020B0770020F0778D
:1017C00031008598FFF7D3FA019000213000FFF730
:1017D000E3FA01208599812292008854019800281B
:1017E00028D085988B2189004058009001998598D0
:1017F000FFF717F80500EDB2002D1BD10198401E30
:10180000859983229200885000998598FEF7CEFD35
:1018100005000FE0EDB2002D0CD1F07AC00602D524
:101820000420050006E0A00704D5F07AC00701D522
:1018300007200500EDB2002D21D1200702D52000A0
:101840002024044385988B218900405887218900F2
:101850007850882080003E50FE20044201D00121B3
:1018600000E0002105A8FEF7BAFC8A218900785023
:101870008A2080003858002801D102200500EDB2EE
:10188000002D30D1C5483C540020C5497854310062
:101890008598FFF76CFA842189007850F07F000664
:1018A000B17F09040143707F00020843317F014387
:1018B0008320800039500020822189007850002048
:1018C00086218900785000208921890078508598E8
:1018D000802189007850802080003858AF49405AD4
:1018E0008121890078522800C0B27FB010B0F0BDCD
:1018F0000602000001020000E4150020FAB587B0DE
:1019000004001500079F0020089908602000FFF7D9
:101910006BFE6946487168464079002802D06846E7
:10192000407938E19E48205C002802D09C48205C29
:1019300031E19A48205CC00701D407202BE18320C5
:1019400080002058822189006158401A059005982E
:10195000A84201D205980500002D00D11AE182208D
:10196000800020588021890000F05FFA002900D013
:10197000DEE0822080002058400A802189006158E2
:10198000884A895C491E01406846017168460079B1
:10199000002835D1822080002058002804D18420DE
:1019A00080002058049015E08920800020580028ED
:1019B00007D08220800021582000FFF706F804900D
:1019C00008E0852080002158802080002058FEF704
:1019D000C3FD04900498022804D202207049605488
:1019E0000220D8E004980021C943884204D1012094
:1019F0006B4960540120CEE0049885218900605035
:101A0000852080002158802080002058FEF786FD28
:101A10000600002E04D10220614960540220BAE081
:101A20006846007936182800400A03900398002879
:101A300044D08020800020585A49405C694609798A
:101A4000039A8918884208D280208000205855497E
:101A5000405C69460979401A0390039B32003900C3
:101A60000F008020800021584F48085C390000F0AA
:101A70006FF9002804D001204949605401208AE010
:101A80004648205C400613D5862080002058801BE5
:101A9000039988420CD28022920021008620800087
:101AA0002058801B80239B0058433818FEF708FB02
:101AB0000398802189004843029058E086208000E6
:101AC0002058B04231D03548205C40061AD5012359
:101AD00086208000225821000C00802080002158A0
:101AE0003148085C210000F04EF9002804D00120A4
:101AF0002B49605401204EE02848205CBF21014062
:101B0000264821540123320021000C00802080004F
:101B100021582548085C210000F01AF9002804D05B
:101B200001201F496054012035E0862080002650A6
:101B30008020800000908220800020588021890031
:101B400000F073F90098401A02900298854200D282
:101B50000295029A009282208000205880218900FC
:101B600000F063F96118009A3800FEF7A9FA0298AC
:101B70003F18822080002058029940188221890055
:101B80006050089800680299401808990860029807
:101B90002D1AE1E6002009B0F0BD000006020000A9
:101BA000070200000202000001020000F8B5040074
:101BB0002000FFF719FD0600F6B2002E73D13C4855
:101BC000205C80066FD53A48205C400617D501237B
:101BD00086208000225821000C008020800021589F
:101BE0003248085C210000F0CEF8002801D0012026
:101BF0005BE02F48205CBF2101402D482154872005
:101C000080002158802080002058FEF7CFFB06007E
:101C1000F6B2002E47D18820800020580500E87ACF
:101C200020210143E97283208000205828778320F7
:101C30008000205880B2000A6877832080002058F6
:101C4000000CA877832080002058000EE8778420BD
:101C5000800021582800FFF79FF800F0CBF807001C
:101C60003800A875380080B2000AE8753800000C0A
:101C700028763800000E68760020A8740020E874EA
:101C80000B48205CDF2101400948215401208021BC
:101C90008900615881229200885480208000205859
:101CA000FEF7ACFB06003000C0B2F2BD010200003E
:101CB0000602000038B504002000FFF777FF05009A
:101CC000EDB2002D13D12000FFF78EFC0500EDB220
:101CD000002D0CD18A2080002058FEF7F0FA050074
:101CE000EDB2002D03D10020802189006050280032
:101CF000C0B232BD38B504003D48E4B20019007AE4
:101D00003B49E4B20422624389184968496888471C
:101D100005002800C0B232BD38B5040000253448A3
:101D2000E4B2005D002810D101203149E4B2085529
:101D30002F48E4B20019007A2D49E4B2042262432C
:101D4000891849680968884705002800C0B232BD73
:101D5000F2B582B0040016001D002B00320002997B
:101D60002348E4B20019007A1D00214FE4B2042395
:101D70006343FB185B689F682B00B847694608708F
:101D800068460078FEBDF2B582B0040016001D0062
:101D90002B00320002991648E4B20019007A1D00A7
:101DA000134FE4B204236343FB185B68DF682B0026
:101DB000B8476946087068460078FEBDF8B504006B
:101DC0000E0015002A003100C9B20948E4B200191A
:101DD000007A1500064BE4B2042262439A18526856
:101DE00013692A00984707003800C0B2F2BD00000E
:101DF000B415002000207047F446002804D449425E
:101E000000F013F8404260474042002905D45FD0FB
:101E100000F00BF8404249426047494200F005F8A3
:101E20004942604703460B43E6D40022030A8B4233
:101E30000BD203098B4219D243088B422ED2411A8E
:101E400000D20146524110467047FF2209023FD09E
:101E500012068B4205D3121209028B4201D31212D1
:101E6000090203098B4219D300E0090AC3098B4216
:101E700001D3CB01C01A524183098B4201D38B019C
:101E8000C01A524143098B4201D34B01C01A52413F
:101E900003098B4201D30B01C01A5241C3088B4284
:101EA00001D3CB00C01A524183088B4201D38B006F
:101EB000C01A524143088B4201D34B00C01A524111
:101EC000884200D3401A5241CFD201461046704793
:101ED00008B500F001F808BD704730B401210022B8
:101EE0000368001D002B0BD00468001D0C4202D0BB
:101EF0004D466D1E64192260241D1B1FF0D0FAE7A9
:101F000030BC70470000000000000000000000002E
:101F100000000000000000000000000000000000C1
:101F200000000000000000000000000000000000B1
:101F300000000000000000000000000000000000A1
:101F40000000000000000000000000000000000091
:101F500000000380000380000380000380000380F2
:101F60000003800003800003800003800001000064
:101F7000010000000000000000038000038000005A
:101F80000000000000000000000000000000000051
:101F9000000000000000000000000000000E7000C3
:101FA0000E70000E700004200004200004200004C5
:101FB0002000000000000000000000000000000001
:101FC0000000000000000000000000000000000011
:101FD0000000000000000000000000000000000001
:101FE00000000660000660000660000660000660F3
:101FF000003FF8003FF8000660000CC0003FF8000A
:102000003FF8000CC0000CC0000CC0000CC0000C5D
:10201000C000000000000000000000000000000000
:102020000000000000000001800001800007B000F7
:102030000FF0001870001870001C00000F800007DF
:10204000E00000F0001830001C30001C70001FE0A1
:10205000001BC000018000018000018000018000A1
:102060000000000000000000000000000000000070
:1020700000000780000FC0001CE00018600018601E
:10208000001CE0000FF80007E0001FF00007380018
:1020900006180006180007380003F00001E00000F1
:1020A0000000000000000000000000000000000030
:1020B0000000000000000000000000000000000020
:1020C00003F00007F0000C60000C00000C0000069C
:1020D00000000700000F9C001DFC0018F0001870A5
:1020E000000FFC0007DC0000000000000000000002
:1020F00000000000000000000000000000000000E0
:102100000000000000038000038000038000010045
:1021100000010000010000010000000000000000BC
:1021200000000000000000000000000000000000AF
:10213000000000000000000000000000000000009F
:10214000000000000000000000000018000038003F
:1021500000700000F00000E00000E00001C000019D
:10216000C00001C00001C00001C00001C00000E0CB
:102170000000E0000070000070000038000018004F
:10218000000000000000000000000000000000004F
:1021900000001800001C00000E00000E00000700E8
:1021A000000700000380000380000380000380001C
:1021B0000380000380000700000700000F00000EEE
:1021C00000001C00001800000000000000000000DB
:1021D00000000000000000000000018000018000FD
:1021E0000180001DB8001FF80007E00003C00003D5
:1021F000C000066000066000000000000000000053
:1022000000000000000000000000000000000000CE
:1022100000000000000000000000000000000000BE
:10222000000000000000000001800001800001802B
:10223000000180000180003FFC003FFC00018000A5
:10224000018000018000018000018000000000008A
:10225000000000000000000000000000000000007E
:10226000000000000000000000000000000000006E
:10227000000000000000000000000000000000005E
:10228000000000000000000000000000000000E06E
:102290000000C00001C000018000018000030000B8
:1022A000030000000000000000000000000000002B
:1022B000000000000000000000000000000000001E
:1022C000000000000000001FF8001FF800000000E0
:1022D00000000000000000000000000000000000FE
:1022E00000000000000000000000000000000000EE
:1022F00000000000000000000000000000000000DE
:1023000000000000000000000000000000000000CD
:10231000000000000000000000000000000003C0FA
:102320000003C00003C00000000000000000000027
:102330000000000000000000000000000018000085
:1023400018000038000030000070000060000060DD
:102350000000C00000C000018000018000030000F8
:102360000300000600000600000E00000C00001C28
:10237000000018000018000000000000000000002D
:102380000000000000000000000003C00007E000A3
:102390000C30000C3000181800181800181800181D
:1023A00018001818001818001818000C30000C300D
:1023B0000007E00003C00000000000000000000073
:1023C000000000000000000000000000000000000D
:1023D00000000080000780001F80001D8000018039
:1023E0000001800001800001800001800001800068
:1023F0000180000180000180001FF8001FF800002C
:1024000000000000000000000000000000000000CC
:102410000000000000000000000007C0001FF000E6
:10242000383000301800301800001800003000006C
:10243000600001C0000380000600000C00001800CE
:10244000003FF8003FF8000000000000000000001E
:10245000000000000000000000000000000000007C
:10246000000003C0000FE0000C70000030000030DE
:102470000000600003C00003E000007000001800CE
:102480000018000018001838001FF0000FC00000EE
:10249000000000000000000000000000000000003C
:1024A0000000000000000000000000E00001E0006B
:1024B00001E0000360000660000660000C60000C94
:1024C00060001860003060003FF8003FF8000060D6
:1024D0000003F80003F80000000000000000000006
:1024E00000000000000000000000000000000000EC
:1024F00000001FF0001FF000180000180000180076
:10250000001BC0001FF0001C300000180000180065
:102510000018000018003030003FF0000FC000002D
:1025200000000000000000000000000000000000AB
:102530000000000000000000000000F80003F800A8
:102540000700000E00000C00001800001BC0001F58
:10255000F0001C30001818001818001818000C386B
:10256000000FF00003E00000000000000000000089
:10257000000000000000000000000000000000005B
:1025800000001FF8001FF80018180018380000306D
:102590000000300000700000600000600000E000FB
:1025A00000C00000C00001C00001800001800000E8
:1025B000000000000000000000000000000000001B
:1025C0000000000000000000000007E0000FF00025
:1025D0001C38001818001818000C300007E000071D
:1025E000E0000C30001818001818001818001C38EB
:1025F000000FF00007E000000000000000000000F5
:1026000000000000000000000000000000000000CA
:10261000000007C0000FF0001C3000181800181848
:10262000001818000C38000FF80003D8000018003C
:1026300000300000700000E0001FC0001F0000001C
:10264000000000000000000000000000000000008A
:10265000000000000000000000000000000000007A
:1026600000000000000003C00003C00003C0000021
:10267000000000000000000000000000000003C097
:102680000003C00003C000000000000000000000C4
:10269000000000000000000000000000000000003A
:1026A000000000000000000000000000000000F03A
:1026B0000000F00000F0000000000000000000003A
:1026C00000000000E00001C0000180000180000364
:1026D00000000200000000000000000000000000F8
:1026E00000000000000000000000000000000000EA
:1026F000001C00003C0000F00003C0000F00003C84
:102700000000F000003C00000F000003C00000F0DB
:1027100000003C00001C0000000000000000000061
:1027200000000000000000000000000000000000A9
:102730000000000000000000000000000000000099
:10274000007FFC007FFC000000000000007FFC0018
:102750007FFC0000000000000000000000000000FE
:102760000000000000000000000000000000000069
:102770000000000000000000000000000000000059
:102780007000007800001E000007800001E00000DB
:102790007800001E0000780001E0000780001E00A5
:1027A0000078000070000000000000000000000041
:1027B0000000000000000000000000000000000019
:1027C000000000000007C0000FE000187000183083
:1027D0000018300000700000E00003C0000380001B
:1027E00003000000000000000007000007000000D8
:1027F00000000000000000000000000000000000D9
:102800000000000000000000000003E00007F000EE
:102810000E38000C180018780018F80019D80019A4
:10282000980019980019980018F8001878001800F6
:10283000000C00000E180007F80003E00000000084
:102840000000000000000000000000000000000088
:1028500000000000001F80001FC00001C0000360D6
:10286000000360000630000630000C30000FF80056
:102870001FF800180C00300C00FC7F00FC7F0000EB
:102880000000000000000000000000000000000048
:10289000000000000000000000000000007FE000D9
:1028A0007FF0001838001818001818001838001F9A
:1028B000F0001FF800181C00180C00180C00180C71
:1028C000007FF8007FF00000000000000000000022
:1028D00000000000000000000000000000000000F8
:1028E000000000000003EC000FFC001C1C00180C92
:1028F00000300C00300000300000300000300000DC
:10290000300000180C001C1C000FF80003F0000041
:1029100000000000000000000000000000000000B7
:10292000000000000000000000000000007FC00068
:102930007FF000183800181800180C00180C001848
:102940000C00180C00180C00180C0018180018388F
:10295000007FF0007FE000000000000000000000A9
:102960000000000000000000000000000000000067
:1029700000000000007FF8007FF800181800181809
:10298000001998001980001F80001F800019800026
:102990001998001818001818007FF8007FF8000038
:1029A0000000000000000000000000000000000027
:1029B000000000000000000000000000003FFC00DC
:1029C0003FFC000C0C000C0C000CCC000CC0000FE9
:1029D000C0000FC0000CC0000CC0000C00000C00B8
:1029E000003FC0003FC000000000000000000000E9
:1029F00000000000000000000000000000000000D7
:102A0000000000000003EC000FFC001C1C00180C70
:102A100000300C0030000030000030FE0030FE00BE
:102A2000300C00380C001C1C000FFC0003F00000F0
:102A30000000000000000000000000000000000096
:102A4000000000000000000000000000007E7E008A
:102A50007E7E001818001818001818001818001F9B
:102A6000F8001FF800181800181800181800181897
:102A7000007E7E007E7E000000000000000000005E
:102A80000000000000000000000000000000000046
:102A900000000000001FF8001FF800018000018006
:102AA00000018000018000018000018000018000A1
:102AB0000180000180000180001FF8001FF8000065
:102AC0000000000000000000000000000000000006
:102AD0000000000000000000000000000007FE00F1
:102AE00007FE000030000030000030000030000021
:102AF0003000303000303000303000303000306096
:102B0000003FE0000F800000000000000000000017
:102B100000000000000000000000000000000000B5
:102B200000000000007F3E007F3E0018300018606B
:102B30000018C0001980001B80001FC0001CE000AE
:102B40001870001830001838007F1F007F1F000029
:102B50000000000000000000000000000000000075
:102B6000000000000000000000000000007F800066
:102B70007F80000C00000C00000C00000C00000C1A
:102B800000000C00000C0C000C0C000C0C000C0CD9
:102B9000007FFC007FFC000000000000000000003F
:102BA0000000000000000000000000000000000025
:102BB0000000000000F00F00F81F00381C003C3C33
:102BC000003C3C00366C00366C0033CC0033CC004B
:102BD000318C00300C00300C00FE7F00FE7F0000C6
:102BE00000000000000000000000000000000000E5
:102BF0000000000000000000000000000078FE005F
:102C000078FE001C18001E18001F18001B18001B5F
:102C1000980019D80018D80018F80018780018384B
:102C2000007F18007F180000000000000000000076
:102C30000000000000000000000000000000000094
:102C4000000000000003C0000FF0001C380018183E
:102C500000381C00300C00300C00300C00300C0030
:102C6000381C001818001C38000FF00003C00000CA
:102C70000000000000000000000000000000000054
:102C8000000000000000000000000000003FF00015
:102C90003FF8000C1C000C0C000C0C000C0C000C81
:102CA00018000FF8000FE0000C00000C00000C00F2
:102CB000003FC0003FC00000000000000000000016
:102CC0000000000000000000000000000000000004
:102CD000000000000003C0000FF0001C38001818AE
:102CE00000381C00300C00300C00300C00300C00A0
:102CF000381C001818001C38000FF00007C000072F
:102D0000CC000FFC000C38000000000000000000A8
:102D1000000000000000000000000000007FE00054
:102D20007FF0001838001818001818001838001F15
:102D3000F0001FC00018E0001870001830001838AC
:102D4000007F1E007F0E0000000000000000000059
:102D50000000000000000000000000000000000073
:102D6000000000000007D8000FF8001C38001818F9
:102D7000001818001E00000FC00003F000007800CB
:102D80001818001818001C38001FF0001BE0000085
:102D90000000000000000000000000000000000033
:102DA000000000000000000000000000003FFC00E8
:102DB0003FFC00318C00318C00318C00318C0001E3
:102DC00080000180000180000180000180000180FE
:102DD000000FF0000FF000000000000000000000F5
:102DE00000000000000000000000000000000000E3
:102DF00000000000007E7E007E7E0018180018187B
:102E000000181800181800181800181800181800D2
:102E10001818001818000C30000FF00003C0000054
:102E200000000000000000000000000000000000A2
:102E3000000000000000000000000000007F7F0094
:102E40007F7F00180C000C18000C18000C180006EE
:102E5000300006300003600003600003600001C022
:102E60000001C00000800000000000000000000021
:102E70000000000000000000000000000000000052
:102E80000000000000FE3F80FE3F8030060030065C
:102E90000030860019CC0019CC001B6C001B6C00A4
:102EA0001E7C000E38000E38000C18000C180000B4
:102EB0000000000000000000000000000000000012
:102EC000000000000000000000000000007E7E0006
:102ED0007E7E001818000C300006600003C0000160
:102EE000800001800003C0000660000C300018184C
:102EF000007E7E007E7E00000000000000000000DA
:102F000000000000000000000000000000000000C1
:102F100000000000007C7E007C7E001818000C3051
:102F20000006600006600003C00001800001800010
:102F30000180000180000180000FF0000FF0000010
:102F40000000000000000000000000000000000081
:102F5000000000000000000000000000001FF8005A
:102F60001FF80018180018300018600018C0000181
:102F700080000300000618000C1800181800301814
:102F8000003FF8003FF800000000000000000000D3
:102F90000000000000000000000000000000000031
:102FA000000001F00001F0000180000180000180BC
:102FB000000180000180000180000180000180008C
:102FC000018000018000018000018000018000017B
:102FD000800001F00001F00000000000000000008F
:102FE000000000001800001800001C00000C000089
:102FF0000E000006000006000003000003000001B0
:10300000800001800000C00000C00000600000607F
:1030100000007000003000003800001800001800A8
:1030200000000000000000000000000000000000A0
:1030300000000F80000F80000180000180000180EF
:1030400000018000018000018000018000018000FB
:1030500001800001800001800001800001800001EA
:1030600080000F80000F80000000000000000000C2
:103070000000000000000000800001C00003E0002C
:103080000770000630000C1800180C001004000037
:103090000000000000000000000000000000000030
:1030A0000000000000000000000000000000000020
:1030B0000000000000000000000000000000000010
:1030C0000000000000000000000000000000000000
:1030D00000000000000000000000000000000000F0
:1030E00000000000000000000000000000000000E0
:1030F0000000000000000000000000000000FFFFD2
:1031000000FFFF0000000003000003800000E0005B
:10311000006000000000000000000000000000004F
:10312000000000000000000000000000000000009F
:10313000000000000000000000000000000000008F
:10314000000000000000000000000000000000007F
:1031500000000000000000000000000000000FC0A0
:10316000001FE00000300000300007F0001FF000FA
:103170003830003030003070001FFC000FBC000001
:10318000000000000000000000000000000000003F
:10319000000000000000000000007800007800003F
:1031A0001800001800001BE0001FF8001C18001891
:1031B0000C00180C00180C00180C00180C001C183F
:1031C000007FF8007BE0000000000000000000002D
:1031D00000000000000000000000000000000000EF
:1031E000000000000000000000000000000003ECF0
:1031F000000FFC001C1C00380C00300C00300000DC
:10320000300000380C001C1C000FF80003F0000018
:1032100000000000000000000000000000000000AE
:1032200000000000000000000000007800007800AE
:1032300000180000180007D8001FF80018380030E8
:1032400018003018003018003018003018001838F6
:10325000001FFE0007DE000000000000000000006C
:10326000000000000000000000000000000000005E
:10327000000000000000000000000000000007E067
:10328000001FF800181800300C003FFC003FFC0045
:10329000300000300000180C001FFC0007F0000098
:1032A000000000000000000000000000000000001E
:1032B0000000000000000000000001FC0003FC0012
:1032C0000600000600003FF8003FF8000600000678
:1032D00000000600000600000600000600000600D0
:1032E000003FF0003FF00000000000000000000080
:1032F00000000000000000000000000000000000CE
:10330000000000000000000000000000000007DED8
:10331000001FFE0018380030180030180030180068
:103320003018003018001838001FF80007D80000C7
:1033300018000018000038000FF0000FC000000057
:10334000000000000000000000007800007800008D
:103350001800001800001BE0001FF0001C380018C7
:103360001800181800181800181800181800181855
:10337000007E7E007E7E0000000000000000000055
:10338000000000000000000000000000000000003D
:1033900000000180000180000000000000001F808C
:1033A000001F80000180000180000180000180007A
:1033B0000180000180000180003FFC003FFC000014
:1033C00000000000000000000000000000000000FD
:1033D0000000000000000000000000C00000C0006D
:1033E0000000000000001FF0001FF000003000008F
:1033F00030000030000030000030000030000030AD
:10340000000030000030000030000030000070008C
:103410001FE0001F8000000000000000000000000E
:1034200000003C00003C00000C00000C00000CF808
:10343000000CF8000CC0000D80000F80000F000091
:103440000F80000DC0000CE0003C7C003C7C0000C4
:10345000000000000000000000000000000000006C
:10346000000000000000000000001F80001F80001E
:1034700001800001800001800001800001800001C6
:103480008000018000018000018000018000018037
:10349000003FFC003FFC00000000000000000000B6
:1034A000000000000000000000000000000000001C
:1034B0000000000000000000000000000000F7789D
:1034C00000FFFC0039CC00318C00318C00318C00C5
:1034D000318C00318C00318C00FDEF00FDEF0000DD
:1034E00000000000000000000000000000000000DC
:1034F00000000000000000000000000000000000CC
:103500000000000000007BE0007FF0001C38001885
:1035100018001818001818001818001818001818A3
:10352000007E7E007E7E00000000000000000000A3
:10353000000000000000000000000000000000008B
:10354000000000000000000000000000000003C0B8
:10355000000FF0001C3800381C00300C00300C004C
:10356000300C00381C001C38000FF00003C00000B5
:10357000000000000000000000000000000000004B
:10358000000000000000000000000000000000003B
:103590000000000000007BE0007FF8001C1800180D
:1035A0000C00180C00180C00180C00180C001C184B
:1035B000001FF8001BE000180000180000180000B1
:1035C0007F00007F000000000000000000000000FD
:1035D000000000000000000000000000000007DE06
:1035E000001FFE0018380030180030180030180096
:1035F0003018003018001838001FF80007D80000F5
:10360000180000180000180000FE0000FE00000076
:1036100000000000000000000000000000000000AA
:103620000000000000003E78003EFC0007CC0007D0
:10363000000006000006000006000006000006006C
:10364000003FF0003FF0000000000000000000001C
:10365000000000000000000000000000000000006A
:10366000000000000000000000000000000007F85B
:10367000000FF8001818001818001F80000FF00045
:1036800000F8001818001838001FF0001FE00000B4
:10369000000000000000000000000000000000002A
:1036A000000000000000000000000C00000C000002
:1036B0000C00000C00003FF0003FF0000C00000C7C
:1036C00000000C00000C00000C00000C00000C1CA2
:1036D0000007FC0003F000000000000000000000F4
:1036E00000000000000000000000000000000000DA
:1036F00000000000000000000000000000007878DA
:103700000078780018180018180018180018180009
:103710001818001818001838000FFE0007DE000007
:103720000000000000000000000000000000000099
:103730000000000000000000000000000000000089
:103740000000000000007C3E007C3E0018180018BD
:1037500018000C30000C300006600006600007E026
:103760000003C00003C000000000000000000000D3
:103770000000000000000000000000000000000049
:103780000000000000000000000000000000783C85
:1037900000783C003118003398003398001AB000CC
:1037A0001EF0001EF0001C60000C60000C600000A9
:1037B0000000000000000000000000000000000009
:1037C00000000000000000000000000000000000F9
:1037D0000000000000003E7C003E7C000C30000633
:1037E000600003C00001800003C0000660000C30D0
:1037F000003E7C003E7C0000000000000000000055
:1038000000000000000000000000000000000000B8
:1038100000000000000000000000000000007E1F0B
:10382000007E1F00180C000C18000C180006300059
:1038300006300003600003E00001C00000C000018A
:1038400080000180000300003FC0003FC000000076
:103850000000000000000000000000000000000068
:103860000000000000001FF8001FF80018300018CA
:10387000600000C0000180000300000618000C1862
:10388000001FF8001FF8000000000000000000000A
:103890000000000000000000000000000000000028
:1038A000000000E00001E0000180000180000180D4
:1038B00000018000018000018000038000070000FB
:1038C0000380000180000180000180000180000170
:1038D000800001E00000E0000000000000000000A7
:1038E00000000000000000000000018000018000D6
:1038F0000180000180000180000180000180000142
:1039000080000180000180000180000180000180B2
:103910000001800001800001800001800001800022
:103920000000000000000000000000000000000097
:103930000000070000078000018000018000018076
:103940000001800001800001800001C00000E00053
:1039500001C00001800001800001800001800001A1
:103960008000078000070000000000000000000049
:103970000000000000000000000000000000000047
:103980000000000000000000000000000E00001F0A
:1039900018003BB80031F00000E00000000000001B
:1039A0000000000000000000000000000000000017
:1039B000000000000000000000000000E0225200B3
:1039C00080180268914203D34368D218914202D30F
:1039D00080680028F5D170471948016800290ED188
:1039E000802149028160090941600021C943C16009
:1039F000016104214161134A1160134901600120F2
:103A0000704730B40300072408000830204201D179
:103A1000002404E0082508000830281A044008198A
:103A2000111B9861D96001220A4342602822401884
:103A3000426003480069D86130BC70470000000054
:103A400074150020100F00206859883CF0B587B02D
:103A50000700072408000830204201D1029106E047
:103A6000082508000830281A204008180290100085
:103A70000830204205D0082110000830081A044000
:103A8000121914000298C018039005460298201AD3
:103A9000C01A01900326334302984360A54201D324
:103AA00001F0D2FA2079C00701D401F0CDFA0198D3
:103AB000102801D201F0C8FAB869844208D1F86828
:103AC00001994018F860BD610121014369606EE110
:103AD0007869844209D1B86801994018B8607D615D
:103AE000012101436960285061E160680640012EB0
:103AF00000D0BBE0072188430590C00820283ED2B3
:103B0000A1680091E6680490B44201D101F09CFAEA
:103B10000098844201D101F097FA60680721884338
:103B20000499C900884201D001F08EFA0498C000BF
:103B30003918009A08002830824208D010463A69A5
:103B4000904200D28AE0C068A04200D086E000988F
:103B5000864206D138680121049A91408843386032
:103B60007EE028318E4205D03869864276D3B0682F
:103B7000A04273D10098C6600098B06070E0A06960
:103B80000090E668A6420CD0A0683969884225D327
:103B9000C168A14222D1B168A1421FD1C660B06004
:103BA0001EE0210014310E68002E07D121001031D3
:103BB0000E68002E14D001E001000E6830001430B1
:103BC0000268002AF8D1300010300268002AF3D1D0
:103BD0003869814202D30020086001E001F034FA24
:103BE000009800283CD0E0698000381898214900EE
:103BF000401801688C4209D10660002E14D1786803
:103C00000121E26991408843786029E00098396990
:103C1000884207D30069A042009801D1066103E001
:103C2000466101E001F010FA002E19D03869864291
:103C300014D30099B1612169002906D0814202D3D1
:103C400031618E6101E001F0FFF96069002807D061
:103C50003969884202D37061866101E001F0F4F9AC
:103C60000598241801980599401801906068012171
:103C70008843606001980143696001982850019869
:103C8000C008202822D20090C0003C18283426000A
:103C90000198102801D201F0D7F938680099020084
:103CA000CA40D10705D40121009A914001433960EF
:103CB00007E0A0683969884201D3060001E001F0FD
:103CC000C3F9A560F560AE60EC6070E00198000A91
:103CD00001D1002225E080214902884201D31F2220
:103CE0001FE0FF21C9434118090C082211408840F8
:103CF000314A8218120C04231A4090402F4BC318EB
:103D00001B0C022423400E24611A891AC91A9840F8
:103D1000C00B08184100019AC01DC240D007C00F57
:103D20000A1890003818982149004118EA610020CB
:103D3000686128617B681C00D440E40705D4012039
:103D40009040184378600D601DE009681F2A01D17A
:103D5000002302E0192352089B1A019A9A4000E0BE
:103D600019004B680724A343019CA34210D0D30F32
:103D70009B00CC18103452002368002BF0D1386916
:103D8000844212D32560A961ED600398A8600EE01B
:103D90008A683B69994208D39A4206D3D560039B4F
:103DA0008B60AA60E960A86101E001F04DF902981A
:103DB000083007B0F0BD000000F0FFFF00C0FFFFBB
:103DC000F2B586B0040091480068002801D1FFF7E1
:103DD00003FE8E488168069840182F30491E88439C
:103DE0000699814200D3D9E1D82149006118896838
:103DF000002909D0D8225200A2581018824200D3BC
:103E0000CCE1814200D2C9E101F028F9002800D1BB
:103E1000C4E10700006800900020C043874200D141
:103E2000BCE1D8204000205800994018D821490012
:103E3000605061184968814200D20100D8204000DA
:103E400020184160A069002838D12069002801D0DD
:103E5000874200D22761D8204000201807610098CF
:103E6000D8214900611848610020D8214900611813
:103E7000C8616648006860620020C043206200207C
:103E800021002831C9600A0008321160D2609260B6
:103E9000801C10312028F5D3C248844203D1009AF7
:103EA000283A390028E0201F00680721884321189C
:103EB000083900983818421A283A1DE0E0204000DE
:103EC000201800E0806800281AD00168426889182C
:103ED0008F42F7D1017B090712D4A1690268914290
:103EE0000ED34368D21891420AD200995918416002
:103EF000E06800994218A1692000FFF782FD3AE1CD
:103F00002069874200D22761E020400020180099F4
:103F1000791800E08068002810D002688A42F9D140
:103F2000017B09070AD407604168009BC9184160FA
:103F3000069B39002000FFF789FD30E1A06902905F
:103F4000054629002000FFF739FD01684068081880
:103F5000059001462F3908000830400701D10020A4
:103F600005E0082208000830101A4007400F091821
:103F700028001030814201D2019500E001910198A2
:103F800008300490019E18360020039000992839CB
:103F900038000830400701D1002205E0082238002F
:103FA0000830101A4207520FB818891AA061E16050
:103FB00001220A43426028224018426013480069E7
:103FC000E0610498400701D001F03EF81B20019900
:103FD00048600498E02149006118102201F068F857
:103FE000D8204000201807610098D82149006118A6
:103FF00048610020D82149006118C8610498D8217F
:10400000490061188861059803E000BF741500201D
:104010000E00311D07227260039A521C03920A1D82
:104020008242F5D30398022801DA01F00DF80198D5
:10403000A84200D19FE0401B29184A6801239A43F7
:104040004A60012202436A600860C108202921D227
:104050000091C900661828363700102801D200F0F8
:10406000F3FF206800990200CA40D10705D401215E
:10407000009A91400143216007E0B06821698842BD
:1040800001D3070001E000F0DFFFB560FD60AF6025
:10409000EE6070E0010A01D1002226E01A0491428C
:1040A00001D31F2221E0FF22D2438A18120C0823D9
:1040B0001A40009291403C4A8A18120C04231A407C
:1040C00091403A4BCB181B0C022633400E26009F22
:1040D000F61BB21AD21A9940C90B51184A00C91DD1
:1040E0000300CB40D907C90F5218910061189823DB
:1040F0005B00C918EA6100236B612B6163681E00D5
:10410000D640F60705D401209040184360600D604A
:104110001CE009681F2A01D1002302E0192352087C
:104120009B1A02009A4000E019004B680726B3432F
:10413000834210D0D30F9B00CE1810365200336844
:10414000002BF1D12069864213D33560A961ED605F
:104150000298A8600FE088682269914209D39042D2
:1041600007D3C560029A8A60A860E9600020A86150
:1041700001E000F069FFE068069981420ED2411A21
:10418000E160A069069A8218A26101230B43536083
:10419000069903220A434260083000E0002007B07D
:1041A000F0BD0000540D002000F0FFFF00C0FFFF35
:1041B000F2B584B007000020009004984442000A41
:1041C00025D080214902884201D31F201FE0FF2112
:1041D000C9434118090C082211408840B64A821888
:1041E000120C04231A4090400E4BC3181B0C0225DE
:1041F0002B400E25691A891AC91A9840C00B081855
:104200004100049AC01DC240D007C00F08188100A9
:104210007918982252008A58002A29D01F2803D1E1
:10422000002304E000C0FFFF19214308CB1A0499C2
:104230009940002300E0490055680726B543049ED5
:10424000AD1BA54202D200922C000CD05569CE0FB6
:10425000B60092191269002D02D0954200D02B00B1
:10426000002AE8D11A00002A3FD1009900293ED146
:104270000121012282405000434203437A681A40E0
:1042800000D17FE150421040401E020B10231A4023
:10429000D040430908252B400293D84083080425C9
:1042A0002B40D8404508022635400195E840450896
:1042B0002940029D5219D218019BD2185218C840A9
:1042C0001018800038189821490042580DE002006B
:1042D0005068072188430499401AA04201D2040083
:1042E000009210690028F2D15269002AF0D100989A
:1042F000002800D146E1B8680499401A844200D3EE
:1043000040E1009E3869864200D239E1701803907E
:1043100005460498201802900098406807218843B9
:104320000299884201D000F08FFEAE4200D327E10F
:104330000098806901900098C66886420ED0009867
:1043400080683969884226D3C168009A914222D197
:10435000B16891421FD1C660B0601EE0009914316F
:104360000E68002E07D1009910310E68002E14D06F
:1043700001E001000E68300014300268002AF8D114
:10438000300010300268002AF3D13869814202D32C
:104390000020086001E000F057FE0198002843D09B
:1043A0000098C06980003818982149004018009989
:1043B000026891420AD10660002E16D17868012168
:1043C000009AD2699140884378602DE0019839695C
:1043D000884208D3006900998842019801D106619A
:1043E00003E0466101E000F02FFE002E1CD038698A
:1043F000864217D30198B06100980069002807D061
:104400003969884202D33061866101E000F01CFE08
:1044100000984069002807D03969884202D370614A
:10442000866101E000F010FE03200121102C0AD269
:10443000029A1043009A50600098029A80184268CD
:104440001143416099E0049A1043009A50600120A2
:10445000204368602C51E008202819D2C200BC1803
:10446000283426003A681300C3400B4003D1814032
:104470001143396007E0A0683969884201D306001A
:1044800001E000F0E1FDA560F560AE60EC6074E075
:10449000200A01D100222BE00A04904201D31F22FE
:1044A00026E0FF22D2438218120C08231A40019200
:1044B0009040014A02E000BF00F0FFFF8218120C9A
:1044C00004231A409040314BC3181B0C0226334082
:1044D00002930E23019E9B1B9A1A029BD21A9840AC
:1044E000C00B10184200C01D2300C3400B40D2185F
:1044F0009000381898235B00C018EA6100236B61B4
:104500002B617B681E00D6400E4004D191401943B8
:10451000796005601CE000681F2A01D1002202E0DA
:10452000192152088A1A2100914000E010004268C7
:1045300007239A43A24210D0CA0F92008318103367
:1045400049001A68002AF1D139698B4213D31D60E2
:10455000A861ED600398A8600FE081683A69904215
:1045600009D3914207D3CD60039A8260A960E860C5
:104570000020A86101E000F067FD0098083002E02B
:1045800000F062FD002005B0F0BD000000C0FFFF9C
:10459000F2B586B00400616848420840401E010B35
:1045A00010221140C840420908231A40D040830815
:1045B00004252B40D840450802263540E8408607B0
:1045C000F60F8918C91849198919F0400818800090
:1045D000201898214900405805004168072291435E
:1045E000069A8F1A09E00800416807229143069A4B
:1045F000891AB94201D20F00050001690029F2D1E0
:1046000040690028F0D12069854200D2D2E0A81884
:10461000039006983818019068680721884301992B
:10462000884201D000F010FD0398854200D3C1E01C
:10463000A8690090EE68AE420CD0A8682169884253
:1046400025D3C168A94222D1B168A9421FD1C66051
:10465000B0601EE0290014310E68002E07D1290039
:1046600010310E68002E14D001E001000E683000F9
:1046700014300268002AF8D1300010300268002A95
:10468000F3D12069814202D30020086001E000F0EC
:10469000DBFC009800283DD0E869800020189821B4
:1046A0004900401801688D4209D10660002E14D1DE
:1046B00060680121EA699140884360602AE00098BF
:1046C0002169884207D30069A842009801D1066198
:1046D00003E0466101E000F0B7FC002E1AD020692B
:1046E000864215D30098B0612869002807D0216957
:1046F000884202D33061866101E000F0A5FC686960
:10470000002807D02169884202D37061866101E0E8
:1047100000F09AFC0320102F09D201990843686029
:1047200001982818416801220A4342603FE0069937
:104730000843686001203843039948600398C751D3
:10474000A0680090C608202E01D300F07DFC0098E0
:10475000002829D0606902900196F00026182836BA
:1047600004960098102801D200F06EFC2068019990
:104770000200CA40D10705D40121019A91400143AA
:10478000216007E0B0682169884201D3049001E00C
:1047900000F05AFC0298B06002980499C86004982E
:1047A000029988600298C660A76003986061083526
:1047B000280002E000F048FC002007B0F0BDF0B592
:1047C00087B00400C046C046BB4DF52C00D328E19D
:1047D0000B2C01D2102402E00B3407208443E008A4
:1047E000019028680199C8400327384250D001261B
:1047F0000122824388180190C0002C182834A06838
:1048000000900198C00003900098406807218843F9
:104810000399884201D000F017FC0098806802904C
:104820000098A04201D100F00FFC00980299884244
:1048300001D100F009FC00984068072188430399E2
:10484000884201D000F000FC0298844206D1296819
:10485000019A01209040814329600DE02969884236
:1048600008D3C0680099884204D10298A0600298D9
:10487000C46001E000F0E8FB03980743009847603C
:1048800000980399401841680E434660009E06E177
:10489000A968A14200D3D7E0002800D1B7E00126E3
:1048A000019901228A405100019A90404A420A43EC
:1048B000024051421140491E080B10221040C140D5
:1048C0004A0908231A400092D1408A0804231A405A
:1048D0000192D1404A0802231A400292D1404A086C
:1048E0003240009BC018019BC018029BC018801862
:1048F000D14040180390C0002818283000908068EC
:1049000004900398C00002900498406807218843EF
:104910000299884201D000F097FB049880680190CA
:1049200004980099884201D100F08EFB0498019907
:10493000884201D100F088FB049840680721884331
:104940000299884201D000F07FFB009801998842CB
:1049500006D12968039A012090408143296010E024
:104960000846296988420AD3C0680499884206D15A
:1049700001980099886000980199C86001E000F0F2
:1049800063FB0298001B0390274304984760049838
:1049900000190590039830430599486003980599DC
:1049A0000850A8680190C408202C01D300F04CFBEB
:1049B0000198002825D0686902900094E0002C1826
:1049C000283427000198102801D200F03DFB286808
:1049D00000990200CA40324003D18E4006432E6047
:1049E00007E0A0682969884201D3070001E000F0D0
:1049F0002BFB0298A0600298F860029887600298EA
:104A0000C4600398A86005986861049E47E06868E0
:104A1000002836D021002800FFF7BAFD060013D089
:104A200044E03F20C043844202D30024E4430BE02F
:104A30000B34072084436868002805D02100280033
:104A4000FFF7B6FB060031D1A968A14219D30A1BB2
:104A5000686901260327102A08D301196961AA6031
:104A600016434E608A502743476008E00022AA6040
:104A70006A610F43476041184A6816434E6006005A
:104A80000DE0E86884420CD2001BE860AE69311981
:104A9000A961012202434A60032020437060083666
:104AA00004E021002800FFF78BF90600C046C0464D
:104AB000300007B0F0BD0000540D0020002800D1E8
:104AC0007047F0B585B008380500C046C046474C71
:104AD00021698D4200D2ADE26868032203230340BE
:104AE000012B00D1A6E2C308DB000293EB18009370
:104AF0000126304240D12B68104000D19CE2029840
:104B0000C0180290ED1A8D4200D293E2606985428E
:104B100000D1F0E0D808202800D37CE0A9680191FA
:104B2000EF680390BD4201D100F08EFA01988542F2
:104B300001D100F089FA6868072188430399C90008
:104B4000884201D000F080FA0398C0002118019A31
:104B500008002830824206D010462269904257D37E
:104B6000C068A84254D10198874243D12168039A72
:104B700001209040814321600098854200D359E292
:104B80004068304200D155E2810700D5A6E1009986
:104B9000A269914200D0C0E0E06802994118E1604A
:104BA000A5610E436E606069854202D1002060619C
:104BB000A060E069884200D33EE20D48006800280A
:104BC00001D1FEF709FFA169002900D134E2E068B4
:104BD000292802D32000FEF7F1FEE069E16888424F
:104BE00000D329E20020C043E06125E2540D0020FB
:104BF0007415002028318F4205D02069874207D3E1
:104C0000B868A84204D10198C7600198B860B3E7BA
:104C100000F01AFAB0E7A8690190EF68AF420BD034
:104C2000A868884224D3C168A94221D1B968A942A1
:104C30001ED1C760B8601DE02A0014321768002F2B
:104C400007D12A0010321768002F13D001E00200AC
:104C50001768380014300368002BF8D13800103082
:104C60000368002BF3D18A4202D30020106001E0D8
:104C700000F0EAF90198002800D17DE7E86980009A
:104C8000201898214900401801688D4209D1076019
:104C9000002F14D16168EA6901209040814361606E
:104CA0006AE701982169884207D30069A842019800
:104CB00001D1076103E0476101E000F0C5F9002F71
:104CC00000D159E720698742A2D30199B9612969C6
:104CD000002906D0814202D339618F6101E000F0E2
:104CE000B3F96869002800D146E7216988428FD36B
:104CF0007861876140E7009840680240032A00D04D
:104D00003AE70298A06000984068B0430099486074
:104D1000029806436E60029809E06269914208D1E8
:104D2000A06802994018A060656106436E60285033
:104D300082E107218843029909180291C0082028BE
:104D400046D20099896803910099CF680190009834
:104D5000B84201D100F078F900980399884201D156
:104D600000F072F900984068072188430199C90052
:104D7000884201D000F068F90198C0002118039A18
:104D800008002830824209D010462269904200D2A1
:104D900097E0C068009A904200D092E00398874262
:104DA00006D12168019A01209040814321608AE068
:104DB00028318F4207D02069874200D281E0B8684D
:104DC000009988427DD10398C7600398B8607AE063
:104DD0000098806901900098C76887420ED00098BB
:104DE00080682169884226D3C168009A914222D105
:104DF000B96891421FD1C760B8601EE000991431B4
:104E00000F68002F07D1009910310F68002F14D0C0
:104E100001E001000F68380014300268002AF8D160
:104E2000380010300268002AF3D12069814202D391
:104E30000020086001E000F007F90198002842D046
:104E40000098C069800020189821490040180099F6
:104E5000026891420AD10760002F16D1616800985C
:104E6000C26901209040814361602CE00198216972
:104E7000884208D3006900998842019801D10761EE
:104E800003E0476101E000F0DFF8002F1BD020694C
:104E9000874216D30199B96100990969002906D0A2
:104EA000814202D339618F6101E000F0CDF80098B2
:104EB0004069002807D02169884202D37861876160
:104EC00001E000F0C1F80298304368600298285071
:104ED000606985420AD10298A060ADE0B0430099B4
:104EE0004860029830436860029828500298C008D1
:104EF000202822D20090C000271828370197029856
:104F0000102801D200F0A0F8206800990200CA40E1
:104F1000324003D18E400643266007E0B86821691D
:104F2000884201D3019001E000F08EF8BD60019845
:104F3000C5600198A860EF607EE00298000A01D188
:104F4000002225E03104884201D31F2220E0FF2106
:104F5000C9434118090C0822114000918840384982
:104F60004118090C042211408840364A8218120C5C
:104F700002231A400E23009FDB1B591A891A904006
:104F8000C00B08184100029AC01DC24032408A1866
:104F900090002018982149004118EA6100206861BA
:104FA000286163681F00D740374004D196401E43F4
:104FB00066600D601DE009681F2A01D1002302E030
:104FC000192352089B1A029A9A4000E019004B6874
:104FD0000726B343029EB3420FD0D30F9B00CE18D7
:104FE000103652003368002BF0D12069864210D36E
:104FF0003560A961ED60AD600DE08A682369994272
:1050000007D39A4205D3D5608D60AA60E960A86194
:1050100001E000F019F8206A401E20620CD1E42063
:105020004000205800E080680028FCD10020C043E8
:10503000206201E000F008F8C046C04605B0F0BDAF
:1050400000F0FFFF00C0FFFF80B5012000F04AF82C
:1050500001BD0268531C036011707047074908685E
:10506000002801D0002070470548072290430860BF
:1050700004499143091A0160704700BF941600204B
:10508000B7280020B02C0020124207D08B0706D092
:105090000B78491C0370401C521EF7D870478307D9
:1050A00006D00B78491C0370401C521EF9D1704782
:1050B00070B4103A03D378C9103A78C0FBD25307C2
:1050C00001D318C918C001D508C908C0D20704D334
:1050D0000B880380891C801C002A01D50B78037083
:1050E00070BC70472021090326311820ABBEF9E7B8
:1050F000F1B5A4B00E0014001D004A487844FF30FA
:10510000253003C822AA03C2049600200D9001E0B6
:105110000198241800206946488022AB0022D2431F
:10512000210000A8801C01F048F90190012805DA4F
:105130002078411E8941C943C90F019168464088C2
:105140002528019E00D1761E012E0EDB270039781E
:105150000498249A90470490002800D1F3E20D9817
:10516000401C0D907F1C761EF1D168464088252892
:1051700007D100200790089009900A900B900C909E
:1051800008E0684640880028C2D10D98DDE20100A1
:1051900001200843641C21782029F8D023290ED04F
:1051A0002B2904D02D2907D030290BD00DE0010088
:1051B0000220084380B2EDE701000420F9E7010076
:1051C0000820F6E701001020F3E72A290FD129680B
:1051D00029600A68091D29600F92002A05D55142ED
:1051E0000F9101000420084380B2641C12E00021EA
:1051F0000F910AE00F9A7B4B9A4205D093009A18C0
:105200005200511830390F91641C21780A00303A4D
:105210000A2AEFD321782E2906D00021C9430E9106
:1052200021E000BF4C630100641C21782A2907D1CA
:10523000296829600A68091D29600E92641C12E021
:1052400000210E910AE00E9A664B9A4205D0930017
:105250009A185200511830390E91641C21780A00B6
:10526000303A0A2AEFD302A9088726783100044889
:1052700078440C3001F0AFF8002803D0641C02E041
:10528000F8620100002602A83A30067002A83A30FF
:105290000078682804D12178682901D1622005E0CE
:1052A0006C2807D120786C2804D1712002A93A31EA
:1052B0000870641C12A806902678641C30002538FB
:1052C0002AD01C3800D1D6E0001F022800D8D2E036
:1052D000133800D1F5E0093800D1CCE0801E00D1B0
:1052E0005EE1401E00D136E1401E022800D8C2E037
:1052F000001F00D12FE1401F00D18DE0401E00D1E2
:10530000DFE0401E2FD0C01E0BD0801E00D1D8E0A1
:10531000C01E00D1D5E066E1252012A90870012049
:105320006BE102A83A3000786C282868286016D013
:105330000668001D286005960E9F002F03D53000DB
:1053400001F053F809E03A000021300001F055F86F
:10535000002801D0801B00E0380008904EE1026870
:10536000001D286038E1286828600268001D286058
:105370000020C0430021104002AA03C212A80590D9
:10538000069B3C2602A803C8002904D1002802D1AC
:105390000E9A002A14D0761E01960207120F3032A0
:1053A000D2B23A2A00DB27329A5500090A07104385
:1053B000090901D1002803D0059A9F19BA42EAD3FE
:1053C0003C20801B0890991905910E9988420DDAAE
:1053D000081A0A9002A8008F0349014002A8018719
:1053E0000CE100BFFFFFFF7FEFFF0000002900D4AA
:1053F00004E102A93831097814220A40102A00D0A9
:10540000FCE00F99079A891A0A9A891A0E1A012E36
:1054100000DAF3E00A96F1E002A83A300078622858
:1054200019D0682806D06A280CD06C281BD07128A7
:1054300008D018E0286828600168001D28600D98D1
:105440000880DBE0286828600268001D28600D984D
:10545000C11703C2D2E0286828600168001D2860D7
:105460000D980870CAE0286828600168001D28604F
:105470000D980860C2E02A68D21D072082432A6086
:1054800003CA2A6002AA03C2002902D507982D2167
:105490000AE002A8008F810702D507982B2103E0BC
:1054A000C00705D50798202112AA1154401C079067
:1054B00012A8079940180590310002A800F0B0FB2F
:1054C0009CE002A83A3000786C280BD0712801D0FB
:1054D0006A2807D12A68D21D072082432A6003CA9E
:1054E0002A6005E0296829600868091D29600021F3
:1054F00002AA03C202A83A300078682803D102A8A1
:1055000003C880B20BE0622803D102A803C8C0B26E
:1055100005E0742801D07A2804D102A803C800212C
:1055200002AA03C202A83830007800072FD502A8CB
:1055300003C8002901D1002829D020203043782831
:1055400025D10798302112AA1154401C411C079103
:1055500012A90E541BE0290002A83A30007800F08E
:10556000F6F802AA03C202A8002902DA07982D2140
:1055700009E0008F810702D507982B2103E0C007BF
:1055800005D50798202112AA1154401C079012A893
:10559000079940180590310002A800F0A7FA2DE005
:1055A00002A83A3000786C2809D0012007902868BA
:1055B00028600168001D286012A801701EE028689C
:1055C00028600168001D286068468180002001A9CC
:1055D0004880C0430E9001AA02A9249800F0ECF87C
:1055E00000280BD5AFE0252012A9087001200790F4
:1055F000002E03D012A84670022007900F9807993A
:10560000401A0A99401A0899401A0B99401A0999A8
:10561000401A0C99401A019002A8383000784007CF
:1056200011D4202069460870002609E001236A464B
:1056300002A9249800F0A9FE002800D083E0761C7F
:1056400001988642F2DB079F12AE0BE03178049896
:10565000249A90470490002875D00D98401C0D9016
:10566000761C7F1E002FF1D13020694608700A9FFA
:10567000002608E001236A4602A9249800F085FE6E
:10568000002860D1761CBE42F4DB089F059E0BE02B
:1056900031780498249A90470490002853D00D98AC
:1056A000401C0D90761C7F1E002FF1D130206946E2
:1056B00008700B9F002608E001236A4602A924987F
:1056C00000F063FE00283ED1761CBE42F4DB099F49
:1056D0000598089946180BE031780498249A904769
:1056E000049000282FD00D98401C0D90761C7F1E32
:1056F000002FF1D13020694608700C9F002608E089
:1057000001236A4602A9249800F03FFE00281AD11E
:10571000761CBE42F4DB02A838300078400700D483
:10572000F8E4202069460870002600E0761C019805
:10573000864200DBEEE401236A4602A9249800F0C9
:1057400024FE0028F2D00020C04325B0F0BD0A009E
:10575000622822D0682819D06A2808D06C2823D063
:10576000712804D074281FD07A2808D01CE0136850
:10577000DB1D07208343136003CB13607047116860
:1057800011600868091D11600021704711681160DF
:105790000868091D116000B20BE01168116008680B
:1057A000091D116040B204E0116811600868091D0C
:1057B0001160C11770470000F4B598B007000C00E5
:1057C000206B002800D50E48029000F022FE616B8D
:1057D0000818049009487844223003C806AA03C276
:1057E0003820205C400702D4049841280AD208A837
:1057F000039040200490002613E000BF845D010068
:10580000FFFFFF7FFEF7DBFF03900028F3D10020AE
:10581000C04369E11898801C189002980099401ABA
:1058200002900298012800DAD1E006AA18980188AF
:1058300001A8401C00F0F2FD0090002800D5DAE03D
:1058400018980088002804D10098401E009000D5C8
:10585000D1E002980099884200DAB8E060690499C2
:10586000009A8218914200D3A0E066634142206A08
:10587000081AA169401A616A401AE169401AA16ACE
:10588000401A05903820205C400711D4202069463A
:105890000871002509E0012301AA2100380000F069
:1058A00074FD002800D0A6E06D1C05988542F2DB4F
:1058B0006669039D0BE02978A068B847A0600028BE
:1058C00000D198E0E06A401CE0626D1C761E002E5C
:1058D000F1D1302069460871266A002509E00123CC
:1058E00001AA2100380000F050FD002800D082E01D
:1058F0006D1CB542F3DBA669E5680AE02978A0686B
:10590000B847A060002876D0E06A401CE0626D1CB9
:10591000761E002EF2D1302069460871666A002595
:1059200008E0012301AA2100380000F02EFD002824
:1059300061D16D1CB542F4DBE669E068A1694518E8
:105940000AE02978A068B847A060002853D0E06A30
:10595000401CE0626D1C761E002EF2D1302069469C
:105960000871A66A002508E0012301AA2100380079
:1059700000F00BFD00283ED16D1CB542F4DB382051
:10598000205C400710D5202069460871002508E0FA
:10599000012301AA2100380000F0F7FC00282AD1D9
:1059A0006D1C05988542F3DB00266661009A01A90B
:1059B000491C03986369C018FFF766FB606900998A
:1059C0004018606118980088002800D022E7606BBA
:1059D0006169401A216A401AA169401A616A401A35
:1059E000E169401AA16A401A02903820205C400701
:1059F00011D400250CE00026F6436EE02021A068BB
:105A0000B847A0600028F6D0E06A401CE0626D1C38
:105A100002988542F2DB6369039A2100380000F0A6
:105A2000B4FC0028E7D1206A0090002509E030216D
:105A3000A068B847A0600028DDD0E06A401CE062A2
:105A40006D1C00988542F2DBA369E26821003800F2
:105A500000F09BFC0028CED1606A0090002509E090
:105A60003021A068B847A0600028C4D0E06A401C7C
:105A7000E0626D1C00988542F2DBE369E068A16991
:105A800042182100380000F080FC0028B3D1A06A41
:105A90000090002509E03021A068B847A0600028E8
:105AA000A9D0E06A401CE0626D1C00988542F2DBE0
:105AB0003820205C40070ED5002509E02021A06891
:105AC000B847A060002896D0E06A401CE0626D1CD8
:105AD00002988542F2DB66616663039808A98842F2
