:020000040800F2
:10000000881C0020C5840008D9830008DB83000811
:1000100000000000000000000000000000000000E0
:10002000000000000000000000000000DD83000868
:10003000DF83000800000000E1830008E38300087C
:1000400037450008DF5700086B5C0008F35C0008C8
:1000500013810008F98300080F8400080384000856
:10006000A3840008AF840008E1840008E38400084A
:10007000E5840008E784000800000000E984000827
:1000800000000000EB8400080000000000000000F9
:10009000ED84000800000000EF840008F1840008EF
:1000A000F3840008F5840008F7840008F984000848
:1000B000FB840008FD840008FF840008EB8300082F
:1000C000FFFFFFFFFFFFFFFFFFFFFFFFFFFFFFFF40
:1000D000FFFFFFFFFFFFFFFFFFFFFFFFFFFFFFFF30
:1000E000FFFFFFFFFFFFFFFFFFFFFFFFFFFFFFFF20
:1000F000FFFFFFFFFFFFFFFFFFFFFFFFFFCC00033E
:10010000FFCC0003FFFFFFFFFFFFFFFFFFFFFFFF2D
:10011000FFFFFFFFFFFFFFFFFFFFFFFFFFFFFFFFEF
:10012000FFFFFFFFFFFFFF0FFFFFC00FFFFFFF0FEE
:10013000FFFFFFFFFFFFFF0FFFFFC00FFFFFFF0FDE
:10014000FFFFFFFFFFFFFFFFFFFFFFFFFFFF33FF8B
:10015000FF0003FFFF000003FFFF3003FF0003FF6A
:10016000FF000003FFFF3003FFFF33FFFFFFFFFF30
:10017000FFFFFFFFFFFFFFFFFFC0FC0FFFC0F0030B
:10018000FFCFC0F3FC0FC3F0FFCF03F3FFC00F039B
:10019000FFF03F03FFFFFFFFFFFFFFFFFFFFFFFF3A
:1001A000FFFFFFFFFFFF3F0FFFFF0CF3FFFFCCF34D
:1001B000FFFFC30FFFF0C3FFFFCF33FFFFCF30FFC1
:1001C000FFF0FCFFFFFFFFFFFFFFFFFFFFFFFFFF51
:1001D000FFF0FFFFFFC0303FFFCF000FFFCC0FCF7E
:1001E000FFF0FFCFFFC03FCFFFCF3FCFFFFFFFFFAD
:1001F000FFFFFFFFFFFFFFFFFFFFFFFFFFFFFFFF0F
:10020000FFFFFFFFFFFFFFFFFFFFFF0FFFFFC00F1D
:10021000FFFFFF0FFFFFFFFFFFFFFFFFFFFFFFFFDE
:10022000FFFFFFFFFFFFFFFFFFFFFFFFFFFFFFFFDE
:10023000FFF000FFFFC0003FFC03FC03FC3FFFC3D7
:10024000FFFFFFFFFFFFFFFFFFFFFFFFFFFFFFFFBE
:10025000FFFFFFFFFFFFFFFFFC3FFFC3FC03FC03AB
:10026000FFC0003FFFF000FFFFFFFFFFFFFFFFFFAA
:10027000FFFFFFFFFFFFFFFFFFFFFFFFFFFFFFFF8E
:10028000FFFFFC3FFFFF0C3FFFFF003FFFFFF003BE
:10029000FFFFF003FFFF003FFFFF0C3FFFFFFC3FAE
:1002A000FFFFFFFFFFFFFFFFFFFFFFFFFFFFCFFF8E
:1002B000FFFFCFFFFFFFCFFFFFF0003FFFFFCFFFAC
:1002C000FFFFCFFFFFFFCFFFFFFFFFFFFFFFFFFF9E
:1002D000FFFFFFFFFFFFFFFFFFFFFFFFFFFFFFFF2E
:1002E000F03FFFFFFF03FFFFFFF3FFFFFFFFFFFFF5
:1002F000FFFFFFFFFFFFFFFFFFFFFFFFFFFFFFFF0E
:10030000FFFFFFFFFFFFCFFFFFFFCFFFFFFFCFFF8D
:10031000FFFFCFFFFFFFCFFFFFFFCFFFFFFFCFFFAD
:10032000FFFFFFFFFFFFFFFFFFFFFFFFFFFFFFFFDD
:10033000FFFFFFFFFFFFFFFFFFC3FFFFFFC3FFFF45
:10034000FFFFFFFFFFFFFFFFFFFFFFFFFFFFFFFFBD
:10035000FFFFFFFFFFFFFFFFFFFFFFFFFC3FFFFF70
:10036000FC03FFFFFFC03FFFFFFC0FFFFFFFC0FFCD
:10037000FFFFF00FFFFFFF00FFFFFFF0FFFFFFFF9A
:10038000FFFFFFFFFFFFFFFFFFFC003FFFF0000F3D
:10039000FFC3FFC3FFCFFFF3FFC3FFC3FFF0000F97
:1003A000FFFC003FFFFFFFFFFFFFFFFFFFFFFFFF1F
:1003B000FFFFFFFFFFCFFFCFFFCFFFCFFFCFFFCF6D
:1003C000FFC00003FFC00003FFCFFFFFFFCFFFFF11
:1003D000FFCFFFFFFFFFFFFFFFFFFFFFFFFFFFFF5D
:1003E000FFC3FC3FFFC0FC0FFFCC3FC3FFCF0FF3A9
:1003F000FFCFC3F3FFCFF003FFCFFC0FFFFFFFFFE3
:10040000FFFFFFFFFFFFFFFFFFF3FFCFFFC3FFC3B0
:10041000FFCFF3F3FFCFF3F3FFCFF3F3FFCFC0F33F
:10042000FFC00003FFF00F0FFFFFFFFFFFFFFFFF05
:10043000FFFFFFFFFFFFFFFFFFFC3FFFFFFC03FF8E
:10044000FFCCF03FFFCCFF03FFC00003FFC0000361
:10045000FFCCFFFFFFFFFFFFFFFFFFFFFFFFFFFFDF
:10046000FFFFFFFFFFF3FFFFFFCFC003FFCFF0034E
:10047000FFCFF3F3FFCFF3F3FFC003F3FFF00FF36E
:10048000FFFFFFFFFFFFFFFFFFFFFFFFFFFFFFFF7C
:10049000FFFC00FFFFF0003FFFC3CF0FFFCFF3C310
:1004A000FFCFF3F3FFC003F3FFF00FF3FFFFFFFFF6
:1004B000FFFFFFFFFFFFFFFFFFFFFFFFFFFFFFC388
:1004C000FFFFFFF3FFFFFFF3FFC0FFF3FFC000F3E9
:1004D000FFFF0003FFFFFF03FFFFFFFFFFFFFFFF23
:1004E000FFFFFFFFFFFFFFFFFFF00C0FFFC0000348
:1004F000FFCFF3F3FFCFF3F3FFCFF3F3FFC000031E
:10050000FFF00C0FFFFFFFFFFFFFFFFFFFFFFFFFED
:10051000FFFFFFFFFFCFF00FFFCFC003FFCFCFF3F1
:10052000FFC3CFF3FFF0F3C3FFF0000FFFFF003F67
:10053000FFFFFFFFFFFFFFFFFFFFFFFFFFFFFFFFCB
:10054000FFFFFFFFFFFFFFFFFFC3F0FFFFC3F0FF51
:10055000FFFFFFFFFFFFFFFFFFFFFFFFFFFFFFFFAB
:10056000FFFFFFFFFFFFFFFFFFFFFFFFFFFFFFFF9B
:10057000FFFFFFFFFC3FFFFFFFC3FFFFFFF3F0FFA5
:10058000FFFFF0FFFFFFFFFFFFFFFFFFFFFFFFFF8A
:10059000FFFFFFFFFFFFCFFFFFFFCFFFFFFF33FF97
:1005A000FFFF33FFFFFCFCFFFFF3FF3FFFF3FF3FC5
:1005B000FFCFFFCFFFCFFFCFFFFFFFFFFFFFFFFF0B
:1005C000FFFFFFFFFFFF33FFFFFF33FFFFFF33FF9F
:1005D000FFFF33FFFFFF33FFFFFF33FFFFFF33FF5B
:1005E000FFFFFFFFFFFFFFFFFFFFFFFFFFCFFFCF7B
:1005F000FFCFFFCFFFF3FF3FFFF3FF3FFFFCFCFF09
:10060000FFFF33FFFFFF33FFFFFFCFFFFFFFCFFFF2
:10061000FFFFFFFFFFFFFFFFFFFFFFFFFFFFFC3FAD
:10062000FFFFFC0FFFCC3FCFFFCC0FCFFFFFCFCFA3
:10063000FFFFC00FFFFFF03FFFFFFFFFFFFFFFFFC8
:10064000FFFFFFFFFFFFFFFFFFF0003FFFCFFFCFE8
:10065000FF3F0FF3FF3CF3F3FF3CF3F3FFCC000F3E
:10066000FFFFFFFFFFFFFFFFFFFFFFFFFFFFFFFF9A
:10067000FFCFFFFFFFC0FFCFFFC003CFFFCF000FB3
:10068000FFFF3F0FFFFF3F0FFFCF000FFFC003FF34
:10069000FFC0FFFFFFCFFFFFFFFFFFFFFFCFFFCF39
:1006A000FFC0000FFFC0000FFFCFCFCFFFCFCFCFD6
:1006B000FFCFCFCFFFC0000FFFF0303FFFFFFFFFA6
:1006C000FFFFFFFFFFFFFFFFFFFC00FFFFF0003F0A
:1006D000FFC3FF0FFFCFFFCFFFCFFFCFFFCFFFCF76
:1006E000FFCFFFCFFFF3FF3FFFFCFC0FFFFFFFFF3C
:1006F000FFFFFFFFFFCFFFCFFFC0000FFFC0000FC6
:10070000FFCFFFCFFFCFFFCFFFCFFFCFFFC3FF0F45
:10071000FFF0003FFFFC00FFFFFFFFFFFFFFFFFFB9
:10072000FFCFFFCFFFC0000FFFC0000FFFCFCFCF25
:10073000FFCFCFCFFFCF03CFFFCFFFCFFFC0FC0F47
:10074000FFFFFFFFFFFFFFFFFFFFFFFFFFCFFFCF19
:10075000FFC0000FFFC0000FFFCFCFCFFFCFCFCF25
:10076000FFFF03CFFFFFFFCFFFFFFC0FFFFFFFFFE8
:10077000FFFFFFFFFFFFFFFFFFFC00FFFFF0003F59
:10078000FFC3FF0FFFCFFFCFFFCF3FCFFFCF3FCF45
:10079000FFC03F3FFFC03C0FFFFF3FFFFFFFFFFFDA
:1007A000FFFFFFFFFFCFFFCFFFC0000FFFC0000F15
:1007B000FFCFCFCFFFFFCFFFFFCFCFCFFFC0000FC7
:1007C000FFC0000FFFCFFFCFFFFFFFFFFFFFFFFFC7
:1007D000FFFFFFFFFFCFFFCFFFCFFFCFFFCFFFCF49
:1007E000FFC0000FFFC0000FFFCFFFCFFFCFFFCF35
:1007F000FFCFFFCFFFFFFFFFFFFFFFFFFFF03FFF38
:10080000FFC03FFFFFCFFFCFFFCFFFCFFFCFFFCF17
:10081000FFC0000FFFF0000FFFFFFFCFFFFFFFCF74
:10082000FFFFFFFFFFFFFFFFFFCFFFCFFFC0000F66
:10083000FFC0000FFFCF0FCFFFFF03FFFFFC30CF44
:10084000FFC0FC0FFFC3FF0FFFCFFFCFFFFFFFFF76
:10085000FFFFFFFFFFCFFFCFFFCFFFCFFFC0000F96
:10086000FFC0000FFFCFFFCFFFCFFFCFFFCFFFFFB6
:10087000FFCFFFFFFFC03FFFFFFFFFFFFFCFFFCF17
:10088000FFC0000FFFC0000FFFCFF0FFFFCF03FF3F
:10089000FFFC3FFFFFCF03FFFFCFF0FFFFC0000FC4
:1008A000FFC0000FFFCFFFCFFFFFFFFFFFCFFFCF46
:1008B000FFC0000FFFC0000FFFCFF0FFFFFF03FFDF
:1008C000FFFC3FCFFFC0000FFFC0000FFFFFFFCFB7
:1008D000FFFFFFFFFFFFFFFFFFFC00FFFFF0003FF8
:1008E000FFC3FF0FFFCFFFCFFFCFFFCFFFCFFFCF64
:1008F000FFC3FF0FFFF0003FFFFC00FFFFFFFFFF04
:10090000FFFFFFFFFFCFFFCFFFC0000FFFC0000FB3
:10091000FFCF3FCFFFCF3FCFFFCF3FCFFFFF000F36
:10092000FFFFC03FFFFFFFFFFFFFFFFFFFFFFFFFD6
:10093000FFFC00FFFFF0003FFCC3FF0FFC0FFFCFE9
:10094000FC0FFFCFFCCFFFCFFCC3FF0FFC30003FFD
:10095000FF3C00FFFFFFFFFFFFFFFFFFFFCFFFCFC9
:10096000FFC0000FFFC0000FFFCFCFCFFFCFCFCF13
:10097000FFFF0FCFFFF0300FFFC0F03FFFCFFFFFB3
:10098000FFCFFFFFFFFFFFFFFFFFFFFFFFC0F03FB5
:10099000FFC0C00FFFCFC3CFFFCFCFCFFFCF0FCF51
:1009A000FFC00C0FFFF03C0FFFFFFFFFFFFFFFFF3B
:1009B000FFFFFFFFFFFFF00FFFCFFFCFFFCFFFCF06
:1009C000FFC0000FFFC0000FFFCFFFCFFFCFFFCF53
:1009D000FFFFF00FFFFFFFFFFFFFFFFFFFFFFFFF26
:1009E000FFFFFFCFFFF0000FFFF0000FFFCFFFCFA3
:1009F000FFCFFFFFFFCFFFCFFFF0000FFFF0000F93
:100A0000FFFFFFCFFFFFFFFFFFFFFFFFFFFFFFCF56
:100A1000FFFFFC0FFFFF000FFFC003CFFFC3FFFF6F
:100A2000FFC003CFFFFF000FFFFFFC0FFFFFFFCF53
:100A3000FFFFFFFFFFFFFFCFFFFFC00FFFC0000F53
:100A4000FFC0FFCFFFF003CFFFFFC0FFFFF003CFDA
:100A5000FFC0FFCFFFC0000FFFFFC00FFFFFFFCFA2
:100A6000FFFFFFFFFFCFFFCFFFC3FF0FFFC0FC0F54
:100A7000FFCC00CFFFFF03FFFFCC00CFFFC0FC0F78
:100A8000FFC3FF0FFFCFFFCFFFFFFFFFFFFFFFFF02
:100A9000FFFFFFCFFFFFFF0FFFCFFC0FFFCFF0CF18
:100AA000FFC003FFFFC003FFFFCFF0CFFFCFFC0F5E
:100AB000FFFFFF0FFFFFFFCFFFFFFFFFFFFFFFFF66
:100AC000FFC3FC0FFFC0FFCFFFCC3FCFFFCF03CF53
:100AD000FFCFF0CFFFCFFC0FFFC0FF0FFFFFFFFFE7
:100AE000FFFFFFFFFFFFFFFFFFFFFFFFFFFFFFFF16
:100AF000FFFFFFFFFFFFFFFFFC000003FC00000300
:100B0000FCFFFFF3FCFFFFF3FFFFFFFFFFFFFFFF13
:100B1000FFFFFFFFFFFFFFFFFFFFFFF0FFFFFF00F3
:100B2000FFFFF00FFFFFC0FFFFFC0FFFFFC03FFF05
:100B3000FC03FFFFFC3FFFFFFFFFFFFFFFFFFFFF87
:100B4000FFFFFFFFFFFFFFFFFCFFFFF3FCFFFFF3D3
:100B5000FC000003FC000003FFFFFFFFFFFFFFFF9F
:100B6000FFFFFFFFFFFFFFFFFFFFFFFFFFFFFFFF95
:100B7000FFFFF0FFFFFFFF3FFFFFFFC3FFFFFFFC93
:100B8000FFFFFFC3FFFFFF3FFFFFF0FFFFFFFFFF80
:100B9000FFFFFFFF3FFFFFFF3FFFFFFF3FFFFFFFA5
:100BA0003FFFFFFF3FFFFFFF3FFFFFFF3FFFFFFF55
:100BB0003FFFFFFF3FFFFFFF3FFFFFFF3FFFFFFF45
:100BC000FFFFFFFFFFFFFFFFFFFFFFFFFFFFFFFF35
:100BD000FFFFFFFCFFFFFFF3FFFFFFCFFFFFFFFF64
:100BE000FFFFFFFFFFFFFFFFFFFFFFFFFFFFFFFF15
:100BF000FFFFFFFFFFF0FFFFFFC03CFFFFCF3CFF09
:100C0000FFCF3CFFFFF33CFFFFC000FFFFC003FF2F
:100C1000FFCFFFFFFFFFFFFFFFFFFFFFFFCFFFF350
:100C2000FFC00003FFC00003FFF3F3FFFFCFFCFF93
:100C3000FFCFFCFFFFC3F0FFFFF003FFFFFC0FFF40
:100C4000FFFFFFFFFFFFFFFFFFFC0FFFFFF003FFB2
:100C5000FFC3F0FFFFCFFCFFFFCFFCFFFFCFFCFF88
:100C6000FFC3F3FFFFF0C0FFFFFFFFFFFFFFFFFF2A
:100C7000FFFFFFFFFFFC0FFFFFF003FFFFC3F0FFCD
:100C8000FFCFFCFFFFCFFCFFFFF3F3F3FFC0000338
:100C9000FFC00003FFCFFFFFFFFFFFFFFFFFFFFFCE
:100CA000FFFC0FFFFFF003FFFFC330FFFFCF3CFF50
:100CB000FFCF3CFFFFCF30FFFFC303FFFFF30FFF6A
:100CC000FFFFFFFFFFFFFFFFFFFFFFFFFFFFFFFF34
:100CD000FFCFFCFFFFCFFCFFFFC0000FFFC00003F2
:100CE000FFCFFCF3FFCFFCF3FFCFFCF3FFFFFFF3DD
:100CF000FFFFFFF3FFFFFFFFFFFC0FFFFFF003FF0E
:100D0000F3C3F0FFF3CFFCFFF3CFFCFFF3F3F3FFEC
:100D1000F00000FFFC0000FFFFFFFCFFFFFFFFFFF4
:100D2000FFFFFFFFFFCFFFF3FFC00003FFC0000383
:100D3000FFCFF3FFFFFFFCFFFFCFFCFFFFC000FF73
:100D4000FFC003FFFFCFFFFFFFFFFFFFFFFFFFFF1E
:100D5000FFFFFFFFFFCFFFFFFFCFFCFFFFCFFCFF39
:100D6000FFC000C3FFC000C3FFCFFFFFFFCFFFFFE7
:100D7000FFCFFFFFFFFFFFFFFFFFFFFFFFFFFFFFB3
:100D8000F3FFFCFFF3FFFCFFF3FFFCFFF3FFFCC3EB
:100D9000F00000C3FC0000FFFFFFFFFFFFFFFFFFAD
:100DA000FFFFFFFFFFFFFFFFFFCFFFF3FFC00003C9
:100DB000FFC00003FFFF0FFFFFCC00FFFFC0F0FFED
:100DC000FFC3FCFFFFCFFCFFFFCFFFFFFFFFFFFFD5
:100DD000FFFFFFFFFFCFFFFFFFCFFFF3FFCFFFF3CB
:100DE000FFC00003FFC00003FFCFFFFFFFCFFFFFE7
:100DF000FFCFFFFFFFFFFFFFFFFFFFFFFFFFFFFF33
:100E0000FFCFFCFFFFC000FFFFC000FFFFFFFCFFA4
:100E1000FFC000FFFFC000FFFFFFFCFFFFC000FF9F
:100E2000FFC003FFFFCFFFFFFFFFFFFFFFCFFCFF70
:100E3000FFC000FFFFC000FFFFCFF3FFFFFFFCFF7D
:100E4000FFCFFCFFFFC000FFFFC003FFFFCFFFFF8E
:100E5000FFFFFFFFFFFFFFFFFFFC0FFFFFF003FFA0
:100E6000FFC3F0FFFFCFFCFFFFCFFCFFFFCFFCFF76
:100E7000FFC3F0FFFFF003FFFFFC0FFFFFFFFFFFCB
:100E8000FFFFFFFFF3FFFCFFF00000FFF00000FF9B
:100E9000F3F3F3FFF3CFFCFFFFCFFCFFFFC3F0FF43
:100EA000FFF003FFFFFC0FFFFFFFFFFFFFFFFFFF50
:100EB000FFFC0FFFFFF003FFFFC3F0FFFFCFFCFFBE
:100EC000F3CFFCFFF3F3F3FFF00000FFF00000FFAF
:100ED000F3FFFCFFFFFFFFFFFFFFFFFFFFCFFCFF64
:100EE000FFCFFCFFFFC000FFFFC000FFFFCFF3FFFD
:100EF000FFCFFCFFFFCFFCFFFFFFF0FFFFFFF3FF83
:100F0000FFFFFFFFFFFFFFFFFFC3C3FFFFC300FFA4
:100F1000FFCF0CFFFFCF0CFFFFCC3CFFFFC030FF2B
:100F2000FFF0F0FFFFFFFFFFFFFFFFFFFFFFFFFFEF
:100F3000FFFFFFFFFFFFFCFFFFFFFCFFFFF00003D1
:100F4000FFC00003FFCFFCFFFFCFFCFFFFCFFCFF84
:100F5000FFF3FFFFFFFFFFFFFFFFFFFFFFFFFFFFAD
:100F6000FFFFFCFFFFF000FFFFC000FFFFCFFFFF10
:100F7000FFCFFFFFFFF3FCFFFFC000FFFFC000FF3C
:100F8000FFCFFFFFFFFFFFFFFFFFFFFFFFFFFCFFA4
:100F9000FFFFC0FFFFFC00FFFFC03CFFFFC3FFFFE0
:100FA000FFC03CFFFFFC00FFFFFFC0FFFFFFFCFF97
:100FB000FFFFFFFFFFFFFCFFFFFF00FFFFC000FF81
:100FC000FFC0FCFFFFF03FFFFFFF0FFFFFF03FFF01
:100FD000FFC0FCFFFFC000FFFFFF00FFFFFFFCFFA3
:100FE000FFFFFFFFFFCFFCFFFFCFFCFFFFC3F0FFC2
:100FF000FFC000FFFFFC0FFFFFC000FFFFC3F0FFBB
:10100000FFCFFCFFFFCFFCFFFFFFFFFFFFFFFFFF56
:10101000FFFFFCFFF3FFF0FFF3FF00FFF0F00CFF1A
:10102000F003FFFFF300FFFFFFF00CFFFFFF00FFE7
:10103000FFFFF0FFFFFFFCFFFFFFFFFFFFFFFFFFD2
:10104000FFC3F0FFFFC0FCFFFFCC3CFFFFCF3CFF26
:10105000FFCF0CFFFFCFC0FFFFC3F0FFFFFFFFFF7D
:10106000FFFFFFFFFFFFFFFFFFFFFFFFFFFFFFFF90
:10107000FFFF3FFFFF00000FFC00C003FCFFFFF37A
:10108000FFFFFFFFFFFFFFFFFFFFFFFFFFFFFFFF70
:10109000FFFFFFFFFFFFFFFFFFFFFFFFFFFFFFFF60
:1010A000FFFFFFFFFC000003FC000003FFFFFFFF4A
:1010B000FFFFFFFFFFFFFFFFFFFFFFFFFFFFFFFF40
:1010C000FFFFFFFFFFFFFFFFFFFFFFFFFCFFFFF33F
:1010D000FC00C003FF00000FFFFF3FFFFFFFFFFF0B
:1010E000FFFFFFFFFFFFFFFFFFFFFFFFFFFFFFFF10
:1010F000FFFFCFFFFFFFF3FFFFFFF3FFFFFFCFFF78
:10110000FFFF3FFFFFFF3FFFFFFFCFFFFFFFFFFF9F
:10111000FFFFFFFFFFFFFFFFFFFFFFFFFFFFFFFFDF
:10112000FFFFFFFFFFFFFFFFFFFFFFFFFFFFFFFFCF
:10113000FFFFFCF003FFFFFFFFFFFFFFFFFFFCF0DF
:1011400003FCF003FCF003FCF003FCF003FCF003F1
:10115000FCF003FFFFFFF0CCFFFF003FF0CCC3FF2C
:10116000003FF0CCC3FFFFFFFFFFFFFF0C3FFF334B
:10117000CFF033C3FFC3CFFFFFFFFFFFFFFFFFFF32
:10118000FFF3CFFFF333FF33CFFCCCFFFF3CFFFF78
:10119000FFFFFFFFFFFF0FFFFCF0FFFCCF3FFF3F14
:1011A0003FFCCFFFFFFFFFFFFFFFFFFFFFFFFFFF42
:1011B000FFFCF3FFFFFFFFFFFFFFFFFFFFFFFFFF4E
:1011C000FFFFFFFFFFFCFF3FC3FFC3FFFFFFFFFF6A
:1011D000FFFFFFFFFFFFFFC3FFC3FCFF3FFFFFFF5A
:1011E000FFFFFFFFFFFFFFFFFFFFFFCFFFF0CFFF7E
:1011F000FF03FFF0CFFFFFCFFFFFFFFFF3FFFFF382
:10120000FFFFF3FFFC000FFFF3FFFFF3FFFFF3FF10
:10121000FFFFFFFFFFFFC3FFFFF03FFFFF3FFFFFA9
:10122000FFFFFFFFFFFFFFFFFFF3FFFFF3FFFFF3F2
:10123000FFFFF3FFFFF3FFFFFFFFFFFFFFFFFFFFD6
:10124000FC3FFFFC3FFFFFFFFFFFFFFFFFFFFFFF34
:10125000FFFFF3FFFFFC3FFFFFC3FFFFFC3FFFFF6C
:10126000C3FFFFFFFFFFFFFF000FFCFFF3FCFFF3D7
:10127000FCFFF3FF000FFFFFFFFFFFFFFCFFFFFC82
:10128000FFF3FC0003FCFFFFFCFFFFFFFFFFFFFF7E
:10129000FFFC3FCFFCCFF3FCF3F3FCFCF3FC3F0F70
:1012A000FFFFFFFFFFFFFF3FCFFCFFF3FCFCF3FC62
:1012B000FCF3FF030FFFFFFFFFFFFFFFC3FFFFCCA8
:1012C000FFFFCF0FFCCFF3FC0003FCCFFFFFFFFFBE
:1012D000FF3FFFFCFC03FCFCF3FCFCF3FF03F3FF0C
:1012E000FFFFFFFFFFFF003FFCFCCFFCFCF3FCFC1B
:1012F000F3FF03F3FFFFFFFFFFFFFFFFC3FFFFF35A
:10130000FC3FF3FFC0F3FFFF03FFFFFFFFFFFFFF03
:10131000030FFCFCF3FCFCF3FCFCF3FF030FFFFFEB
:10132000FFFFFFFFFCFC0FFCF3F3FCF3F3FF33F3D1
:10133000FFC00FFFFFFFFFFFFFFFFFFFFC3C3FFC75
:101340003C3FFFFFFFFFFFFFFFFFFFFFFFFFFFFF30
:10135000FFF0FFFFFC3CCFFF3CCFFFFFFFFFFFFF95
:10136000FFF3FFFFCCFFFFCCFFFF3F3FFCFFCFFCB5
:10137000FFCFFFFFFFFFFFFFFFCCFFFFCCFFFFCC46
:10138000FFFFCCFFFFCCFFFFFFFFFCFFCFFCFFCF39
:10139000FF3F3FFFCCFFFFCCFFFFF3FFFFFFFFFF4F
:1013A000FFFFFFFFFFFCFF3FFCFFCFFFF3CFFFFC82
:1013B0003FFFFFFFFFFFFFFC0003F3FFFCF3F0FC28
:1013C000F3CF3CFCC003FFFFFFFCFFFFFC0FFFFC63
:1013D000C033FFCFC3FCC03FFC0FFFFCFFFFFCFF8F
:1013E000F3FC0003FCFCF3FCFCF3FCFCF3FF030F39
:1013F000FFFFFFFFFFFFFF000FFCFFF3FCFFF3FC0D
:10140000FFF3FF3FC3FFFFFFFCFFF3FC0003FCFF04
:10141000F3FCFFF3FF3FCFFFC03FFFFFFFFCFFF3F5
:10142000FC0003FCFCF3FCF033FCFFF3FC3FC3FFC8
:10143000FFFFFFFFFFFCFFF3FC0003FCFCF3FFF0EA
:1014400033FFFFF3FFFFC3FFFFFFFF000FFCFFF3BE
:10145000FCF3F3FF03C3FFF3FFFFFFFFFCFFF3FC0D
:101460000003FCFCF3FFFCFFFCFCF3FC0003FCFFAF
:10147000F3FFFFFFFCFFF3FCFFF3FC0003FCFFF3B3
:10148000FCFFF3FFFFFFFFFFFFFF03FFFCFFF3FC89
:10149000FFF3FF0003FFFFF3FFFFFFFCFFF3FC0080
:1014A00003FCF3F3FFF0FFFFCF33FC3FC3FCFFF37C
:1014B000FFFFFFFCFFF3FC0003FCFFF3FCFFFFFC5E
:1014C0000FFFFFFFFFFCFFF3FC0003FCFF03FFF037
:1014D000FFFCFF03FC0003FCFFF3FCFFF3FC000335
:1014E000FCFF03FFC0FFFC3FF3FC0003FFFFF3FF23
:1014F000FFFFFF000FFCFFF3FCFFF3FCFFF3FF0017
:101500000FFFFFFFFFFFFFFCFFF3FC0003FCF3F303
:10151000FFF3F3FFFC0FFFFFFFFFFFFFFF000FFCD8
:10152000FFF3F0FFF3F0FFF3F3000FFFFFFFFCFF0B
:10153000F3FC0003FCF3F3FFF3F3FFC3F3FF3C0FF3
:10154000FCFFFFFFFFFFFC3F0FFF3CF3FCFCF3FC45
:10155000FCCFFF03C3FFFFFFFFFFC3FFFFF3FCFF51
:10156000F3FC0003FCFFF3FFFFF3FFFFC3FFFFF3F8
:10157000FF0003FCFFF3FCFFFFFCFFF3FF0003FF92
:10158000FFF3FFFFF3FFFF03FFC0F3FC3FFFFFC0CC
:10159000F3FFFF03FFFFF3FFFFF3FF0003FCFFF385
:1015A000FF00FFFCFFF3FF0003FFFFF3FCFFF3FC72
:1015B0003FC3FFCF3FFFF0FFFFCF3FFC3FC3FCFF28
:1015C000F3FFFFF3FFFFC3FCFC33FC03FFFCFC3322
:1015D000FFFFC3FFFFF3FFFFFFFC3FC3FCCFF3FCA4
:1015E000F0F3FCFF33FC3FC3FFFFFFFFFFFFFFFFF4
:1015F000FFC00003CFFFF3CFFFF3FFFFFFFFFFFFAD
:10160000FFFFFFFFFFF3FFFC0FFFC3FFF03FFFFFF4
:10161000FFFFFFFFFFFFFFFFFFFFFFCFFFF3CFFF46
:10162000F3C00003FFFFFFFFFFFFFFFFFFFFFCFF13
:10163000FFFF3FFFFFC3FFFF3FFFFCFFFFFFFF3F39
:10164000FFFF3FFFFF3FFFFF3FFFFF3FFFFF3FFF6A
:10165000FF3FFFFFFFFFFFFFFFFFFFFFFFFFFFF366
:10166000FFFFCFFFFFFFFFFFFFFFFFFFFF0CFFFCB0
:10167000F33FFCF33FFCF33FFC00FFFCFFFFFCFFEC
:10168000F3FC0003FCFCFFFCFF3FFCFF3FFF00FFFF
:10169000FFFFFFFFFFFFFF00FFFCFF3FFCFF3FFCE2
:1016A000FF3FFF3C3FFFFFFFFFFFFFFF00FFFCFF8F
:1016B0003FFCFF3FFCFCF3FC0003FCFFFFFFFFFFD0
:1016C000FF00FFFCF33FFCF33FFCF33FFCF0FFFFA8
:1016D000FFFFFFFFFFFCFF3FFC000FFCFF33FCFFA1
:1016E00033FCFF33FFFFFFFFFFFFFF00FFCCFF3F97
:1016F000CCFF3FCCFCFFF0003FFFFF3FFCFFF3FCC3
:101700000003FCFCFFFFFF3FFCFF3FFC00FFFCFF72
:10171000FFFFFFFFFCFF3FFCFF3FFC0033FCFFFF30
:10172000FCFFFFFFFFFFFFFFFFCFFF3FCFFF3FCFDC
:10173000FF33F0003FFFFFFFFFFFFFFCFFF3FC0064
:1017400003FFF3FFFCC33FFC3C3FFCFF3FFFFFFFF9
:10175000FFFFFFFCFFFFFCFFF3FC0003FCFFFFFCAF
:10176000FFFFFFFFFFFCFF3FFC003FFCFF3FFC00D3
:10177000FFFCFF3FFC00FFFCFFFFFCFF3FFC003FC6
:10178000FCFCFFFFFF3FFCFF3FFC00FFFCFFFFFFF7
:10179000FFFFFF00FFFCFF3FFCFF3FFCFF3FFF00A0
:1017A000FFFFFFFFCFFF3FC0003FCCFCFFFCFF3F30
:1017B000FCFF3FFF00FFFFFFFFFFFFFFFF00FFFCFD
:1017C000FF3FFCFF3FCCFCFFC0003FCFFF3FFFFFD0
:1017D000FFFCFF3FFC003FFCFCFFFCFF3FFCFF3F2A
:1017E000FFFFFFFFFFFFFC3CFFFCF33FFCF33FFC70
:1017F000F33FFF0C3FFFFFFFFFFFFFFFFF3FFF0037
:101800000FFCFF3FFCFF3FFCFF3FFF3FFFFFFF3FA1
:10181000FF003FFCFFFFFCFFFFFF3F3FFC003FFCE2
:10182000FFFFFFFF3FFFF03FFF0F3FFCFFFFFF0FFA
:101830003FFFF03FFFFF3FFFFF3FFF003FFCFF3F49
:10184000FF03FFFCFF3FFF003FFFFF3FFCFF3FFCAC
:101850003C3FFFC3FFFFC3FFFC3C3FFCFF3FFFFFDC
:10186000FFFFFF3FCFFC3FCFC33FC03FFFCF0F3F46
:10187000FFF03FFFFF3FFFFFFFFC3C3FFCCF3FFC83
:10188000F33FFCFC3FFC3F3FFFFFFFFFFFFFFFFF7D
:10189000FFFFCFFFF0300FCFFFF3FFFFFFFFFFFF92
:1018A000FFFFFFFFFFFFFFFFFFF00003FFFFFFFF52
:1018B000FFFFFFFFFFFFFFFFFFFFFFCFFFF3F03052
:1018C0000FFFCFFFFFFFFFFFFFFFFFFFFFFFCFFF78
:1018D000FFF3FFFFCFFFFFCFFFFFF3FFFFFFFF008F
:1018E000FFFFFFFFFFFFFFFFFFFFFFFFFFFFF30013
:1018F000FFFFFFFFFFFFFFF0FFFFFFF0FFFFCCCF79
:10190000F003CCCCF003FCCCFFFFF3CFC300FC33DF
:10191000FFFFFFFFFF3FFF30F0CFFFCFFFFFF03FA4
:10192000F303F0F3F3F3FFFFFFFFFFC0FFFFFFFF41
:10193000FFFFFFFFF003CFFCFFFFFFFFCFFCF00333
:10194000FFFFFFFFFFFFFF33FFC0FF33FFFFFF3F3E
:10195000FF3FF003FF3FFF3FFFFFFFFFC3FFFCFF21
:10196000FFFFFFFFFF3FFF3FFF3FFFFFFFFFFFFFC7
:10197000F3FFFFFFFFFFCFFFF0FFFF03FFFCFFFFC1
:10198000FFFFFC03F3FCFC03FFFFF3FFF3FCF0009D
:10199000F3FFF3FFFFFFF0F3F33CF3C3FFFFFFFFA1
:1019A000F3F3F33CFCC3FFFFFFFFFF0FF333F00043
:1019B000F33FFFFFFCC0F3CCFC3CFFFFFFFFFC0349
:1019C000F3CCFC3CFFFFFFFFFFF0F03CFFC0FFFF4C
:1019D000FFFFFC33F3CCFC33FFFFFFFFF3C3F33C0B
:1019E000FC03FFFFFFFFFFFFF3CFFFFFFFFFFFFF42
:1019F000FFFFF3FFFCCFFFFFFF3FFF3FFCCFF3F301
:101A0000FFFFFFFFFF33FF33FF33FFFFFFFFF3F362
:101A1000FCCFFF3FFF3FFFFFFFF3F33CFFC3FFFFA0
:101A2000FFFFF003CFFCCF3CCC03F0FFF30CFF3003
:101A3000F30FF0FFF3FCF000F3CCF3CCFC33FFFF2B
:101A4000FC00F3FCF3F0FFFFF3FCF000F3FCF3FC0D
:101A5000FC03F3FCF000F3CCF3FCF0F0F3FCF0003B
:101A6000F3CCFFFCFFF0FFFFFC03F3FCF03CFF3F77
:101A7000F3FCF000F3CCFFCFF000FFFFF3FCF0002D
:101A8000F3FCFFFFFFFFFC3FF3FCFC00FFFCF3FC5B
:101A9000F000FF0FF030F3FCF3FCF000F3FCF3FF79
:101AA000F0FFF000F3C0FF3FF3C0F000F3FCF000E4
:101AB000F3C3FC3CF000FFFFFC03F3FCF3FCFC036E
:101AC000F3FCF000F33CFF3CFFC3FFFFFC03F3FC1F
:101AD000F0FCF000F3FCF000F33CFF3CF0C3FFFF30
:101AE000F3F0F3CCF030FFFFFFF0F3FCF000F3FC79
:101AF000FFF0FFFCFC00F3FFF3FCFC00FFF0FC0C2C
:101B0000F3FFF03CFFC0FC00F3FCFC0FF3FCFC0017
:101B1000F3FCF0F0FF0FF0F0F3FCFFF0F3CCF03F3C
:101B2000F3CCFFF0FFFFF0F0F33CF3CCF0F0FFFF5D
:101B3000FFFFC000CFFCFFFFFFFCFFC3F03FCFFF64
:101B4000FFFFFFFFCFFCC000FFFFFFFFFFFFFFCF46
:101B5000FFF0FFCFFFFF3FFF3FFF3FFF3FFFFFFFD4
:101B6000FFFFFFFFFFFCFFF3FFFFFFFFF0FFF0CFE2
:101B7000F00FF3FFF3FCF000F3CFF3CFFC3FFFFFD8
:101B8000F00FF3CFF3CFFFFFFFFFFC3FF3CFF3CC1A
:101B9000F000FFFFFC0FF30FF30FFFFFFFFFF3CF8A
:101BA000F003F3CCFFFFFFFFFC3F33CF33CFC00F79
:101BB000F3FCF000F3CFFFCFF03FFFFFF3CFF00CCB
:101BC000F3FFFFFFFFFF3FCF3FCC000FFFFFF3FC12
:101BD000F000FF3FF00FF3CFFFFFF3FCF000F3FF47
:101BE000FFFFF00FFFCFF03FFFCFF03FF3CFF00F3D
:101BF000FFCFFFCFF03FFFFFFC3FF3CFF3CFFC3F22
:101C00003FCF000F33CFF3CFFC3FFFFFFC3FF3CFBD
:101C1000333F000FFFFFF3CFF00FF3CFFFCFFFFFF6
:101C2000F3FFF30FFCCFFFFFFFCFFC03F3CFF3CFA6
:101C3000FCFFFFCFFC0FF3FFF3CFF00FFFCFFF0F41
:101C4000F0FFF0FFFF0FFC0FF3CFFC3FF3CFFC0FD3
:101C5000FFFFF3CFFC3FFC3FF3CFFFCF3C0F03FF71
:101C6000FC0FFFCFFFFFF3CFF0CFF30FF3CFFFFF5A
:101C7000FF3FF003CFFCFFFFFFFFFFFFC000FFFFB0
:101C8000FFFFFFFFCFFCF003FF3FFFFFFFFFFCFF65
:101C9000FF3FFCFFFF3F0000F8B5040000250026D1
:101CA000002C01D10120F2BDFF2042302718022074
:101CB0003870200000F066FE0AE01C2171436118B4
:101CC000283148700E70CD70CD600D614D61761C6D
:101CD000012061688E42F0D300260AE01C21714386
:101CE0006118B4314D700E70CD70CD600D614D61D5
:101CF000761C61688E42F1D32168403108802168EA
:101D000040310D80216844310D80216850310D80B3
:101D1000BD2000022168403108800020243420705A
:101D20003D70F2BD38B5040001D1012032BDFF2065
:101D30004230251802202870200000F010F8200002
:101D400000F045FE0020287032BD00685821415A3D
:101D5000802212020A435830028000207047A021DE
:101D6000490041180A78012A01D102207047012256
:101D70000A700068403002800022828003230380C2
:101D80000A7000207047FEB50500002069460880F3
:101D9000B84F28E00188B84A0A4002802C00283455
:101DA00028685021415A2278D20089180818F91C55
:101DB000405A3840A061216908182061002128009C
:101DC00000F037FE2420285C00280CD06069002831
:101DD00009D12420285C8021014328684C300180EF
:101DE0000020242168542868010044310A886B4689
:101DF0005A80120400D43AE16A4652881207120F40
:101E00006AD16A465288D206C4D52C00B4340288FE
:101E10001A806A461288120519D589892278D2005B
:101E2000891808189549405A3840A0610346A2888D
:101E3000A22040002918286800F096FD2868018833
:101E40008F4A0A400280280000F0DDFDCBE769469A
:101E500009880904C7D50188894A0A400280286890
:101E60005021415A2278D200891808188349405AD3
:101E70003840A061034608D0A2882169286800F094
:101E800073FDA0692169081820610021280000F075
:101E9000C4FD28685021415A081878494018E16863
:101EA0003F2908D34A09C90600D1521E9202802157
:101EB0000902114304E04A08C90700D5521C9102E7
:101EC000018028680188A94A0A40C021890151403F
:101ED000A74A0A43028086E79100029140180188D0
:101EE00019801C214A43A9180191694609880904EF
:101EF00057D50188624A0A400280019CB434237895
:101F0000D9002868A67A002E0ED15023C35A59183A
:101F100009185A4A895A3E000E402DD03300A28833
:101F2000216900F021FD27E09B00C35A5B040BD51B
:101F30005023C35A59180918FA1C895A3E000E40FA
:101F400010D03300E2880AE05023C35A5918091808
:101F50004A4A895A3E000E4004D033002289216942
:101F600000F002FD20788000296808180188814A65
:101F70000A40814911430180A0698019A06121694B
:101F80008A1922616369002B02D0E068864204D27C
:101F90002178280000F041FD03E02178280000F0BE
:101FA00027FB6846008800065CD5019C283402980F
:101FB000296808180188304A0A4002802378D8002E
:101FC0002A681100A67A002E0FD1503212881018FC
:101FD0004018F91C405A3840A06103462ED0A28810
:101FE0002169286800F0AEFC28E09B00D35A5B060C
:101FF0000BD55032128810184018F91C405A38403E
:10200000A061034610D0E2880AE05032128810180E
:1020100040181A49405A3840A061034604D022892A
:102020002169286800F08EFC207880002968081853
:102030000188504A0A40514911430180217828689B
:102040005022825ACB00D2181018FA1C805A3840FD
:10205000A0612269121822616369002B03D1280054
:1020600000F0E7FCBFE6280000F038FBBBE60020EC
:10207000FEBD0000FF0300000F8F000006040000FB
:102080008F0F000038B50400206844300088000439
:1020900002D52000FFF777FE20684421415A490508
:1020A0000CD54421415A364A0A404430028020006F
:1020B00000F0D1FC0021200000F072F820684030D0
:1020C0008188490403D581882E4A0A40828081880C
:1020D000890403D581882C4A0A40828080256D01BD
:1020E0008188294210D00188284A0A400280BD21F7
:1020F00009020180200000F0BBFC20684421415A05
:10210000234A0A4044300280206840308188090513
:1021100011D581881F4A0A408280018808220A431B
:102120000280018804220A4302808088284202D16A
:10213000200000F09CFC20684421415A890508D504
:102140004421415A144A0A4044300280200000F0E1
:102150007BFC20684421415AC90505D54421415AD8
:102160000E4A0A404430028031BD00008FBF00009B
:10217000808000008F8F0000C080000080C00000C1
:10218000FFFB0000FFBF0000FFDF0000FBFF0000BF
:10219000FFEF0000FFF70000FFFD0000FFFE000062
:1021A000A022520082181378012B01D1022070471F
:1021B00001231370002904D1802100684C30018074
:1021C00001E024300170002010707047F1B582B03A
:1021D0007F247F2008401C256843029D28180D0697
:1021E00001D5283000E0B4300C400470C9094170BA
:1021F0000092C260C370A0214900029A515C01297B
:1022000001D10220FEBD0121A0225200029B99545F
:10221000944AC178002905D002290DD01ED3032984
:1022200013D026E00299096803789B00C9180B882F
:102230001A4080239B001AE00299096803789B00EA
:10224000C9180B881A400A8013E0029909680378BC
:102250009B00C9180B881A40C02307E0029909683F
:1022600003789B00C9180B881A408023DB001343B6
:102270000B800378029909689A008C187A4A25889D
:102280007A4E2E401E43164326800578C0239B01BC
:10229000774C867A002E5FD18788764E3E406F4617
:1022A000BE804678002E1ED05023CB5AED005B191D
:1022B0005B188025ED006E46B6885E5303789B0060
:1022C000CB181D886D0605D51D88684E2E406A4DB9
:1022D00035431D8000788000081801880C402021BB
:1022E00061400A43BBE050240C5BED0064196418A4
:1022F00055096E46B688665350240C5B0578ED0090
:10230000641964185D4D6419009D3F2D09D36D0952
:10231000009EF60600D16D1EAE0280252D023543CB
:1023200005E06D08009EF60700D56D1CAD02258006
:102330000478A4000C1925886D0405D525884B4E1A
:102340002E404F4D354325800078800008180188C5
:102350004C4C0C40634081E0AD004D192F88434E3A
:102360003E40494F37432F8050254D5B0678F6009D
:10237000AD196F188026F600BC46C7883D4D3D401C
:102380006746BD5350254D5B0678F600AD196F18B2
:102390005609BC460789374D3D406746BD53057811
:1023A000AD004D194678002E2DD12E88760405D526
:1023B0002F882E4E3E40324F37432F800578AD0098
:1023C0004D192E88760605D52F88284E3E402A4F77
:1023D00037432F800578AD004D192F88234E3E409E
:1023E000254F37432F800578AD004D192E88254F96
:1023F00037407B4013432B80007880000818018809
:102400000C4022432BE02B885B0405D52B88174E0C
:102410001E401B4B33432B8003789B00CB181D8839
:102420006D0605D51D88114E2E40134D35431D8078
:1024300003789B00CB181D880C4E2E40104D354361
:102440001D8003789B00CB181D882C4014431C80F2
:1024500000788000081801880A4B0B401A4302805C
:10246000C0E000008F890000808000008F8F000096
:10247000BF8F0000FEFF0000C080000006040000C7
:1024800080C000008FBF000080810000F1B582B0E5
:102490007F227F2008401C235843029B18180B06FC
:1024A00001D5283000E0B4300A400270C9094170FB
:1024B000A0214900029A515C012901D10220FEBDF0
:1024C0000121A0225200029B9954029909680278C6
:1024D00092008A18009242786B461A71794A7A4DB6
:1024E0007A4B7B4C867A002E6E4636791AD1002EB6
:1024F0000CD0009A128852063DD5009A1288754D6C
:102500001540754A2A43009D2A8034E0009C2488A7
:10251000640460D5009C24886E4E26403543009CA0
:10252000258058E0002E009E36882BD1760406D5F3
:10253000009E3688674F37403D43009E35800578C2
:10254000AD004D192E88760605D52F88614E3E4088
:10255000614F37432F800578AD004D192F885D4EB0
:102560003E405D4F37432F800578AD004D192E88D2
:1025700032401A432A8000788000081801880C40F5
:1025800023432EE0760406D5009E3788514E3E4008
:102590002E43009F3E800678B6008E19009636883E
:1025A000760607D5009E37884A4E3E404A4F37434D
:1025B000009E37800678B6008E1900963688454F03
:1025C00037403D43009E35800578AD004D192E887B
:1025D00034401C432C8000788000081801880A4091
:1025E000134303800020A0214900029A5054FEBDED
:1025F000F1B582B07F247F2008401C256843029DEE
:102600002818B430026143610022826142700C409C
:102610000470A0214900029B5918009109780129F2
:1026200001D10220FEBD0121009C21704469C368D4
:10263000A34201D2E41A01E02300002444611940BE
:102640000191802109028F4C857A002D02D04578B6
:10265000002D19D1029D2D685026AE5B0778FF0032
:10266000F61975192C193F2B06D35D09DB0600D12D
:102670006D1EAB02194305E05D080199002900D0E9
:102680006D1CA90221800AE0012D08D102990D6874
:102690005021695A0678F600891949190B53029995
:1026A0000D680078800028180188064B0B40C02177
:1026B000890159409B4B0B43038000980270002016
:1026C000FEBD00008FBF000080C0000080800000C1
:1026D000BF8F00008F8F0000C0800000F8B506009B
:1026E0001C007F207F230B401C256B43F5182835E9
:1026F0002A616C610022AA6101226A700840287078
:10270000A0204000305C012801D10220F2BDA021B0
:10271000490072546869EC68844201D2001B01E0F0
:10272000040000206861A87A00280FD1A3B2AA880B
:102730002969306800F006F930685021415A2A783A
:10274000D20089180818784944524CE068784D49FD
:1027500000281AD130685023C35A2F78FF00DB19A4
:10276000181840183F2C09D36109E20600D1491E10
:102770008902802212020A43028010E0610822408E
:1027800000D0491C8902018009E0012807D1306886
:102790005022825A2B78DB00D2181018445230682D
:1027A00029788900415A490601D52A8900E0EA883A
:1027B000A3B2296900F0C6F869785C48002907D1FE
:1027C00029788900326851180A881040584A08E070
:1027D000012908D129788900326851180A881040E7
:1027E000544A02430A80287880003168081801881A
:1027F000514A0A40302151404A4A0A43028000208F
:10280000A02149007054F2BD70B5A0225200831877
:102810001A78012A01D1022070BD01241C700D001C
:102820007F220E0605D515401C267543451928350F
:1028300003E01C2675434519B435AC700A402A7074
:10284000C909697004683748002A07D121883B4AC2
:102850000A40C1085140084320800FE09200A218AE
:102860000029118803D0344C0C40102103E0344C73
:102870000C408021490161400843108000201870FD
:1028800070BD000006040000F0B50A007F240B06AE
:1028900005D522401C235A438218283203E01C230A
:1028A0005A438218B432002393700C401470C90943
:1028B0005170A021490041180C78012C01D102204F
:1028C000F0BD01240C7004681078800025181548AC
:1028D000164E5778002F2F880ED07F0604D52F88EC
:1028E0003E40134F37432F8012789200A21814886D
:1028F000114D254030240EE07F0404D52F883E4042
:102900000C4F37432F8012789200A21814880C4D78
:102910002540C024A4016C40204310800B7000208F
:10292000F0BD000080800000020400008F8F0000D6
:10293000C080000080C00000BF8F0000BFBF00004B
:102940008FBF000010B510188022D20080185B1CC9
:102950005A1007E00B784C7824021C430480801C3A
:10296000891C521EF6D110BD10188022D20080188A
:102970005B1C5A1004E003880B80801C891C521ECB
:10298000F9D1704710B586B0814C20680121014310
:102990002160C020400100900220019000200290A0
:1029A0000321039104906946A020C00500F012F9AC
:1029B000E068802109040143E160002203211F2017
:1029C00000F055FA1F2000F056FA06B010BD10B501
:1029D0007048714902690A4002610268CB4313439F
:1029E0000360026811400160A024E405C10C2000CE
:1029F00000F0AEF980214901200000F0A9F91F2064
:102A000000F040FA10BD80B5A22149004118BA2259
:102A10005200805800F0AEFA01BD80B51C224A4336
:102A20008218C4321268BA235B00C05800F0CFFA93
:102A300001BD80B51C224A438218926BBA235B0009
:102A4000C05800F0F9FA01BD80B5BA2149004058DC
:102A500000F062FB01BD10B5BA2149004418012104
:102A6000206800F056FB206800F030FB10BD704776
:102A7000704710B501004948494A02600822426087
:102A80004022C260022202618260BA22520081505A
:102A9000AC328C182060FFF7FFF8182300220021C9
:102AA000206800F04BFB582300228021206800F0B2
:102AB00045FB80235B0000228121206800F03EFB63
:102AC000002010BD80B5882189004058FFF72AF901
:102AD000002002BD80B5882189004058FFF735F9F4
:102AE000002002BD80B5882189004058FFF737F9E2
:102AF000002002BD10B51C00130022008824A40091
:102B00000059FFF763FB002010BD80B588229200BA
:102B10008058FFF7BBFC002002BD80B588229200E0
:102B20008058FFF771FE002002BD80B58822920018
:102B30008058FFF7A9FE002002BD8822920080582D
:102B40004A06520E1C235A438018090601D52A3022
:102B500000E0B6300078704780B588229200805837
:102B6000FFF71EFB002002BD10B58824A400005909
:102B7000FFF7B4FD002010BD10B58824A400005953
:102B8000FFF736FD002010BD06487047000000002A
:102B90002C10024028100240FFFF7FFF5010002041
:102BA000005C004064140020704738B4012100220A
:102BB0000368001D002B0BD00468001D0C4202D0DE
:102BC0004D466D1E64192260241D1B1FF0D0FAE7CC
:102BD00032BC7047F1B583B00022032301240120E9
:102BE000904002900D680540854200D0ABE04868F7
:102BF000022801D0122812D1D0088000039E30187C
:102C00000090006A5607F60E0F27B740B8430F69C9
:102C1000BC4637006646BE40064300980662560032
:102C20000320B040C74300974868012805D0022818
:102C300003D0112801D0122813D103988768009877
:102C40003840CF68B740074303988760039880886F
:102C5000029FB8434F683F092740974007430398B6
:102C6000878003980768009838404F681F40B74036
:102C70000743039807600398C768009838408F6837
:102C8000BC4637006646BE4006430398C6604868A7
:102C9000C00058D56048006820435F4E30609008FF
:102CA00080005E4E30180090006803271740BE0079
:102CB0006F463E710F26F6433F79BE4006400398AB
:102CC000A027FF05B84201D1002014E0544FB842BC
:102CD00001D101200FE0534FB84201D102200AE098
:102CE000514FB84201D1032005E0504FB84201D105
:102CF000042000E005206F463F79B8403043009E35
:102D000030604B480668E84306404F68FF0300D533
:102D10002E43474F3E607E6806404F68BF0300D594
:102D20002E43434F7E60BE6806404F68FF0200D5C9
:102D30002E433F4FBE60FE6830404E68B60201D55C
:102D400005432800F860521C102A00D247E7FFBD57
:102D5000F2B583B001000022354B0126964003985E
:102D6000304002900298B0423CD157000320B84056
:102D7000C7430097086807400F60D0088000081814
:102D80000190076ABC465007C70E0F20B84067463F
:102D90008743019807628868009F07408F60888892
:102DA000B0438880C868009E0640CE6090088000CE
:102DB0001A4E36183768BC460320104087000F2093
:102DC000B840674687433760029EF0431E6806405E
:102DD0001E605E6806405E609E6806409E60DE681B
:102DE0003040D860521C102AB7D306B0C0BD002AAC
:102DF00001D08161704701857047828A514081828C
:102E000070470C4A1368034000D1704780B51060CA
:102E100000F048FD01BD00003410024008000140F0
:102E20000004005000080050000C0050001C00502E
:102E3000000401401404014010B58207D30EFF24A2
:102E40009C40E2438907090E9940030006D500071C
:102E5000000F083880088000184B02E080088000CE
:102E6000174B181803681A401143016010BD80B554
:102E7000FFF7E2FF01BD0121C006C00E81401148ED
:102E8000016070470121C006C00E81400E480160FC
:102E9000704710B5401E80214904884201D30120AB
:102EA00010BD0A4C606003210020C043FFF7C4FF3F
:102EB0000020A0600721216010BD00001CED00E093
:102EC00000E400E000E100E080E100E010E000E06C
:102ED00010B5002801D1022010BD85239B00C31826
:102EE0001C68002C01D000241C60002902D084231F
:102EF0009B00C1500121FE235B00C1540270FFF70B
:102F0000B8FD002010BD10B50400FE2040002218BE
:102F1000012010706168C9B2200092695268904720
:102F20002000FFF7DFFD2000FFF7CCFD002010BDE3
:102F30000022002903D085239B00C15000E002221B
:102F40001000704780B5FFF7C5FD002002BD10B529
:102F50000224852292008258002A04D012689047E9
:102F6000002800D10024200010BD80B585229200E9
:102F70008258DFE038B50400822080002518280040
:102F800000F062FEFA204000201801210160418B10
:102F90004160017DC806C00E03D002280BD005D3C6
:102FA0000EE02900200000F0A7FC0EE02900200020
:102FB00000F04AFD09E02900200000F062FD04E075
:102FC000802001402000FFF7A8FD002032BD38B569
:102FD00004001000FA225200A318002921D18221F6
:102FE000490061181A68032A24D18D68CA68AA4268
:102FF0000AD2AB1A8B60934200D21A0092B201003F
:10300000200000F075FE15E0186A0169080004D080
:10301000187A032801D120008847200000F06CFEB8
:1030200008E0186A8269100004D0187A032801D1D8
:1030300020009047002032BDF8B504001000FA22AD
:103040005200A618002936D121001431002532681B
:10305000022A2BD18A68CB680093934207D2D21AF6
:103060008A6092B20100200000F03EFE1EE04F6830
:103070003800194600F071FE00290BD100988742F4
:1030800008D37068874205D20022200000F02CFE91
:1030900075600BE0306AC168080004D0307A0328FC
:1030A00001D120008847200000F032FE307B01284B
:1030B0000AD1357308E0306A4269100004D0307AD2
:1030C000032801D1200090470020F2BD38B505004B
:1030D000402300220021FFF70DFD402488204000FE
:1030E0002C504023002280212800FFF703FD281DDB
:1030F000C461FE2149006A1801211170D1690029BB
:1031000005D00168C9B22800926952689047002032
:1031100032BD01740020704780B5FE21490041187E
:103120000A78032A04D18969C9690A0000D088474E
:10313000002002BD52689047002002BD10B50C0669
:1031400006D54906490E1C2461434018283003E087
:103150001C2461434018B430002A03D1002181723D
:10316000838004E001218172C380190C0181002059
:1031700010BD0268531C036011707047FEB53E48D5
:10318000006801903D4CC0200001201802900025ED
:1031900001263B4F2078002809D0022800D181E089
:1031A0002ED3042800D1DBE000D295E0F7BD3548EE
:1031B00000F04CFE8720C00020180090AC2348226D
:1031C0000021002000F00CFF02232F4A0D210020D7
:1031D00000F078FE03232D4A0721552000F072FEEF
:1031E000380000F033FE0323294A0221472000F073
:1031F00069FE00F024FFFA20C00000F06AFFD6E16B
:10320000FF2000F026FE380000F020FE21482018A4
:103210000090302330220021052000F0E1FE1E48FE
:10322000201800901A2330220021822000F0D8FEBE
:10323000029800903C23102200213C2000F0D0FE98
:103240000123164A0D21002000F03CFE0323144AFE
:103250000721382000F036FE0323D64A042135200A
:1032600000F030FE0523A6220C21022000F09EFE75
:1032700000F0E5FE022098E1008200080000002036
:10328000640D00205C0D00208C83000898830008EA
:10329000A0830008440A0000640B0000B08300080B
:1032A000C08300080198857000F03AFF002800D123
:1032B0007EE1019800780A2802D0042800D077E146
:1032C00001988078010003D0802801DA03206CE1A6
:1032D000802800DA6CE167E1FF2000F0BAFD3800D9
:1032E00000F0B4FDF82040002018009092231C222A
:1032F00004210D2000F074FE012300BFAFA20D21B8
:10330000002000F0DFFD0323B1A201210F2000F017
:10331000D9FD0523A6220C21022000F047FE04233C
:103320001A220021912000F041FEA34800F08EFDFA
:10333000032300BFABA20121922000F0C3FD00F0E7
:103340007EFE01998D70656005E000F0E9FE0028C1
:1033500001D000F052FF60680028F6D0656026E1D9
:10336000012000F08FFF002000F08CFFFF2000F014
:1033700070FD380000F06AFD029800903C23102296
:1033800000211E2000F02CFE200008300090202399
:1033900020220421032000F023FE2000883000902A
:1033A0001D2320220421322000F01AFE2000FC30D0
:1033B00000901D23202204215A2000F011FEB82085
:1033C000400020180090202320220421822000F0B9
:1033D00007FE012385A20D21002000F073FD0523C7
:1033E000A6220C21022000F0E1FD03233922002156
:1033F000712000F0DBFD704800F028FD032300BFC2
:10340000A7A20121742000F05DFD00F018FE0199D3
:103410008D70022001990870656000F081FE0198AE
:1034200000786168002905D10A28F6D101998978C8
:103430000029F2D00A2892D10198807870A600283D
:103440000CD041280ADA01F077F8FF2000F001FDE6
:10345000380000F0FBFC01236EA276E00100413948
:103460003F2925D2FF2000F0F4FC380000F0EEFCEC
:10347000012300BF6BA20D21002000F023FD0523D6
:10348000A6220C21022000F091FD00F0D8FD00F0F2
:103490000DF901F027F900F068F900F0B5FC012002
:1034A00000F0ECFEFF2000F0D4FC012362A24CE00F
:1034B0008038402824D2FF2000F0CBFC380000F0F8
:1034C000C5FC012361A20D21002000F0FBFC0523B7
:1034D000A6220C21022000F069FD00F0B0FD00F0F2
:1034E000E5F801F017FA00F040F900F08DFC01203A
:1034F00000F0C4FEFF2000F0ACFC012358A224E041
:10350000FF2000F0A6FC380000F0A0FC012300BF63
:1035100059A20D21002000F0D5FC0523A6220C2184
:10352000022000F043FD00F08AFD00F0BFF801F03A
:1035300043FB00F01AF900F067FC012000F09EFE4A
:10354000FF2000F086FC012350A20D21002000F096
:10355000B9FC0523A6220C21022000F027FD03233D
:1035600032000721082000F0ADFC0323C44A0321E8
:10357000082000F0A7FC042339220021712000F06C
:1035800015FD0D4800F062FC032300BF44A2012199
:10359000742000F097FC00F052FD656001E000F03F
:1035A0006DFE60680028FAD004202070F7BD2670F8
:1035B000F7BD0000CC830008200E002053544D338B
:1035C000324C30353338205553422044656D6F00FE
:1035D0004C45465420524947485420555020444FAA
:1035E000574E0000423120457800000053544D33BF
:1035F000324C30353338204944442044656D6F00E7
:1036000043757272656E7420636F6E73756D70743E
:10361000696F6E004D435520696E2052756E204DC6
:103620006F6465004D435520696E20536C6565706D
:10363000204D6F646500000057616B652075702038
:1036400066726F6D20536C65657000004D435520A8
:10365000696E204C50536C656570204D6F64650039
:1036600057616B652075702066726F6D204C5053EA
:103670006C656570000000004D435520696E205355
:10368000746F70204D6F64650000000057616B65BA
:103690002075702066726F6D2053544F50000000EB
:1036A000423120746F2045786974000070B586B08F
:1036B0007F4C2068012101432160206802210143E1
:1036C000216020680421014321607A49A020C005BF
:1036D00002680A6082884A6082688A60026ACA60F8
:1036E000426A0A61744E32684A61B2888A61B2687D
:1036F000CA61326A0A62726A4A62704D2A688A62D4
:10370000AA88CA62AA680A632A6A4A636A6A8A63DA
:103710006B49009103210191002102916946FFF755
:1037200059FA69462800FFF755FA6648009069463D
:103730003000FFF74FFA206801218843206020689D
:10374000042188432060604801F0B4FB60685F4951
:1037500001406160A0685E490140A16000F092F8FC
:103760005C48FFF7D0FB06B070BD10B5504C206828
:10377000012101432160206802210143216020686A
:10378000042101432160A021C9054A4802680A605A
:1037900042688A8082688A60C2680A6202694A62F4
:1037A000454942690A6082698A80C2698A60026A00
:1037B0000A62426A4A624149826A0A60C26A8A802F
:1037C000026B8A60426B0A62806B486201210020B2
:1037D00000F06EFD6068802149020143616001F0E4
:1037E0009BFB00F02AF801F0B9FB10BD30B593B097
:1037F000394CE06A802149050143E162374801689C
:10380000374A0A40810C11430160022005900125CE
:10381000089505A801F0BCFB0F2000900195002041
:103820000290039004900121684601F08BFD20680E
:10383000E9030143216013B030BD10B596B02024D8
:10384000089401200E9008A801F0A2FB40200090EF
:1038500000050690684601F0D7FE22480168A205DF
:103860000A430260204800210160210641601F498F
:10387000C16022210161446101F057FF16B010BD03
:103880001C13002000B58FB020200090002006906F
:10389000684601F07DFB13480168154A0A40026042
:1038A0000FB000BD012801D11249486070470000E7
:1038B0002C100240C41300200004005000080050E7
:1038C000FFFF0000FBF3000084130020FFFFFEFF5A
:1038D000FFEFFFFF2C0E00200C1002400070004094
:1038E000FFE7FFFF38100240241400207FBB0000D8
:1038F000FFFFFFF700000020F8B504000F00FE20D6
:10390000400026180320002201257978092951D882
:1039100001A35B5C5B009F446D834D7E4D09044DAC
:103920005C2B3900200000F011F989E0B8880028EC
:1039300040D1F88800283DD1B8784006400E69464D
:1039400008703078032835D068460078B070684633
:1039500001782000FFF700F9200000F0CDF968465B
:103960000078002802D00220307069E0357067E0EE
:10397000344D79882970297802291BDA3378022B93
:103980001DD0032B16D1002906D1022030706260B1
:103990002000FFF7EAFA50E0606881424DD0C1B2E2
:1039A0002000FFF7E2FA297861602000FFF7CFFAE4
:1039B000022842D13900200000F05AF940E00029E5
:1039C0003BD0616030702000FFF7C1FA0228F1D0CF
:1039D00033E0F8880128EDD13078022804D003289C
:1039E000E8D10122211D12E0201D426001222100A8
:1039F00008310CE03178891E0129DBD8B168002933
:103A000000D00325201D8560022221000C312000FA
:103A100000F05AF914E07888012811D1B56007E068
:103A20003078801E0128C5D87888012808D1B26076
:103A300039002000B26992689047200000F05CF9DC
:103A40000020F2BD8714002038B505000C00FE20D0
:103A500040002A18107803280ED1A088C0B202288E
:103A60000ADA2800926992689047E088002806D117
:103A7000280000F041F902E0280000F0F9F80020E9
:103A800032BD70B504000D00A988C9B27F207F2225
:103A90000A408300E6186B78002B2ED0012B11D042
:103AA000032B51D13078022812D0032848D16888DE
:103AB000002819D1002917D0802915D02000FFF740
:103AC0002CF811E03078022802D0032804D037E027
:103AD000002939D0802917E06888002834D1002ACD
:103AE00007D02000FFF721F829002000B269926872
:103AF0009047200000F000F926E03378022B02D036
:103B0000032B06D01CE0002A1ED02000FFF705F88A
:103B10001AE0084000012518080601D5143502E016
:103B2000822040002D182000FFF707F8002800D061
:103B30000120286002222900200000F0C5F803E0DF
:103B40002900200000F094F8002070BD70B582B00C
:103B500004000D006888842189006218010A012987
:103B600008D002291ED0032929D0062955D00729BB
:103B70005BD064E06946207C126812689047694611
:103B8000098800290DD0E98800290AD06A461288E0
:103B90008A4200D90A0069460A800100200000F02C
:103BA00093F873BD51680226207C0028684603D133
:103BB000896A88474670E2E7C96A8847FAE7C0B26F
:103BC00005283CD801A1095C8F4400BF06121E2ABB
:103BD00036426946207C126852689047CFE76946B2
:103BE000207C126892689047C9E76946207C126879
:103BF000D2689047C3E76946207C126812699047F3
:103C0000BDE76946207C126852699047B7E769466C
:103C1000207C126892699047B1E7207C00280ED181
:103C200068465168496B8847A9E7207C002806D17F
:103C300068465168096B8847072141709FE7290052
:103C4000200000F015F873BD0A7802704A784270BF
:103C50008A78CB781B02D21842800A794B791B02F2
:103C6000D21882808A79C97909025118C1807047B7
:103C700010B504008021FEF750FF00212000FEF760
:103C80004CFF10BD002800D1704770B50400002320
:103C9000002501E06D1C641C2678002EFAD12D064B
:103CA000EC0DA41C148012880A7003224A700222B0
:103CB00006E0D2B28C54401C521CD2B28B54521C1F
:103CC0000478002CF5D170BD10B50223FA246400ED
:103CD0000351030018331A605A6013000A000021D0
:103CE000FEF742FF002010BD80B513000A000AE075
:103CF00080B513000A0012E080B50421FA225200B8
:103D00008150002300220021FEF72EFF002002BD7B
:103D100080B50521FA2252008150002300220021A3
:103D2000FEF72AFF002002BDF446002804D44942D1
:103D300000F013F8404260474042002905D45FD0AC
:103D400000F00BF8404249426047494200F005F854
:103D50004942604703460B43E6D40022030A8B42E4
:103D60000BD203098B4219D243088B422ED2411A3F
:103D700000D20146524110467047FF2209023FD04F
:103D800012068B4205D3121209028B4201D3121282
:103D9000090203098B4219D300E0090AC3098B42C7
:103DA00001D3CB01C01A524183098B4201D38B014D
:103DB000C01A524143098B4201D34B01C01A5241F0
:103DC00003098B4201D30B01C01A5241C3088B4235
:103DD00001D3CB00C01A524183088B4201D38B0020
:103DE000C01A524143088B4201D34B00C01A5241C2
:103DF000884200D3401A5241CFD201461046704744
:103E000008B501F0EBFC08BD10B5964CFF206060D2
:103E100020001030A060002020609348E06000681F
:103E20008047FF2000F015F81834200000F00EF84D
:103E3000002010BD80B58B48C0684069804702BD36
:103E400080B58848C0688069804702BD8549886020
:103E5000704770B50500834C25601123AB2200210B
:103E60000020E668F668B047804EE8B2E1688968ED
:103E70008847761EF9D170BDF0B583B0794DAC6836
:103E8000A388E688203AD2B272435A432468A21823
:103E9000019200240093764A8B199B189BB2009FD5
:103EA000C719BA1892B2EF68FF68B847009846433E
:103EB00005E00198005DE96889688847641CB442A0
:103EC000F7D3F7BDFBB5170000240025380000E04C
:103ED000641C0100401C09780029F9D1FFF7AAFFF2
:103EE000604989688E883100FFF737FF6946098885
:103EF0006A46127A012A02D0022A05D00BE0001B82
:103F0000704340080C1815E0694609884A42001BB6
:103F1000704314180EE00C000CE03A786846818873
:103F2000E0B2FFF7A9FF4F48806880882418A4B248
:103F30007F1C6D1C3E78002E00D00126FFF77AFF13
:103F40000100484880688288ADB228005043081AB2
:103F500080B290428041C043C00F0642DDD1F7BD20
:103F6000F8B5160000243F4D0B00821992B2EF689D
:103F7000FF68B84704E03F20E96889688847641C07
:103F8000B442F8D3F1BDF8B516000024354D8B19B5
:103F90009BB20200EF68FF68B84704E00020E968C0
:103FA00089688847641CB442F8D3F1BDF8B50400B1
:103FB0000E0015001F00FFF7D3FF6A1C92B2F11923
:103FC00089B22000FFF7CCFF3A0031002000FFF754
:103FD000DAFF3A003100601980B2FFF7D4FFF1BD7B
:103FE000F7B505001E001F4C2148694689886A46BE
:103FF0001289920889180B189BB2A9190A1892B253
:10400000684681882800E768FF68B847E068C769A4
:10401000380007D0089800903300684602898188EC
:104020002800B847FFF70CFF0500FFF703FFABB20E
:1040300082B200210020E468E468A047F7BD80B5A3
:104040000848C068006980470A4800F042F8012229
:1040500004210948FEF7CBFE0A2000F03AF801BD22
:10406000000000004C0D00202C0D0020180C00005A
:10407000FFFF00006C0700000004005080B52148DD
:10408000016840220A430260016802220A4302607A
:10409000032000F004F801F0A3FB002002BD10B5DE
:1040A000040001F087FAFA218900FFF756FEFEF7B7
:1040B000F0FE002221000020C043FEF7D8FE0020C1
:1040C00010BD11480168491C016070470E48006826
:1040D000704711B581B0FFF7F9FF0400FFF7F6FF55
:1040E000001B01998842F9D313BD084801680222D8
:1040F0009143016070470548016802220A4302604B
:1041000070470000002002407C14002010E000E016
:1041100080B5224801F01CFC24A001F079FC01BD0F
:10412000F8B50026002401271D4D6868002806D137
:104130002868C0B201F084FC01F0AEFC6F6001F0B1
:10414000BEFC002809D1002200212868C0B201F07D
:10415000EBFC2868401C28606E60286800281BD093
:104160002E606E6028000C3001F01CFC28000C3022
:1041700001F07AFD29000831642001F077FD002864
:1041800009D10C35280001F06DFE002801D1022470
:1041900002E0032400E001242000F2BD980D00207D
:1041A0008C0D00207047704700000000208100083F
:1041B00044810008001400200300000044020000B5
:1041C0000700000038B5002100220023174C2468A6
:1041D000A4780225ED43402C01DA2A0008E0802C67
:1041E00001DA032204E0C02C01DA2B0000E00323F3
:1041F000017042708370C17031BD10B50B4800680A
:1042000000780A2801D004280ED1094C2000FFF7BD
:10421000D9FF6078002802D1A078002804D00422B9
:104220002100044801F0D6FE10BD00000082000805
:10423000801400202C0E002030B585B00121022210
:10424000B34B00281C6801D1144300E00C431C60F0
:10425000430000BFB5A4E55A009501910291039275
:104260008000AC490C1869462068FEF7B3FC0022B8
:1042700029002068FEF7BBFD05B030BD80B50122E6
:1042800002E0000080B50022410000BFA7A3595AF8
:104290008000A04B1858FEF7AAFD01BD80B5410073
:1042A000A2A2515A80009B4A1058FEF7A6FD01BDFC
:1042B000F0B585B00C000121954A13680B431360DB
:1042C0009368194391600600B00093490F180025C8
:1042D000002C0CD1700000BF95A1085A00900195E8
:1042E00002200290039069463868FEF773FC012CA7
:1042F00014D170008EA1085A009002958748019051
:1043000069463868FEF766FC8AA0845D00220321B6
:1043100060B2FEF7ACFD60B2FEF7ADFD05B0F0BDDA
:10432000F0B585B07E4C7F48206082204000606000
:104330000025A5601020E061E56001266661022786
:10434000276125624001A061A5620720E0626562E5
:10435000200002F0B5F800281ED16D4800683843EF
:104360006B49086008200090019702960320039093
:1043700004956D4E69463000FEF72CFC202000901D
:104380000495029769463000FEF724FC6048806877
:10439000F90201435E488160200001F047FE05B04C
:1043A000F0BD01B580235B01012269465C4801F044
:1043B00099FE002801D000F001F801BD80B55848F1
:1043C00001F076FEFFF7ACFF01BDF0B585B001202E
:1043D0004F490A6802430A6002250A682A430A60B4
:1043E0000A682A430A600A6802430A600A682A4384
:1043F0000A60C703009701900020029003200390F9
:10440000A026F60569463000FEF7E4FBA8020090FE
:10441000454C69462000FEF7DDFB0420009069460C
:104420002000FEF7D7FB6802009069462000FEF7E7
:10443000D1FBE8010090029569463000FEF7CAFB07
:10444000002239003000FEF7D2FC01223900300092
:10445000FEF7CDFC002269022000FEF7C8FC012215
:1044600004212000FEF7C3FC0A20FFF732FEFFF70D
:1044700057FF05B0F0BD70B50600A025ED058024FE
:104480002402002221002800FEF7B1FC0122D10203
:104490002548FEF7ACFCF0B210E070B50600A02590
:1044A000ED0580242402002221002800FEF79FFC55
:1044B000002221091C48FEF79AFC3000FFF771FF2B
:1044C000012221002800FEF792FC70BD3EB5A02419
:1044D000E40580252D02002229002000FEF787FC3C
:1044E000012229002000FEF782FC00200190C04339
:1044F0000290E8080090012301AA02A9084801F0EF
:1045000095FE002801D0FFF759FF019880B23EBD0B
:104510002C100240180E0020280E00200000211050
:104520003013002000300140000400501000200033
:10453000010000000500FEE7FEB500F02DFC674C11
:1045400080202070664F0297012001900094012383
:10455000402284212000183002F086F8002801D083
:1045600000F048FC6420FFF7B4FD03252570029796
:104570000120019000940123412284212000183061
:1045800002F072F8002801D000F034FC0120FFF79F
:10459000A0FD0620207002970120019000940123C5
:1045A000422284212000183002F05EF8002801D059
:1045B00000F020FC0420207002970120019000945C
:1045C0000123402284212000183002F04DF80028F9
:1045D00001D000F00FFC2570E82060700025A57068
:1045E0001820E070022626716C206071E58027207B
:1045F0002072102060721320A0727E20E0720B20C7
:104600002073B820607302970E200190009401235C
:10461000822284212000183002F026F8002801D0E0
:1046200000F0E8FB0920207002970120019000941F
:104630000123802284212000183002F015F8002880
:1046400001D000F0D7FBFA208000FFF742FDA582E1
:10465000A5750297032001902000143000900123DB
:10466000142284212000183002F07BF8002801D0A9
:1046700000F0C0FB267002970120019000940123F6
:10468000442284212000183001F0EEFF002801D0E0
:1046900000F0B0FB0120FFF71CFD207D0004617DD0
:1046A00009024018A17D45180A2045432565904E12
:1046B00028003100FFF751FB0800FA218900FFF7BD
:1046C0004CFB070028003100FFF747FB02003B00CE
:1046D0008DA15434200002F0BFF9F7BDC8120020AC
:1046E00010270000F0B589B000F056FB814C802007
:1046F0002070814E029601200190009401234022F7
:1047000084212000183001F0AFFF002801D000F014
:1047100071FB6420FFF7DDFC03202070029601206E
:10472000019000940123412284212000183001F0DF
:104730009BFF002801D000F05DFB0120FFF7C9FCC2
:104740006E48016804220A430260802080010390C1
:1047500000250595022706976948049003A9694832
:10476000FEF738FA002203210720FEF780FB07201E
:10477000FEF781FB06202070029601200190009434
:104780000123422284212000183001F06DFF00280F
:1047900001D000F02FFB0420207002960120019030
:1047A00000940123402284212000183001F05CFF96
:1047B000002801D000F01EFB03202070E82060706C
:1047C000A5701820E07027716C206071E5802720AB
:1047D0002072102060721320A0727E20E0720B20E5
:1047E0002073B820607302960E200190009401237C
:1047F000822284212000183001F036FF002801D0E9
:1048000000F0F8FA7F2020700296012001900094B9
:104810000123812284212000183001F025FF002887
:1048200001D000F0E7FA09202070029601200190E3
:1048300000940123802284212000183001F014FF0D
:10484000002801D000F0D6FAFFF74FFC012100202C
:1048500002F01EF9A582A575FFF74DFC0296032014
:1048600001902000143000900123142284212000A4
:10487000183001F076FF002801D000F0BBFA277055
:1048800002960120019000940123442284212000FB
:10489000183001F0E9FE002801D000F0ABFA012049
:1048A000FFF717FC207D0004617D09024018A17DFF
:1048B00040180A214843B949451825650C4E28007F
:1048C0003100FFF74AFA0800FA218900FFF745FA9C
:1048D000070028003100FFF740FA02003B0000BF4C
:1048E00009A15434200002F0B7F809B0F0BD00006F
:1048F00040420F00C8120020102700002C10024078
:10490000000031100008005025642C252E33646D02
:1049100041000000F0B59BB0A14800680221884327
:104920009F49086000F038FA9E4C802020709E4E0F
:10493000029601200190009401234022842120004E
:10494000183001F091FE002801D000F053FA6420E5
:10495000FFF7BFFB03202070029601200190009416
:104960000123412284212000183001F07DFE00281F
:1049700001D000F03FFA0120FFF7ABFB8B48806AC3
:10498000042101438948816280208001089000252C
:104990000A9502270B978648099008A98548FEF7D3
:1049A00019F9002203210720FEF761FA0720FEF71C
:1049B00062FA0620207002960120019000940123E3
:1049C000422284212000183001F04EFE002801D040
:1049D00000F010FA0420207002960120019000944B
:1049E0000123402284212000183001F03DFE0028E0
:1049F00001D000F0FFF903202070E8206070A5705E
:104A00001820E07027716C206071E58027202072EB
:104A1000102060721320A0727E20E0720B202073A1
:104A2000B820607302960E20019000940123822228
:104A300084212000183001F017FE002801D000F07A
:104A4000D9F97F2020700296012001900094012363
:104A5000812284212000183001F006FE002801D0B8
:104A600000F0C8F9092020700296012001900094FE
:104A70000123802284212000183001F0F5FD002858
:104A800001D000F0B7F9C2480168C24A0A40810C5F
:104A90001143016010200D9001201490A02000020D
:104AA0001690159517950DA800F072FA002801D000
:104AB00000F0A0F90F200390049580200590069542
:104AC0000795002103A800F03DFC002801D000F06C
:104AD00091F936480068BE4901403448016002F04F
:104AE0000DF802F005F82E480068082101432C4813
:104AF0000160FFF7FAFA0121002001F0C9FFA58249
:104B0000A575FFF7F8FA02960320019020001430F3
:104B100000900123142284212000183001F021FE8E
:104B2000002801D000F066F927700296012001905C
:104B300000940123442284212000183001F094FDC8
:104B4000002801D000F056F90120FFF7C2FAFEF765
:104B50004DFE207D0004617D09024018A17D4018B2
:104B60000A2148439B4945182565FA26B6002800C6
:104B70003100FFF7F2F808003100FFF7EEF8070008
:104B800028003100FFF7E9F802003B009DA15434F2
:104B9000200001F061FF1BB0F0BD0000E05EF8FFF7
:104BA00000200240C812002010270000041002401C
:104BB0000000311000080050F0B589B000F0ECF8AA
:104BC000854C80202070854E029601200190009433
:104BD0000123402284212000183001F045FD0028E7
:104BE00001D000F007F96420FFF773FA032020706A
:104BF000029601200190009401234122842120008B
:104C0000183001F031FD002801D000F0F3F8012048
:104C1000FFF75FFA7248016804220A4302608020AD
:104C20008001039000250595022706976D480490A2
:104C300003A96D48FDF7CEFF002203210720FEF7F0
:104C400016F90720FEF717F90620207002960120BA
:104C5000019000940123422284212000183001F0A9
:104C600003FD002801D000F0C5F804202070029652
:104C7000012001900094012340228421200018305B
:104C800001F0F2FC002801D000F0B4F803202070FD
:104C9000E8206070A5701820E07027716C206071AA
:104CA000E58027202072102060721320A0727E20E1
:104CB000E0720B202073B820607302960E200190E2
:104CC00000940123822284212000183001F0CCFCC2
:104CD000002801D000F08EF87F202070029601207D
:104CE000019000940123812284212000183001F0DA
:104CF000BBFC002801D000F07DF80920207002964E
:104D0000012001900094012380228421200018308A
:104D100001F0AAFC002801D000F06CF801F0EEFED2
:104D200001F0E6FE0121002001F0C6FEA582A57576
:104D300002960320019020001430009001231422D9
:104D400084212000183001F00CFD002801D000F073
:104D500051F827700296012001900094012344220B
:104D600084212000183001F07FFC002801D000F0E1
:104D700041F80120FFF7ADF9A27D0A2042432265E8
:104D800023A15434200001F067FE09B0F0BD0000FB
:104D900000700040FFE7FFFF10B50F4C20001830F7
:104DA00001F043FC1148A061012060621048E061FD
:104DB0000020A06220636063A0632062E062183478
:104DC000200001F0E3FB002801D000F013F810BD33
:104DD000FF1FFFFF5070F9FFC812002010270000CE
:104DE0002C10024000003110000800500054004018
:104DF0002E11B10080B50120FFF750FA6420FFF7B3
:104E000068F9F8E725642C252E336475410000000D
:104E100025646E410000000038B5040001D1012076
:104E200032BD02203C216054200000F0DAFC012554
:104E300020680560206801686268A36813432269DE
:104E400052041A4363691343A2691A43E369134383
:104E5000226A1A43636A1343A26A1A430A4302602E
:104E6000E068012804D1206801682A040A4302602E
:104E7000206B616B0143A06B0843C1432068016153
:104E8000206B616B014320688162A06B216808621E
:104E9000206B00F01EF82168086320684168032237
:104EA00091434160206881680A4382603C342570E8
:104EB000002032BD10B5002801D1012010BD040032
:104EC0003C340221217000F0C1FC00202070607091
:104ED00010BD10B50100002000220F239400A34054
:104EE0000B4003D00300012090401843521C082AB5
:104EF000F3D310BD80B50020FFF79EF90120FFF726
:104F00009BF901210020FFF7D3F9FEF77DFF00F0A8
:104F100003F800F023F801BD80B518481849016076
:104F20000021816280225205426012098260016282
:104F3000C162A022C261802252018261C1607F22CF
:104F400002614161416291229200026352008263D8
:104F50004163FFF761FFFFF7DBF801BD10B5094CB6
:104F6000002209492000FDF7B3FF08492000FDF7A2
:104F7000DFFF2000FDF7E6FF10BD000084130020D6
:104F8000004002402C0E0020A80D0020D00C002074
:104F9000F8B50400A24D2078C00716D58027BF02BF
:104FA000E8680C210140082907D0E8680C2101407D
:104FB0000C295CD1E868C00359D52868074004D0A3
:104FC000606880214902884236D104272078800712
:104FD00019D56868AD49014020690002084368603E
:104FE000E8680C210140042907D0E8680C21014041
:104FF0000C2972D1E868C0036FD42868384002D009
:10500000E068012818D12078C00617D56868A04943
:105010000140606A0843686068680002000A216A0B
:10502000090601436960E8680C2101407AD12868CB
:10503000800503D5E069012800D070E120780007E1
:1050400000D4A2E060690028286D00D18EE0012123
:1050500001432965FFF73AF80600286D800700D55F
:1050600093E0FFF733F8801B6528F6D355E12868F5
:10507000AD4901402960FFF729F80600286838404B
:1050800006D0FFF723F8801BA8498842F6D344E1F5
:105090002868A5490140606808432860606879086D
:1050A00088420CD1FFF712F80600286838408CD1EE
:1050B000FFF70CF8801B9D498842F6D32DE1FFF7DE
:1050C00005F806002868384000D17EE7FEF7FEFFAD
:1050D000801B96498842F5D31FE1E0680921C94346
:1050E00000280FD02A68114008432860FEF7EEFF21
:1050F00006002868384086D1FEF7E8FF801B652847
:10510000F7D30AE1286801402960FEF7DFFF0600B7
:105110002868384000D176E7FEF7D8FF801B652865
:10512000F6D3FAE0E069002828680FD0A90D014302
:105130002960FEF7CBFF06002868800500D57DE7D3
:10514000FEF7C4FF801B6528F6D3E6E078490140EE
:105150002960FEF7BBFF06002868800500D46DE7D4
:10516000FEF7B4FF801B6528F6D3D6E00121884303
:105170002865FEF7ABFF0600286D800705D5FEF712
:10518000A5FF801B6528F7D3C7E0207880062ED5C1
:105190006848A1690029A96816D001220A43AA60BB
:1051A000696B01220A436A6301686A0C0A43026060
:1051B000FEF78CFF0600A868800718D4FEF786FF6C
:1051C000801B6528F7D3A8E001229143A9600168FC
:1051D000594A0A400260FEF779FF0600A868800776
:1051E00005D5FEF773FF801B6528F7D395E020688F
:1051F00007404FD0A86B802149050143A9634F4F59
:105200003868A90D01433960FEF760FF0600386871
:10521000C00507D4FEF75AFF801B6428F7D37CE053
:1052200000100240464F286D38402865FEF74EFFBB
:105230000600286D800506D5FEF748FF801B3B4918
:105240008842F6D369E0286D0740A0683843286596
:10525000A068A90D88420CD1FEF738FF0600286D22
:10526000800517D4FEF732FF801B30498842F6D301
:1052700053E0FEF72BFF0600286D80050AD5FEF7E8
:1052800025FF801B29498842F6D346E0FFE0FFFF57
:10529000FF1FFFFFA06A002843D0E9680C220A40E4
:1052A0000C2A3CD08027BF04A5490228286827D1B2
:1052B00001402960FEF70AFF06002868384005D043
:1052C000FEF704FF801B6528F7D326E0E8689D49B8
:1052D0000140206B0843616B0143E06A0843E860CA
:1052E0002868790801432960FEF7F0FE0600286867
:1052F000384016D1FEF7EAFE801B6528F7D30CE094
:1053000001402960FEF7E2FE06002868384008D018
:10531000FEF7DCFE801B6528F7D30320F2BD0120D9
:10532000F2BD0020F2BD0000FFFFFAFF891300006C
:10533000FFFEFFFF20000140FEDFFFFF0070004086
:10534000FFFAFFFFF3B581B00C27974C0320C04351
:10535000964DF021C9430222954B1E68F307DB0FDF
:10536000029EB34266D2924B1B680126B343029E53
:105370001E438F4B1E601E68F307DB0F029EB34275
:105380001FD1019B1B681A4005D0EA681140019AA1
:1053900092680A43EA6001990978C90700D4B2E02B
:1053A00001994968022902D12A68920308E000297C
:1053B00002D12A68920503E003292A6802D19201EA
:1053C00002D49EE05207FCD5EA6810400143E96030
:1053D000FEF77CFE060001984068022809D1E868C3
:1053E0003840082815D0FEF771FE801BA042F6D386
:1053F00077E0032809D1E86838400C2809D0FEF787
:1054000065FE801BA042F6D36BE0002808D1E86857
:10541000384078D0FEF75AFE801BA042F7D360E0F8
:10542000E868384004286ED0FEF750FE801BA0428A
:10543000F6D356E0019B1B681A4005D0EA6811407C
:10544000019A92680A43EA6001990978C9074AD526
:1054500001994968022902D12A68920308E00029CB
:1054600002D12A68920503E003292A6802D1920139
:1054700002D446E0520744D5EA6810400143E9608F
:10548000FEF724FE060001984068022809D1E8686A
:105490003840082827D0FEF719FE801BA042F6D31B
:1054A0001FE0032809D1E86838400C281BD0FEF71C
:1054B0000DFE801BA042F6D313E0002808D1E86857
:1054C000384010D0FEF702FE801BA042F7D308E060
:1054D000E8683840042806D0FEF7F8FD801BA0429B
:1054E000F6D30320FEBD32480068012188430299AB
:1054F00001432F4801600068C107C90F029881422B
:1055000001D00120FEBD01980078400706D5E8686B
:105510002F4901400198C0680843E860019800786D
:10552000000707D5E8682B49014001980069C000D1
:105530000843E8600320FEF7B2FD0020FEBD000036
:10554000FFFFFFFEFFFF02FF30B5184C61682348E4
:105550004300E2680C251540042D04D0082D21D00D
:105560000C2D07D019E02068C00601D5980830BD81
:10557000180030BDE268E1689202120F184DAA5C73
:105580000902890F491CE468E40301D45A4300E08E
:1055900042431000FEF7E1FB30BD0804400F8000DD
:1055A00012A1085830BD000089130000001002400D
:1055B0000020024080B5FFF7C7FF074909680906C8
:1055C000090F084A515CC8400749086002BD000045
:1055D000FFF8FFFFFFC7FFFF0C10024000127A0028
:1055E000000E0020E00D0020880D002000FA0000D1
:1055F00000F4010000E8030000D0070040420F0063
:1056000080841E0000093D00F8B50400644D207838
:10561000C00705D5E86C0321884361680143E9644C
:105620002078800705D5E86C0C218843A1680143E8
:10563000E9642078400705D5E86C5A490140E068E4
:105640000843E8642078000705D5E86C5649014016
:1056500020690843E8642078800652D5A86B802131
:1056600049050143A963514F3868A90D01433960C9
:10567000FEF72CFD06003868C00505D4FEF726FDB0
:10568000801B6528F7D325E0494F286DF943014079
:105690006069FA43024091420BD0286D296D802247
:1056A00012030A432A65296D424A0A402A65384096
:1056B000286560698021490288420DD1FEF706FD08
:1056C0000600286D800507D4FEF700FD801B3A49CF
:1056D0008842F6D30320F2BD61693848FA430A4094
:1056E000FB439A4205D12A681040394001432960A2
:1056F00002E0296808402860286D07406069384347
:1057000028652078400605D5E86C2D490140A06940
:105710000843E8642078000605D5E86C2949014073
:10572000E0690843E8640020F2BD27490A68802345
:105730001B0513430B600A68244B13400B6024497C
:105740004A68244B13404B604A68036813434B601C
:105750004A68436813434B604A68836813434B604D
:105760004A68120E12064A604A68C36813434B60C7
:105770004A6803691B0413434B600A68164B1340C5
:105780000B600A6840690002104308600868402204
:1057900002430A600868202202430A607047000042
:1057A00000100240FFF3FFFFFFCFFFFF007000403B
:1057B000FFFFFCFFFFFFF7FF89130000FFFFCFFF94
:1057C000FFFFFFFBFFFFF3FF28100240FFFFFFF783
:1057D000006C0040FFFFFF48FFC0FFFF7047FEE77F
:1057E0007047F0B585B054484168802252020A43A0
:1057F00042600127016839430160022401682143A6
:10580000016012200190002502950395032604965D
:10581000882000906946A020C005FDF7DBF90094C0
:1058200069464648FDF7D6F901940295039504961A
:10583000442000906946A020C005FDF7CBF90097F1
:1058400069463E48FDF7C6F905B0F0BD10B53C48C5
:105850000168802252020A4302603A4902680A4003
:105860000260026911400161A024E40504212000C6
:10587000FDF76EFA08212000FDF76AFA10212000DA
:10588000FDF766FA40212000FDF762FA8021200032
:10589000FDF75EFA294C01212000FDF759FA02219B
:1058A0002000FDF755FA10BD30B585B00220224921
:1058B0000A6802430A600A6802430A60CA6803056C
:1058C0001343CB60C101009112210191012102918A
:1058D000039004240494194D69462800FDF77AF9D1
:1058E000E0010090049469462800FDF773F9002256
:1058F00001211720FDF7BBFA1720FDF7BCFA05B010
:1059000030BD10B510480168802292030A4302603E
:1059100001680E4A0A400260084C810D2000FDF724
:1059200017FA802189002000FDF712FA1720FDF7F1
:10593000A9FA10BD000000002C1002400004005025
:1059400020100240FFFFFEFF28100240FFFFDFFF94
:10595000F8B50700002600243D683E721CE02800D0
:1059600000F04AF82878202801D0222812D12748B0
:105970004069006A006880472448406901684A68B5
:105980005306DB0F01D001223A720978C900C069C1
:10599000405C04430835761CF0B2B9888842DED3F7
:1059A000FC80F1BDF8B50700002600243D683E727A
:1059B0001CE0280000F020F82878202801D02228B8
:1059C00012D112484069006A406880470F48406918
:1059D00001684A685306DB0F01D001223A72097848
:1059E000C900C069405C04430835761CF0B2B98830
:1059F0008842DED3FC80F1BD0449C8600278203AB9
:105A0000032A01D840684861704700003C14002018
:105A100010B5084C6060084800680849FEF79DF919
:105A2000FA21890048434821FEF797F920610020B8
:105A300010BD00BF3C140020880D002040420F0024
:105A4000F0B5002801D00220F0BD294C6068016843
:105A5000426800232372274C056925604569A560CB
:105A600015E015880C266E438568AD59ED06AD0F1F
:105A7000032D09D0A6688F68BE43A660002D03D110
:105A800025684E68B54325600C31921C5B1C8589E6
:105A9000AB42E6D30020F0BD10B5174CA06803213F
:105AA0000143A1601248006900F038F82068102115
:105AB00001432160206802210143216010BD0121C2
:105AC00001200D4AD368194008D01068102188437E
:105AD00010600220D168014000D1002070470828E2
