:020000040800F2
:10000000B81C0020E585000821840008238400082E
:1000100000000000000000000000000000000000E0
:10002000000000000000000000000000258400081F
:100030002784000800000000298400082B840008A1
:1000400067460008D7580008635D0008EB5D0008AC
:10005000FF8100086D84000883840008778400080D
:10006000C3850008CF8500080186000803860008C4
:1000700005860008078600080000000009860008C1
:10008000000000000B8600080000000000000000D7
:100090000D860008000000000F8600081186000889
:1000A00013860008158600081786000819860008C0
:1000B0001B8600081D8600081F860008578400085C
:1000C000FFFFFFFFFFFFFFFFFFFFFFFFFFFFFFFF40
:1000D000FFFFFFFFFFFFFFFFFFFFFFFFFFFFFFFF30
:1000E000FFFFFFFFFFFFFFFFFFFFFFFFFFFFFFFF20
:1000F000FFFFFFFFFFFFFFFFFFFFFFFFFFCC00033E
:10010000FFCC0003FFFFFFFFFFFFFFFFFFFFFFFF2D
:10011000FFFFFFFFFFFFFFFFFFFFFFFFFFFFFFFFEF
:10012000FFFFFFFFFFFFFF0FFFFFC00FFFFFFF0FEE
:10013000FFFFFFFFFFFFFF0FFFFFC00FFFFFFF0FDE
:10014000FFFFFFFFFFFFFFFFFFFFFFFFFFFF33FF8B
:10015000FF0003FFFF000003FFFF3003FF0003FF6A
:10016000FF000003FFFF3003FFFF33FFFFFFFFFF30
:10017000FFFFFFFFFFFFFFFFFFC0FC0FFFC0F0030B
:10018000FFCFC0F3FC0FC3F0FFCF03F3FFC00F039B
:10019000FFF03F03FFFFFFFFFFFFFFFFFFFFFFFF3A
:1001A000FFFFFFFFFFFF3F0FFFFF0CF3FFFFCCF34D
:1001B000FFFFC30FFFF0C3FFFFCF33FFFFCF30FFC1
:1001C000FFF0FCFFFFFFFFFFFFFFFFFFFFFFFFFF51
:1001D000FFF0FFFFFFC0303FFFCF000FFFCC0FCF7E
:1001E000FFF0FFCFFFC03FCFFFCF3FCFFFFFFFFFAD
:1001F000FFFFFFFFFFFFFFFFFFFFFFFFFFFFFFFF0F
:10020000FFFFFFFFFFFFFFFFFFFFFF0FFFFFC00F1D
:10021000FFFFFF0FFFFFFFFFFFFFFFFFFFFFFFFFDE
:10022000FFFFFFFFFFFFFFFFFFFFFFFFFFFFFFFFDE
:10023000FFF000FFFFC0003FFC03FC03FC3FFFC3D7
:10024000FFFFFFFFFFFFFFFFFFFFFFFFFFFFFFFFBE
:10025000FFFFFFFFFFFFFFFFFC3FFFC3FC03FC03AB
:10026000FFC0003FFFF000FFFFFFFFFFFFFFFFFFAA
:10027000FFFFFFFFFFFFFFFFFFFFFFFFFFFFFFFF8E
:10028000FFFFFC3FFFFF0C3FFFFF003FFFFFF003BE
:10029000FFFFF003FFFF003FFFFF0C3FFFFFFC3FAE
:1002A000FFFFFFFFFFFFFFFFFFFFFFFFFFFFCFFF8E
:1002B000FFFFCFFFFFFFCFFFFFF0003FFFFFCFFFAC
:1002C000FFFFCFFFFFFFCFFFFFFFFFFFFFFFFFFF9E
:1002D000FFFFFFFFFFFFFFFFFFFFFFFFFFFFFFFF2E
:1002E000F03FFFFFFF03FFFFFFF3FFFFFFFFFFFFF5
:1002F000FFFFFFFFFFFFFFFFFFFFFFFFFFFFFFFF0E
:10030000FFFFFFFFFFFFCFFFFFFFCFFFFFFFCFFF8D
:10031000FFFFCFFFFFFFCFFFFFFFCFFFFFFFCFFFAD
:10032000FFFFFFFFFFFFFFFFFFFFFFFFFFFFFFFFDD
:10033000FFFFFFFFFFFFFFFFFFC3FFFFFFC3FFFF45
:10034000FFFFFFFFFFFFFFFFFFFFFFFFFFFFFFFFBD
:10035000FFFFFFFFFFFFFFFFFFFFFFFFFC3FFFFF70
:10036000FC03FFFFFFC03FFFFFFC0FFFFFFFC0FFCD
:10037000FFFFF00FFFFFFF00FFFFFFF0FFFFFFFF9A
:10038000FFFFFFFFFFFFFFFFFFFC003FFFF0000F3D
:10039000FFC3FFC3FFCFFFF3FFC3FFC3FFF0000F97
:1003A000FFFC003FFFFFFFFFFFFFFFFFFFFFFFFF1F
:1003B000FFFFFFFFFFCFFFCFFFCFFFCFFFCFFFCF6D
:1003C000FFC00003FFC00003FFCFFFFFFFCFFFFF11
:1003D000FFCFFFFFFFFFFFFFFFFFFFFFFFFFFFFF5D
:1003E000FFC3FC3FFFC0FC0FFFCC3FC3FFCF0FF3A9
:1003F000FFCFC3F3FFCFF003FFCFFC0FFFFFFFFFE3
:10040000FFFFFFFFFFFFFFFFFFF3FFCFFFC3FFC3B0
:10041000FFCFF3F3FFCFF3F3FFCFF3F3FFCFC0F33F
:10042000FFC00003FFF00F0FFFFFFFFFFFFFFFFF05
:10043000FFFFFFFFFFFFFFFFFFFC3FFFFFFC03FF8E
:10044000FFCCF03FFFCCFF03FFC00003FFC0000361
:10045000FFCCFFFFFFFFFFFFFFFFFFFFFFFFFFFFDF
:10046000FFFFFFFFFFF3FFFFFFCFC003FFCFF0034E
:10047000FFCFF3F3FFCFF3F3FFC003F3FFF00FF36E
:10048000FFFFFFFFFFFFFFFFFFFFFFFFFFFFFFFF7C
:10049000FFFC00FFFFF0003FFFC3CF0FFFCFF3C310
:1004A000FFCFF3F3FFC003F3FFF00FF3FFFFFFFFF6
:1004B000FFFFFFFFFFFFFFFFFFFFFFFFFFFFFFC388
:1004C000FFFFFFF3FFFFFFF3FFC0FFF3FFC000F3E9
:1004D000FFFF0003FFFFFF03FFFFFFFFFFFFFFFF23
:1004E000FFFFFFFFFFFFFFFFFFF00C0FFFC0000348
:1004F000FFCFF3F3FFCFF3F3FFCFF3F3FFC000031E
:10050000FFF00C0FFFFFFFFFFFFFFFFFFFFFFFFFED
:10051000FFFFFFFFFFCFF00FFFCFC003FFCFCFF3F1
:10052000FFC3CFF3FFF0F3C3FFF0000FFFFF003F67
:10053000FFFFFFFFFFFFFFFFFFFFFFFFFFFFFFFFCB
:10054000FFFFFFFFFFFFFFFFFFC3F0FFFFC3F0FF51
:10055000FFFFFFFFFFFFFFFFFFFFFFFFFFFFFFFFAB
:10056000FFFFFFFFFFFFFFFFFFFFFFFFFFFFFFFF9B
:10057000FFFFFFFFFC3FFFFFFFC3FFFFFFF3F0FFA5
:10058000FFFFF0FFFFFFFFFFFFFFFFFFFFFFFFFF8A
:10059000FFFFFFFFFFFFCFFFFFFFCFFFFFFF33FF97
:1005A000FFFF33FFFFFCFCFFFFF3FF3FFFF3FF3FC5
:1005B000FFCFFFCFFFCFFFCFFFFFFFFFFFFFFFFF0B
:1005C000FFFFFFFFFFFF33FFFFFF33FFFFFF33FF9F
:1005D000FFFF33FFFFFF33FFFFFF33FFFFFF33FF5B
:1005E000FFFFFFFFFFFFFFFFFFFFFFFFFFCFFFCF7B
:1005F000FFCFFFCFFFF3FF3FFFF3FF3FFFFCFCFF09
:10060000FFFF33FFFFFF33FFFFFFCFFFFFFFCFFFF2
:10061000FFFFFFFFFFFFFFFFFFFFFFFFFFFFFC3FAD
:10062000FFFFFC0FFFCC3FCFFFCC0FCFFFFFCFCFA3
:10063000FFFFC00FFFFFF03FFFFFFFFFFFFFFFFFC8
:10064000FFFFFFFFFFFFFFFFFFF0003FFFCFFFCFE8
:10065000FF3F0FF3FF3CF3F3FF3CF3F3FFCC000F3E
:10066000FFFFFFFFFFFFFFFFFFFFFFFFFFFFFFFF9A
:10067000FFCFFFFFFFC0FFCFFFC003CFFFCF000FB3
:10068000FFFF3F0FFFFF3F0FFFCF000FFFC003FF34
:10069000FFC0FFFFFFCFFFFFFFFFFFFFFFCFFFCF39
:1006A000FFC0000FFFC0000FFFCFCFCFFFCFCFCFD6
:1006B000FFCFCFCFFFC0000FFFF0303FFFFFFFFFA6
:1006C000FFFFFFFFFFFFFFFFFFFC00FFFFF0003F0A
:1006D000FFC3FF0FFFCFFFCFFFCFFFCFFFCFFFCF76
:1006E000FFCFFFCFFFF3FF3FFFFCFC0FFFFFFFFF3C
:1006F000FFFFFFFFFFCFFFCFFFC0000FFFC0000FC6
:10070000FFCFFFCFFFCFFFCFFFCFFFCFFFC3FF0F45
:10071000FFF0003FFFFC00FFFFFFFFFFFFFFFFFFB9
:10072000FFCFFFCFFFC0000FFFC0000FFFCFCFCF25
:10073000FFCFCFCFFFCF03CFFFCFFFCFFFC0FC0F47
:10074000FFFFFFFFFFFFFFFFFFFFFFFFFFCFFFCF19
:10075000FFC0000FFFC0000FFFCFCFCFFFCFCFCF25
:10076000FFFF03CFFFFFFFCFFFFFFC0FFFFFFFFFE8
:10077000FFFFFFFFFFFFFFFFFFFC00FFFFF0003F59
:10078000FFC3FF0FFFCFFFCFFFCF3FCFFFCF3FCF45
:10079000FFC03F3FFFC03C0FFFFF3FFFFFFFFFFFDA
:1007A000FFFFFFFFFFCFFFCFFFC0000FFFC0000F15
:1007B000FFCFCFCFFFFFCFFFFFCFCFCFFFC0000FC7
:1007C000FFC0000FFFCFFFCFFFFFFFFFFFFFFFFFC7
:1007D000FFFFFFFFFFCFFFCFFFCFFFCFFFCFFFCF49
:1007E000FFC0000FFFC0000FFFCFFFCFFFCFFFCF35
:1007F000FFCFFFCFFFFFFFFFFFFFFFFFFFF03FFF38
:10080000FFC03FFFFFCFFFCFFFCFFFCFFFCFFFCF17
:10081000FFC0000FFFF0000FFFFFFFCFFFFFFFCF74
:10082000FFFFFFFFFFFFFFFFFFCFFFCFFFC0000F66
:10083000FFC0000FFFCF0FCFFFFF03FFFFFC30CF44
:10084000FFC0FC0FFFC3FF0FFFCFFFCFFFFFFFFF76
:10085000FFFFFFFFFFCFFFCFFFCFFFCFFFC0000F96
:10086000FFC0000FFFCFFFCFFFCFFFCFFFCFFFFFB6
:10087000FFCFFFFFFFC03FFFFFFFFFFFFFCFFFCF17
:10088000FFC0000FFFC0000FFFCFF0FFFFCF03FF3F
:10089000FFFC3FFFFFCF03FFFFCFF0FFFFC0000FC4
:1008A000FFC0000FFFCFFFCFFFFFFFFFFFCFFFCF46
:1008B000FFC0000FFFC0000FFFCFF0FFFFFF03FFDF
:1008C000FFFC3FCFFFC0000FFFC0000FFFFFFFCFB7
:1008D000FFFFFFFFFFFFFFFFFFFC00FFFFF0003FF8
:1008E000FFC3FF0FFFCFFFCFFFCFFFCFFFCFFFCF64
:1008F000FFC3FF0FFFF0003FFFFC00FFFFFFFFFF04
:10090000FFFFFFFFFFCFFFCFFFC0000FFFC0000FB3
:10091000FFCF3FCFFFCF3FCFFFCF3FCFFFFF000F36
:10092000FFFFC03FFFFFFFFFFFFFFFFFFFFFFFFFD6
:10093000FFFC00FFFFF0003FFCC3FF0FFC0FFFCFE9
:10094000FC0FFFCFFCCFFFCFFCC3FF0FFC30003FFD
:10095000FF3C00FFFFFFFFFFFFFFFFFFFFCFFFCFC9
:10096000FFC0000FFFC0000FFFCFCFCFFFCFCFCF13
:10097000FFFF0FCFFFF0300FFFC0F03FFFCFFFFFB3
:10098000FFCFFFFFFFFFFFFFFFFFFFFFFFC0F03FB5
:10099000FFC0C00FFFCFC3CFFFCFCFCFFFCF0FCF51
:1009A000FFC00C0FFFF03C0FFFFFFFFFFFFFFFFF3B
:1009B000FFFFFFFFFFFFF00FFFCFFFCFFFCFFFCF06
:1009C000FFC0000FFFC0000FFFCFFFCFFFCFFFCF53
:1009D000FFFFF00FFFFFFFFFFFFFFFFFFFFFFFFF26
:1009E000FFFFFFCFFFF0000FFFF0000FFFCFFFCFA3
:1009F000FFCFFFFFFFCFFFCFFFF0000FFFF0000F93
:100A0000FFFFFFCFFFFFFFFFFFFFFFFFFFFFFFCF56
:100A1000FFFFFC0FFFFF000FFFC003CFFFC3FFFF6F
:100A2000FFC003CFFFFF000FFFFFFC0FFFFFFFCF53
:100A3000FFFFFFFFFFFFFFCFFFFFC00FFFC0000F53
:100A4000FFC0FFCFFFF003CFFFFFC0FFFFF003CFDA
:100A5000FFC0FFCFFFC0000FFFFFC00FFFFFFFCFA2
:100A6000FFFFFFFFFFCFFFCFFFC3FF0FFFC0FC0F54
:100A7000FFCC00CFFFFF03FFFFCC00CFFFC0FC0F78
:100A8000FFC3FF0FFFCFFFCFFFFFFFFFFFFFFFFF02
:100A9000FFFFFFCFFFFFFF0FFFCFFC0FFFCFF0CF18
:100AA000FFC003FFFFC003FFFFCFF0CFFFCFFC0F5E
:100AB000FFFFFF0FFFFFFFCFFFFFFFFFFFFFFFFF66
:100AC000FFC3FC0FFFC0FFCFFFCC3FCFFFCF03CF53
:100AD000FFCFF0CFFFCFFC0FFFC0FF0FFFFFFFFFE7
:100AE000FFFFFFFFFFFFFFFFFFFFFFFFFFFFFFFF16
:100AF000FFFFFFFFFFFFFFFFFC000003FC00000300
:100B0000FCFFFFF3FCFFFFF3FFFFFFFFFFFFFFFF13
:100B1000FFFFFFFFFFFFFFFFFFFFFFF0FFFFFF00F3
:100B2000FFFFF00FFFFFC0FFFFFC0FFFFFC03FFF05
:100B3000FC03FFFFFC3FFFFFFFFFFFFFFFFFFFFF87
:100B4000FFFFFFFFFFFFFFFFFCFFFFF3FCFFFFF3D3
:100B5000FC000003FC000003FFFFFFFFFFFFFFFF9F
:100B6000FFFFFFFFFFFFFFFFFFFFFFFFFFFFFFFF95
:100B7000FFFFF0FFFFFFFF3FFFFFFFC3FFFFFFFC93
:100B8000FFFFFFC3FFFFFF3FFFFFF0FFFFFFFFFF80
:100B9000FFFFFFFF3FFFFFFF3FFFFFFF3FFFFFFFA5
:100BA0003FFFFFFF3FFFFFFF3FFFFFFF3FFFFFFF55
:100BB0003FFFFFFF3FFFFFFF3FFFFFFF3FFFFFFF45
:100BC000FFFFFFFFFFFFFFFFFFFFFFFFFFFFFFFF35
:100BD000FFFFFFFCFFFFFFF3FFFFFFCFFFFFFFFF64
:100BE000FFFFFFFFFFFFFFFFFFFFFFFFFFFFFFFF15
:100BF000FFFFFFFFFFF0FFFFFFC03CFFFFCF3CFF09
:100C0000FFCF3CFFFFF33CFFFFC000FFFFC003FF2F
:100C1000FFCFFFFFFFFFFFFFFFFFFFFFFFCFFFF350
:100C2000FFC00003FFC00003FFF3F3FFFFCFFCFF93
:100C3000FFCFFCFFFFC3F0FFFFF003FFFFFC0FFF40
:100C4000FFFFFFFFFFFFFFFFFFFC0FFFFFF003FFB2
:100C5000FFC3F0FFFFCFFCFFFFCFFCFFFFCFFCFF88
:100C6000FFC3F3FFFFF0C0FFFFFFFFFFFFFFFFFF2A
:100C7000FFFFFFFFFFFC0FFFFFF003FFFFC3F0FFCD
:100C8000FFCFFCFFFFCFFCFFFFF3F3F3FFC0000338
:100C9000FFC00003FFCFFFFFFFFFFFFFFFFFFFFFCE
:100CA000FFFC0FFFFFF003FFFFC330FFFFCF3CFF50
:100CB000FFCF3CFFFFCF30FFFFC303FFFFF30FFF6A
:100CC000FFFFFFFFFFFFFFFFFFFFFFFFFFFFFFFF34
:100CD000FFCFFCFFFFCFFCFFFFC0000FFFC00003F2
:100CE000FFCFFCF3FFCFFCF3FFCFFCF3FFFFFFF3DD
:100CF000FFFFFFF3FFFFFFFFFFFC0FFFFFF003FF0E
:100D0000F3C3F0FFF3CFFCFFF3CFFCFFF3F3F3FFEC
:100D1000F00000FFFC0000FFFFFFFCFFFFFFFFFFF4
:100D2000FFFFFFFFFFCFFFF3FFC00003FFC0000383
:100D3000FFCFF3FFFFFFFCFFFFCFFCFFFFC000FF73
:100D4000FFC003FFFFCFFFFFFFFFFFFFFFFFFFFF1E
:100D5000FFFFFFFFFFCFFFFFFFCFFCFFFFCFFCFF39
:100D6000FFC000C3FFC000C3FFCFFFFFFFCFFFFFE7
:100D7000FFCFFFFFFFFFFFFFFFFFFFFFFFFFFFFFB3
:100D8000F3FFFCFFF3FFFCFFF3FFFCFFF3FFFCC3EB
:100D9000F00000C3FC0000FFFFFFFFFFFFFFFFFFAD
:100DA000FFFFFFFFFFFFFFFFFFCFFFF3FFC00003C9
:100DB000FFC00003FFFF0FFFFFCC00FFFFC0F0FFED
:100DC000FFC3FCFFFFCFFCFFFFCFFFFFFFFFFFFFD5
:100DD000FFFFFFFFFFCFFFFFFFCFFFF3FFCFFFF3CB
:100DE000FFC00003FFC00003FFCFFFFFFFCFFFFFE7
:100DF000FFCFFFFFFFFFFFFFFFFFFFFFFFFFFFFF33
:100E0000FFCFFCFFFFC000FFFFC000FFFFFFFCFFA4
:100E1000FFC000FFFFC000FFFFFFFCFFFFC000FF9F
:100E2000FFC003FFFFCFFFFFFFFFFFFFFFCFFCFF70
:100E3000FFC000FFFFC000FFFFCFF3FFFFFFFCFF7D
:100E4000FFCFFCFFFFC000FFFFC003FFFFCFFFFF8E
:100E5000FFFFFFFFFFFFFFFFFFFC0FFFFFF003FFA0
:100E6000FFC3F0FFFFCFFCFFFFCFFCFFFFCFFCFF76
:100E7000FFC3F0FFFFF003FFFFFC0FFFFFFFFFFFCB
:100E8000FFFFFFFFF3FFFCFFF00000FFF00000FF9B
:100E9000F3F3F3FFF3CFFCFFFFCFFCFFFFC3F0FF43
:100EA000FFF003FFFFFC0FFFFFFFFFFFFFFFFFFF50
:100EB000FFFC0FFFFFF003FFFFC3F0FFFFCFFCFFBE
:100EC000F3CFFCFFF3F3F3FFF00000FFF00000FFAF
:100ED000F3FFFCFFFFFFFFFFFFFFFFFFFFCFFCFF64
:100EE000FFCFFCFFFFC000FFFFC000FFFFCFF3FFFD
:100EF000FFCFFCFFFFCFFCFFFFFFF0FFFFFFF3FF83
:100F0000FFFFFFFFFFFFFFFFFFC3C3FFFFC300FFA4
:100F1000FFCF0CFFFFCF0CFFFFCC3CFFFFC030FF2B
:100F2000FFF0F0FFFFFFFFFFFFFFFFFFFFFFFFFFEF
:100F3000FFFFFFFFFFFFFCFFFFFFFCFFFFF00003D1
:100F4000FFC00003FFCFFCFFFFCFFCFFFFCFFCFF84
:100F5000FFF3FFFFFFFFFFFFFFFFFFFFFFFFFFFFAD
:100F6000FFFFFCFFFFF000FFFFC000FFFFCFFFFF10
:100F7000FFCFFFFFFFF3FCFFFFC000FFFFC000FF3C
:100F8000FFCFFFFFFFFFFFFFFFFFFFFFFFFFFCFFA4
:100F9000FFFFC0FFFFFC00FFFFC03CFFFFC3FFFFE0
:100FA000FFC03CFFFFFC00FFFFFFC0FFFFFFFCFF97
:100FB000FFFFFFFFFFFFFCFFFFFF00FFFFC000FF81
:100FC000FFC0FCFFFFF03FFFFFFF0FFFFFF03FFF01
:100FD000FFC0FCFFFFC000FFFFFF00FFFFFFFCFFA3
:100FE000FFFFFFFFFFCFFCFFFFCFFCFFFFC3F0FFC2
:100FF000FFC000FFFFFC0FFFFFC000FFFFC3F0FFBB
:10100000FFCFFCFFFFCFFCFFFFFFFFFFFFFFFFFF56
:10101000FFFFFCFFF3FFF0FFF3FF00FFF0F00CFF1A
:10102000F003FFFFF300FFFFFFF00CFFFFFF00FFE7
:10103000FFFFF0FFFFFFFCFFFFFFFFFFFFFFFFFFD2
:10104000FFC3F0FFFFC0FCFFFFCC3CFFFFCF3CFF26
:10105000FFCF0CFFFFCFC0FFFFC3F0FFFFFFFFFF7D
:10106000FFFFFFFFFFFFFFFFFFFFFFFFFFFFFFFF90
:10107000FFFF3FFFFF00000FFC00C003FCFFFFF37A
:10108000FFFFFFFFFFFFFFFFFFFFFFFFFFFFFFFF70
:10109000FFFFFFFFFFFFFFFFFFFFFFFFFFFFFFFF60
:1010A000FFFFFFFFFC000003FC000003FFFFFFFF4A
:1010B000FFFFFFFFFFFFFFFFFFFFFFFFFFFFFFFF40
:1010C000FFFFFFFFFFFFFFFFFFFFFFFFFCFFFFF33F
:1010D000FC00C003FF00000FFFFF3FFFFFFFFFFF0B
:1010E000FFFFFFFFFFFFFFFFFFFFFFFFFFFFFFFF10
:1010F000FFFFCFFFFFFFF3FFFFFFF3FFFFFFCFFF78
:10110000FFFF3FFFFFFF3FFFFFFFCFFFFFFFFFFF9F
:10111000FFFFFFFFFFFFFFFFFFFFFFFFFFFFFFFFDF
:10112000FFFFFFFFFFFFFFFFFFFFFFFFFFFFFFFFCF
:10113000FFFFFCF003FFFFFFFFFFFFFFFFFFFCF0DF
:1011400003FCF003FCF003FCF003FCF003FCF003F1
:10115000FCF003FFFFFFF0CCFFFF003FF0CCC3FF2C
:10116000003FF0CCC3FFFFFFFFFFFFFF0C3FFF334B
:10117000CFF033C3FFC3CFFFFFFFFFFFFFFFFFFF32
:10118000FFF3CFFFF333FF33CFFCCCFFFF3CFFFF78
:10119000FFFFFFFFFFFF0FFFFCF0FFFCCF3FFF3F14
:1011A0003FFCCFFFFFFFFFFFFFFFFFFFFFFFFFFF42
:1011B000FFFCF3FFFFFFFFFFFFFFFFFFFFFFFFFF4E
:1011C000FFFFFFFFFFFCFF3FC3FFC3FFFFFFFFFF6A
:1011D000FFFFFFFFFFFFFFC3FFC3FCFF3FFFFFFF5A
:1011E000FFFFFFFFFFFFFFFFFFFFFFCFFFF0CFFF7E
:1011F000FF03FFF0CFFFFFCFFFFFFFFFF3FFFFF382
:10120000FFFFF3FFFC000FFFF3FFFFF3FFFFF3FF10
:10121000FFFFFFFFFFFFC3FFFFF03FFFFF3FFFFFA9
:10122000FFFFFFFFFFFFFFFFFFF3FFFFF3FFFFF3F2
:10123000FFFFF3FFFFF3FFFFFFFFFFFFFFFFFFFFD6
:10124000FC3FFFFC3FFFFFFFFFFFFFFFFFFFFFFF34
:10125000FFFFF3FFFFFC3FFFFFC3FFFFFC3FFFFF6C
:10126000C3FFFFFFFFFFFFFF000FFCFFF3FCFFF3D7
:10127000FCFFF3FF000FFFFFFFFFFFFFFCFFFFFC82
:10128000FFF3FC0003FCFFFFFCFFFFFFFFFFFFFF7E
:10129000FFFC3FCFFCCFF3FCF3F3FCFCF3FC3F0F70
:1012A000FFFFFFFFFFFFFF3FCFFCFFF3FCFCF3FC62
:1012B000FCF3FF030FFFFFFFFFFFFFFFC3FFFFCCA8
:1012C000FFFFCF0FFCCFF3FC0003FCCFFFFFFFFFBE
:1012D000FF3FFFFCFC03FCFCF3FCFCF3FF03F3FF0C
:1012E000FFFFFFFFFFFF003FFCFCCFFCFCF3FCFC1B
:1012F000F3FF03F3FFFFFFFFFFFFFFFFC3FFFFF35A
:10130000FC3FF3FFC0F3FFFF03FFFFFFFFFFFFFF03
:10131000030FFCFCF3FCFCF3FCFCF3FF030FFFFFEB
:10132000FFFFFFFFFCFC0FFCF3F3FCF3F3FF33F3D1
:10133000FFC00FFFFFFFFFFFFFFFFFFFFC3C3FFC75
:101340003C3FFFFFFFFFFFFFFFFFFFFFFFFFFFFF30
:10135000FFF0FFFFFC3CCFFF3CCFFFFFFFFFFFFF95
:10136000FFF3FFFFCCFFFFCCFFFF3F3FFCFFCFFCB5
:10137000FFCFFFFFFFFFFFFFFFCCFFFFCCFFFFCC46
:10138000FFFFCCFFFFCCFFFFFFFFFCFFCFFCFFCF39
:10139000FF3F3FFFCCFFFFCCFFFFF3FFFFFFFFFF4F
:1013A000FFFFFFFFFFFCFF3FFCFFCFFFF3CFFFFC82
:1013B0003FFFFFFFFFFFFFFC0003F3FFFCF3F0FC28
:1013C000F3CF3CFCC003FFFFFFFCFFFFFC0FFFFC63
:1013D000C033FFCFC3FCC03FFC0FFFFCFFFFFCFF8F
:1013E000F3FC0003FCFCF3FCFCF3FCFCF3FF030F39
:1013F000FFFFFFFFFFFFFF000FFCFFF3FCFFF3FC0D
:10140000FFF3FF3FC3FFFFFFFCFFF3FC0003FCFF04
:10141000F3FCFFF3FF3FCFFFC03FFFFFFFFCFFF3F5
:10142000FC0003FCFCF3FCF033FCFFF3FC3FC3FFC8
:10143000FFFFFFFFFFFCFFF3FC0003FCFCF3FFF0EA
:1014400033FFFFF3FFFFC3FFFFFFFF000FFCFFF3BE
:10145000FCF3F3FF03C3FFF3FFFFFFFFFCFFF3FC0D
:101460000003FCFCF3FFFCFFFCFCF3FC0003FCFFAF
:10147000F3FFFFFFFCFFF3FCFFF3FC0003FCFFF3B3
:10148000FCFFF3FFFFFFFFFFFFFF03FFFCFFF3FC89
:10149000FFF3FF0003FFFFF3FFFFFFFCFFF3FC0080
:1014A00003FCF3F3FFF0FFFFCF33FC3FC3FCFFF37C
:1014B000FFFFFFFCFFF3FC0003FCFFF3FCFFFFFC5E
:1014C0000FFFFFFFFFFCFFF3FC0003FCFF03FFF037
:1014D000FFFCFF03FC0003FCFFF3FCFFF3FC000335
:1014E000FCFF03FFC0FFFC3FF3FC0003FFFFF3FF23
:1014F000FFFFFF000FFCFFF3FCFFF3FCFFF3FF0017
:101500000FFFFFFFFFFFFFFCFFF3FC0003FCF3F303
:10151000FFF3F3FFFC0FFFFFFFFFFFFFFF000FFCD8
:10152000FFF3F0FFF3F0FFF3F3000FFFFFFFFCFF0B
:10153000F3FC0003FCF3F3FFF3F3FFC3F3FF3C0FF3
:10154000FCFFFFFFFFFFFC3F0FFF3CF3FCFCF3FC45
:10155000FCCFFF03C3FFFFFFFFFFC3FFFFF3FCFF51
:10156000F3FC0003FCFFF3FFFFF3FFFFC3FFFFF3F8
:10157000FF0003FCFFF3FCFFFFFCFFF3FF0003FF92
:10158000FFF3FFFFF3FFFF03FFC0F3FC3FFFFFC0CC
:10159000F3FFFF03FFFFF3FFFFF3FF0003FCFFF385
:1015A000FF00FFFCFFF3FF0003FFFFF3FCFFF3FC72
:1015B0003FC3FFCF3FFFF0FFFFCF3FFC3FC3FCFF28
:1015C000F3FFFFF3FFFFC3FCFC33FC03FFFCFC3322
:1015D000FFFFC3FFFFF3FFFFFFFC3FC3FCCFF3FCA4
:1015E000F0F3FCFF33FC3FC3FFFFFFFFFFFFFFFFF4
:1015F000FFC00003CFFFF3CFFFF3FFFFFFFFFFFFAD
:10160000FFFFFFFFFFF3FFFC0FFFC3FFF03FFFFFF4
:10161000FFFFFFFFFFFFFFFFFFFFFFCFFFF3CFFF46
:10162000F3C00003FFFFFFFFFFFFFFFFFFFFFCFF13
:10163000FFFF3FFFFFC3FFFF3FFFFCFFFFFFFF3F39
:10164000FFFF3FFFFF3FFFFF3FFFFF3FFFFF3FFF6A
:10165000FF3FFFFFFFFFFFFFFFFFFFFFFFFFFFF366
:10166000FFFFCFFFFFFFFFFFFFFFFFFFFF0CFFFCB0
:10167000F33FFCF33FFCF33FFC00FFFCFFFFFCFFEC
:10168000F3FC0003FCFCFFFCFF3FFCFF3FFF00FFFF
:10169000FFFFFFFFFFFFFF00FFFCFF3FFCFF3FFCE2
:1016A000FF3FFF3C3FFFFFFFFFFFFFFF00FFFCFF8F
:1016B0003FFCFF3FFCFCF3FC0003FCFFFFFFFFFFD0
:1016C000FF00FFFCF33FFCF33FFCF33FFCF0FFFFA8
:1016D000FFFFFFFFFFFCFF3FFC000FFCFF33FCFFA1
:1016E00033FCFF33FFFFFFFFFFFFFF00FFCCFF3F97
:1016F000CCFF3FCCFCFFF0003FFFFF3FFCFFF3FCC3
:101700000003FCFCFFFFFF3FFCFF3FFC00FFFCFF72
:10171000FFFFFFFFFCFF3FFCFF3FFC0033FCFFFF30
:10172000FCFFFFFFFFFFFFFFFFCFFF3FCFFF3FCFDC
:10173000FF33F0003FFFFFFFFFFFFFFCFFF3FC0064
:1017400003FFF3FFFCC33FFC3C3FFCFF3FFFFFFFF9
:10175000FFFFFFFCFFFFFCFFF3FC0003FCFFFFFCAF
:10176000FFFFFFFFFFFCFF3FFC003FFCFF3FFC00D3
:10177000FFFCFF3FFC00FFFCFFFFFCFF3FFC003FC6
:10178000FCFCFFFFFF3FFCFF3FFC00FFFCFFFFFFF7
:10179000FFFFFF00FFFCFF3FFCFF3FFCFF3FFF00A0
:1017A000FFFFFFFFCFFF3FC0003FCCFCFFFCFF3F30
:1017B000FCFF3FFF00FFFFFFFFFFFFFFFF00FFFCFD
:1017C000FF3FFCFF3FCCFCFFC0003FCFFF3FFFFFD0
:1017D000FFFCFF3FFC003FFCFCFFFCFF3FFCFF3F2A
:1017E000FFFFFFFFFFFFFC3CFFFCF33FFCF33FFC70
:1017F000F33FFF0C3FFFFFFFFFFFFFFFFF3FFF0037
:101800000FFCFF3FFCFF3FFCFF3FFF3FFFFFFF3FA1
:10181000FF003FFCFFFFFCFFFFFF3F3FFC003FFCE2
:10182000FFFFFFFF3FFFF03FFF0F3FFCFFFFFF0FFA
:101830003FFFF03FFFFF3FFFFF3FFF003FFCFF3F49
:10184000FF03FFFCFF3FFF003FFFFF3FFCFF3FFCAC
:101850003C3FFFC3FFFFC3FFFC3C3FFCFF3FFFFFDC
:10186000FFFFFF3FCFFC3FCFC33FC03FFFCF0F3F46
:10187000FFF03FFFFF3FFFFFFFFC3C3FFCCF3FFC83
:10188000F33FFCFC3FFC3F3FFFFFFFFFFFFFFFFF7D
:10189000FFFFCFFFF0300FCFFFF3FFFFFFFFFFFF92
:1018A000FFFFFFFFFFFFFFFFFFF00003FFFFFFFF52
:1018B000FFFFFFFFFFFFFFFFFFFFFFCFFFF3F03052
:1018C0000FFFCFFFFFFFFFFFFFFFFFFFFFFFCFFF78
:1018D000FFF3FFFFCFFFFFCFFFFFF3FFFFFFFF008F
:1018E000FFFFFFFFFFFFFFFFFFFFFFFFFFFFF30013
:1018F000FFFFFFFFFFFFFFF0FFFFFFF0FFFFCCCF79
:10190000F003CCCCF003FCCCFFFFF3CFC300FC33DF
:10191000FFFFFFFFFF3FFF30F0CFFFCFFFFFF03FA4
:10192000F303F0F3F3F3FFFFFFFFFFC0FFFFFFFF41
:10193000FFFFFFFFF003CFFCFFFFFFFFCFFCF00333
:10194000FFFFFFFFFFFFFF33FFC0FF33FFFFFF3F3E
:10195000FF3FF003FF3FFF3FFFFFFFFFC3FFFCFF21
:10196000FFFFFFFFFF3FFF3FFF3FFFFFFFFFFFFFC7
:10197000F3FFFFFFFFFFCFFFF0FFFF03FFFCFFFFC1
:10198000FFFFFC03F3FCFC03FFFFF3FFF3FCF0009D
:10199000F3FFF3FFFFFFF0F3F33CF3C3FFFFFFFFA1
:1019A000F3F3F33CFCC3FFFFFFFFFF0FF333F00043
:1019B000F33FFFFFFCC0F3CCFC3CFFFFFFFFFC0349
:1019C000F3CCFC3CFFFFFFFFFFF0F03CFFC0FFFF4C
:1019D000FFFFFC33F3CCFC33FFFFFFFFF3C3F33C0B
:1019E000FC03FFFFFFFFFFFFF3CFFFFFFFFFFFFF42
:1019F000FFFFF3FFFCCFFFFFFF3FFF3FFCCFF3F301
:101A0000FFFFFFFFFF33FF33FF33FFFFFFFFF3F362
:101A1000FCCFFF3FFF3FFFFFFFF3F33CFFC3FFFFA0
:101A2000FFFFF003CFFCCF3CCC03F0FFF30CFF3003
:101A3000F30FF0FFF3FCF000F3CCF3CCFC33FFFF2B
:101A4000FC00F3FCF3F0FFFFF3FCF000F3FCF3FC0D
:101A5000FC03F3FCF000F3CCF3FCF0F0F3FCF0003B
:101A6000F3CCFFFCFFF0FFFFFC03F3FCF03CFF3F77
:101A7000F3FCF000F3CCFFCFF000FFFFF3FCF0002D
:101A8000F3FCFFFFFFFFFC3FF3FCFC00FFFCF3FC5B
:101A9000F000FF0FF030F3FCF3FCF000F3FCF3FF79
:101AA000F0FFF000F3C0FF3FF3C0F000F3FCF000E4
:101AB000F3C3FC3CF000FFFFFC03F3FCF3FCFC036E
:101AC000F3FCF000F33CFF3CFFC3FFFFFC03F3FC1F
:101AD000F0FCF000F3FCF000F33CFF3CF0C3FFFF30
:101AE000F3F0F3CCF030FFFFFFF0F3FCF000F3FC79
:101AF000FFF0FFFCFC00F3FFF3FCFC00FFF0FC0C2C
:101B0000F3FFF03CFFC0FC00F3FCFC0FF3FCFC0017
:101B1000F3FCF0F0FF0FF0F0F3FCFFF0F3CCF03F3C
:101B2000F3CCFFF0FFFFF0F0F33CF3CCF0F0FFFF5D
:101B3000FFFFC000CFFCFFFFFFFCFFC3F03FCFFF64
:101B4000FFFFFFFFCFFCC000FFFFFFFFFFFFFFCF46
:101B5000FFF0FFCFFFFF3FFF3FFF3FFF3FFFFFFFD4
:101B6000FFFFFFFFFFFCFFF3FFFFFFFFF0FFF0CFE2
:101B7000F00FF3FFF3FCF000F3CFF3CFFC3FFFFFD8
:101B8000F00FF3CFF3CFFFFFFFFFFC3FF3CFF3CC1A
:101B9000F000FFFFFC0FF30FF30FFFFFFFFFF3CF8A
:101BA000F003F3CCFFFFFFFFFC3F33CF33CFC00F79
:101BB000F3FCF000F3CFFFCFF03FFFFFF3CFF00CCB
:101BC000F3FFFFFFFFFF3FCF3FCC000FFFFFF3FC12
:101BD000F000FF3FF00FF3CFFFFFF3FCF000F3FF47
:101BE000FFFFF00FFFCFF03FFFCFF03FF3CFF00F3D
:101BF000FFCFFFCFF03FFFFFFC3FF3CFF3CFFC3F22
:101C00003FCF000F33CFF3CFFC3FFFFFFC3FF3CFBD
:101C1000333F000FFFFFF3CFF00FF3CFFFCFFFFFF6
:101C2000F3FFF30FFCCFFFFFFFCFFC03F3CFF3CFA6
:101C3000FCFFFFCFFC0FF3FFF3CFF00FFFCFFF0F41
:101C4000F0FFF0FFFF0FFC0FF3CFFC3FF3CFFC0FD3
:101C5000FFFFF3CFFC3FFC3FF3CFFFCF3C0F03FF71
:101C6000FC0FFFCFFFFFF3CFF0CFF30FF3CFFFFF5A
:101C7000FF3FF003CFFCFFFFFFFFFFFFC000FFFFB0
:101C8000FFFFFFFFCFFCF003FF3FFFFFFFFFFCFF65
:101C9000FF3FFCFFFF3F0000F8B5040000250026D1
:101CA000002C01D10120F2BDFF2042302718022074
:101CB0003870200000F066FE0AE01C2171436118B4
:101CC000283148700E70CD70CD600D614D61761C6D
:101CD000012061688E42F0D300260AE01C21714386
:101CE0006118B4314D700E70CD70CD600D614D61D5
:101CF000761C61688E42F1D32168403108802168EA
:101D000040310D80216844310D80216850310D80B3
:101D1000BD2000022168403108800020243420705A
:101D20003D70F2BD38B5040001D1012032BDFF2065
:101D30004230251802202870200000F010F8200002
:101D400000F045FE0020287032BD00685821415A3D
:101D5000802212020A435830028000207047A021DE
:101D6000490041180A78012A01D102207047012256
:101D70000A700068403002800022828003230380C2
:101D80000A7000207047FEB50500002069460880F3
:101D9000B84F28E00188B84A0A4002802C00283455
:101DA00028685021415A2278D20089180818F91C55
:101DB000405A3840A061216908182061002128009C
:101DC00000F037FE2420285C00280CD06069002831
:101DD00009D12420285C8021014328684C300180EF
:101DE0000020242168542868010044310A886B4689
:101DF0005A80120400D43AE16A4652881207120F40
:101E00006AD16A465288D206C4D52C00B4340288FE
:101E10001A806A461288120519D589892278D2005B
:101E2000891808189549405A3840A0610346A2888D
:101E3000A22040002918286800F096FD2868018833
:101E40008F4A0A400280280000F0DDFDCBE769469A
:101E500009880904C7D50188894A0A400280286890
:101E60005021415A2278D200891808188349405AD3
:101E70003840A061034608D0A2882169286800F094
:101E800073FDA0692169081820610021280000F075
:101E9000C4FD28685021415A081878494018E16863
:101EA0003F2908D34A09C90600D1521E9202802157
:101EB0000902114304E04A08C90700D5521C9102E7
:101EC000018028680188A94A0A40C021890151403F
:101ED000A74A0A43028086E79100029140180188D0
:101EE00019801C214A43A9180191694609880904EF
:101EF00057D50188624A0A400280019CB434237895
:101F0000D9002868A67A002E0ED15023C35A59183A
:101F100009185A4A895A3E000E402DD03300A28833
:101F2000216900F021FD27E09B00C35A5B040BD51B
:101F30005023C35A59180918FA1C895A3E000E40FA
:101F400010D03300E2880AE05023C35A5918091808
:101F50004A4A895A3E000E4004D033002289216942
:101F600000F002FD20788000296808180188814A65
:101F70000A40814911430180A0698019A06121694B
:101F80008A1922616369002B02D0E068864204D27C
:101F90002178280000F041FD03E02178280000F0BE
:101FA00027FB6846008800065CD5019C283402980F
:101FB000296808180188304A0A4002802378D8002E
:101FC0002A681100A67A002E0FD1503212881018FC
:101FD0004018F91C405A3840A06103462ED0A28810
:101FE0002169286800F0AEFC28E09B00D35A5B060C
:101FF0000BD55032128810184018F91C405A38403E
:10200000A061034610D0E2880AE05032128810180E
:1020100040181A49405A3840A061034604D022892A
:102020002169286800F08EFC207880002968081853
:102030000188504A0A40514911430180217828689B
:102040005022825ACB00D2181018FA1C805A3840FD
:10205000A0612269121822616369002B03D1280054
:1020600000F0E7FCBFE6280000F038FBBBE60020EC
:10207000FEBD0000FF0300000F8F000006040000FB
:102080008F0F000038B50400206844300088000439
:1020900002D52000FFF777FE20684421415A490508
:1020A0000CD54421415A364A0A404430028020006F
:1020B00000F0D1FC0021200000F072F820684030D0
:1020C0008188490403D581882E4A0A40828081880C
:1020D000890403D581882C4A0A40828080256D01BD
:1020E0008188294210D00188284A0A400280BD21F7
:1020F00009020180200000F0BBFC20684421415A05
:10210000234A0A4044300280206840308188090513
:1021100011D581881F4A0A408280018808220A431B
:102120000280018804220A4302808088284202D16A
:10213000200000F09CFC20684421415A890508D504
:102140004421415A144A0A4044300280200000F0E1
:102150007BFC20684421415AC90505D54421415AD8
:102160000E4A0A404430028031BD00008FBF00009B
:10217000808000008F8F0000C080000080C00000C1
:10218000FFFB0000FFBF0000FFDF0000FBFF0000BF
:10219000FFEF0000FFF70000FFFD0000FFFE000062
:1021A000A022520082181378012B01D1022070471F
:1021B00001231370002904D1802100684C30018074
:1021C00001E024300170002010707047F1B582B03A
:1021D0007F247F2008401C256843029D28180D0697
:1021E00001D5283000E0B4300C400470C9094170BA
:1021F0000092C260C370A0214900029A515C01297B
:1022000001D10220FEBD0121A0225200029B99545F
:10221000944AC178002905D002290DD01ED3032984
:1022200013D026E00299096803789B00C9180B882F
:102230001A4080239B001AE00299096803789B00EA
:10224000C9180B881A400A8013E0029909680378BC
:102250009B00C9180B881A40C02307E0029909683F
:1022600003789B00C9180B881A408023DB001343B6
:102270000B800378029909689A008C187A4A25889D
:102280007A4E2E401E43164326800578C0239B01BC
:10229000774C867A002E5FD18788764E3E406F4617
:1022A000BE804678002E1ED05023CB5AED005B191D
:1022B0005B188025ED006E46B6885E5303789B0060
:1022C000CB181D886D0605D51D88684E2E406A4DB9
:1022D00035431D8000788000081801880C402021BB
:1022E00061400A43BBE050240C5BED0064196418A4
:1022F00055096E46B688665350240C5B0578ED0090
:10230000641964185D4D6419009D3F2D09D36D0952
:10231000009EF60600D16D1EAE0280252D023543CB
:1023200005E06D08009EF60700D56D1CAD02258006
:102330000478A4000C1925886D0405D525884B4E1A
:102340002E404F4D354325800078800008180188C5
:102350004C4C0C40634081E0AD004D192F88434E3A
:102360003E40494F37432F8050254D5B0678F6009D
:10237000AD196F188026F600BC46C7883D4D3D401C
:102380006746BD5350254D5B0678F600AD196F18B2
:102390005609BC460789374D3D406746BD53057811
:1023A000AD004D194678002E2DD12E88760405D526
:1023B0002F882E4E3E40324F37432F800578AD0098
:1023C0004D192E88760605D52F88284E3E402A4F77
:1023D00037432F800578AD004D192F88234E3E409E
:1023E000254F37432F800578AD004D192E88254F96
:1023F00037407B4013432B80007880000818018809
:102400000C4022432BE02B885B0405D52B88174E0C
:102410001E401B4B33432B8003789B00CB181D8839
:102420006D0605D51D88114E2E40134D35431D8078
:1024300003789B00CB181D880C4E2E40104D354361
:102440001D8003789B00CB181D882C4014431C80F2
:1024500000788000081801880A4B0B401A4302805C
:10246000C0E000008F890000808000008F8F000096
:10247000BF8F0000FEFF0000C080000006040000C7
:1024800080C000008FBF000080810000F1B582B0E5
:102490007F227F2008401C235843029B18180B06FC
:1024A00001D5283000E0B4300A400270C9094170FB
:1024B000A0214900029A515C012901D10220FEBDF0
:1024C0000121A0225200029B9954029909680278C6
:1024D00092008A18009242786B461A71794A7A4DB6
:1024E0007A4B7B4C867A002E6E4636791AD1002EB6
:1024F0000CD0009A128852063DD5009A1288754D6C
:102500001540754A2A43009D2A8034E0009C2488A7
:10251000640460D5009C24886E4E26403543009CA0
:10252000258058E0002E009E36882BD1760406D5F3
:10253000009E3688674F37403D43009E35800578C2
:10254000AD004D192E88760605D52F88614E3E4088
:10255000614F37432F800578AD004D192F885D4EB0
:102560003E405D4F37432F800578AD004D192E88D2
:1025700032401A432A8000788000081801880C40F5
:1025800023432EE0760406D5009E3788514E3E4008
:102590002E43009F3E800678B6008E19009636883E
:1025A000760607D5009E37884A4E3E404A4F37434D
:1025B000009E37800678B6008E1900963688454F03
:1025C00037403D43009E35800578AD004D192E887B
:1025D00034401C432C8000788000081801880A4091
:1025E000134303800020A0214900029A5054FEBDED
:1025F000F1B582B07F247F2008401C256843029DEE
:102600002818B430026143610022826142700C409C
:102610000470A0214900029B5918009109780129F2
:1026200001D10220FEBD0121009C21704469C368D4
:10263000A34201D2E41A01E02300002444611940BE
:102640000191802109028F4C857A002D02D04578B6
:10265000002D19D1029D2D685026AE5B0778FF0032
:10266000F61975192C193F2B06D35D09DB0600D12D
:102670006D1EAB02194305E05D080199002900D0E9
:102680006D1CA90221800AE0012D08D102990D6874
:102690005021695A0678F600891949190B53029995
:1026A0000D680078800028180188064B0B40C02177
:1026B000890159409B4B0B43038000980270002016
:1026C000FEBD00008FBF000080C0000080800000C1
:1026D000BF8F00008F8F0000C0800000F8B506009B
:1026E0001C007F207F230B401C256B43F5182835E9
:1026F0002A616C610022AA6101226A700840287078
:10270000A0204000305C012801D10220F2BDA021B0
:10271000490072546869EC68844201D2001B01E0F0
:10272000040000206861A87A00280FD1A3B2AA880B
:102730002969306800F006F930685021415A2A783A
:10274000D20089180818784944524CE068784D49FD
:1027500000281AD130685023C35A2F78FF00DB19A4
:10276000181840183F2C09D36109E20600D1491E10
:102770008902802212020A43028010E0610822408E
:1027800000D0491C8902018009E0012807D1306886
:102790005022825A2B78DB00D2181018445230682D
:1027A00029788900415A490601D52A8900E0EA883A
:1027B000A3B2296900F0C6F869785C48002907D1FE
:1027C00029788900326851180A881040584A08E070
:1027D000012908D129788900326851180A881040E7
:1027E000544A02430A80287880003168081801881A
:1027F000514A0A40302151404A4A0A43028000208F
:10280000A02149007054F2BD70B5A0225200831877
:102810001A78012A01D1022070BD01241C700D001C
:102820007F220E0605D515401C267543451928350F
:1028300003E01C2675434519B435AC700A402A7074
:10284000C909697004683748002A07D121883B4AC2
:102850000A40C1085140084320800FE09200A218AE
:102860000029118803D0344C0C40102103E0344C73
:102870000C408021490161400843108000201870FD
:1028800070BD000006040000F0B50A007F240B06AE
:1028900005D522401C235A438218283203E01C230A
:1028A0005A438218B432002393700C401470C90943
:1028B0005170A021490041180C78012C01D102204F
:1028C000F0BD01240C7004681078800025181548AC
:1028D000164E5778002F2F880ED07F0604D52F88EC
:1028E0003E40134F37432F8012789200A21814886D
:1028F000114D254030240EE07F0404D52F883E4042
:102900000C4F37432F8012789200A21814880C4D78
:102910002540C024A4016C40204310800B7000208F
:10292000F0BD000080800000020400008F8F0000D6
:10293000C080000080C00000BF8F0000BFBF00004B
:102940008FBF000010B510188022D20080185B1CC9
:102950005A1007E00B784C7824021C430480801C3A
:10296000891C521EF6D110BD10188022D20080188A
:102970005B1C5A1004E003880B80801C891C521ECB
:10298000F9D1704710B586B0814C20680121014310
:102990002160C020400100900220019000200290A0
:1029A0000321039104906946A020C00500F012F9AC
:1029B000E068802109040143E160002203211F2017
:1029C00000F055FA1F2000F056FA06B010BD10B501
:1029D0007048714902690A4002610268CB4313439F
:1029E0000360026811400160A024E405C10C2000CE
:1029F00000F0AEF980214901200000F0A9F91F2064
:102A000000F040FA10BD80B5A22149004118BA2259
:102A10005200805800F0AEFA01BD80B51C224A4336
:102A20008218C4321268BA235B00C05800F0CFFA93
:102A300001BD80B51C224A438218926BBA235B0009
:102A4000C05800F0F9FA01BD80B5BA2149004058DC
:102A500000F062FB01BD10B5BA2149004418012104
:102A6000206800F056FB206800F030FB10BD704776
:102A7000704710B501004948494A02600822426087
:102A80004022C260022202618260BA22520081505A
:102A9000AC328C182060FFF7FFF8182300220021C9
:102AA000206800F04BFB582300228021206800F0B2
:102AB00045FB80235B0000228121206800F03EFB63
:102AC000002010BD80B5882189004058FFF72AF901
:102AD000002002BD80B5882189004058FFF735F9F4
:102AE000002002BD80B5882189004058FFF737F9E2
:102AF000002002BD10B51C00130022008824A40091
:102B00000059FFF763FB002010BD80B588229200BA
:102B10008058FFF7BBFC002002BD80B588229200E0
:102B20008058FFF771FE002002BD80B58822920018
:102B30008058FFF7A9FE002002BD8822920080582D
:102B40004A06520E1C235A438018090601D52A3022
:102B500000E0B6300078704780B588229200805837
:102B6000FFF71EFB002002BD10B58824A400005909
:102B7000FFF7B4FD002010BD10B58824A400005953
:102B8000FFF736FD002010BD06487047000000002A
:102B90002C10024028100240FFFF7FFF5010002041
:102BA000005C004090140020704738B401210022DE
:102BB0000368001D002B0BD00468001D0C4202D0DE
:102BC0004D466D1E64192260241D1B1FF0D0FAE7CC
:102BD00032BC7047F1B583B00022032301240120E9
:102BE000904002900D680540854200D0ABE04868F7
:102BF000022801D0122812D1D0088000039E30187C
:102C00000090006A5607F60E0F27B740B8430F69C9
:102C1000BC4637006646BE40064300980662560032
:102C20000320B040C74300974868012805D0022818
:102C300003D0112801D0122813D103988768009877
:102C40003840CF68B740074303988760039880886F
:102C5000029FB8434F683F092740974007430398B6
:102C6000878003980768009838404F681F40B74036
:102C70000743039807600398C768009838408F6837
:102C8000BC4637006646BE4006430398C6604868A7
:102C9000C00058D56048006820435F4E30609008FF
:102CA00080005E4E30180090006803271740BE0079
:102CB0006F463E710F26F6433F79BE4006400398AB
:102CC000A027FF05B84201D1002014E0544FB842BC
:102CD00001D101200FE0534FB84201D102200AE098
:102CE000514FB84201D1032005E0504FB84201D105
:102CF000042000E005206F463F79B8403043009E35
:102D000030604B480668E84306404F68FF0300D533
:102D10002E43474F3E607E6806404F68BF0300D594
:102D20002E43434F7E60BE6806404F68FF0200D5C9
:102D30002E433F4FBE60FE6830404E68B60201D55C
:102D400005432800F860521C102A00D247E7FFBD57
:102D5000F2B583B001000022354B0126964003985E
:102D6000304002900298B0423CD157000320B84056
:102D7000C7430097086807400F60D0088000081814
:102D80000190076ABC465007C70E0F20B84067463F
:102D90008743019807628868009F07408F60888892
:102DA000B0438880C868009E0640CE6090088000CE
:102DB0001A4E36183768BC460320104087000F2093
:102DC000B840674687433760029EF0431E6806405E
:102DD0001E605E6806405E609E6806409E60DE681B
:102DE0003040D860521C102AB7D306B0C0BD002AAC
:102DF00001D08161704701857047828A514081828C
:102E000070470C4A1368034000D1704780B51060CA
:102E100000F092FD01BD00003410024008000140A6
:102E20000004005000080050000C0050001C00502E
:102E3000000401401404014010B58207D30EFF24A2
:102E40009C40E2438907090E9940030006D500071C
:102E5000000F083880088000184B02E080088000CE
:102E6000174B181803681A401143016010BD80B554
:102E7000FFF7E2FF01BD0121C006C00E81401148ED
:102E8000016070470121C006C00E81400E480160FC
:102E9000704710B5401E80214904884201D30120AB
:102EA00010BD0A4C606003210020C043FFF7C4FF3F
:102EB0000020A0600721216010BD00001CED00E093
:102EC00000E400E000E100E080E100E010E000E06C
:102ED00010B5002801D1022010BD85239B00C31826
:102EE0001C68002C01D000241C60002902D084231F
:102EF0009B00C1500121FE235B00C1540270FFF70B
:102F0000B8FD002010BD10B50400FE2040002218BE
:102F1000012010706168C9B2200092695268904720
:102F20002000FFF7DFFD2000FFF7CCFD002010BDE3
:102F30000022002903D085239B00C15000E002221B
:102F40001000704780B5FFF7C5FD002002BD10B529
:102F50000224852292008258002A04D012689047E9
:102F6000002800D10024200010BD80B585229200E9
:102F70008258DFE038B50400822080002518280040
:102F800000F0B8FEFA204000201801210160418BBA
:102F90004160017DC806C00E03D002280BD005D3C6
:102FA0000EE02900200000F0FDFC0EE029002000CA
:102FB00000F0A0FD09E02900200000F0B8FD04E0C9
:102FC000802001402000FFF7A8FD002032BD38B569
:102FD00004001000FA225200A318002921D18221F6
:102FE000490061181A68032A24D18D68CA68AA4268
:102FF0000AD2AB1A8B60934200D21A0092B201003F
:10300000200000F0CBFE15E0186A0169080004D02A
:10301000187A032801D120008847200000F0C2FE62
:1030200008E0186A8269100004D0187A032801D1D8
:1030300020009047002032BDF8B504001000FA22AD
:103040005200A618002936D121001431002532681B
:10305000022A2BD18A68CB680093934207D2D21AF6
:103060008A6092B20100200000F094FE1EE04F68DA
:103070003800194600F0C7FE00290BD1009887429E
:1030800008D37068874205D20022200000F082FE3B
:1030900075600BE0306AC168080004D0307A0328FC
:1030A00001D120008847200000F088FE307B0128F5
:1030B0000AD1357308E0306A4269100004D0307AD2
:1030C000032801D1200090470020F2BD38B505004B
:1030D000402300220021FFF70DFD402488204000FE
:1030E0002C504023002280212800FFF703FD281DDB
:1030F000C461FE2149006A1801211170D1690029BB
:1031000005D00168C9B22800926952689047002032
:1031100032BD01740020704780B5FE21490041187E
:103120000A78032A04D18969C9690A0000D088474E
:10313000002002BD52689047002002BD10B50C0669
:1031400006D54906490E1C2461434018283003E087
:103150001C2461434018B430002A03D1002181723D
:10316000838004E001218172C380190C0181002059
:1031700010BD0268531C036011707047FEB57048A3
:10318000006801906F4CC0200001201802900025BB
:1031900001266D4F2078002808D002286BD02ED34E
:1031A000042800D1DEE000D27DE0F7BD674800F0E2
:1031B000A3FE8720C00020180090AC2348220021E5
:1031C000002000F063FF0223614A0D21002000F07F
:1031D000CFFE380000F090FE03235E4A08215720FE
:1031E00000F0C6FE03235C4A0321472000F0C0FE26
:1031F00000F07BFFFA20C00000F0C1FFC2E1FF2019
:1032000000F07DFE55482018009030233022002128
:10321000052000F03BFF5248201800901A2330226E
:103220000021822000F032FF029800903C231022FF
:1032300000213C2000F02AFF380000F05DFE012351
:10324000D14A0D21002000F093FE0323CF4A07212D
:10325000382000F08DFE0323CD4A0421352000F0F4
:1032600087FE0523A6220C21022000F0F5FE00F0C7
:103270003CFF022084E10198857000F0A7FF002840
:1032800093D0019800780A2801D004288DD10198A4
:103290008078010003D0802801DA032070E18028C3
:1032A00000DA70E16BE1FF2000F029FEF820400019
:1032B0002018009092231C2204210D2000F0E6FE2D
:1032C000380000F019FE0123B4A20D21002000F007
:1032D0004FFE0323B6A201210F2000F049FE052373
:1032E000A6220C21022000F0B7FE04231A2200219E
:1032F000912000F0B1FEA74800F0FEFD032300BFBF
:10330000B0A20121922000F033FE00F0EEFE019900
:103310008D7000F0DEFA00F0DDFF656005E000F082
:1033200055FF002801D001F00AF860680028F6D0A7
:1033300000F0F2FA9848FFF7E6FD656022E100BF71
:10334000EC82000800000020640D00205C0D0020CD
:1033500084840008908400089C840008440A0000CB
:10336000640B0000012001F02BF8002001F028F888
:10337000FF2000F0C4FD029800903C2310220021A1
:103380001E2000F083FE2000083000902023202221
:103390000421032000F07AFE2000883000901D23D5
:1033A00020220421322000F071FE2000FC30009029
:1033B0001D23202204215A2000F068FEB82040007E
:1033C00020180090202320220421822000F05EFE9D
:1033D000380000F091FD01237CA20D21002000F0B7
:1033E000C7FD0523A6220C21022000F035FE032391
:1033F00039220021712000F02FFE664800F07CFD8C
:10340000032300BF9EA20121742000F0B1FD00F053
:103410006CFE01998D70022001990870656001E0D1
:1034200000280CD100F0D2FE0198017860680028D5
:1034300005D1019880780A29F2D00028F2D00A2913
:1034400000D09FE00198807865A600280CD0412824
:103450000ADA01F009F9FF2000F051FD380000F010
:103460004BFD012363A25EE0010041393F291DD2DB
:10347000FF2000F044FD380000F03EFD012300BFB6
:1034800060A20D21002000F073FD0523A6220C216F
:10349000022000F0E1FD00F028FE01F0C3F9FF205A
:1034A00000F02DFD012300BF5BA23CE080384028E6
:1034B0001CD2FF2000F023FD380000F01DFD012389
:1034C0005AA20D21002000F053FD0523A6220C2155
:1034D000022000F0C1FD00F008FE01F0C1FAFF205B
:1034E00000F00DFD012300BF55A21CE0FF2000F0FD
:1034F00006FD380000F000FD012300BF56A20D219B
:10350000002000F035FD0523A6220C21022000F04A
:10351000A3FD00F0EAFD01F007FCFF2000F0EFFC46
:10352000012300BF51A20D21002000F021FD052341
:10353000A6220C21022000F08FFD03233200072178
:10354000082000F015FD0323CD4A0321082000F0D8
:103550000FFD042339220021712000F07DFD0D486C
:1035600000F0CAFC032300BF45A20121742000F033
:10357000FFFC00F0BAFD656060680028FCD0042004
:103580002070F7BD2670F7BDAC840008C484000825
:10359000D0840008200E00202C0E002053544D3300
:1035A000324C303533205553422044656D6F000056
:1035B0004C45465420524947485420555020444FCA
:1035C000574E0000423120457800000053544D33DF
:1035D000324C303533204944442044656D6F00003F
:1035E00043757272656E7420636F6E73756D70745F
:1035F000696F6E004D435520696E2052756E204DE7
:103600006F6465004D435520696E20536C6565708D
:10361000204D6F646500000057616B652075702058
:1036200066726F6D20536C65657000004D435520C8
:10363000696E204C50536C656570204D6F64650059
:1036400057616B652075702066726F6D204C50530A
:103650006C656570000000004D435520696E205375
:10366000746F70204D6F64650000000057616B65DA
:103670002075702066726F6D2053544F500000000B
:10368000423120746F20457869740000F0B585B030
:10369000B14CE06801210143E160E068022101438F
:1036A000E160E06804210143E160E0680821014332
:1036B000E160E06880210143E160A849A020C005E5
:1036C00002680A6082884A6082688A60026ACA6008
:1036D000426A0A61A24A12684A61A14A92888A61D2
:1036E0009F4A9268CA619E4A126A0A629C4A526A5A
:1036F0004A629C4F3A688A62BA88CA62BA680A63A8
:103700003A6A4A637A6A8A63974E3268CA63B288B1
:103710000A64B2684A64326A8A64726ACA64934DFF
:103720002A680A65AA884A65AA688A652A6ACA65F3
:103730006A6A0A668E490091032101910021029173
:103740006946FFF747FA69468548FFF743FA694635
:103750003800FFF73FFA69463000FFF73BFA694649
:103760002800FFF737FAE06801218843E060E0684D
:1037700002218843E060E06804218843E060E0685B
:1037800008218843E060E06880218843E060794850
:1037900001F05AFC78482169014021612168C24347
:1037A0000A43226021680840206074486169014032
:1037B00061616168C2430A43626061680840606099
:1037C00005B0F0BD10B56E4C2068012101432160A9
:1037D0002068022101432160206804210143216007
:1037E0002068082101432160206880210143216075
:1037F000A021C905594802680A6042688A80826827
:103800008A60C2680A6202694A62554942690A606E
:1038100082698A80C2698A60026A0A62426A4A626E
:103820005049826A0A60C26A8A80026B8A60426B6F
:103830000A62826B4A624C49C26B0A60026C8A80DF
:10384000426C8A60826C0A62C26C4A624749026DAD
:103850000A60426D8A80826D8A60C26D0A62006E63
:1038600048620121002000F0C1FD6068802149020A
:103870000143616000F00CFD00F01CFB10BD000076
:103880002013002030B593B03E4CE06A80214905FA
:103890000143E1623C4801683C4A0A40810C114303
:1038A0000160022005900125089505A801F0ECFBB8
:1038B0000F200090019500200290039004900121B8
:1038C000684601F0BBFD2068E9030143216013B0A5
:1038D00030BD10B596B02024089401200E9008A8A1
:1038E00001F0D2FB4020009000050690684601F0F0
:1038F00007FF27480168A2050A4302602548002106
:103900000160210641602449C160222101614461B6
:1039100001F087FF16B010BD00B58FB020200090D9
:1039200000200690684601F0AFFB194801681B4A69
:103930000A4002600FB000BD012802D1184948605A
:10394000704780218901884204D10F480168042210
:103950000A43026070470000201002403413002028
:103960000004005000080050000C0050001C0050E3
:10397000FFFF0000EC130020FFFFFEFFFFEFFFFF43
:103980002C1002400C10024000700040FFE7FFFFC7
:1039900038100240501400207FBB0000FFFFFFF7EB
:1039A00000000020F8B504000F00FE20400026189B
:1039B0000320002201257978092951D801A35B5CF5
:1039C0005B009F446D834D7E4D09044D5C2B390097
:1039D000200000F011F989E0B888002840D1F8886B
:1039E00000283DD1B8784006400E6946087030780E
:1039F000032835D068460078B0706846017820000A
:103A0000FFF7AAF8200000F0CDF9684600780028FA
:103A100002D00220307069E0357067E0344D79885B
:103A20002970297802291BDA3378022B1DD0032B49
:103A300016D1002906D10220307062602000FFF705
:103A400094FA50E0606881424DD0C1B22000FFF787
:103A50008CFA297861602000FFF779FA022842D1B8
:103A60003900200000F05AF940E000293BD06160A5
:103A700030702000FFF76BFA0228F1D033E0F888AD
:103A80000128EDD13078022804D00328E8D10122A2
:103A9000211D12E0201D42600122210008310CE0AE
:103AA0003178891E0129DBD8B168002900D00325AF
:103AB000201D8560022221000C31200000F05AF9FF
:103AC00014E07888012811D1B56007E03078801EB5
:103AD0000128C5D87888012808D1B26039002000B3
:103AE000B26992689047200000F05CF90020F2BDB6
:103AF000B714002038B505000C00FE2040002A183D
:103B0000107803280ED1A088C0B202280ADA280053
:103B1000926992689047E088002806D1280000F05A
:103B200041F902E0280000F0F9F8002032BD70B53C
:103B300004000D00A988C9B27F207F220A408300BB
:103B4000E6186B78002B2ED0012B11D0032B51D10E
:103B50003078022812D0032848D16888002819D16B
:103B6000002917D0802915D02000FEF7D6FF11E0DC
:103B70003078022802D0032804D037E0002939D059
:103B8000802917E06888002834D1002A07D0200057
:103B9000FEF7CBFF29002000B26992689047200011
:103BA00000F000F926E03378022B02D0032B06D078
:103BB0001CE0002A1ED02000FEF7AFFF1AE00840EC
:103BC00000012518080601D5143502E082204000C6
:103BD0002D182000FEF7B1FF002800D0012028603A
:103BE00002222900200000F0C5F803E0290020008F
:103BF00000F094F8002070BD70B582B004000D0094
:103C00006888842189006218010A012908D00229E4
:103C10001ED0032929D0062955D007295BD064E09E
:103C20006946207C12681268904769460988002915
:103C30000DD0E98800290AD06A4612888A4200D944
:103C40000A0069460A800100200000F093F873BD65
:103C500051680226207C0028684603D1896A88477B
:103C60004670E2E7C96A8847FAE7C0B205283CD83F
:103C700001A1095C8F4400BF06121E2A3642694624
:103C8000207C126852689047CFE76946207C126812
:103C900092689047C9E76946207C1268D2689047CD
:103CA000C3E76946207C126812699047BDE7694600
:103CB000207C126852699047B7E76946207C1268F9
:103CC00092699047B1E7207C00280ED16846516880
:103CD000496B8847A9E7207C002806D168465168CF
:103CE000096B8847072141709FE72900200000F0F9
:103CF00015F873BD0A7802704A7842708A78CB78DA
:103D00001B02D21842800A794B791B02D21882809A
:103D10008A79C97909025118C180704710B5040029
:103D20008021FEF7FAFE00212000FEF7F6FE10BD0E
:103D3000002800D1704770B504000023002501E081
:103D40006D1C641C2678002EFAD12D06EC0DA41CE7
:103D5000148012880A7003224A70022206E0D2B24E
:103D60008C54401C521CD2B28B54521C0478002C30
:103D7000F5D170BD10B50223FA246400035103008D
:103D800018331A605A6013000A000021FEF7ECFE97
:103D9000002010BD80B513000A000AE080B51300B2
:103DA0000A0012E080B50421FA225200815000235B
:103DB00000220021FEF7D8FE002002BD80B50521BB
:103DC000FA2252008150002300220021FEF7D4FE87
:103DD000002002BDF446002804D4494200F013F844
:103DE000404260474042002905D45FD000F00BF804
:103DF000404249426047494200F005F84942604765
:103E000003460B43E6D40022030A8B420BD203097C
:103E10008B4219D243088B422ED2411A00D201465E
:103E2000524110467047FF2209023FD012068B42D2
:103E300005D3121209028B4201D31212090203099F
:103E40008B4219D300E0090AC3098B4201D3CB018D
:103E5000C01A524183098B4201D38B01C01A5241CF
:103E600043098B4201D34B01C01A524103098B42D3
:103E700001D30B01C01A5241C3088B4201D3CB00BE
:103E8000C01A524183088B4201D38B00C01A5241A1
:103E900043088B4201D34B00C01A5241884200D3E1
:103EA000401A5241CFD201461046704708B501F082
:103EB00011FD08BD10B5964CFF2060602000103049
:103EC000A060002020609348E06000688047FF20E9
:103ED00000F015F81834200000F00EF8002010BD96
:103EE00080B58B48C0684069804702BD80B588486E
:103EF000C0688069804702BD85498860704770B599
:103F00000500834C25601123AB2200210020E668C8
:103F1000F668B047804EE8B2E16889688847761E47
:103F2000F9D170BDF0B583B0794DAC68A388E6884F
:103F3000203AD2B272435A432468A2180192002454
:103F40000093764A8B199B189BB2009FC719BA1829
:103F500092B2EF68FF68B8470098464305E00198C1
:103F6000005DE96889688847641CB442F7D3F7BDEF
:103F7000FBB5170000240025380000E0641C010098
:103F8000401C09780029F9D1FFF7AAFF6049896828
:103F90008E883100FFF737FF694609886A46127A32
:103FA000012A02D0022A05D00BE0001B7043400812
:103FB0000C1815E0694609884A42001B7043141822
:103FC0000EE00C000CE03A7868468188E0B2FFF71A
:103FD000A9FF4F48806880882418A4B27F1C6D1CFC
:103FE0003E78002E00D00126FFF77AFF01004848F6
:103FF00080688288ADB228005043081A80B290428F
:104000008041C043C00F0642DDD1F7BDF8B51600B0
:1040100000243F4D0B00821992B2EF68FF68B84749
:1040200004E03F20E96889688847641CB442F8D3FB
:10403000F1BDF8B516000024354D8B199BB2020076
:10404000EF68FF68B84704E00020E968896888479E
:10405000641CB442F8D3F1BDF8B504000E0015009D
:104060001F00FFF7D3FF6A1C92B2F11989B220003A
:10407000FFF7CCFF3A0031002000FFF7DAFF3A00EB
:104080003100601980B2FFF7D4FFF1BDF7B505002C
:104090001E001F4C2148694689886A461289920889
:1040A00089180B189BB2A9190A1892B26846818820
:1040B0002800E768FF68B847E068C769380007D09C
:1040C0000898009033006846028981882800B84724
:1040D000FFF70CFF0500FFF703FFABB282B2002130
:1040E0000020E468E468A047F7BD80B50848C068D0
:1040F000006980470A4800F042F80122042109487B
:10410000FEF775FE0A2000F03AF801BD000000003D
:104110004C0D00202C0D0020180C0000FFFF0000AB
:104120006C0700000004005080B52148016840225F
:104130000A430260016802220A430260032000F081
:1041400004F801F0C9FB002002BD10B5040001F025
:10415000ADFAFA218900FFF756FEFEF79AFE00221B
:1041600021000020C043FEF782FE002010BD114850
:104170000168491C016070470E480068704711B51E
:1041800081B0FFF7F9FF0400FFF7F6FF001B01996C
:104190008842F9D313BD08480168022291430160A7
:1041A00070470548016802220A4302607047000018
:1041B00000200240A814002010E000E080B5224852
:1041C00001F042FC24A001F09FFC01BDF8B50026DF
:1041D000002401271D4D6868002806D12868C0B258
:1041E00001F0AAFC01F0D4FC6F6001F0E4FC0028AF
:1041F00009D1002200212868C0B201F011FD286811
:10420000401C28606E60286800281BD02E606E60FD
:1042100028000C3001F042FC28000C3001F0A0FD19
:1042200029000831642001F09DFD002809D10C35DA
:10423000280001F093FE002801D1022402E00324AB
:1042400000E001242000F2BD980D00208C0D00201C
:1042500070477047000000000C82000830820008A0
:104260002C1400200300000044020000070000009E
:1042700080B5002000F082F8012000F07FF80121D5
:10428000002000F0B3F8FFF715FE00F001F801BDC3
:1042900080B51848184901600821816249064160CB
:1042A00009098160102101620021C162A022C2615E
:1042B000D2018261C1607F2202614161416291222B
:1042C0009200026352008263416300F06FFEFFF7C9
:1042D00075FF01BD10B5094C002209492000FEF709
:1042E000F7FD08492000FEF723FE2000FEF72AFE16
:1042F00010BD0000EC130020004002402C0E0020F6
:10430000A80D0020D00C002038B500210022002389
:10431000174C2468A4780425ED43402C01DA2A00C8
:1043200008E0802C01DA052204E0C02C01DA2B0021
:1043300000E00523017042708370C17031BD10B57B
:104340000B48006800780A2801D004280ED1094CD7
:104350002000FFF7D9FF6078002802D1A07800285C
:1043600004D004222100044801F0B0FE10BD00007A
:10437000EC820008B01400202C0E002030B585B06F
:1043800001210222AE4B00281C6801D1144300E039
:104390000C431C60430000BFB0A4E55A0095019196
:1043A000029103928000A7490C1869462068FEF725
:1043B00011FC002229002068FEF719FD05B030BD70
:1043C00080B50022410000BFA4A3595A80009D4B34
:1043D0001858FEF70CFD01BD80B541009FA2515A4F
:1043E0008000984A1058FEF708FD01BDF0B585B071
:1043F0000C000121924A13680B4313609368194320
:1044000091600600B00090490F180025002C0CD1D7
:10441000700000BF92A1085A0090019502200290FE
:10442000039069463868FEF7D5FB012C14D1700063
:104430008BA1085A0090029584480190694638681B
:10444000FEF7C8FB87A0845D0022032160B2FEF75F
:104450000EFD60B2FEF70FFD05B0F0BDF0B585B002
:104460007B4C7C4820608220400060600025A56075
:104470001020E061E560012060610226266125626E
:104480004102A161A5620721E16265626C4F396852
:104490003143396008210091019602900320039076
:1044A000049569466C48FEF795FB20200090049522
:1044B000029669466848FEF78DFBB868F102014331
:1044C000B960200001F02EFE05B0F0BD01B58023DB
:1044D0005B01012269465E4801F080FE002801D0A0
:1044E00000F001F801BD80B5594801F05DFEFFF70D
:1044F000B5FF01BDF0B585B0012051490A680243FE
:104500000A6002250A682A430A600A682A430A6088
:104510000A6802430A600A682A430A60C7030097D0
:1045200001900020029003200390A026F605694622
:104530003000FEF74FFBA8020090474C6946200070
:10454000FEF748FB0420009069462000FEF742FB7E
:104550006802009069462000FEF73CFBE8010090ED
:10456000029569463000FEF735FB00223900300025
:10457000FEF73DFC012204212000FEF738FC00225A
:1045800004212000FEF733FC0220FFF7F8FD012292
:1045900004212000FEF72BFC0A20FFF7F0FDFFF7B7
:1045A0005DFF05B0F0BD70B50600A025ED058024C7
:1045B0002402002221002800FEF719FC0122D1026A
:1045C0002548FEF714FCF0B210E070B50600A025F7
:1045D000ED0580242402002221002800FEF707FCBC
:1045E000002221091C48FEF702FC3000FFF76EFF95
:1045F000012221002800FEF7FAFB70BD3EB5A02481
:10460000E40580252D02002229002000FEF7EFFBA3
:10461000012229002000FEF7EAFB00200190C043A0
:104620000290E8080090012301AA02A9084801F0BD
:1046300079FE002801D0FFF756FF019880B23EBDF9
:104640002C100240180E0020280E0020000021101F
:10465000981300200030014000040050100020009A
:10466000010000000500FEE7FEB500F061FC6B4CA8
:10467000802020706A4F029701200190009401234E
:10468000402284212000183002F068F8002801D070
:1046900000F07AFC6420FFF772FD03252570029775
:1046A0000120019000940123412284212000183030
:1046B00002F054F8002801D000F066FC0120FFF75A
:1046C0005EFD0620207002970120019000940123D6
:1046D000422284212000183002F040F8002801D046
:1046E00000F052FC042020700297012001900094F9
:1046F0000123402284212000183002F02FF80028E6
:1047000001D000F041FC2570E82060700025A57004
:104710001820E070022626716C206071E580272049
:104720002072102060721320A0727E20E0720B2095
:104730002073B820607302970E200190009401232B
:10474000822284212000183002F008F8002801D0CD
:1047500000F01AFC012060650020FFF731FE012007
:10476000FFF72EFE0920207002970120019000948F
:104770000123802284212000183001F0EFFF00285F
:1047800001D000F001FC6420FFF7F9FCA582A575BB
:1047900065650297032001902000143000900123EA
:1047A000142284212000183002F055F8002801D08E
:1047B00000F0EAFB2670029701200190009401238B
:1047C000442284212000183001F0C8FF002801D0C5
:1047D00000F0DAFB0120FFF7D2FC207D0004617DB0
:1047E00009024018A17D45180A2045432565934ECE
:1047F00028003100FFF707FB0800FA218900FFF7C6
:1048000002FB070028003100FFF7FDFA02003B0021
:1048100090A15834200002F099F9F7BDC812002089
:1048200010270000F0B589B000F082FB844C802096
:104830002070844F029701200190009401234022B0
:1048400084212000183001F089FF002801D000F0F9
:104850009BFB6420FFF793FC032525700297012042
:10486000019000940123412284212000183001F09E
:1048700075FF002801D000F087FB0120FFF77FFCC7
:10488000062020700297012001900094012342220B
:1048900084212000183001F061FF002801D000F0D1
:1048A00073FB0420207002970120019000940123E3
:1048B000402284212000183001F050FF002801D050
:1048C00000F062FB2570E82060700025A5701820BC
:1048D000E070022626716C206071E580272020722E
:1048E000102060721320A0727E20E0720B202073D3
:1048F000B820607302970E20019000940123822259
:1049000084212000183001F029FF002801D000F098
:104910003BFB0920207002970120019000940123A5
:10492000802284212000183001F018FF002801D0D7
:1049300000F02AFBFF2020700297012001900094D4
:104940000123812284212000183001F007FF002874
:1049500001D000F019FBFEF799FE2000183001F09D
:10496000DEFE3948016804220A43026030030390E6
:10497000059606963548049003A93548FEF72AF9AE
:10498000002203210720FEF772FA0720FEF773FAD0
:10499000FFF701FC0121002002F0F4F8FFF701FC11
:1049A000FEF710FF00F0C4FAA582A5750297032058
:1049B0000190200014300090012314228421200053
:1049C000183001F048FF002801D000F0DDFA267011
:1049D00002970120019000940123442284212000A9
:1049E000183001F0BBFE002801D000F0CDFA012004
:1049F000FFF7C5FB207D0004617D09024018A17D01
:104A000045180A20454325650C4E28003100FFF764
:104A1000FAF90800FA218900FFF7F5F907002800E4
:104A20003100FFF7F0F902003B0000BF09A1583444
:104A3000200002F08BF809B0F0BD000040420F00EA
:104A4000C8120020102700002C1002400000311076
:104A50000008005025642C252E33646D41000000B1
:104A6000F0B59BB0FEF712FEAA4800680221884309
:104A7000A849086000F05CFAA74C80202070A74885
:104A80000290012001900094012340228421200003
:104A9000183001F063FE002801D000F075FA6420A0
:104AA000FFF76DFB032525709C48029001200190C3
:104AB00000940123412284212000183001F04EFE91
:104AC000002801D000F060FA0120FFF758FB062013
:104AD000207092480290012001900094012342220C
:104AE00084212000183001F039FE002801D000F0A8
:104AF0004BFA042020708948029001200190009414
:104B00000123402284212000183001F027FE0028D4
:104B100001D000F039FA2570E82060700025A570FA
:104B20001820E070022727716C206071E580272033
:104B30002072102666721320A0727E20E0720B2075
:104B40002073B8206073754802900E200190009485
:104B50000123822284212000183001F0FFFD00286B
:104B600001D000F011FAFF2020706C480290012063
:104B7000019000940123812284212000183001F04B
:104B8000EDFD002801D000F0FFF9092020706348F6
:104B900002900120019000940123802284212000B2
:104BA000183001F0DBFD002801D000F0EDF95C4881
:104BB00000685C49014030020843594908600D967D
:104BC00001201490A02000021690159517950DA8AD
:104BD00000F05AFA002801D000F0D6F90F20039017
:104BE00004958020059006950795002103A800F004
:104BF00025FC002801D000F0C7F90D9710950DA8ED
:104C000000F042FA002801D000F0BEF9C64E30682C
:104C1000C6490140316001F0EBFF01F0E3FF3D4880
:104C20000068082101433B4801602000183001F072
:104C300076FDB06A04210143B162380308900A97F7
:104C40000B97C948099008A9C848FDF7C3FF00227F
:104C500003210720FEF70BF90720FEF70CF9FFF7F9
:104C60009AFA2F480068042101432D480160012170
:104C7000012001F087FFFFF794FAFEF703FEFEF72D
:104C8000A1FD00F055F9A582A575244802900320E6
:104C90000190200014300090012314228421200070
:104CA000183001F0D8FD002801D000F06DF9277010
:104CB0001A4802900120019000940123442284218B
:104CC0002000183001F04AFD002801D000F05CF906
:104CD0000120FFF754FA207D0004617D090240188D
:104CE000A17D45180A2045432565FA26B60028000F
:104CF0003100FFF788F80F0028003100FFF783F834
:104D000002003B00A4A15834200001F01FFF1BB09B
:104D1000F0BD000000200240C81200201027000053
:104D200000700040FFE7FFFFF0B589B000F000F928
:104D30008F4C802020708F4F0297012001900094AB
:104D40000123402284212000183001F007FD0028B3
:104D500001D000F019F96420FFF711FA032525703E
:104D60000297012001900094012341228421200018
:104D7000183001F0F3FC002801D000F005F9012003
:104D8000FFF7FDF9062020700297012001900094A2
:104D90000123422284212000183001F0DFFC00288A
:104DA00001D000F0F1F8042020700297012001905A
:104DB00000940123402284212000183001F0CEFC11
:104DC000002801D000F0E0F82570E8206070002590
:104DD000A5701820E070022626716C206071E580B5
:104DE00027202072102060721320A0727E20E072B3
:104DF0000B202073B820607302970E20019000945E
:104E00000123822284212000183001F0A7FC002811
:104E100001D000F0B9F8FF20207002970120019026
:104E200000940123812284212000183001F096FC97
:104E3000002801D000F0A8F8092020700297012076
:104E4000019000940123802284212000183001F079
:104E500085FC002801D000F097F8FEF717FC200031
:104E6000183001F05CFC4448016804220A430260E7
:104E700030030390059606963B48049003A93B48EF
:104E8000FDF7A8FE002203210720FDF7F0FF072011
:104E9000FDF7F1FF01F0ACFE01F0A4FE3748016818
:104EA00004220A4302600121012001F07FFEFEF787
:104EB00089FC00F03DF8A582A575029703200190BA
:104EC0002000143000900123142284212000183087
:104ED00001F0C1FC002801D000F056F826700297BE
:104EE00001200190009401234422842120001830E5
:104EF00001F034FC002801D000F046F80120FFF753
:104F00003EF9207D0004617D09024018A17D421810
:104F10000A204243226500BF22A15834200001F03C
:104F200015FE09B0F0BD000004100240FF1FFFFF96
:104F300010B50F4C2000183001F0F1FB1048A061B3
:104F4000012060620F48E0610020A062206360637E
:104F5000A0632062E0621834200001F091FB002879
:104F600001D000F011F810BD000031100008005011
:104F7000C8120020102700002C10024000700040D2
:104F8000005400402E11B10080B50120FFF724FA33
:104F90006420FFF7F4F8F8E725642C252E336475B8
:104FA0004100000025646E410000000038B5040097
:104FB00001D1012032BD02203C216054200000F0CC
:104FC0008CFC012520680560206801686268A36880
:104FD0001343226952041A4363691343A2691A43B3
:104FE000E3691343226A1A43636A1343A26A1A43AA
:104FF0000A430260E068012804D1206801682A049D
:105000000A430260206B616B0143A06B0843C143FC
:1050100020680161206B616B014320688162A06B95
:1050200021680862206B00F01EF821680863206880
:105030004168032291434160206881680A4382608D
:105040003C342570002032BD10B5002801D101206C
:1050500010BD04003C340221217000F073FC0020DC
:105060002070607010BD10B50100002000220F23D9
:105070009400A3400B4003D003000120904018434C
:10508000521C082AF3D310BDF8B50400A24D2078B5
:10509000C00716D58027BF02E8680C210140082907
:1050A00007D0E8680C2101400C295CD1E868C003F6
:1050B00059D52868074004D0606880214902884299
:1050C00036D104272078800719D56868AD4901409A
:1050D0002069000208436860E8680C210140042947
:1050E00007D0E8680C2101400C2972D1E868C003A0
:1050F0006FD42868384002D0E068012818D12078A1
:10510000C00617D56868A0490140606A0843686016
:1051100068680002000A216A090601436960E868BC
:105120000C2101407AD12868800503D5E069012867
:1051300000D070E12078000700D4A2E06069002868
:10514000286D00D18EE0012101432965FFF714F895
:105150000600286D800700D593E0FFF70DF8801B4F
:105160006528F6D355E12868AD4901402960FFF76D
:1051700003F806002868384006D0FEF7FDFF801BC4
:10518000A8498842F6D344E12868A54901406068EF
:10519000084328606068790888420CD1FEF7ECFF6C
:1051A0000600286838408CD1FEF7E6FF801B9D4939
:1051B0008842F6D32DE1FEF7DFFF0600286838406D
:1051C00000D17EE7FEF7D8FF801B96498842F5D3D1
:1051D0001FE1E0680921C94300280FD02A68114067
:1051E00008432860FEF7C8FF06002868384086D1CB
:1051F000FEF7C2FF801B6528F7D30AE1286801404B
:105200002960FEF7B9FF06002868384000D176E72C
:10521000FEF7B2FF801B6528F6D3FAE0E0690028AC
:1052200028680FD0A90D01432960FEF7A5FF0600ED
:105230002868800500D57DE7FEF79EFF801B652866
:10524000F6D3E6E0784901402960FEF795FF0600B5
:105250002868800500D46DE7FEF78EFF801B652867
:10526000F6D3D6E0012188432865FEF785FF0600C6
:10527000286D800705D5FEF77FFF801B6528F7D3D3
:10528000C7E0207880062ED56848A1690029A96862
:1052900016D001220A43AA60696B01220A436A639D
:1052A00001686A0C0A430260FEF766FF0600A86800
:1052B000800718D4FEF760FF801B6528F7D3A8E0AD
:1052C00001229143A9600168594A0A400260FEF731
:1052D00053FF0600A868800705D5FEF74DFF801B29
:1052E0006528F7D395E0206807404FD0A86B802150
:1052F00049050143A9634F4F3868A90D014339603F
:10530000FEF73AFF06003868C00507D4FEF734FF01
:10531000801B6428F7D37CE000100240464F286DC4
:1053200038402865FEF728FF0600286D800506D561
:10533000FEF722FF801B3B498842F6D369E0286DC7
:105340000740A06838432865A068A90D88420CD1A1
:10535000FEF712FF0600286D800517D4FEF70CFF3C
:10536000801B30498842F6D353E0FEF705FF060064
:10537000286D80050AD5FEF7FFFE801B294988426B
:10538000F6D346E0FFE0FFFFFF1FFFFFA06A002803
:1053900043D0E9680C220A400C2A3CD08027BF0485
:1053A000A5490228286827D101402960FEF7E4FEBC
:1053B00006002868384005D0FEF7DEFE801B652811
:1053C000F7D326E0E8689D490140206B0843616BF4
:1053D0000143E06A0843E8602868790801432960CE
:1053E000FEF7CAFE06002868384016D1FEF7C4FE54
:1053F000801B6528F7D30CE001402960FEF7BCFE56
:1054000006002868384008D0FEF7B6FE801B6528E5
:10541000F7D30320F2BD0120F2BD0020F2BD000051
:10542000FFFFFAFF89130000FFFEFFFF200001408D
:10543000FEDFFFFF00700040FFFAFFFFF3B581B011
:105440000C27974C0320C043964DF021C9430222FC
:10545000954B1E68F307DB0F029EB34266D2924B58
:105460001B680126B343029E1E438F4B1E601E68BD
:10547000F307DB0F029EB3421FD1019B1B681A404A
:1054800005D0EA681140019A92680A43EA600199DE
:105490000978C90700D4B2E001994968022902D10C
:1054A0002A68920308E0002902D12A68920503E0E5
:1054B00003292A6802D1920102D49EE05207FCD54A
:1054C000EA6810400143E960FEF756FE06000198C5
:1054D0004068022809D1E8683840082815D0FEF74E
:1054E0004BFE801BA042F6D377E0032809D1E86881
:1054F00038400C2809D0FEF73FFE801BA042F6D3AF
:105500006BE0002808D1E868384078D0FEF734FE18
:10551000801BA042F7D360E0E868384004286ED0D2
:10552000FEF72AFE801BA042F6D356E0019B1B68C3
:105530001A4005D0EA681140019A92680A43EA606D
:1055400001990978C9074AD501994968022902D108
:105550002A68920308E0002902D12A68920503E034
:1055600003292A6802D1920102D446E0520744D5A9
:10557000EA6810400143E960FEF7FEFD060001986D
:105580004068022809D1E8683840082827D0FEF78B
:10559000F3FD801BA042F6D31FE0032809D1E86881
:1055A00038400C281BD0FEF7E7FD801BA042F6D345
:1055B00013E0002808D1E868384010D0FEF7DCFD81
:1055C000801BA042F7D308E0E8683840042806D0E2
:1055D000FEF7D2FD801BA042F6D30320FEBD324869
:1055E000006801218843029901432F480160006847
:1055F000C107C90F0298814201D00120FEBD019868
:105600000078400706D5E8682F4901400198C06836
:105610000843E86001980078000707D5E8682B493F
:10562000014001980069C0000843E8600320FEF7CC
:105630008CFD0020FEBD0000FFFFFFFEFFFF02FF0C
:1056400030B5184C616823484300E2680C251540CA
:10565000042D04D0082D21D00C2D07D019E020688E
:10566000C00601D5980830BD180030BDE268E16879
:105670009202120F184DAA5C0902890F491CE468B6
:10568000E40301D45A4300E042431000FEF7BBFBA1
:1056900030BD0804400F800012A1085830BD000042
:1056A00089130000001002400020024080B5FFF77F
:1056B000C7FF074909680906090F084A515CC84035
:1056C0000749086002BD0000FFF8FFFFFFC7FFFFAA
:1056D0000C10024000127A00000E0020E00D0020A5
:1056E000880D002000FA000000F4010000E803002B
:1056F00000D0070040420F0080841E0000093D00DA
:10570000F8B50400644D2078C00705D5E86C032186
:10571000884361680143E9642078800705D5E86C17
:105720000C218843A1680143E9642078400705D52E
:10573000E86C5A490140E0680843E86420780007B3
:1057400005D5E86C5649014020690843E864207893
:10575000800652D5A86B802149050143A963514FAA
:105760003868A90D01433960FEF706FD0600386868
:10577000C00505D4FEF700FD801B6528F7D325E0A2
:10578000494F286DF94301406069FA430240914254
:105790000BD0286D296D802212030A432A65296DDA
:1057A000424A0A402A6538402865606980214902DA
:1057B00088420DD1FEF7E0FC0600286D800507D475
:1057C000FEF7DAFC801B3A498842F6D30320F2BD8B
:1057D00061693848FA430A40FB439A4205D12A6876
:1057E000104039400143296002E0296808402860E0
:1057F000286D07406069384328652078400605D544
:10580000E86C2D490140A0690843E864207800064F
:1058100005D5E86C29490140E0690843E8640020A7
:10582000F2BD27490A6880231B0513430B600A68F1
:10583000244B13400B6024494A68244B13404B60AF
:105840004A68036813434B604A68436813434B60DC
:105850004A68836813434B604A68120E12064A6016
:105860004A68C36813434B604A6803691B041343C7
:105870004B600A68164B13400B600A6840690002CF
:10588000104308600868402202430A60086820222A
:1058900002430A607047000000100240FFF3FFFF60
:1058A000FFCFFFFF00700040FFFFFCFFFFFFF7FF8F
:1058B00089130000FFFFCFFFFFFFFFFBFFFFF3FF98
:1058C00028100240FFFFFFF7006C0040FFFFFF4879
:1058D000FFC0FFFF7047FEE77047F0B585B0544842
:1058E0004168802252020A4342600127016839431D
:1058F000016002240168214301601220019000250B
:105900000295039503260496882000906946A020FE
:10591000C005FDF75FF9009469464648FDF75AF95E
:105920000194029503950496442000906946A020B6
:10593000C005FDF74FF9009769463E48FDF74AF963
:1059400005B0F0BD10B53C480168802252020A4300
:1059500002603A4902680A4002600269114001612E
:10596000A024E40504212000FDF7F2F9082120001D
:10597000FDF7EEF910212000FDF7EAF940212000A3
:10598000FDF7E6F980212000FDF7E2F9294C01211D
:105990002000FDF7DDF902212000FDF7D9F910BD47
:1059A00030B585B0022022490A6802430A600A68BD
:1059B00002430A60CA6803051343CB60C10100912A
:1059C0001221019101210291039004240494194DA4
:1059D00069462800FDF7FEF8E0010090049469464E
:1059E0002800FDF7F7F8002201211720FDF73FFA04
:1059F0001720FDF740FA05B030BD10B5104801681A
:105A0000802292030A43026001680E4A0A40026043
:105A1000084C810D2000FDF79BF9802189002000B2
:105A2000FDF796F91720FDF72DFA10BD00000000D4
:105A30002C1002400004005020100240FFFFFEFF27
:105A400028100240FFFFDFFFF8B507000026002402
:105A50003D683E721CE0280000F04AF828782028B3
:105A600001D0222812D127484069006A0068804787
:105A70002448406901684A685306DB0F01D00122BF
:105A80003A720978C900C069405C04430835761C45
:105A9000F0B2B9888842DED3FC80F1BDF8B50700CA
:105AA000002600243D683E721CE0280000F020F82B
:105AB0002878202801D0222812D112484069006A93
:105AC000406880470F48406901684A685306DB0F09
:105AD00001D001223A720978C900C069405C0443D0
