:020000040800F2
:10000000F0150020D5840008258300082783000808
:1000100000000000000000000000000000000000E0
:10002000000000000000000000000000298300081C
:1000300000000000000000002B8300082D83000852
:1000400087320008E74700082B5A0008D35E0008F3
:100050005B5F000871830008878300087B830008CA
:10006000A7840008B3840008F1840008F384000822
:10007000F5840008F784000800000000F9840008F7
:1000800000000000FB8400080000000000000000E9
:10009000FD84000800000000FF84000801850008BE
:1000A0000385000805850008078500080985000804
:1000B0000B8500080D8500080F850008598300088E
:1000C000FFFFFFFFFFFFFFFFFFFFFFFFFFFFFFFF40
:1000D000FFFFFFFFFFFFFFFFFFFFFFFFFFFFFFFF30
:1000E000FFFFFFFFFFFFFFFFFFFFFFFFFFFFFFFF20
:1000F000FFFFFFFFFFFFFFFFFFFFFFFFFFCC00033E
:10010000FFCC0003FFFFFFFFFFFFFFFFFFFFFFFF2D
:10011000FFFFFFFFFFFFFFFFFFFFFFFFFFFFFFFFEF
:10012000FFFFFFFFFFFFFF0FFFFFC00FFFFFFF0FEE
:10013000FFFFFFFFFFFFFF0FFFFFC00FFFFFFF0FDE
:10014000FFFFFFFFFFFFFFFFFFFFFFFFFFFF33FF8B
:10015000FF0003FFFF000003FFFF3003FF0003FF6A
:10016000FF000003FFFF3003FFFF33FFFFFFFFFF30
:10017000FFFFFFFFFFFFFFFFFFC0FC0FFFC0F0030B
:10018000FFCFC0F3FC0FC3F0FFCF03F3FFC00F039B
:10019000FFF03F03FFFFFFFFFFFFFFFFFFFFFFFF3A
:1001A000FFFFFFFFFFFF3F0FFFFF0CF3FFFFCCF34D
:1001B000FFFFC30FFFF0C3FFFFCF33FFFFCF30FFC1
:1001C000FFF0FCFFFFFFFFFFFFFFFFFFFFFFFFFF51
:1001D000FFF0FFFFFFC0303FFFCF000FFFCC0FCF7E
:1001E000FFF0FFCFFFC03FCFFFCF3FCFFFFFFFFFAD
:1001F000FFFFFFFFFFFFFFFFFFFFFFFFFFFFFFFF0F
:10020000FFFFFFFFFFFFFFFFFFFFFF0FFFFFC00F1D
:10021000FFFFFF0FFFFFFFFFFFFFFFFFFFFFFFFFDE
:10022000FFFFFFFFFFFFFFFFFFFFFFFFFFFFFFFFDE
:10023000FFF000FFFFC0003FFC03FC03FC3FFFC3D7
:10024000FFFFFFFFFFFFFFFFFFFFFFFFFFFFFFFFBE
:10025000FFFFFFFFFFFFFFFFFC3FFFC3FC03FC03AB
:10026000FFC0003FFFF000FFFFFFFFFFFFFFFFFFAA
:10027000FFFFFFFFFFFFFFFFFFFFFFFFFFFFFFFF8E
:10028000FFFFFC3FFFFF0C3FFFFF003FFFFFF003BE
:10029000FFFFF003FFFF003FFFFF0C3FFFFFFC3FAE
:1002A000FFFFFFFFFFFFFFFFFFFFFFFFFFFFCFFF8E
:1002B000FFFFCFFFFFFFCFFFFFF0003FFFFFCFFFAC
:1002C000FFFFCFFFFFFFCFFFFFFFFFFFFFFFFFFF9E
:1002D000FFFFFFFFFFFFFFFFFFFFFFFFFFFFFFFF2E
:1002E000F03FFFFFFF03FFFFFFF3FFFFFFFFFFFFF5
:1002F000FFFFFFFFFFFFFFFFFFFFFFFFFFFFFFFF0E
:10030000FFFFFFFFFFFFCFFFFFFFCFFFFFFFCFFF8D
:10031000FFFFCFFFFFFFCFFFFFFFCFFFFFFFCFFFAD
:10032000FFFFFFFFFFFFFFFFFFFFFFFFFFFFFFFFDD
:10033000FFFFFFFFFFFFFFFFFFC3FFFFFFC3FFFF45
:10034000FFFFFFFFFFFFFFFFFFFFFFFFFFFFFFFFBD
:10035000FFFFFFFFFFFFFFFFFFFFFFFFFC3FFFFF70
:10036000FC03FFFFFFC03FFFFFFC0FFFFFFFC0FFCD
:10037000FFFFF00FFFFFFF00FFFFFFF0FFFFFFFF9A
:10038000FFFFFFFFFFFFFFFFFFFC003FFFF0000F3D
:10039000FFC3FFC3FFCFFFF3FFC3FFC3FFF0000F97
:1003A000FFFC003FFFFFFFFFFFFFFFFFFFFFFFFF1F
:1003B000FFFFFFFFFFCFFFCFFFCFFFCFFFCFFFCF6D
:1003C000FFC00003FFC00003FFCFFFFFFFCFFFFF11
:1003D000FFCFFFFFFFFFFFFFFFFFFFFFFFFFFFFF5D
:1003E000FFC3FC3FFFC0FC0FFFCC3FC3FFCF0FF3A9
:1003F000FFCFC3F3FFCFF003FFCFFC0FFFFFFFFFE3
:10040000FFFFFFFFFFFFFFFFFFF3FFCFFFC3FFC3B0
:10041000FFCFF3F3FFCFF3F3FFCFF3F3FFCFC0F33F
:10042000FFC00003FFF00F0FFFFFFFFFFFFFFFFF05
:10043000FFFFFFFFFFFFFFFFFFFC3FFFFFFC03FF8E
:10044000FFCCF03FFFCCFF03FFC00003FFC0000361
:10045000FFCCFFFFFFFFFFFFFFFFFFFFFFFFFFFFDF
:10046000FFFFFFFFFFF3FFFFFFCFC003FFCFF0034E
:10047000FFCFF3F3FFCFF3F3FFC003F3FFF00FF36E
:10048000FFFFFFFFFFFFFFFFFFFFFFFFFFFFFFFF7C
:10049000FFFC00FFFFF0003FFFC3CF0FFFCFF3C310
:1004A000FFCFF3F3FFC003F3FFF00FF3FFFFFFFFF6
:1004B000FFFFFFFFFFFFFFFFFFFFFFFFFFFFFFC388
:1004C000FFFFFFF3FFFFFFF3FFC0FFF3FFC000F3E9
:1004D000FFFF0003FFFFFF03FFFFFFFFFFFFFFFF23
:1004E000FFFFFFFFFFFFFFFFFFF00C0FFFC0000348
:1004F000FFCFF3F3FFCFF3F3FFCFF3F3FFC000031E
:10050000FFF00C0FFFFFFFFFFFFFFFFFFFFFFFFFED
:10051000FFFFFFFFFFCFF00FFFCFC003FFCFCFF3F1
:10052000FFC3CFF3FFF0F3C3FFF0000FFFFF003F67
:10053000FFFFFFFFFFFFFFFFFFFFFFFFFFFFFFFFCB
:10054000FFFFFFFFFFFFFFFFFFC3F0FFFFC3F0FF51
:10055000FFFFFFFFFFFFFFFFFFFFFFFFFFFFFFFFAB
:10056000FFFFFFFFFFFFFFFFFFFFFFFFFFFFFFFF9B
:10057000FFFFFFFFFC3FFFFFFFC3FFFFFFF3F0FFA5
:10058000FFFFF0FFFFFFFFFFFFFFFFFFFFFFFFFF8A
:10059000FFFFFFFFFFFFCFFFFFFFCFFFFFFF33FF97
:1005A000FFFF33FFFFFCFCFFFFF3FF3FFFF3FF3FC5
:1005B000FFCFFFCFFFCFFFCFFFFFFFFFFFFFFFFF0B
:1005C000FFFFFFFFFFFF33FFFFFF33FFFFFF33FF9F
:1005D000FFFF33FFFFFF33FFFFFF33FFFFFF33FF5B
:1005E000FFFFFFFFFFFFFFFFFFFFFFFFFFCFFFCF7B
:1005F000FFCFFFCFFFF3FF3FFFF3FF3FFFFCFCFF09
:10060000FFFF33FFFFFF33FFFFFFCFFFFFFFCFFFF2
:10061000FFFFFFFFFFFFFFFFFFFFFFFFFFFFFC3FAD
:10062000FFFFFC0FFFCC3FCFFFCC0FCFFFFFCFCFA3
:10063000FFFFC00FFFFFF03FFFFFFFFFFFFFFFFFC8
:10064000FFFFFFFFFFFFFFFFFFF0003FFFCFFFCFE8
:10065000FF3F0FF3FF3CF3F3FF3CF3F3FFCC000F3E
:10066000FFFFFFFFFFFFFFFFFFFFFFFFFFFFFFFF9A
:10067000FFCFFFFFFFC0FFCFFFC003CFFFCF000FB3
:10068000FFFF3F0FFFFF3F0FFFCF000FFFC003FF34
:10069000FFC0FFFFFFCFFFFFFFFFFFFFFFCFFFCF39
:1006A000FFC0000FFFC0000FFFCFCFCFFFCFCFCFD6
:1006B000FFCFCFCFFFC0000FFFF0303FFFFFFFFFA6
:1006C000FFFFFFFFFFFFFFFFFFFC00FFFFF0003F0A
:1006D000FFC3FF0FFFCFFFCFFFCFFFCFFFCFFFCF76
:1006E000FFCFFFCFFFF3FF3FFFFCFC0FFFFFFFFF3C
:1006F000FFFFFFFFFFCFFFCFFFC0000FFFC0000FC6
:10070000FFCFFFCFFFCFFFCFFFCFFFCFFFC3FF0F45
:10071000FFF0003FFFFC00FFFFFFFFFFFFFFFFFFB9
:10072000FFCFFFCFFFC0000FFFC0000FFFCFCFCF25
:10073000FFCFCFCFFFCF03CFFFCFFFCFFFC0FC0F47
:10074000FFFFFFFFFFFFFFFFFFFFFFFFFFCFFFCF19
:10075000FFC0000FFFC0000FFFCFCFCFFFCFCFCF25
:10076000FFFF03CFFFFFFFCFFFFFFC0FFFFFFFFFE8
:10077000FFFFFFFFFFFFFFFFFFFC00FFFFF0003F59
:10078000FFC3FF0FFFCFFFCFFFCF3FCFFFCF3FCF45
:10079000FFC03F3FFFC03C0FFFFF3FFFFFFFFFFFDA
:1007A000FFFFFFFFFFCFFFCFFFC0000FFFC0000F15
:1007B000FFCFCFCFFFFFCFFFFFCFCFCFFFC0000FC7
:1007C000FFC0000FFFCFFFCFFFFFFFFFFFFFFFFFC7
:1007D000FFFFFFFFFFCFFFCFFFCFFFCFFFCFFFCF49
:1007E000FFC0000FFFC0000FFFCFFFCFFFCFFFCF35
:1007F000FFCFFFCFFFFFFFFFFFFFFFFFFFF03FFF38
:10080000FFC03FFFFFCFFFCFFFCFFFCFFFCFFFCF17
:10081000FFC0000FFFF0000FFFFFFFCFFFFFFFCF74
:10082000FFFFFFFFFFFFFFFFFFCFFFCFFFC0000F66
:10083000FFC0000FFFCF0FCFFFFF03FFFFFC30CF44
:10084000FFC0FC0FFFC3FF0FFFCFFFCFFFFFFFFF76
:10085000FFFFFFFFFFCFFFCFFFCFFFCFFFC0000F96
:10086000FFC0000FFFCFFFCFFFCFFFCFFFCFFFFFB6
:10087000FFCFFFFFFFC03FFFFFFFFFFFFFCFFFCF17
:10088000FFC0000FFFC0000FFFCFF0FFFFCF03FF3F
:10089000FFFC3FFFFFCF03FFFFCFF0FFFFC0000FC4
:1008A000FFC0000FFFCFFFCFFFFFFFFFFFCFFFCF46
:1008B000FFC0000FFFC0000FFFCFF0FFFFFF03FFDF
:1008C000FFFC3FCFFFC0000FFFC0000FFFFFFFCFB7
:1008D000FFFFFFFFFFFFFFFFFFFC00FFFFF0003FF8
:1008E000FFC3FF0FFFCFFFCFFFCFFFCFFFCFFFCF64
:1008F000FFC3FF0FFFF0003FFFFC00FFFFFFFFFF04
:10090000FFFFFFFFFFCFFFCFFFC0000FFFC0000FB3
:10091000FFCF3FCFFFCF3FCFFFCF3FCFFFFF000F36
:10092000FFFFC03FFFFFFFFFFFFFFFFFFFFFFFFFD6
:10093000FFFC00FFFFF0003FFCC3FF0FFC0FFFCFE9
:10094000FC0FFFCFFCCFFFCFFCC3FF0FFC30003FFD
:10095000FF3C00FFFFFFFFFFFFFFFFFFFFCFFFCFC9
:10096000FFC0000FFFC0000FFFCFCFCFFFCFCFCF13
:10097000FFFF0FCFFFF0300FFFC0F03FFFCFFFFFB3
:10098000FFCFFFFFFFFFFFFFFFFFFFFFFFC0F03FB5
:10099000FFC0C00FFFCFC3CFFFCFCFCFFFCF0FCF51
:1009A000FFC00C0FFFF03C0FFFFFFFFFFFFFFFFF3B
:1009B000FFFFFFFFFFFFF00FFFCFFFCFFFCFFFCF06
:1009C000FFC0000FFFC0000FFFCFFFCFFFCFFFCF53
:1009D000FFFFF00FFFFFFFFFFFFFFFFFFFFFFFFF26
:1009E000FFFFFFCFFFF0000FFFF0000FFFCFFFCFA3
:1009F000FFCFFFFFFFCFFFCFFFF0000FFFF0000F93
:100A0000FFFFFFCFFFFFFFFFFFFFFFFFFFFFFFCF56
:100A1000FFFFFC0FFFFF000FFFC003CFFFC3FFFF6F
:100A2000FFC003CFFFFF000FFFFFFC0FFFFFFFCF53
:100A3000FFFFFFFFFFFFFFCFFFFFC00FFFC0000F53
:100A4000FFC0FFCFFFF003CFFFFFC0FFFFF003CFDA
:100A5000FFC0FFCFFFC0000FFFFFC00FFFFFFFCFA2
:100A6000FFFFFFFFFFCFFFCFFFC3FF0FFFC0FC0F54
:100A7000FFCC00CFFFFF03FFFFCC00CFFFC0FC0F78
:100A8000FFC3FF0FFFCFFFCFFFFFFFFFFFFFFFFF02
:100A9000FFFFFFCFFFFFFF0FFFCFFC0FFFCFF0CF18
:100AA000FFC003FFFFC003FFFFCFF0CFFFCFFC0F5E
:100AB000FFFFFF0FFFFFFFCFFFFFFFFFFFFFFFFF66
:100AC000FFC3FC0FFFC0FFCFFFCC3FCFFFCF03CF53
:100AD000FFCFF0CFFFCFFC0FFFC0FF0FFFFFFFFFE7
:100AE000FFFFFFFFFFFFFFFFFFFFFFFFFFFFFFFF16
:100AF000FFFFFFFFFFFFFFFFFC000003FC00000300
:100B0000FCFFFFF3FCFFFFF3FFFFFFFFFFFFFFFF13
:100B1000FFFFFFFFFFFFFFFFFFFFFFF0FFFFFF00F3
:100B2000FFFFF00FFFFFC0FFFFFC0FFFFFC03FFF05
:100B3000FC03FFFFFC3FFFFFFFFFFFFFFFFFFFFF87
:100B4000FFFFFFFFFFFFFFFFFCFFFFF3FCFFFFF3D3
:100B5000FC000003FC000003FFFFFFFFFFFFFFFF9F
:100B6000FFFFFFFFFFFFFFFFFFFFFFFFFFFFFFFF95
:100B7000FFFFF0FFFFFFFF3FFFFFFFC3FFFFFFFC93
:100B8000FFFFFFC3FFFFFF3FFFFFF0FFFFFFFFFF80
:100B9000FFFFFFFF3FFFFFFF3FFFFFFF3FFFFFFFA5
:100BA0003FFFFFFF3FFFFFFF3FFFFFFF3FFFFFFF55
:100BB0003FFFFFFF3FFFFFFF3FFFFFFF3FFFFFFF45
:100BC000FFFFFFFFFFFFFFFFFFFFFFFFFFFFFFFF35
:100BD000FFFFFFFCFFFFFFF3FFFFFFCFFFFFFFFF64
:100BE000FFFFFFFFFFFFFFFFFFFFFFFFFFFFFFFF15
:100BF000FFFFFFFFFFF0FFFFFFC03CFFFFCF3CFF09
:100C0000FFCF3CFFFFF33CFFFFC000FFFFC003FF2F
:100C1000FFCFFFFFFFFFFFFFFFFFFFFFFFCFFFF350
:100C2000FFC00003FFC00003FFF3F3FFFFCFFCFF93
:100C3000FFCFFCFFFFC3F0FFFFF003FFFFFC0FFF40
:100C4000FFFFFFFFFFFFFFFFFFFC0FFFFFF003FFB2
:100C5000FFC3F0FFFFCFFCFFFFCFFCFFFFCFFCFF88
:100C6000FFC3F3FFFFF0C0FFFFFFFFFFFFFFFFFF2A
:100C7000FFFFFFFFFFFC0FFFFFF003FFFFC3F0FFCD
:100C8000FFCFFCFFFFCFFCFFFFF3F3F3FFC0000338
:100C9000FFC00003FFCFFFFFFFFFFFFFFFFFFFFFCE
:100CA000FFFC0FFFFFF003FFFFC330FFFFCF3CFF50
:100CB000FFCF3CFFFFCF30FFFFC303FFFFF30FFF6A
:100CC000FFFFFFFFFFFFFFFFFFFFFFFFFFFFFFFF34
:100CD000FFCFFCFFFFCFFCFFFFC0000FFFC00003F2
:100CE000FFCFFCF3FFCFFCF3FFCFFCF3FFFFFFF3DD
:100CF000FFFFFFF3FFFFFFFFFFFC0FFFFFF003FF0E
:100D0000F3C3F0FFF3CFFCFFF3CFFCFFF3F3F3FFEC
:100D1000F00000FFFC0000FFFFFFFCFFFFFFFFFFF4
:100D2000FFFFFFFFFFCFFFF3FFC00003FFC0000383
:100D3000FFCFF3FFFFFFFCFFFFCFFCFFFFC000FF73
:100D4000FFC003FFFFCFFFFFFFFFFFFFFFFFFFFF1E
:100D5000FFFFFFFFFFCFFFFFFFCFFCFFFFCFFCFF39
:100D6000FFC000C3FFC000C3FFCFFFFFFFCFFFFFE7
:100D7000FFCFFFFFFFFFFFFFFFFFFFFFFFFFFFFFB3
:100D8000F3FFFCFFF3FFFCFFF3FFFCFFF3FFFCC3EB
:100D9000F00000C3FC0000FFFFFFFFFFFFFFFFFFAD
:100DA000FFFFFFFFFFFFFFFFFFCFFFF3FFC00003C9
:100DB000FFC00003FFFF0FFFFFCC00FFFFC0F0FFED
:100DC000FFC3FCFFFFCFFCFFFFCFFFFFFFFFFFFFD5
:100DD000FFFFFFFFFFCFFFFFFFCFFFF3FFCFFFF3CB
:100DE000FFC00003FFC00003FFCFFFFFFFCFFFFFE7
:100DF000FFCFFFFFFFFFFFFFFFFFFFFFFFFFFFFF33
:100E0000FFCFFCFFFFC000FFFFC000FFFFFFFCFFA4
:100E1000FFC000FFFFC000FFFFFFFCFFFFC000FF9F
:100E2000FFC003FFFFCFFFFFFFFFFFFFFFCFFCFF70
:100E3000FFC000FFFFC000FFFFCFF3FFFFFFFCFF7D
:100E4000FFCFFCFFFFC000FFFFC003FFFFCFFFFF8E
:100E5000FFFFFFFFFFFFFFFFFFFC0FFFFFF003FFA0
:100E6000FFC3F0FFFFCFFCFFFFCFFCFFFFCFFCFF76
:100E7000FFC3F0FFFFF003FFFFFC0FFFFFFFFFFFCB
:100E8000FFFFFFFFF3FFFCFFF00000FFF00000FF9B
:100E9000F3F3F3FFF3CFFCFFFFCFFCFFFFC3F0FF43
:100EA000FFF003FFFFFC0FFFFFFFFFFFFFFFFFFF50
:100EB000FFFC0FFFFFF003FFFFC3F0FFFFCFFCFFBE
:100EC000F3CFFCFFF3F3F3FFF00000FFF00000FFAF
:100ED000F3FFFCFFFFFFFFFFFFFFFFFFFFCFFCFF64
:100EE000FFCFFCFFFFC000FFFFC000FFFFCFF3FFFD
:100EF000FFCFFCFFFFCFFCFFFFFFF0FFFFFFF3FF83
:100F0000FFFFFFFFFFFFFFFFFFC3C3FFFFC300FFA4
:100F1000FFCF0CFFFFCF0CFFFFCC3CFFFFC030FF2B
:100F2000FFF0F0FFFFFFFFFFFFFFFFFFFFFFFFFFEF
:100F3000FFFFFFFFFFFFFCFFFFFFFCFFFFF00003D1
:100F4000FFC00003FFCFFCFFFFCFFCFFFFCFFCFF84
:100F5000FFF3FFFFFFFFFFFFFFFFFFFFFFFFFFFFAD
:100F6000FFFFFCFFFFF000FFFFC000FFFFCFFFFF10
:100F7000FFCFFFFFFFF3FCFFFFC000FFFFC000FF3C
:100F8000FFCFFFFFFFFFFFFFFFFFFFFFFFFFFCFFA4
:100F9000FFFFC0FFFFFC00FFFFC03CFFFFC3FFFFE0
:100FA000FFC03CFFFFFC00FFFFFFC0FFFFFFFCFF97
:100FB000FFFFFFFFFFFFFCFFFFFF00FFFFC000FF81
:100FC000FFC0FCFFFFF03FFFFFFF0FFFFFF03FFF01
:100FD000FFC0FCFFFFC000FFFFFF00FFFFFFFCFFA3
:100FE000FFFFFFFFFFCFFCFFFFCFFCFFFFC3F0FFC2
:100FF000FFC000FFFFFC0FFFFFC000FFFFC3F0FFBB
:10100000FFCFFCFFFFCFFCFFFFFFFFFFFFFFFFFF56
:10101000FFFFFCFFF3FFF0FFF3FF00FFF0F00CFF1A
:10102000F003FFFFF300FFFFFFF00CFFFFFF00FFE7
:10103000FFFFF0FFFFFFFCFFFFFFFFFFFFFFFFFFD2
:10104000FFC3F0FFFFC0FCFFFFCC3CFFFFCF3CFF26
:10105000FFCF0CFFFFCFC0FFFFC3F0FFFFFFFFFF7D
:10106000FFFFFFFFFFFFFFFFFFFFFFFFFFFFFFFF90
:10107000FFFF3FFFFF00000FFC00C003FCFFFFF37A
:10108000FFFFFFFFFFFFFFFFFFFFFFFFFFFFFFFF70
:10109000FFFFFFFFFFFFFFFFFFFFFFFFFFFFFFFF60
:1010A000FFFFFFFFFC000003FC000003FFFFFFFF4A
:1010B000FFFFFFFFFFFFFFFFFFFFFFFFFFFFFFFF40
:1010C000FFFFFFFFFFFFFFFFFFFFFFFFFCFFFFF33F
:1010D000FC00C003FF00000FFFFF3FFFFFFFFFFF0B
:1010E000FFFFFFFFFFFFFFFFFFFFFFFFFFFFFFFF10
:1010F000FFFFCFFFFFFFF3FFFFFFF3FFFFFFCFFF78
:10110000FFFF3FFFFFFF3FFFFFFFCFFFFFFFFFFF9F
:10111000FFFFFFFFFFFFFFFFFFFFFFFFFFFFFFFFDF
:10112000FFFFFFFFFFFFFFFFFFFFFFFFFFFFFFFFCF
:10113000FFFFFCF003FFFFFFFFFFFFFFFFFFFCF0DF
:1011400003FCF003FCF003FCF003FCF003FCF003F1
:10115000FCF003FFFFFFF0CCFFFF003FF0CCC3FF2C
:10116000003FF0CCC3FFFFFFFFFFFFFF0C3FFF334B
:10117000CFF033C3FFC3CFFFFFFFFFFFFFFFFFFF32
:10118000FFF3CFFFF333FF33CFFCCCFFFF3CFFFF78
:10119000FFFFFFFFFFFF0FFFFCF0FFFCCF3FFF3F14
:1011A0003FFCCFFFFFFFFFFFFFFFFFFFFFFFFFFF42
:1011B000FFFCF3FFFFFFFFFFFFFFFFFFFFFFFFFF4E
:1011C000FFFFFFFFFFFCFF3FC3FFC3FFFFFFFFFF6A
:1011D000FFFFFFFFFFFFFFC3FFC3FCFF3FFFFFFF5A
:1011E000FFFFFFFFFFFFFFFFFFFFFFCFFFF0CFFF7E
:1011F000FF03FFF0CFFFFFCFFFFFFFFFF3FFFFF382
:10120000FFFFF3FFFC000FFFF3FFFFF3FFFFF3FF10
:10121000FFFFFFFFFFFFC3FFFFF03FFFFF3FFFFFA9
:10122000FFFFFFFFFFFFFFFFFFF3FFFFF3FFFFF3F2
:10123000FFFFF3FFFFF3FFFFFFFFFFFFFFFFFFFFD6
:10124000FC3FFFFC3FFFFFFFFFFFFFFFFFFFFFFF34
:10125000FFFFF3FFFFFC3FFFFFC3FFFFFC3FFFFF6C
:10126000C3FFFFFFFFFFFFFF000FFCFFF3FCFFF3D7
:10127000FCFFF3FF000FFFFFFFFFFFFFFCFFFFFC82
:10128000FFF3FC0003FCFFFFFCFFFFFFFFFFFFFF7E
:10129000FFFC3FCFFCCFF3FCF3F3FCFCF3FC3F0F70
:1012A000FFFFFFFFFFFFFF3FCFFCFFF3FCFCF3FC62
:1012B000FCF3FF030FFFFFFFFFFFFFFFC3FFFFCCA8
:1012C000FFFFCF0FFCCFF3FC0003FCCFFFFFFFFFBE
:1012D000FF3FFFFCFC03FCFCF3FCFCF3FF03F3FF0C
:1012E000FFFFFFFFFFFF003FFCFCCFFCFCF3FCFC1B
:1012F000F3FF03F3FFFFFFFFFFFFFFFFC3FFFFF35A
:10130000FC3FF3FFC0F3FFFF03FFFFFFFFFFFFFF03
:10131000030FFCFCF3FCFCF3FCFCF3FF030FFFFFEB
:10132000FFFFFFFFFCFC0FFCF3F3FCF3F3FF33F3D1
:10133000FFC00FFFFFFFFFFFFFFFFFFFFC3C3FFC75
:101340003C3FFFFFFFFFFFFFFFFFFFFFFFFFFFFF30
:10135000FFF0FFFFFC3CCFFF3CCFFFFFFFFFFFFF95
:10136000FFF3FFFFCCFFFFCCFFFF3F3FFCFFCFFCB5
:10137000FFCFFFFFFFFFFFFFFFCCFFFFCCFFFFCC46
:10138000FFFFCCFFFFCCFFFFFFFFFCFFCFFCFFCF39
:10139000FF3F3FFFCCFFFFCCFFFFF3FFFFFFFFFF4F
:1013A000FFFFFFFFFFFCFF3FFCFFCFFFF3CFFFFC82
:1013B0003FFFFFFFFFFFFFFC0003F3FFFCF3F0FC28
:1013C000F3CF3CFCC003FFFFFFFCFFFFFC0FFFFC63
:1013D000C033FFCFC3FCC03FFC0FFFFCFFFFFCFF8F
:1013E000F3FC0003FCFCF3FCFCF3FCFCF3FF030F39
:1013F000FFFFFFFFFFFFFF000FFCFFF3FCFFF3FC0D
:10140000FFF3FF3FC3FFFFFFFCFFF3FC0003FCFF04
:10141000F3FCFFF3FF3FCFFFC03FFFFFFFFCFFF3F5
:10142000FC0003FCFCF3FCF033FCFFF3FC3FC3FFC8
:10143000FFFFFFFFFFFCFFF3FC0003FCFCF3FFF0EA
:1014400033FFFFF3FFFFC3FFFFFFFF000FFCFFF3BE
:10145000FCF3F3FF03C3FFF3FFFFFFFFFCFFF3FC0D
:101460000003FCFCF3FFFCFFFCFCF3FC0003FCFFAF
:10147000F3FFFFFFFCFFF3FCFFF3FC0003FCFFF3B3
:10148000FCFFF3FFFFFFFFFFFFFF03FFFCFFF3FC89
:10149000FFF3FF0003FFFFF3FFFFFFFCFFF3FC0080
:1014A00003FCF3F3FFF0FFFFCF33FC3FC3FCFFF37C
:1014B000FFFFFFFCFFF3FC0003FCFFF3FCFFFFFC5E
:1014C0000FFFFFFFFFFCFFF3FC0003FCFF03FFF037
:1014D000FFFCFF03FC0003FCFFF3FCFFF3FC000335
:1014E000FCFF03FFC0FFFC3FF3FC0003FFFFF3FF23
:1014F000FFFFFF000FFCFFF3FCFFF3FCFFF3FF0017
:101500000FFFFFFFFFFFFFFCFFF3FC0003FCF3F303
:10151000FFF3F3FFFC0FFFFFFFFFFFFFFF000FFCD8
:10152000FFF3F0FFF3F0FFF3F3000FFFFFFFFCFF0B
:10153000F3FC0003FCF3F3FFF3F3FFC3F3FF3C0FF3
:10154000FCFFFFFFFFFFFC3F0FFF3CF3FCFCF3FC45
:10155000FCCFFF03C3FFFFFFFFFFC3FFFFF3FCFF51
:10156000F3FC0003FCFFF3FFFFF3FFFFC3FFFFF3F8
:10157000FF0003FCFFF3FCFFFFFCFFF3FF0003FF92
:10158000FFF3FFFFF3FFFF03FFC0F3FC3FFFFFC0CC
:10159000F3FFFF03FFFFF3FFFFF3FF0003FCFFF385
:1015A000FF00FFFCFFF3FF0003FFFFF3FCFFF3FC72
:1015B0003FC3FFCF3FFFF0FFFFCF3FFC3FC3FCFF28
:1015C000F3FFFFF3FFFFC3FCFC33FC03FFFCFC3322
:1015D000FFFFC3FFFFF3FFFFFFFC3FC3FCCFF3FCA4
:1015E000F0F3FCFF33FC3FC3FFFFFFFFFFFFFFFFF4
:1015F000FFC00003CFFFF3CFFFF3FFFFFFFFFFFFAD
:10160000FFFFFFFFFFF3FFFC0FFFC3FFF03FFFFFF4
:10161000FFFFFFFFFFFFFFFFFFFFFFCFFFF3CFFF46
:10162000F3C00003FFFFFFFFFFFFFFFFFFFFFCFF13
:10163000FFFF3FFFFFC3FFFF3FFFFCFFFFFFFF3F39
:10164000FFFF3FFFFF3FFFFF3FFFFF3FFFFF3FFF6A
:10165000FF3FFFFFFFFFFFFFFFFFFFFFFFFFFFF366
:10166000FFFFCFFFFFFFFFFFFFFFFFFFFF0CFFFCB0
:10167000F33FFCF33FFCF33FFC00FFFCFFFFFCFFEC
:10168000F3FC0003FCFCFFFCFF3FFCFF3FFF00FFFF
:10169000FFFFFFFFFFFFFF00FFFCFF3FFCFF3FFCE2
:1016A000FF3FFF3C3FFFFFFFFFFFFFFF00FFFCFF8F
:1016B0003FFCFF3FFCFCF3FC0003FCFFFFFFFFFFD0
:1016C000FF00FFFCF33FFCF33FFCF33FFCF0FFFFA8
:1016D000FFFFFFFFFFFCFF3FFC000FFCFF33FCFFA1
:1016E00033FCFF33FFFFFFFFFFFFFF00FFCCFF3F97
:1016F000CCFF3FCCFCFFF0003FFFFF3FFCFFF3FCC3
:101700000003FCFCFFFFFF3FFCFF3FFC00FFFCFF72
:10171000FFFFFFFFFCFF3FFCFF3FFC0033FCFFFF30
:10172000FCFFFFFFFFFFFFFFFFCFFF3FCFFF3FCFDC
:10173000FF33F0003FFFFFFFFFFFFFFCFFF3FC0064
:1017400003FFF3FFFCC33FFC3C3FFCFF3FFFFFFFF9
:10175000FFFFFFFCFFFFFCFFF3FC0003FCFFFFFCAF
:10176000FFFFFFFFFFFCFF3FFC003FFCFF3FFC00D3
:10177000FFFCFF3FFC00FFFCFFFFFCFF3FFC003FC6
:10178000FCFCFFFFFF3FFCFF3FFC00FFFCFFFFFFF7
:10179000FFFFFF00FFFCFF3FFCFF3FFCFF3FFF00A0
:1017A000FFFFFFFFCFFF3FC0003FCCFCFFFCFF3F30
:1017B000FCFF3FFF00FFFFFFFFFFFFFFFF00FFFCFD
:1017C000FF3FFCFF3FCCFCFFC0003FCFFF3FFFFFD0
:1017D000FFFCFF3FFC003FFCFCFFFCFF3FFCFF3F2A
:1017E000FFFFFFFFFFFFFC3CFFFCF33FFCF33FFC70
:1017F000F33FFF0C3FFFFFFFFFFFFFFFFF3FFF0037
:101800000FFCFF3FFCFF3FFCFF3FFF3FFFFFFF3FA1
:10181000FF003FFCFFFFFCFFFFFF3F3FFC003FFCE2
:10182000FFFFFFFF3FFFF03FFF0F3FFCFFFFFF0FFA
:101830003FFFF03FFFFF3FFFFF3FFF003FFCFF3F49
:10184000FF03FFFCFF3FFF003FFFFF3FFCFF3FFCAC
:101850003C3FFFC3FFFFC3FFFC3C3FFCFF3FFFFFDC
:10186000FFFFFF3FCFFC3FCFC33FC03FFFCF0F3F46
:10187000FFF03FFFFF3FFFFFFFFC3C3FFCCF3FFC83
:10188000F33FFCFC3FFC3F3FFFFFFFFFFFFFFFFF7D
:10189000FFFFCFFFF0300FCFFFF3FFFFFFFFFFFF92
:1018A000FFFFFFFFFFFFFFFFFFF00003FFFFFFFF52
:1018B000FFFFFFFFFFFFFFFFFFFFFFCFFFF3F03052
:1018C0000FFFCFFFFFFFFFFFFFFFFFFFFFFFCFFF78
:1018D000FFF3FFFFCFFFFFCFFFFFF3FFFFFFFF008F
:1018E000FFFFFFFFFFFFFFFFFFFFFFFFFFFFF30013
:1018F000FFFFFFFFFFFFFFF0FFFFFFF0FFFFCCCF79
:10190000F003CCCCF003FCCCFFFFF3CFC300FC33DF
:10191000FFFFFFFFFF3FFF30F0CFFFCFFFFFF03FA4
:10192000F303F0F3F3F3FFFFFFFFFFC0FFFFFFFF41
:10193000FFFFFFFFF003CFFCFFFFFFFFCFFCF00333
:10194000FFFFFFFFFFFFFF33FFC0FF33FFFFFF3F3E
:10195000FF3FF003FF3FFF3FFFFFFFFFC3FFFCFF21
:10196000FFFFFFFFFF3FFF3FFF3FFFFFFFFFFFFFC7
:10197000F3FFFFFFFFFFCFFFF0FFFF03FFFCFFFFC1
:10198000FFFFFC03F3FCFC03FFFFF3FFF3FCF0009D
:10199000F3FFF3FFFFFFF0F3F33CF3C3FFFFFFFFA1
:1019A000F3F3F33CFCC3FFFFFFFFFF0FF333F00043
:1019B000F33FFFFFFCC0F3CCFC3CFFFFFFFFFC0349
:1019C000F3CCFC3CFFFFFFFFFFF0F03CFFC0FFFF4C
:1019D000FFFFFC33F3CCFC33FFFFFFFFF3C3F33C0B
:1019E000FC03FFFFFFFFFFFFF3CFFFFFFFFFFFFF42
:1019F000FFFFF3FFFCCFFFFFFF3FFF3FFCCFF3F301
:101A0000FFFFFFFFFF33FF33FF33FFFFFFFFF3F362
:101A1000FCCFFF3FFF3FFFFFFFF3F33CFFC3FFFFA0
:101A2000FFFFF003CFFCCF3CCC03F0FFF30CFF3003
:101A3000F30FF0FFF3FCF000F3CCF3CCFC33FFFF2B
:101A4000FC00F3FCF3F0FFFFF3FCF000F3FCF3FC0D
:101A5000FC03F3FCF000F3CCF3FCF0F0F3FCF0003B
:101A6000F3CCFFFCFFF0FFFFFC03F3FCF03CFF3F77
:101A7000F3FCF000F3CCFFCFF000FFFFF3FCF0002D
:101A8000F3FCFFFFFFFFFC3FF3FCFC00FFFCF3FC5B
:101A9000F000FF0FF030F3FCF3FCF000F3FCF3FF79
:101AA000F0FFF000F3C0FF3FF3C0F000F3FCF000E4
:101AB000F3C3FC3CF000FFFFFC03F3FCF3FCFC036E
:101AC000F3FCF000F33CFF3CFFC3FFFFFC03F3FC1F
:101AD000F0FCF000F3FCF000F33CFF3CF0C3FFFF30
:101AE000F3F0F3CCF030FFFFFFF0F3FCF000F3FC79
:101AF000FFF0FFFCFC00F3FFF3FCFC00FFF0FC0C2C
:101B0000F3FFF03CFFC0FC00F3FCFC0FF3FCFC0017
:101B1000F3FCF0F0FF0FF0F0F3FCFFF0F3CCF03F3C
:101B2000F3CCFFF0FFFFF0F0F33CF3CCF0F0FFFF5D
:101B3000FFFFC000CFFCFFFFFFFCFFC3F03FCFFF64
:101B4000FFFFFFFFCFFCC000FFFFFFFFFFFFFFCF46
:101B5000FFF0FFCFFFFF3FFF3FFF3FFF3FFFFFFFD4
:101B6000FFFFFFFFFFFCFFF3FFFFFFFFF0FFF0CFE2
:101B7000F00FF3FFF3FCF000F3CFF3CFFC3FFFFFD8
:101B8000F00FF3CFF3CFFFFFFFFFFC3FF3CFF3CC1A
:101B9000F000FFFFFC0FF30FF30FFFFFFFFFF3CF8A
:101BA000F003F3CCFFFFFFFFFC3F33CF33CFC00F79
:101BB000F3FCF000F3CFFFCFF03FFFFFF3CFF00CCB
:101BC000F3FFFFFFFFFF3FCF3FCC000FFFFFF3FC12
:101BD000F000FF3FF00FF3CFFFFFF3FCF000F3FF47
:101BE000FFFFF00FFFCFF03FFFCFF03FF3CFF00F3D
:101BF000FFCFFFCFF03FFFFFFC3FF3CFF3CFFC3F22
:101C00003FCF000F33CFF3CFFC3FFFFFFC3FF3CFBD
:101C1000333F000FFFFFF3CFF00FF3CFFFCFFFFFF6
:101C2000F3FFF30FFCCFFFFFFFCFFC03F3CFF3CFA6
:101C3000FCFFFFCFFC0FF3FFF3CFF00FFFCFFF0F41
:101C4000F0FFF0FFFF0FFC0FF3CFFC3FF3CFFC0FD3
:101C5000FFFFF3CFFC3FFC3FF3CFFFCF3C0F03FF71
:101C6000FC0FFFCFFFFFF3CFF0CFF30FF3CFFFFF5A
:101C7000FF3FF003CFFCFFFFFFFFFFFFC000FFFFB0
:101C8000FFFFFFFFCFFCF003FF3FFFFFFFFFFCFF65
:101C9000FF3FFCFFFF3F0000F8B5040000250026D1
:101CA000002C01D10120F2BDF420400027187878E3
:101CB000002803D13D70200000F0CCFE0320787096
:101CC0000AE01C2171436118283148700E70CD70F4
:101CD000CD600D614D61761C012061688E42F0D3AC
:101CE00000260CE01C2171436118842252008918DF
:101CF0004D700E70CD70CD600D614D61761C6168C8
:101D00008E42EFD322684032108022684032158024
:101D1000226844321580226850321580BD210902A4
:101D20002268403211802434257078700020F2BD82
:101D300038B5040001D1012032BDFF20EA3025185A
:101D400003202870200000F010F8200000F0ABFE07
:101D50000020287032BD00685821415A80221202AA
:101D60000A435830028000207047F421490041188E
:101D70000A78012A01D10220704701220A70006806
:101D80004030028000228280032303800A700020FA
:101D9000704738B50400206844300088000402D53C
:101DA000200000F0C9FC20684421415A49050CD5A7
:101DB0004421415A304A0A4044300280200000F059
:101DC000B7FE0021200000F067F8206840308188CD
:101DD000490403D58188294A0A4082808188890480
:101DE00003D58188264A0A40828080256D0181883A
:101DF000294210D00188234A0A400280BD210902ED
:101E00000180200000F0A1FE20684421415A1E4AB2
:101E10000A4044300280206840308188090511D58D
:101E200081881A4A0A408280018808220A43028077
:101E3000018804220A4302808088284202D12000BF
:101E400000F082FE20684421415A890508D54421CA
:101E5000415A0F4A0A4044300280200000F061FEDF
:101E600020684421415AC90505D54421415A094AEF
:101E70000A404430028031BDFFFB0000FFBF00007C
:101E8000FFDF0000FBFF0000FFEF0000FFF7000096
:101E9000FFFD0000FFFE0000F422520082181378BC
:101EA000012B01D10220704701231370002904D1B6
:101EB000802100684C30018001E024300170002056
:101EC00010707047F1B582B07F247F250D401C262D
:101ED000754340190D0601D5283002E084256D00B8
:101EE00040190C400470C90941700092C260C3706F
:101EF0000299F4225200895C012901D10220FEBD21
:101F00000121029AF4235B00D154944AC17800293C
:101F100005D002290DD01ED3032913D026E0029943
:101F2000096803789B00C9180B881A4080239B001E
:101F30001AE00299096803789B00C9180B881A40B7
:101F40000A8013E00299096803789B00C9180B887E
:101F50001A40C02307E00299096803789B00C9185A
:101F60000B881A408023DB0013430B80037802990F
:101F700009689A008C187A4A25887A4E2E401E43AA
:101F8000164326800578C0239B01774C867A002E65
:101F90005FD18788754E3E406F46BE804678002EE2
:101FA0001ED05023CB5AED005B195B188025ED0045
:101FB0006E46B6885E5303789B00CB181D886D066D
:101FC00005D51D88674E2E40694D35431D8000782C
:101FD0008000081801880C40202161400A43BBE0C2
:101FE00050240C5BED006419641855096E46B688E0
:101FF000665350240C5B0578ED00641964185D4D40
:102000006419009D3F2D09D36D09009EF60600D18D
:102010006D1EAE0280252D02354305E06D08009E41
:10202000F60700D56D1CAD0225800478A4000C19BC
:1020300025886D0405D525884A4E2E404E4D3543E2
:10204000258000788000081801884C4C0C406340C3
:1020500081E0AD004D192F88424E3E40484F374336
:102060002F8050254D5B0678F600AD196F1880263D
:10207000F600BC46C7883D4D3D406746BD535025E0
:102080004D5B0678F600AD196F185609BC460789F6
:10209000364D3D406746BD530578AD004D19467835
:1020A000002E2DD12E88760405D52F882D4E3E404A
:1020B000314F37432F800578AD004D192E887606B5
:1020C00005D52F88274E3E40294F37432F8005786E
:1020D000AD004D192F88234E3E40254F37432F80AA
:1020E0000578AD004D192E88244F37407B401343AF
:1020F0002B8000788000081801880C4022432BE0D8
:102100002B885B0405D52B88164E1E401A4B334393
:102110002B8003789B00CB181D886D0605D51D8884
:10212000104E2E40124D35431D8003789B00CB1876
:102130001D880C4E2E40104D35431D8003789B00AA
:10214000CB181D882C4014431C8000788000081890
:1021500001880A4B0B401A430280C0E08F890000BF
:10216000808000008F8F0000BF8F0000FEFF000006
:10217000C08000000604000080C000008FBF000087
:1021800080810000F1B582B07F227F230B401C24A8
:102190006343C0180B0601D5283002E084235B009E
:1021A000C0180A400270C90941700299F422520015
:1021B000895C012901D10220FEBD0121029AF4238C
:1021C0005B00D15402990968027892008A18009243
:1021D00042786B461A71914A914D924B924C867A95
:1021E000002E6E4636791AD1002E0CD0009A128835
:1021F00052063DD5009A12888C4D15408C4A2A43D0
:10220000009D2A8034E0009C2488640460D5009CF2
:102210002488864E26403543009C258058E0002EB9
:10222000009E36882BD1760406D5009E36887F4FD7
:1022300037403D43009E35800578AD004D192E880E
:10224000760605D52F88794E3E40794F37432F804B
:102250000578AD004D192F88744E3E40744F3743BA
:102260002F800578AD004D192E8832401A432A8000
:1022700000788000081801880C4023432EE0760483
:1022800006D5009E3788694E3E402E43009F3E8013
:102290000678B6008E1900963688760607D5009E19
:1022A0003788624E3E40624F3743009E3780067843
:1022B000B6008E19009636885C4F37403D43009E2D
:1022C00035800578AD004D192E8834401C432C8094
:1022D00000788000081801880A401343038000201A
:1022E0000299F42252008854FEBDF1B582B07F20DD
:1022F000029C7F250D401C267543641984256D00C2
:102300006419226163610022A2616270084020703A
:102310000298F4214900401801900078012801D169
:102320000220FEBD012201990A706069E3688342C0
:1023300001D2C01A01E00300002060615808590969
:102340001A40009280221202A57A002D2CD06578C6
:10235000002D1AD1029D2D685026AE5B2778FF0014
:10236000F6197519954EAD193F2B06D30E00DF06F1
:1023700000D1761EB602164305E00600009F002F2E
:1023800000D0761CB6022E800BE0012D27D1029DD5
:102390002D685026AE5B2778FF00F6197519874E19
:1023A000AB536578002D1AD1029D2D685026AE5B87
:1023B0002778FF00F6197519A04EAD193F2B07D3EA
:1023C0000800D90600D1401E800202432A8013E093
:1023D0000099002900D0401C800228800CE0607821
:1023E000012809D1029805685020285A2178C9008F
:1023F000401840199149435202980568207880009E
:1024000028180188054A0A40C02189015140B34A71
:102410000A430280002001990870FEBD8FBF0000B2
:1024200080C0000080800000BF8F00008F8F000000
:10243000C0800000F8B506001C007F237F20084004
:102440001C256843351828352A616C610020A86175
:10245000012068700B402B70F4214900715C012948
:1024600001D10220F2BDF4225200B0546969EC6837
:102470008C4201D2091B01E00C0000216961A97A9C
:1024800000290FD1A3B2AA882969306800F034F975
:1024900030685021415A2A78D200891808184749D3
:1024A000445279E06B7820400090802109021F227D
:1024B000002B19D130685023C35A2F78FF00DB1945
:1024C00018183E4BC0183F2C06D36309144200D1A4
:1024D0005B1E9B020B4305E06308009F002F00D0AA
:1024E0005B1C9B0203800AE0012B25D1306850233E
:1024F000C35A2F78FF00DB191818304BC452687884
:10250000002819D130685023C35A2F78FF00DB19F7
:1025100018184A4BC0183F2C06D36309224000D13B
:102520005B1E9A02114305E063080099002900D060
:102530005B1C990201800BE06878012808D13068A3
:102540005021415A2A78D200891808183B49445230
:10255000306829788900415A490601D52A8900E066
:10256000EA88A3B2296900F0C7F869785C480029B5
:1025700007D131682A78920089180A881040594A90
:1025800008E0012908D131682A78920089180A8860
:102590001040554A02430A80306829788900401863
:1025A0000188524A0A40302151404C4A0A43028075
:1025B0000020F42149007054F2BD00000204000024
:1025C00070B5F422520083181A78012A01D1022032
:1025D00070BD01241C700D007F220E0605D515402C
:1025E0001C2675434519283504E01C2675434519FA
:1025F000EC36AD19AC700A402A70C90969700468DC
:102600003648002A07D12188394A0A40C10851407A
:10261000084320800FE09200A2180029118803D0FF
:10262000324C0C40102103E0324C0C408021490117
:102630006140084310800020187070BD060400003F
:10264000F0B50A007F240B0605D522401C235A430F
:102650008218283204E01C235A438218EC33D21823
:10266000002393700C401470C9095170F421490083
:1026700041180C78012C01D10220F0BD01240C700E
:1026800004681078800025181448154E5778002FDC
:102690002F880ED07F0604D52F883E40114F374338
:1026A0002F8012789200A2181488104D25403024F3
:1026B0000EE07F0404D52F883E400B4F37432F8018
:1026C00012789200A21814880A4D2540C024A40153
:1026D0006C40204310800B700020F0BD8080000013
:1026E0008F8F0000C080000080C00000BF8F0000FE
:1026F000BFBF00008FBF000010B510188022D200AD
:1027000080185B1C5A1007E00B784C7824021C439D
:102710000480801C891C521EF6D110BD1018802226
:10272000D20080185B1C5A1004E003880B80801CC8
:10273000891C521EF9D17047FEB50500002069467C
:102740000880BB4F29E00188BA4A0A4002802C0069
:10275000283428685021415A2278D2008918081854
:10276000F91C405A3840A0612069A16940182061D5
:102770000021280000F0CAF92420285C00280CD091
:102780006069002809D12420285C80210143286841
:102790004C30018000202421685428680100443115
:1027A0000A886B465A80120400D43EE16A46528879
:1027B0001207120F6BD16A465288D206C3D5842203
:1027C0005200AC1802881A806A461288120519D580
:1027D00089892278D200891808189749405A3840C8
:1027E000A0610346A288F620400029182868FFF758
:1027F00095FF28680188914A0A400280280000F06D
:102800006EF9CAE7694609880904C6D501888B4A6A
:102810000A40028028685021415A2278D200891843
:1028200008188549405A3840A061034608D0A2885C
:1028300021692868FFF772FF2069A16940182061AB
:102840000021280000F055F928685021415A081845
:1028500079494018E1683F2908D34A09C90600D1DF
:10286000521E920280210902114304E04A08C9075E
:1028700000D5521C9102018028680188704A0A40E4
:10288000C021890151406F4A0A43028085E79100C7
:1028900002914018018819801C214A43A91801910E
:1028A00069460988090459D50188644A0A400280AA
:1028B00001988421490044182378D9002868A67A11
:1028C000002E0ED15023C35A591809185A4A895A52
:1028D0003E000E402DD03300A2882169FFF71EFF75
:1028E00027E09B00C35A5B040BD55023C35A5918E9
:1028F0000918FA1C895A3E000E4010D03300E288B5
:102900000AE05023C35A591809184B4A895A3E0005
:102910000E4004D0330022892169FFF7FFFE2868AA
:102920002178890040180188474A0A4047491143E5
:102930000180A0698019A06121698A1922616369F7
:10294000002B02D0E068864204D22178280000F0F3
:10295000D0F803E021782800FFF7C7FC684600881C
:1029600000065DD5019C283428680299401801882A
:10297000304A0A4002802378D8002A681100A67ADB
:10298000002E0FD15032128810184018F91C405AEE
:102990003840A06103462ED0A28821692868FFF73D
:1029A000ABFE28E09B00D35A5B060BD55032128851
:1029B00010184018F91C405A3840A061034610D046
:1029C000E2880AE050321288101840181A49405A1A
:1029D0003840A061034604D0228921692868FFF7A6
:1029E0008BFE28682178890040180188164A0A4021
:1029F000174911430180217828685022825ACB0060
:102A0000D2181018FA1C805A3840A0612069A269B7
:102A1000821822616369002B03D1280000F076F848
:102A2000BBE62800FFF706FDB7E60020FEBD00006C
:102A3000FF0300000F8F0000060400008F0F00004E
:102A40008FBF0000808000008F8F0000C0800000DA
:102A500080C0000010B586B00120844C216801437D
:102A600021602168084000900098C020400101903A
:102A7000022002900020039003210491059001A9F7
:102A8000A020C00500F004F9E0688021090401439A
:102A9000E160002203211F2000F06FFA1F2000F0E8
:102AA00070FA06B010BD10B57148724902690A404B
:102AB00002610268CB431343036002681140016066
:102AC000A024E405C10C200000F0A1F980214901F7
:102AD000200000F09CF91F2000F05AFA10BD80B5CC
:102AE000F6214900411887229200805800F0C4FA6C
:102AF00001BD80B51C224A4382188C235B00D2584A
:102B000087239B00C05800F0E4FA01BD80B51C2269
:102B10004A438218926B87239B00C05800F00EFB3B
:102B200001BD80B587218900405800F07DFB01BDC3
:102B300010B58721890044180121206800F071FB3D
:102B4000206800F04BFB10BD7047704710B50100C6
:102B500049484A4A0260082242604022C26002227A
:102B600002618260872292008150121D8C182060C1
:102B7000FFF792F8182300220021206800F066FB7E
:102B8000582300228021206800F060FB80235B0036
:102B900000228121206800F059FB002010BD80B583
:102BA000882189004058FFF7C3F8002002BD80B596
:102BB000882189004058FFF7CEF8002002BD80B57B
:102BC000882189004058FFF7D0F8002002BD10B5D9
:102BD0001C00130022008824A4000059FFF772F99A
:102BE000002010BD80B5882292008058FFF7CAFAF5
:102BF000002002BD80B5882292008058FFF7E0FCDB
:102C0000002002BD80B5882292008058FFF718FD91
:102C1000002002BD8822920080584A06520E1C23D2
:102C20005A438018090602D52A300078704785215A
:102C30004900405C704780B5882292008058FFF7B9
:102C40002BF9002002BD10B58824A4000059FFF71D
:102C5000F1FB002010BD10B58824A4000059FFF737
:102C600044FB002010BD0648704700002C100240B5
:102C700028100240FFFF7FFF14180020005C004076
:102C8000041D002070470268531C036011707047D8
:102C9000FFB5002401232FE00625B5403D43039EE8
:102CA0003560A14D2E68009FFD432E404F68FF0305
:102CB00002D53700009E3E439B4F3E607E682E400B
:102CC0004F68BF0302D53700009E3E43964F7E609B
:102CD000BE682E404F68FF0202D53700009E3E437B
:102CE000914FBE60FE6835404E68B60202D52E0098
:102CF000009D3543FD60641C0D682E00E64000D148
:102D000084E00126A6402E400096009D002DF2D0C2
:102D10004D68022D01D0122D18D1E508AD004519DE
:102D20002E6A01966607F60E6F463E72019FBC46FC
:102D30006E46377A0F26BE406746B743BC460F69DA
:102D40006E46367AB740664637432F6266000327E1
:102D5000B740FD4301954D68012D05D0022D03D0EC
:102D6000112D01D0122D10D18768019D3D40CF68F3
:102D7000B7402F43876047680125A540AF434D68A2
:102D80002D091D40A5403D4345600768019D3D401C
:102D90000F79BF07BF0FB7402F430760C768019D7A
:102DA0003D408F68BC4637006646BE402E43C66035
:102DB0004D68ED009FD55D4D2D681D435B4E356020
:102DC0005B4DA608B600AD1903952F68A5072E0F19
:102DD0000F25B540AF43A025ED05A84201D1002540
:102DE0005BE7544DA84201D1012556E7524DA84258
:102DF00001D1022551E7514DA84201D103254CE7ED
:102E00004F4DA84200D047E7052546E7FFBDE2B594
:102E100083B001000025444A19E00626BE40B042B6
:102E200014D1019806680F20B840864301980660C7
:102E3000029EF043166806401660566806405660CB
:102E4000966806409660D6683040D0606D1C039846
:102E5000E8404DD003980126AE4006400296029805
:102E60000028F3D003206E00B040C64300960868E7
:102E700006400E60E80880000E18376ABC466807F6
:102E8000C70E0F20B8406746874337628868009EA8
:102E900006408E604E680120A84086434E60C86898
:102EA000009E0640CE602248AE08B6008019019010
:102EB0000668A807070F0F20B8403040A026F60587
:102EC000B14201D10026A9E71A4EB14201D1012633
:102ED000A4E7194EB14201D102269FE7174EB14235
:102EE00001D103269AE7164EB14296D1052695E701
:102EF000EFBD0069084000D00120C0B27047002A31
:102F000001D0816170478162704742694A404261E5
:102F100070470C4A1368034000D1704780B51060B9
:102F200000F0C2FD01BD0000000401403410024069
:102F3000080001400004005000080050000C005040
:102F4000001C00501404014010B58207D30EFF246A
:102F50009C40E2438907090E9940030004D51A48B2
:102F60001B071B0F083B00E018489B089B00C0187C
:102F700003681A401143016010BD80B5FFF7E4FFFC
:102F800001BD0121C006C00E81401148016070479B
:102F90000121C006C00E81400E480160704710B587
:102FA000401E80214904884201D3012010BD0A4CF3
:102FB000606003210020C043FFF7C6FF0020A0602F
:102FC0000721216010BD00001CED00E000E400E0DE
:102FD00000E100E080E100E010E000E010B5002832
:102FE00001D1022010BDFE235B00C3189C69002C98
:102FF00001D000249C61002900D059610121197081
:103000000270FFF7A3FD002010BD10B50400FE20E4
:1030100040002218012010706168C9B22000926936
:10302000526890472000FFF7CAFD2000FFF7B7FD68
:10303000002010BD02000020002903D085239B0042
:10304000D15070470220704780B5FFF7B0FD0020D7
:1030500002BD10B50224852292008258002A04D0B5
:1030600012689047002800D10024200010BD80B5D0
:10307000852292008258E5E038B504008220800065
:103080002518280000F0EEFEFA204000201801214B
:103090000160418B4160017DC806C00E03D002284B
:1030A0000BD005D30EE02900200000F027FD0EE034
:1030B0002900200000F0CAFD09E02900200000F0EE
:1030C000E2FD04E0802001402000FFF793FD002096
:1030D00032BD38B504001000FA225200A3180029AE
:1030E00021D18221490061181A68032A24D18D68F0
:1030F000CA68AA420AD2AB1A8B60934200D21A0065
:1031000092B20100200000F001FF15E0186A016989
:10311000080004D0187A032801D120008847200035
:1031200000F0F8FE08E0186A8269100004D0187AEE
:10313000032801D120009047002032BDF8B50400DB
:103140001000FA225200A51800293CD121001431A8
:1031500000262A68022A31D18A68CB6800939342FC
:1031600007D2D21A8A6092B20100200000F0CAFE93
:1031700011E04F683800194600F0FDFE002911D11A
:10318000009887420ED3686887420BD20022200045
:1031900000F0B8FE6E600023002200212000FFF73F
:1031A0005AFD0BE0286AC168080004D0287A032879
:1031B00001D120008847200000F0B8FE287B0128BC
:1031C0000AD12E7308E0286A4269100004D0287AD8
:1031D000032801D1200090470020F2BD38B504003B
:1031E000402300220021FFF7F2FC40258820400008
:1031F00025504023002280212000FFF7E8FC201DFD
:10320000C561FE214900621801211170D1690029B0
:1032100005D00168C9B22000926952689047002029
:1032200032BD01740020704780B5FE21490041186D
:103230000A78032A04D18969C9690A0000D088473D
:10324000002002BD52689047002002BD10B50C0658
:1032500006D54906490E1C2461434018283005E074
:103260001C2461434018842149004018002A03D1DE
:1032700000218172838004E001218172C380190CD6
:103280000181002010BDFEE7F0B583B0C14805689C
:10329000C14CFA20C0002018019000260127207898
:1032A000002808D0022870D033D3042800D1CFE002
:1032B00000D282E0F7BDC94800F0D1FE20000830FE
:1032C0000090AC2348220021002000F08FFF022351
:1032D000C34A0D21002000F0FDFEC24800F0BFFEF1
:1032E0000323C14A0821572000F0F4FE0323BF4AFC
:1032F0000321472000F0EEFE0323BD4A00215E209B
:1033000000F0E8FE00F0A1FFFA20C00000F0E9FFA5
:10331000C0E1FF2000F0A6FEB64820180090302340
:1033200030220021052000F061FFB34820180090F2
:103330001A2330220021822000F058FF01980090CB
:103340003C23102200213C2000F050FFA54800F053
:1033500086FE0123D04A0D21002000F0BBFE03238E
:10336000CE4A0721382000F0B5FE0323CC4A0421C1
:10337000352000F0AFFE0523A6220C21022000F02C
:103380001BFF00F062FF022082E1AE7000F0D4FF6C
:1033900000288FD028780A2801D004288AD1A8785C
:1033A000010003D0802801DA032071E1802800DACF
:1033B00071E1FF2800D16EE169E1FF2000F052FECB
:1033C000B8482018009092231C2204210D2000F000
:1033D0000DFF844800F043FE012300BFB7A20D217A
:1033E000002000F077FE0323B9A201210F2000F096
:1033F00071FE0523A6220C21022000F0DDFE04232D
:103400001A220021912000F0D7FEA74800F027FEE5
:10341000032300BFB3A20121922000F05BFE00F065
:1034200014FFAE7000F00BFB01F00AF8666005E0D7
:1034300000F082FF002801D001F035F86068002814
:10344000F6D000F01FFB9948FFF7DFFD666021E131
:10345000012001F071F8002001F06EF8FF2000F06B
:1034600001FE019800903C23102200211E2000F054
:10347000BDFEA92000012018009020232022042155
:10348000032000F0B3FEB1200001201800901D239E
:1034900020220421322000F0A9FE85482018009047
:1034A0001D23202204215A2000F0A0FE814820186C
:1034B0000090202320220421822000F097FE49481A
:1034C00000F0CDFD012300BF88A20D21002000F0F7
:1034D00001FE0523A6220C21022000F06DFE03232D
:1034E00039220021712000F067FE6F4800F0B7FD1F
:1034F000032300BFAAA20121742000F0EBFD00F01D
:10350000A4FEAE7002202870666001E000280AD197
:1035100000F012FF29786068002804D1A8780A29F1
:10352000F4D00028F4D00A2991D1A878624F00BFC6
:1035300073A500280CD041280ADA01F055F9FF20C4
:1035400000F090FD274800F08AFD012371A272E08F
:10355000010041393F2921D2FF2000F083FD21489D
:1035600000F07DFD012300BF6EA20D21002000F0C0
:10357000B1FD0523A6220C21022000F01DFE00F063
:1035800064FE01F007FAFF2000F06CFD012300BF8C
:1035900069A250E000810008200000208038402807
:1035A0002CD2FF2000F05EFD0E4800F058FD0123F4
:1035B00066A20D21002000F08DFD0523A6220C211E
:1035C000022000F0F9FD00F040FE01F0FDFAFF20BE
:1035D00000F048FD012300BF61A22CE0AC0C0020EC
:1035E00088830008B40C002094830008A08300089E
:1035F000B08300081406000034070000FF2000F02C
:1036000031FDBF4800F02BFD012300BF5AA20D2160
:10361000002000F05FFD0523A6220C21022000F00F
:10362000CBFD00F012FE01F02BFCFF2000F01AFD94
:10363000012300BF55A20D21002000F04BFD052302
:10364000A6220C21022000F0B7FD03232A00072147
:10365000082000F03FFD03233A000321082000F07A
:1036600039FD042339220021712000F0A5FD0E4808
:1036700000F0F5FC032300BF49A20121742000F0F3
:1036800029FD00F0E2FD666060680028FCD004209F
:103690002070F7BD2770F7BDB8830008D0830008FD
:1036A000DC83000848080000BC0C0020F015002056
:1036B000840B0000F80B0000901B002053544D3386
:1036C000324C303533205553422044656D6F000035
:1036D0004C45465420524947485420555020444FA9
:1036E000574E0000423120457800000053544D33BE
:1036F000324C303533204944442044656D6F00001E
:1037000043757272656E7420636F6E73756D70743D
:10371000696F6E004D435520696E2052756E204DC5
:103720006F6465004D435520696E20536C6565706C
:10373000204D6F646500000057616B652075702037
:1037400066726F6D20536C65657000004D435520A7
:10375000696E204C50536C656570204D6F64650038
:1037600057616B652075702066726F6D204C5053E9
:103770006C656570000000004D435520696E205354
:10378000746F70204D6F64650000000057616B65B9
:103790002075702066726F6D2053544F50000000EA
:1037A000423120746F20457869740000F0B587B00D
:1037B000BC4C0120E1680143E160E16808400090F1
:1037C00000980220E1680143E160E1680840009050
:1037D00000980420E1680143E160E168084000903E
:1037E00000980820E1680143E160E168084000902A
:1037F00000988020E1680143E160E16808400090A2
:103800000098AC49A020C00502680A6042684A607E
:1038100082688A60026ACA60426A0A61A64A1268BD
:103820004A61A54A52688A61A34A9268CA61A24A5B
:10383000126A0A62A04A526A4A62A04F3A688A62D1
:103840007A68CA62BA680A633A6A4A637A6A8A63B9
:103850009B4E3268CA6372680A64B2684A64326A0C
:103860008A64726ACA64974D2A680A656A684A65FA
:10387000AA688A652A6ACA656A6A0A6692490191D3
:10388000032102910021039101A9FFF701FA01A987
:103890008948FFF7FDF901A93800FFF7F9F901A9F7
:1038A0003000FFF7F5F901A92800FFF7F1F9E0680A
:1038B00001218843E060E06802218843E060E0681D
:1038C00004218843E060E06808218843E060E06804
:1038D00080218843E0607D4801F05AFC7C482169E2
:1038E000014021612168C2430A43226021680840E7
:1038F0002060606977490140616107B0F0BD000058
:10390000B40C002010B582B00120734C2168014333
:10391000216021680840009000980220216801433E
:10392000216021680840009000980420216801432C
:103930002160216808400090009808202168014318
:103940002160216808400090009880202168014390
:1039500021602168084000900098A021C9055548C1
:1039600002680A6042684A6082688A60C2680A62C5
:1039700002694A62504942690A6082694A60C269C2
:103980008A60026A0A62426A4A624C49826A0A6032
:10399000C26A4A60026B8A60426B0A62826B4A6248
:1039A0004749C26B0A60026C4A60426C8A60826C52
:1039B0000A62C26C4A624349026D0A60426D4A6003
:1039C000826D8A60C26D0A62006E48620121002029
:1039D00000F0CAFD6068802149020143616000F087
:1039E0000DFDA068A10C0143A16000F01BFB13BDFD
:1039F00030B593B0394CE06A802149050143E1625A
:103A000037480168374A0A40810C1143016002209F
:103A100005900125089505A801F0DAFB0F2000901C
:103A2000019500200290039004900121684601F066
:103A3000EFFD2068E9030143216013B030BD10B5EC
:103A400098B02024099401200F9009A801F0C0FB30
:103A50004020009000050790684601F0DBFE2248F8
:103A60000168A2050A430260204800210160210686
:103A700041601F49C16022210161446101F090FF52
:103A800018B010BD00B58FB0202000900020069027
:103A9000684601F09DFB14480168164A0A4002601E
:103AA0000FB000BD20100240012801D1124948602A
:103AB00070470000A41B00200004005000080050C4
:103AC000000C0050001C0050FFFF0000601C002094
:103AD000FFFFFEFFFFEFFFFF2C1002400C10024023
:103AE00000700040FFE7FFFF38100240C41C0020B8
:103AF0007FBB0000FFFFFFF720000020F8B50400A7
:103B00000F00FE20400025180320002201267978AE
:103B1000092951D801A35B5C5B009F446D834D7EF6
:103B20004D09044D5C2B3900200000F01DF989E09F
:103B3000B888002840D1F88800283DD1B8784006E0
:103B4000400E694608702878032835D0684600780A
:103B5000A870684601782000FFF76DF8200000F09B
:103B6000D9F968460078002802D00220287069E060
:103B70002E7067E0344E79883170317802291BDA73
:103B80002B78022B1DD0032B16D1002906D1022041
:103B9000287062602000FFF76AFA50E06068814296
:103BA0004DD0C1B22000FFF762FA31786160200089
:103BB000FFF74FFA022842D13900200000F066F9E1
:103BC00040E000293BD0616028702000FFF741FAF7
:103BD0000228F1D033E0F8880128EDD128780228B6
:103BE00004D00328E8D10122211D12E0201D4260EB
:103BF0000122210008310CE02978891E0129DBD837
:103C0000A968002900D00326201D86600222210019
:103C10000C31200000F066F914E07888012811D1F9
:103C2000AE6007E02878801E0128C5D87888012872
:103C300008D1AA6039002000AA6992689047200044
:103C400000F068F90020F2BD2A1D002038B50500FB
:103C50000C00FE2040002A18107803280ED1A088FE
:103C6000C0B202280ADA2800926992689047E08878
:103C7000002806D1280000F04DF902E0280000F0ED
:103C800005F9002032BD70B504000E00B188C9B23C
:103C9000FE2040002518307860220240202A05D1FD
:103CA00031002000AA69926890475BE07F227F2064
:103CB00008407378002B2ED0012B11D0032B51D14B
:103CC0002878022812D0032848D17088002819D1FA
:103CD000002917D0802915D02000FEF78BFF11E0B6
:103CE0002A78022A02D0032A04D037E0002939D0EA
:103CF000802917E07288002A34D1002807D02000DC
:103D0000FEF780FF31002000AA69926890472000EA
:103D100000F000F926E02B78022B02D0032B06D00E
:103D20001CE000281ED02000FEF764FF1AE00A40C5
:103D300010012518080601D5143502E08220400044
:103D40002D182000FEF766FF002800D00120286013
:103D500002222900200000F0C5F803E03100200015
:103D600000F094F8002070BD70B582B004000D0022
:103D70006888842189006218010A012908D0022973
:103D80001FD003292AD0062955D007295BD064E02B
:103D90006946207C126812689047694609880029A4
:103DA0000ED0E98800290BD06A4612888A4200D9D1
:103DB0000A0069460A800A880100200000F092F893
:103DC00073BD51680226207C0028684603D1896AA9
:103DD00088474670E1E7C96A8847FAE7C0B2052814
:103DE0003BD801A1095C8F4404101C28344069466B
:103DF000207C126852689047CFE76946207C1268A1
:103E000092689047C9E76946207C1268D26890475B
:103E1000C3E76946207C126812699047BDE769468E
:103E2000207C126852699047B7E76946207C126887
:103E300092699047B1E7207C00280ED1684651680E
:103E4000496B8847A9E7207C002806D1684651685D
:103E5000096B8847072141709FE72900200000F087
:103E600015F873BD0A7802704A7842708A78CB7868
:103E70001B02D21842800A794B791B02D218828029
:103E80008A79C97909025118C180704710B50400B8
:103E90008021FEF7AFFE00212000FEF7ABFE10BD33
:103EA000002800D1704770B504000023002501E010
:103EB0006D1C641C2678002EFAD12D06EC0DA41C76
:103EC000148012880A7003224A70022206E0D2B2DD
:103ED0008C54401C521CD2B28B54521C0478002CBF
:103EE000F5D170BD10B50223FA246400035103001C
:103EF00018331A605A6013000A000021FEF7A3FE6F
:103F0000002010BD80B513000A000AE080B5130040
:103F10000A0012E080B50421FA22520081500023E9
:103F200000220021FEF78FFE002002BD80B5052192
:103F3000FA2252008150002300220021FEF78BFE5E
:103F4000002002BDF446002804D4494200F013F8D2
:103F5000404260474042002905D45FD000F00BF892
:103F6000404249426047494200F005F849426047F3
:103F700003460B43E6D40022030A8B420BD203090B
:103F80008B4219D243088B422ED2411A00D20146ED
:103F9000524110467047FF2209023FD012068B4261
:103FA00005D3121209028B4201D31212090203092E
:103FB0008B4219D300E0090AC3098B4201D3CB011C
:103FC000C01A524183098B4201D38B01C01A52415E
:103FD00043098B4201D34B01C01A524103098B4262
:103FE00001D30B01C01A5241C3088B4201D3CB004D
:103FF000C01A524183088B4201D38B00C01A524130
:1040000043088B4201D34B00C01A5241884200D36F
:10401000401A5241CFD201461046704708B501F010
:1040200003FD08BD10B5944C200008302060934873
:10403000606000688047FF2000F014F82000103016
:104040002060002010BD80B58B48406840698047E3
:1040500002BD80B5884840688069804702BD8649B6
:104060000860704770B50500834C1123AB22002116
:1040700000206668B668B047814EE8B2616849685A
:104080008847761EF9D170BDF0B583B07A4D2C68A3
:10409000A388E6882468203AD2B272435A43A21811
:1040A000019200240093774A8B199B189BB2009FC2
:1040B000C719BA1892B26F68BF68B84700984643EC
:1040C00005E00198005D696849688847641CB4424E
:1040D000F7D3F7BDFBB50400170000260025380014
:1040E00000E0761C0100401C09780029F9D1FFF797
:1040F000AAFF614909688988FFF73DFF6946097A87
:10410000012902D0022908D01AE0801B5A49096807
:10411000898848434008241812E0801B56490968E2
:1041200089884843041B0BE03A7868468188A0B22E
:10413000FFF7AAFF50480068808824187F1C6D1C78
:104140003E78002E00D00126FFF77DFF01004A488F
:1041500000688288ADB228005043081A80B29042AD
:104160008041C043C00F0642DED1F7BDF8B516004E
:104170000024414D0B00821992B26F68BF68B847A6
:1041800004E03F20696849688847641CB442F8D35A
:10419000F1BDF8B516000024374D8B199BB2020013
:1041A0006F68BF68B84704E00020696849688847BD
:1041B000641CB442F8D3F1BDF8B504000E0015003C
:1041C0001F00FFF7D3FF6A1C92B2F11989B22000D9
:1041D000FFF7CCFF3A0031002000FFF7DAFF3A008A
:1041E0003100601980B2FFF7D4FFF1BDF7B50500CB
:1041F0001E00214C2348694689886A461289920824
:1042000089180B189BB2A9190A1892B268468188BE
:1042100028006768BF68B8476068C769380007D07A
:104220000898009033006846028981882800B847C2
:10423000FFF70FFF0500FFF706FFABB282B20021C8
:1042400000206468A468A047F7BD80B50A484068AC
:10425000C068804780214900A020C005FEF749FEC4
:104260000028F7D1012204210748FEF748FE0A2062
:1042700000F0B0FA01BD0000A40C002000000020F6
:10428000180C0000FFFF00000004005080B5224819
:10429000016840220A4302600168022291430160E2
:1042A000032000F004F801F0C1FB002002BD10B5AE
:1042B00004001A480068FA218900FFF75CFEFEF747
:1042C0006EFE002221000020C043FEF756FE0020B3
:1042D00010BD13480168491C016070471048006810
:1042E000704711B581B0FFF7F9FF0400FFF7F6FF43
:1042F000001B01998842F9D313BD0A4806E009481A
:10430000FFE7016802220A43026070470168022247
:10431000914301607047000000200240C40C00205F
:104320001C1D002010E000E080B5224801F046FC92
:1043300024A001F0A3FC01BDF8B50026002501274B
:104340001D4C6068002806D12068C0B201F0AEFCA8
:1043500001F0D8FC676001F0E8FC002809D10022D8
:1043600000212068C0B201F015FD2068401C2060CB
:104370006660206800281BD02660666020000C3034
:1043800001F046FC20000C3001F0A2FD21000831B4
:10439000642001F09FFD002809D10C34200001F0B9
:1043A00095FE002801D1022502E0032500E0012549
:1043B0002800F2BDD40C0020C80C002070477047C4
:1043C000000000002080000844800008A01C00209D
:1043D00003000000440200000700000080B5002038
:1043E00000F080F8012000F07DF80121002000F0AD
:1043F000BBF8FFF717FE00F001F801BD80B51848C3
:104400001849016000218162802252054260120930
:10441000826010220262C162A022C261D201826166
:10442000C1607F2202614161416291229200026378
:1044300052008263416300F05DFEFFF775FF01BD2E
:1044400010B5094C002209492000FEF7C7FD0849B4
:104450002000FEF7EFFD2000FEF7F6FD10BD000086
:10446000601C002000400240F0150020F40C0020E9
:104470002C0D002010B5002100220023164C2468CA
:10448000A478402C01DAFB2208E0802C01DA052216
:1044900004E0C02C01DAFB2300E005230170427028
:1044A0008370C17010BD10B50B48006800780A28F1
:1044B00001D004280ED1094C2000FFF7DBFF607803
:1044C000002802D1A078002804D00422210004484A
:1044D00001F0B3FE10BD000000810008241D002083
:1044E000F015002030B587B001210222A54B00282D
:1044F0001C6804D114431C601B68134003E00C4388
:104500001C601B680B400093009B00BFB3A34400DA
:104510001D5B0195029103910492A84980000C183B
:1045200001A92068FEF7B4FB002229002068FEF7ED
:10453000E6FC07B030BD000080B50022A7A1430013
:10454000C95A9E4B80001858FEF7D9FC01BD0000E7
:1045500080B500BFA1A14200895A984A8000105836
:10456000FEF7D3FC01BD0000F0B587B00C000121BF
:10457000844A13680B43136012681140009100993C
:1045800006008F48B10047180025002C0CD100BF51
:1045900093A07100405A019002950220039004906C
:1045A00001A93868FEF774FB012C15D18CA07100AD
:1045B000405A019003958348029001A93868FEF79C
:1045C00067FB00BF87A0845D0022032160B2FEF775
:1045D000D4FC60B2FEF7D5FC07B0F0BDF0B587B0F3
:1045E000794C200001F05CFF002836D1774820602C
:1045F0008220400060600025A5601020E061E56039
:10460000012060610227276125624102A161A56244
:104610000721E16265625B4E316839433160316880
:1046200039400091009908210191029703900320DD
:104630000490059501A96648FEF72AFB2020019009
:104640000595039701A96248FEF722FBB068B10CFB
:104650000143B160200001F01BFE07B0F0BD01B5C1
:1046600080235B0101226946574801F068FE00285B
:1046700001D000F001F801BD80B5534801F048FEBB
:10468000FFF7ACFF01BDF0B587B001203D490A68D6
:1046900002430A600A6802400092009A02240A68F3
:1046A00022430A600A6822400092009A0A68224364
:1046B0000A600A6822400092009A0A6802430A606F
:1046C0000A6802400092009A0A6822430A60096858
:1046D000214000910099C1030191029000250395AA
:1046E00003200490A027FF0501A93800FEF7D0FAA7
:1046F000A0020190364E01A93000FEF7C9FA04204D
:10470000019001A93000FEF7C3FA6002019001A9EF
:104710003000FEF7BDFAE00101900295039401A973
:104720003800FEF7B5FA002261023000FEF7E7FB21
:104730000022A1033800FEF7E2FB0122D10338007A
:10474000FEF7DDFB012204213000FEF7D8FB0A2032
:10475000FFF7C7FDFFF742FF07B0F0BD70B50600D9
:10476000A025ED0580242402002221002800FEF768
:10477000C6FB0122D1021648FEF7C1FBF0B214E0DD
:10478000000000002C10024070B50600A025ED05C9
:1047900080242402002221002800FEF7B0FB002222
:1047A00021090B48FEF7ABFB3000FFF758FF012251
:1047B00021002800FEF7A3FB70BD0000980C00202C
:1047C000A00C002000002110081C00200030014037
:1047D0000004005080B5FFF784FD01BD10002000EB
:1047E000010000000500FEE7FEB500F04DFC674C3F
:1047F00080202070664F02970120019000940123D1
:10480000402284212000183001F01AFF002800D037
:10481000FEE76420FFF765FD032525700297012060
:10482000019000940123412284212000183001F0DE
:1048300007FF002800D0FEE70120FFF752FD062009
:1048400020700297012001900094012342228421CC
:104850002000183001F0F4FE002800D0FEE704200C
:1048600020700297012001900094012340228421AE
:104870002000183001F0E4FE002800D0FEE725708B
:10488000E82060700025A5701820E07002262671CF
:104890006C206071E5802720207210206072132048
:1048A000A0727E20E0720B202073B8206073029704
:1048B0000E200190009401238222842120001830D0
:1048C00001F0BEFE002800D0FEE70120A065002018
:1048D000FFF732FE0120FFF72FFE0920207002971C
:1048E00001200190009401238022842120001830AF
:1048F00001F0A6FE002800D0FEE76420FFF7F1FCDF
:10490000A582A575A56502970320019020001430AB
:1049100000900123142284212000183001F01FFF91
:10492000002800D0FEE72670029701200190009435
:104930000123442284212000183001F081FE002848
:1049400000D0FEE70120FFF7CCFC207D0004617D54
:1049500009024018A17D45180A2045436565914E1E
:1049600028003100FFF704FB0800FA218900FFF757
:10497000FFFA070028003100FFF7FAFA02003B00B7
:104980008EA15C34200002F0CDF8F7BD341B00206E
:1049900010270000F0B589B000F076FB824C802033
:1049A0002070824F02970120019000940123402241
:1049B00084212000183001F043FE002800D0FEE7DB
:1049C0006420FFF78EFC03252570029701200190DB
:1049D00000940123412284212000183001F030FE90
:1049E000002800D0FEE70120FFF77BFC06202070A6
:1049F000029701200190009401234222842120008B
:104A0000183001F01DFE002800D0FEE704202070C1
:104A1000029701200190009401234022842120006C
:104A2000183001F00DFE002800D0FEE72570E820C8
:104A300060700025A5701820E070022626716C2099
:104A40006071E58027202072102060721320A07210
:104A50007E20E0720B202073B820607302970E2036
:104A6000019000940123822284212000183001F05B
:104A7000E7FD002800D0FEE7092020700297012002
:104A8000019000940123802284212000183001F03D
:104A9000D7FD002800D0FEE7FF20207002970120FC
:104AA000019000940123812284212000183001F01C
:104AB000C7FD002800D0FEE7FEF778FE2000183082
:104AC00001F0A3FD3A48016804220A43026000682D
:104AD0000421084000900098C802039005960696AD
:104AE0003448049003A93448FEF7D2F80022032189
:104AF0000720FEF742FA0720FEF743FAFFF7FDFB17
:104B00000121002002F02AF8FFF7F9FBFEF7FAFE78
:104B100000F0BAFAA582A575029703200190200043
:104B2000143000900123142284212000183001F059
:104B300016FE002800D0FEE72670029701200190A3
:104B400000940123442284212000183001F078FDD4
:104B5000002800D0FEE70120FFF7C3FB207D000402
:104B6000617D09024018A17D45180A20454365650D
:104B70000C4E28003100FFF7FBF90800FA218900EC
:104B8000FFF7F6F9070028003100FFF7F1F90200FE
:104B90003B0000BF09A15C34200001F0C3FF09B055
:104BA000F0BD000040420F00341B00201027000021
:104BB0002C100240000031100008005025642C2504
:104BC0002E33646D41000000F0B59BB0FEF7EEFDA2
:104BD0000227A64800683843A449086000F054FA48
:104BE000A34C80202070A3480290012001900094E3
:104BF0000123402284212000183001F021FD0028EB
:104C000000D0FEE76420FFF76CFB03252570994870
:104C10000290012001900094012341228421200070
:104C2000183001F00DFD002800D0FEE70120FFF74D
:104C300058FB062020708F480290012001900094BC
:104C40000123422284212000183001F0F9FC0028C1
:104C500000D0FEE7042020708648029001200190D9
:104C600000940123402284212000183001F0E8FC48
:104C7000002800D0FEE72570E82060700025A570B0
:104C80001820E07027716C206071E5802720207269
:104C9000102666721320A0727E20E0720B20207313
:104CA000B8206073734802900E2001900094012395
:104CB000822284212000183001F0C2FC002800D09C
:104CC000FEE7FF2020706B480290012001900094C5
:104CD0000123812284212000183001F0B1FC00283A
:104CE00000D0FEE709202070624802900120019068
:104CF00000940123802284212000183001F0A0FCC0
:104D0000002800D0FEE75C4800685C4901403002A2
:104D10000843594908600D9601201490A020000214
:104D20001690159517950DA800F052FA002800D09E
:104D3000FEE70F20039004958020059006950795C7
:104D4000002103A800F064FC002800D0FEE70D97C6
:104D500010950DA800F03CFA002800D0FEE7C84EE0
:104D60003068C8490140316001F02EFF01F026FF94
:104D70003E480068082101433C480160200018308B
:104D800001F043FCB06A04210143B162B06A04211E
:104D9000084000900098C80208900A970B97C848EE
:104DA000099008A9C748FDF773FF002203210720D7
:104DB000FEF7E3F80720FEF7E4F8FFF79EFA2E4827
:104DC0000068042101432C4801600121012001F009
:104DD000C5FEFFF794FAFEF70BFEFEF793FD00F019
:104DE00053F9A582A5752348029003200190200065
:104DF000143000900123142284212000183001F087
:104E0000AEFC002800D0FEE727701A48029001206F
:104E1000019000940123442284212000183001F0E5
:104E20000FFC002800D0FEE70120FFF75AFA207D92
:104E30000004617D09024018A17D45180A20454300
:104E40006565FA26B60028003100FFF791F80F00DB
:104E500028003100FFF78CF802003B00A0A15C3471
:104E6000200001F05FFE1BB0F0BD000000200240FA
:104E7000341B00201027000000700040FFE7FFFFF8
:104E8000F0B589B000F000F98F4C802020708F4879
:104E900002900120019000940123402284212000EF
:104EA000183001F0CDFB002800D0FEE76420FFF7AA
:104EB00018FA03252570854802900120019000947E
:104EC0000123412284212000183001F0B9FB002881
:104ED00000D0FEE70120FFF704FA062020707B488F
:104EE000029001200190009401234222842120009D
:104EF000183001F0A5FB002800D0FEE7042727703A
:104F000072480290012001900094012340228421E4
:104F10002000183001F094FB002800D0FEE7257037
:104F2000E82060700025A5701820E0700226267128
:104F30006C206071E58027202072102060721320A1
:104F4000A0727E20E0720B202073B82060735F484F
:104F500002900E20019000940123822284212000DF
:104F6000183001F06DFB002800D0FEE7FF20207014
:104F7000564802900120019000940123812284214F
:104F80002000183001F05CFB002800D0FEE709206B
:104F900020704E480290012001900094012380224D
:104FA00084212000183001F04BFB002800D0FEE7E0
:104FB000FEF7FCFB2000183001F027FB4448016895
:104FC0003943016000683840009000983003039036
:104FD000059606963A48049003A93A48FDF758FE0C
:104FE000002203210720FDF7C8FF0720FDF7C9FFB6
:104FF00001F0EAFD01F0E2FD364801680F43076069
:105000000121012001F0BEFDFEF77CFC00F03CF820
:10501000A582A5752D480290032001902000143030
:1050200000900123142284212000183001F097FB06
:10503000002800D0FEE7267024480290012001904D
:1050400000940123442284212000183001F0F8FA52
:10505000002800D0FEE70120FFF743F9207D00047F
:10506000617D09024018A17D42180A204243626511
:105070001EA15C34200001F055FD09B0F0BD000018
:1050800004100240FF1FFFFF10B50F4C2000183026
:1050900001F0BBFA1048A061012060620F48E06196
:1050A0000020A06220636063A0632062E062183485
:1050B000200001F05BFA002800D0FEE710BD0000E0
:1050C0000000311000080050341B002010270000A1
:1050D0002C10024000700040005400402E11B1001E
:1050E00025642C252E3364754100000025646E4133
:1050F0000000000070B5050001D1012070BD2C003A
:105100003C342078002800D16070022020702800F4
:1051100000F08DFC012628680660296808686B6825
:10512000AA681A432B695B0413436A691A43AB6983
:105130001343EA691A436B6A1343AA6A1A43024388
:105140000A60E868012804D12868016832040A432B
:105150000260286B696B0143A86B0843C143286850
:105160000161286B696B014328688162A86B29681B
:105170000862286B00F01BF82968086328684168FA
:1051800003229143416029688A602670002070BD27
:1051900010B5002801D1012010BD04003C340221CB
:1051A000217000F081FC00202070607010BD10B5EF
:1051B0000100002000220F239400A3400B4003D0E5
:1051C0000300012090401843521C082AF3D310BD5D
:1051D000F0B583B00400A34D2078C00752D58027D6
:1051E000BF02E8680C210140082907D0E8680C21BB
:1051F00001400C290AD1E868C00307D52868074098
:1052000040D0606800283DD10120FEBD606879086B
:10521000884201D128680DE0B449A022D202904210
:10522000286809D101402960286879000143296074
:1052300028687908014309E0014029602868790855
:105240000840019001982868A949014029606068D8
:1052500000280BD0FFF742F806002868384011D12B
:10526000FFF73CF8801B6528F7D3C2E1FFF736F85B
:1052700006002868384005D0FFF730F8801B652805
:10528000F7D3B6E102272068384019D0E8680C212E
:105290000140042907D0E8680C2101400C294CD1B9
:1052A000E868C00349D42868400702D5E0680128AF
:1052B000AAD16868B84901402069000208436860C3
:1052C0002078C00623D5E8680C21014059D1286810
:1052D000800502D5E069002896D06868AF49014092
:1052E000606A0843686068680002000A216A09066B
:1052F0000143696000F044FAA949EA681206120FF6
:10530000895CC840BD4908600320FEF7D0FF2078C3
:10531000000775D560690028286D62D0012101431E
:105320002965FEF7DBFF0600286D384068D1FEF7DF
:10533000D5FF801B0328F7D35BE1E0680921C9434F
:1053400000280FD02A68114008432860FEF7C6FFE6
:10535000060028684007ACD4FEF7C0FF801B032876
:10536000F7D346E1286801402960FEF7B7FF060041
:1053700028684007A4D5FEF7B1FF801B0328F7D3A8
:1053800037E1E069002828681CD0A90D0143296095
:10539000FEF7A4FF06002868800505D4FEF79EFFEF
:1053A000801B0328F7D324E168687C490140606AC8
:1053B0000843686068680002000A216A0906014320
:1053C0006960A4E78E4901402960FEF787FF060067
:1053D000286880059BD5FEF781FF801B0328F7D343
:1053E00007E1012188432865FEF778FF0600286D54
:1053F000384005D0FEF772FF801B0328F7D3F8E092
:105400002078800630D57F48A1690029A96816D088
:1054100001220A43AA60696B01220A436A63016898
:105420006A0C0A430260FEF759FF0600A86838407C
:105430001AD1FEF753FF801B0328F7D3D9E00122CE
:105440009143A9600168704A0A400260FEF746FF76
:105450000600A868384007D0FEF740FF801B0328ED
:10546000F7D3C6E0001002402078400776D5002030
:1054700000276946087080204005A96B014003D1D0
:10548000A96B0843A863012760480068C00515D4CC
:105490005E480068A90D01435C480160012069462F
:1054A0000870FEF71BFF060058480068C00505D4C9
:1054B000FEF714FF801B6528F6D39AE0A168A80DBB
:1054C00081420ED0AA48002914D0A022D2009142D5
:1054D00010D1286D4A4901402965286D290D0143E5
:1054E0002965286DA90D014329650AE0FFFFFEFF2C
:1054F000FFFFFBFF296D424A0A402A65296D0840DB
:105500002865A06800280CD0FEF7E8FE0600286D8C
:10551000800513D4FEF7E2FE801B96498842F6D33D
:1055200067E0FEF7DBFE0600286D800506D5FEF776
:10553000D5FE801B8F498842F6D35AE06846007832
:10554000002805D0314800682D4901402F480160EE
:10555000002F03D0A86B88490140A963A06A0028E6
:1055600049D0E9680C220A400C2A00D14CE6802779
:10557000BF048249022828682ED101402960FEF725
:10558000ADFE0600286838400CD0FEF7A7FE801B51
:105590000328F7D32DE000BFFFE0FFFFFF1FFFFF51
:1055A00008830008E86892490140206B0843616B5A
:1055B0000143E06A0843E8602868790801432960EC
:1055C000FEF78CFE06002868384014D1FEF786FEF0
:1055D000801B0328F7D30CE001402960FEF77EFE14
:1055E00006002868384006D0FEF778FE801B0328A6
:1055F000F7D30320FEBD0020FEBD00BFC40C002079
:10560000FFFEFFFF20000140FEDFFFFF00700040B3
:10561000F2B582B004000127FF43012575480068F8
:10562000284088420AD273480068384001437148D4
:105630000160006828400299884274D16E4E20783B
:10564000800705D5F068F0218843A1680143F16027
:105650002068284055D06068022802D1316889034B
:1056600008E0002802D13168890503E00328316889
:1056700002D1890102D456E0490754D5F1680322CA
:1056800091430843F060FEF729FE0090606802280D
:105690000CD1F0680C210140082932D0FEF71EFE23
:1056A0000099401A33498842F3D328E003280CD1EB
:1056B000F0680C2101400C2923D0FEF70FFE009961
:1056C000401A2C498842F3D319E000280BD1F06826
:1056D0000C21014015D0FEF701FE0099401A254922
:1056E0008842F4D30BE0F0680C210140042908D073
:1056F000FEF7F4FD0099401A1E498842F3D30320B7
:10570000FEBD3C4800682840029988420DD33948C4
:105710000068074008463843364908600868054075
:105720000298854201D00120FEBD2078400705D5B2
:10573000F06832490140E0680843F06020780007D3
:1057400006D5F0682E4901402069C0000843F0608A
:1057500000F016F82B49F2681206120F895CC84057
:10576000294908600320FEF7A2FD0020FEBD0000CD
:10577000FFFBFFFF89130000FFFFFFEFFFFFFFFEAE
:10578000F0B51D4D6868214A530054081026E96899
:105790000C270F40042F04D0082F09D00C2F09D05C
:1057A0001FE02868064001D02000F0BD1800F0BDC1
:1057B0001000F0BDE868E968154F8002000F385C02
:1057C0000902890F491CEF68FF0306D42A681640B6
:1057D00001D0604302E0584300E05043FEF7CBFBAA
:1057E000F0BD01210004400F401C8140C803F0BD02
:1057F000FFFF02FF0020024000100240FFF8FFFF01
:10580000FFC7FFFF08830008C40C002000127A00C5
:1058100018830008F8B50400574D2068822109015B
:10582000014071D06069C026B602296832010A4081
:10583000310101408A4207D1296832010A40A16939
:1058400033010B409A4207D03040B04204D128685F
:10585000800301D50120F2BDA86B802149050143D9
:10586000A96346480068A90D014344480160FEF75A
:1058700035FD070041480068C00505D4FEF72EFD40
:10588000C01B6528F6D326E0286D304061693140A1
:10589000884205D1286D3040A1693140884233D01B
:1058A000296D37480840296D802212030A432A6572
:1058B000296D344A0A402A65286580050DD5FEF712
:1058C0000DFD0700286D800507D4FEF707FDC01BFE
:1058D0002D498842F6D30320F2BD61692B4832007E
:1058E0000A40B24206D12A68104032010A400243FF
:1058F0002A6002E0296808402860286D204901409C
:10590000606906400E432E652078C00705D5E86C17
:105910000321884361680143E9642078800705D545
:10592000E86C0C218843A1680143E96420784007B2
:1059300005D5E86C16490140E0680843E864207822
:10594000000705D5E86C1349014020690843E86465
:105950002078400605D5E86C0F490140E06908430E
:10596000E8642078000605D5E86C0C490140206AFF
:105970000843E8640020F2BD0010024000700040BF
:10598000FFFFFCFFFFFFF7FF89130000FFFFCFFFC2
:10599000FFF3FFFFFFCFFFFFFFFFFFFBFFFFF3FF63
:1059A0001C490A6880231B0513430B600A681A4BC5
:1059B00013400B6019494A68194B13404B604A6801
:1059C000036813434B604A68436813434B604A685B
:1059D000836813434B604A68120E12064A604A6895
:1059E000C36813434B604A6803691B0413434B604D
:1059F0000A680C4B13400B600A68406900021043B0
:105A000008600868402202430A60086820220243B6
:105A10000A60704728100240FFFFFFF7006C00404B
:105A2000FFFFFF48FFC0FFFF7047FEE77047F0B57C
:105A300087B05C484168802252020A4342600126D6
:105A400001683143016001683140009100990224EE
:105A500001682143016000682040009000981220F6
:105A6000029000250395049503270597882001904F
:105A700001A9A020C005FDF70BF9019401A94A482E
:105A8000FDF706F9029403950495059744200190CB
:105A900001A9A020C005FDF7FBF8019601A9424825
:105AA000FDF7F6F807B0F0BD10B540480168802258
:105AB00052020A4302603E4902680A4002600269DB
:105AC00011400161A024E40504212000FDF79FF9A5
:105AD00008212000FDF79BF910212000FDF797F920
