:020000040800F2
:1000000078040020311A0008C9190008CB1900082B
:1000100000000000000000000000000000000000E0
:10002000000000000000000000000000CD190008E2
:100030000000000000000000CF190008D1190008DE
:10004000D70700085B080008D91900083317000813
:100050000F1A00081B1A00084D1A00084F1A000852
:1000600000000000511A0008531A0008551A000831
:10007000571A0008591A0008000000005B1A00080F
:100080000000000000000000000000000000000070
:100090005D1A0008000000005F1A0008611A0008DD
:1000A00000000000631A00080000000000000000CB
:1000B000651A0008671A0008000000000000000030
:1000C000F0B583B00400AA4D2078C00752D5802730
:1000D000BF02E8680C210140082907D0E8680C211C
:1000E00001400C290AD1E868C00307D528680740F9
:1000F00040D0606800283DD10120FEBD60687908CD
:10010000884201D128680DE0AC49A022D202904279
:10011000286809D1014029602868790001432960D5
:1001200028687908014309E00140296028687908B6
:100130000840019001982868B8490140296060682A
:1001400000280BD000F0CBFA06002868384011D107
:1001500000F0C5FA801B6528F7D38AE100F0BFFAEA
:1001600006002868384005D000F0B9FA801B6528E1
:10017000F7D37EE12078800719D5A94FE8680C21D4
:100180000140042907D0E8680C2101400C294BD11B
:10019000E868C00348D42868400702D5E068012811
:1001A000AAD1686807402069000238436860207857
:1001B000C00623D5B14FE8680C21014058D128680A
:1001C000800502D5A069002896D068680740206A9B
:1001D0003843686068680002000AE1690906014363
:1001E000696000F00DFAA649EA681206120F895CF0
:1001F000C840A4490860032000F05AFA207800079C
:1002000074D560690028286D61D0012101432965FA
:1002100000F065FA0600286D800767D400F05FFAE9
:10022000801B0328F7D324E1E0680921C943002893
:100230000FD02A6811400843286000F050FA0600E9
:1002400028684007ADD400F04AFA801B0328F7D392
:100250000FE128680140296000F041FA0600286893
:100260004007A4D500F03BFA801B0328F7D300E138
:10027000A069002828681BD0A90D0143296000F05F
:100280002EFA06002868800505D400F028FA801BA5
:100290000328F7D3EDE068680740206A38436860B8
:1002A00068680002000AE169090601436960A5E780
:1002B00075490140296000F012FA0600286880059F
:1002C0009CD500F00CFA801B0328F7D3D1E0012164
:1002D0008843286500F003FA0600286D800705D5DD
:1002E00000F0FDF9801B0328F7D3C2E02078400717
:1002F00076D5002000276946087080204005A96B4C
:10030000014003D1A96B0843A86301275F48006837
:10031000C00515D45D480068A90D01435B48016024
:1003200001206946087000F0DAF9060057480068B5
:10033000C00505D400F0D3F9801B6528F6D398E0FA
:10034000A168A80D81420ED0A948002912D0A02290
:10035000D20091420ED1286D4B4901402965286D8C
:10036000290D01432965286DA90D0143296508E080
:1003700000100240296D444A0A402A65296D084050
:100380002865A06800280CD000F0A9F90600286DA7
:10039000800515D400F0A3F9801B96498842F6D356
:1003A00067E000F09CF90600286D800508D500F094
:1003B00096F9801B8F498842F6D35AE0FFFFFEFF73
:1003C00068460078002805D0304800682E49014072
:1003D0002E480160002F03D0A86B87490140A96314
:1003E000606A002847D0E9680C220A400C2A00D134
:1003F00082E68027BF048149022828682CD1014069
:10040000296000F06CF90600286838400AD000F036
:1004100066F9801B0328F7D32BE000BFFFFFFBFF2B
:10042000FFE0FFFFE86892490140E06A0843216B62
:100430000143A06A0843E8602868790801432960FD
:1004400000F04DF906002868384014D100F047F953
:10045000801B0328F7D30CE00140296000F03FF92E
:1004600006002868384006D000F039F9801B0328C0
:10047000F7D30320FEBD0020FEBD0000FF1FFFFFDD
:100480003819000844000020FFFEFFFF0070004004
:10049000F2B582B004000127FF43012575480068CA
:1004A000284088420AD273480068384001437148A6
:1004B0000160006828400299884274D16E4E20780D
:1004C000800705D5F068F0218843A1680143F160F9
:1004D0002068284055D06068022802D1316889031D
:1004E00008E0002802D13168890503E0032831685B
:1004F00002D1890102D456E0490754D5F16803229C
:1005000091430843F06000F0EAF800906068022828
:100510000CD1F0680C210140082932D000F0DFF83E
:100520000099401A33498842F3D328E003280CD1BC
:10053000F0680C2101400C2923D000F0D0F800997C
:10054000401A2C498842F3D319E000280BD1F068F7
:100550000C21014015D000F0C2F80099401A25493D
:100560008842F4D30BE0F0680C210140042908D044
:1005700000F0B5F80099401A1E498842F3D30320D1
:10058000FEBD3C4800682840029988420DD3394896
:100590000068074008463843364908600868054047
:1005A0000298854201D00120FEBD2078400705D584
:1005B000F06832490140E0680843F06020780007A5
:1005C00006D5F0682E4901402069C0000843F0605C
:1005D00000F016F82B49F2681206120F895CC84029
:1005E00029490860032000F063F80020FEBD0000E8
:1005F000FFFBFFFF89130000FFFFFFEFFFFFFFFE80
:10060000F0B51D4D6868214A530054081026E9686A
:100610000C270F40042F04D0082F09D00C2F09D02D
:100620001FE02868064001D02000F0BD1800F0BD92
:100630001000F0BDE868E968154F8002000F385CD3
:100640000902890F491CEF68FF0306D42A68164087
:1006500001D0604302E0584300E0504300F064F8EA
:10066000F0BD01210004400F401C8140C803F0BDD3
:10067000FFFF02FF0020024000100240FFF8FFFFD2
:10068000FFC7FFFF381900084400002000127A005D
:100690004819000880B52048016802229143016092
:1006A000032000F005F800F002F8002002BD7047BA
:1006B00010B5040019480068FA21890000F034F8E8
:1006C00000F0AEF8002221000020C04300F09DF8A9
:1006D000002010BD12480168491C01607047104895
:1006E0000068704711B581B0FFF7F9FF0400FFF70C
:1006F000F6FF001B01998842F9D313BD094806E0B3
:100700000848FFE7016802220A4302607047016857
:100710000222914301607047002002404400002003
:100720007000002010E000E00022030A8B420BD290
:1007300003098B4219D243088B422ED2411A00D2B0
:100740000146524110467047FF2209023FD012066F
:100750008B4205D3121209028B4201D312120902F5
:1007600003098B4219D300E0090AC3098B4201D364
:10077000CB01C01A524183098B4201D38B01C01AAD
:10078000524143098B4201D34B01C01A5241030924
:100790008B4201D30B01C01A5241C3088B4201D3D3
:1007A000CB00C01A524183088B4201D38B00C01A80
:1007B000524143088B4201D34B00C01A5241884238
:1007C00000D3401A5241CFD201461046704708B5B7
:1007D00000F042F808BDFEE710B58207D30EFF24F3
:1007E0009C40E2438907090E9940030004D516484E
:1007F0001B071B0F083B00E014489B089B00C01818
:1008000003681A401143016010BD80B5FFF7E4FF93
:1008100001BD0121C006C00E81400D480160704736
:1008200010B5401E80214904884201D3012010BD2B
:10083000084C606003210020C043FFF7CDFF00207B
:10084000A0600721216010BD1CED00E000E400E085
:1008500000E100E010E000E07047FEE770B5040042
:1008600001D1012070BD25003435002668780028AC
:1008700003D12E70200000F055F802206870206827
:1008800001680122914301606068274901402068A6
:10089000016120688168254A0A408260A0680028BA
:1008A00009D0E168012901D1802100E084210902F9
:1008B000014320688160E068022803D180200001A4
:1008C0002168486020684168194A0A4342602069EB
:1008D00061690143A069000208432168C860E069BA
:1008E000216A0143206801602068012102680A43EF
:1008F00002606E606970002070BD10B5002801D1E3
:10090000012010BD040034340221617001680A68BE
:1009100001239A430A6000F006F8002060606070CE
:10092000207010BD70477047FFFFFFF0FF7FFFFF93
:1009300000800002F2B582B0040034304078012813
:1009400000D083E0089800286CD0099E002E69D062
:1009500020688069000479D43420205C012875D097
:100960000120342160545220210034314870002786
:100970002000343047600A980090684601892000C2
:1009800000F06DF800280AD02000343040680428B8
:1009900002D13434277045E03434277044E0FF2E10
:1009A000009009DD80235B04FF2268460189200056
:1009B00000F05BF9FF2508E080239B04F2B2684653
:1009C0000189200000F051F935000A99200000F05B
:1009D000B5F8002822D10898007821688862089824
:1009E000401C08906D1E761E002D0ED1B6B2002E52
:1009F0000ED00A9B00228021200000F064F800281D
:100A000012D1FF2E0090D7DDCCE7B6B2002EDCD19C
:100A10001921200000F0BCF8002807D034346068A9
:100A2000042801D10120FEBD0320FEBD2020216845
:100A3000C86120684168074A0A40426001202100DD
:100A400034314870343427700020FEBD0220FEBDD2
:100A50000000000000E800FE353000787047F8B56F
:100A6000040017001D00802080010090C302EAB23C
:100A7000200000F0FAF8069E3100200000F05EF839
:100A8000002803D0A06B04281BD10DE0012D0DD050
:100A9000380A216888623100200000F04FF80028F1
:100AA00004D0A06B04280CD10120F2BDFFB2206855
:100AB0008762330000228021200000F004F8002823
:100AC00000D00320F2BDF7B505001C00FFF707FEBC
:100AD00000900027FF43FE0B6846007A002812D1E1
:100AE000019829688969014031403040814223D012
:100AF000BC42F5D0002C18D0FFF7F1FD0099401A48
:100B00008442EDD211E001982968896901403140A1
:100B10003040814210D1BC42F5D0002C05D0FFF707
:100B2000DEFD0099401A8442EDD234350120687010
:100B3000002028700320FEBD0020FEBD70B504001B
:100B40000E00FFF7CCFD05002068806980071DD4EA
:100B50003100200000F043F8002801D0012070BDD2
:100B60000020C0438642EFD0002E04D0FFF7B7FD2F
:100B7000401B8642E8D23434606820210143616022
:100B80000120607000202070032070BD002070BD27
:100B9000F8B504000E00FFF7A2FD0700202520682D
:100BA000806928400FD13100200000F018F800289B
:100BB00001D00120F2BD002E04D0FFF790FDC01B34
:100BC0008642ECD201E00020F2BD34346068054377
:100BD000656001206070002020700320F2BDF2B536
:100BE0000500FFF77CFD0700286810268169314069
:100BF00039D02C0034346178122905D0617852291B
:100C000002D06178622906D14168890103D4416824
:100C1000B2020A4342602868202182690A400DD14D
:100C200000980021C9438842F5D0002805D0FFF77D
:100C300056FDC01B00998142EDD2CAE7C661286803
:100C4000C161296801208A69024000D1C861296810
:100C50004A680E4B13404B600421616060700020B5
:100C600020700120F2BD0020F2BD30B5006844685C
:100C7000074D25408905890D294312040A43134372
:100C800003991943416030BD0000000000E800FEF8
:100C9000009800FCF8B5FFF7FDFC00F097F800F0B5
:100CA000CEF800F0E7F800F0DAF800F016F9B348F3
:100CB000406880070AD5B148006808210143AF4861
:100CC0000160AF480568FA24240102E0FA24A40078
:100CD000002500F081F900280AD000F071F907E042
:100CE000FFF70CFD0121012000F0CEF9FFF708FD10
:100CF000A44E002070620A2D09D3FA208000241827
:100D000024B20025A048844201DBFA24A400601923
:100D100000F074F96D1C002801D000F051F99B4FD0
:100D2000FA2189008C4210D049008C42D8D09849D1
:100D30008C420ED0FA2109018C4213D095498C4285
:100D400028D095498C4238D0D2E7706A0028CFD19C
:100D5000FBE700F0DBF90121012000F0A9F900F028
:100D6000DBF9C5E700F086F88448006804210143F8
:100D7000824801603068C16880221140874A0A4376
:100D8000C26000F06CF87E48056000F0BFF900F02A
:100D9000A7F9A2E700F077F8FFF7B0FC00F0C2F97E
:100DA000706A0028FCD000F0C7F900F00FF838682E
:100DB000802149050143396098E700F064F8FFF7A6
:100DC0009DFC0121012000F05FF9ECE710B592B025
:100DD0006846142100F0F2F905A8342100F0EEF97C
:100DE0001020059001200B90A02000020D900024FF
:100DF0000C940E9405A8FFF763F9002800D0FEE7D5
:100E00000F200090019402940394049400216846FA
:100E1000FFF73EFB002800D0FEE75C480168802217
:100E200052050A43026055490A68C0235B01134317
:100E30000B6001685A4A0A40026012B010BD80B5CA
:100E4000504858490160002141607F228260B132E0
:100E5000C26001618161C16100F0B2F905E080B555
:100E600003225149474800F01BFA002801D000F046
:100E7000A7F801BD80B5434800F081FAF5E70120ED
:100E800040494862704730B593B06846142100F07D
:100E900095F905A8342100F091F91020059000245F
:100EA0000694012508950B950D940C940E9405A8B5
:100EB000FFF706F9002801D000F082F800950194B0
:100EC00002940394049400216846FFF7E1FA002895
:100ED00001D000F075F813B030BD10B586B0334CBA
:100EE000E068802149050143E16001202168014358
:100EF0002160216808400090009802202168014389
:100F00002160216808400090009804202168014376
:100F100021602168084000900098802021680143EA
:100F2000216021680840009000982148019003202A
:100F300002900020039001A9A020C00500F084FACF
:100F400001A91C4800F080FA01A91B4800F07CFAB6
:100F500001A91A4800F078FA20680121884320602E
:100F60002068022188432060206804218843206093
:100F7000206880218843206006B010BD00700040CA
:100F8000502800404800002071170000381002402F
:100F9000B80B000088130000701700007FFBFFFFF4
:100FA000FFFFFFEF00280040434A00002C100240E2
:100FB000FFFF00000004005000080050001C00501B
:100FC00080B5002000F010FB002000F031FBFA207B
:100FD0008000FFF787FBF7E700B583B001A800BFEB
:100FE00023A10A78027000F02EFB0120009001ABD3
:100FF00001220021702000F041FB0EBD70B586B0CB
:10100000050002A81BA11CC91CC0012017498D4264
:1010100029D2FA26B60028003100FFF785FB04002C
:101020006643AE1B30006421FFF77EFB05006420A1
:101030006843361A30000A21FFF776FB01A902AA9D
:10104000135DCB70535D8B70135C4B700A23584358
:10105000301A105C08700420009001AB01220121BD
:10106000702000F00BFB06B070BD000010270000E0
:10107000470000003F065B4F666D7D077F6F0000F5
:1010800020480168820D39E010B51E4A1368032418
:10109000A343184310601C48026804239A4302606B
:1010A000012901D130BF10BD40BF20BF20BF10BDFE
:1010B00010B5144A13680324A34318431060124860
:1010C0000268042313430360012901D130BF02E009
:1010D00040BF20BF20BF016804229143016010BDC2
:1010E0000848016802220A43026007480168042296
:1010F0000A43026030BF7047016810220A43026051
:10110000704700000070004010ED00E01A480168D0
:10111000420D0A430260704717480168174A0A40A7
:10112000026070471448016801220A4302600168A6
:10113000020C0A430260704710B50F4C206810493A
:101140000140216020680121884320600D4800682B
:101150000D49FFF7E9FA32214843202100E0401E03
:10116000002802D062680A40F9D16068014001D0CD
:10117000032010BD002010BD00700040FFFDFFFFE8
:10118000FFBFFFFF4400002040420F00130030B4B7
:1011900014001500103902D310393CC0FCD24907A5
:1011A00000D30CC000D504C0890002D30280801C8B
:1011B000002900D5027030BC704700000022E5E72E
:1011C00038B504001CD02120205C002804D1202147
:1011D0006054200000F0AEFA022021216054CA20A1
:1011E00021684862532021684862FF25200000F0F2
:1011F00039F80028206805D0456204202134207089
:10120000012032BD8168164A0A40826020688168E8
:10121000626823691343A2691A430A438260E06843
:101220002168086120680169A26812040A4302610A
:101230002068C16880229143C1602068C16C03228C
:101240009143C1642068C16CE269636913430B4335
:10125000C36420684562012021342070002032BD23
:10126000BFFF8FFF70B5040020684025C16829408A
:1012700011D10021C943C160FFF731FA060020688F
:10128000C068284007D1FFF72AFA801B034988422B
:10129000F5D3032070BD002070BD0000E9030000FD
:1012A000F7B504002020205C012801D10220FEBDFA
:1012B000012020216054022021216054CA2021688D
:1012C0004862532021684862FF2500262068806814
:1012D00040050DD5FFF703FA07002068C0684007F6
:1012E00006D5FFF7FCF9C01B50498842F5D311E041
:1012F000206881684E4A0A408260FFF7F0F90700D3
:101300002068C168490706D4FFF7E9F9C01B4749BF
:101310008842F5D31CE00199416120688168072269
:101320009143816020688168029A0A43826080202C
:10133000400340490A6802430A608A681043886093
:10134000206881688022D2010A43826008E00000A0
:101350002068456203202121605420342670FEBDA0
:10136000206881688022D2000A438260206845623A
:10137000012021216054203426700020FEBD70B56C
:1013800004002020205C012801D1022070BD01252D
:1013900020216554022021216054CA20216848621E
:1013A00053202168486220688168214A0A4082608F
:1013B00020688168204A0A408260FFF790F90600A1
:1013C0002068C168490710D4FFF789F9801B1B49C1
:1013D0008842F5D3FF202168486203202121605410
:1013E000002020342070032070BDFF2141622120A5
:1013F000255400202034207070BD000010B504007A
:101400002068C068400509D52000FFF738FD206836
:10141000C168802211400A4A0A43C260802040030A
:101420000849086001202134207010BDE903000044
:10143000FFFBFFFF00040140FFBFFFFFE9030000C7
:101440007FFBFFFF14040140FFB5002401232FE0C0
:101450000625B5403D43039E35605D4D2E68009FD7
:10146000FD432E404F68FF0302D53700009E3E43E8
:10147000574F3E607E682E404F68BF0302D537004D
:10148000009E3E43524F7E60BE682E404F68FF0272
:1014900002D53700009E3E434D4FBE60FE6835408A
:1014A0004E68B60202D52E00009D3543FD60641CD7
:1014B0000D682E00E64000D17FE00126A6402E40B8
:1014C0000096009D002DF2D04D68022D01D0122D06
:1014D00018D1E508AD0045192E6A01966607F60E8B
:1014E0006F463E72019FBC466E46377A0F26BE405D
:1014F0006746B743BC460F696E46367AB7406646C4
:1015000037432F6266000327B740FD4301954D68BE
:10151000012D05D0022D03D0112D01D0122D10D197
:101520008768019D3D40CF68B7402F43876047687B
:101530000125A540AF434D682D091D40A5403D4301
:1015400045600768019D3D400F79BF07BF0FB74059
:101550002F430760C768019D3D408F68BC46370038
:101560006646BE402E43C6604D68ED009FD5194DBE
:101570002D681D43174E3560174DA608B600AD19EE
:1015800003952F68A5072E0F0F25B540AF43A02563
:10159000ED05A84201D100255BE7104DA84201D11D
:1015A000012556E70E4DA84201D1022551E70D4D08
:1015B000A84200D04CE705254BE7FFBD002A01D02B
:1015C000816170478162704742694A404261704759
:1015D00000040140341002400800014000040050A3
:1015E00000080050001C005030B587B00221484A66
:1015F00013680B431360126811400091009900BFFB
:101600004BA142008D5A01950121029100210391C5
:10161000032104913F4980000C1801A92068FFF7BD
:1016200013FF002229002068FFF7C8FF07B030BD74
:1016300080B500BF3EA14200895A364A800010584A
:10164000FFF7C2FF01BD10B5334C2000FFF704FACD
:10165000002812D131482060314860600020A0602D
:101660000121E16020616061A061E06120622000F1
:1016700000F01EF82000FFF7F1F810BD3EB50400A1
:101680002548C56B0295069D0195009313000A003D
:101690002100FFF74FF9040001D000F002F820000C
:1016A0003EBD80B51C48FFF728F9FFF7CCFF01BD10
:1016B00010B58CB0082006904002099006A800F0F2
:1016C0006DF8184C02206168014361606168084050
:1016D00000900098C02001901220029000200390FA
:1016E000032004900120059001A90F48FFF7ACFEEC
:1016F0008020800321690143216121680843206023
:1017000020680A49014021600CB010BD00000000B3
:101710002C10024000000020040000200054004073
:10172000B58090002810024000040050FFFFDFFF4A
:101730000800FEE710B594B0174C206880214905D9
:1017400001432160FFF79CFC0820069000200F90C9
:1017500001210B91089006A8FEF7B2FC002801D0E9
:10176000FFF72EFC2020009000030490684600F054
:1017700015F8002801D0FFF723FCA0698021C902D9
:101780000143A16100220F210220FFF73EF8022051
:10179000FFF73FF814B010BD38100240F8B5040050
:1017A000464D2078800663D52069C026B602296898
:1017B00032010A40310101408A4207D03040B04234
:1017C00004D12868800301D50120F2BDA86B8021D7
:1017D00049050143A9633A480068A90D0143384807
:1017E0000160FEF77CFF070035480068C00505D49E
:1017F000FEF775FFC01B6528F6D320E0286D30404A
:1018000021693140884233D0296D2E480840296D26
:10181000802212030A432A65296D2B4A0A402A6551
:10182000286580050DD5FEF75AFF0700286D800555
:1018300007D4FEF754FFC01B24498842F6D3032087
:10184000F2BD2169224832000A40B24206D12A681C
:10185000104032010A4002432A6002E02968084031
:101860002860286D17490140206906400E432E6507
:101870002078800705D5E86C0C2188436168014316
:10188000E9642078400705D5E86C12490140A0685A
:101890000843E8642078000705D5E86C0E4901404C
:1018A000E0680843E8642078000605D5E86C0B4939
:1018B000014060690843E8640020F2BD0010024066
:1018C00000700040FFFFFCFFFFFFF7FF89130000DF
:1018D000FFFFCFFFFFF3FFFFFFCFFFFFFFFFF3FF90
:1018E0000F480168820D0A430260C1680D4A0A4030
:1018F000C26001680C4A0A4002608168012291437B
:1019000081600168094A0A400260C168084A0A40C9
:10191000C26000210161802000050649086070470F
:10192000001002400C40FF88F6FFF6FEFFFFFBFFB1
:10193000FFFF02FF08ED00E00000000000000000D3
:101940000102030406070809030406080C10182006
:101950003000000030B501684118446862088A18F8
:101960008368E40701D54C461B190C30914200D125
:1019700030BD0C7864B2491C0D78491C1D705B1C8D
:10198000002C02D5641CF9D1F0E7641EF4D5EDE714
:1019900010B5074979441831064C7C44163404E0EC
:1019A000081D0A68891888470100A142F8D110BDB6
:1019B00008000000140000009DFFFFFFAC000000C5
:1019C00022000000000000207047FEE770477047CB
:1019D00080B5FEF77FFE01BD80B50248FFF70EFD22
:1019E00001BD00004800002000F00BF8002801D0E5
:1019F000FFF7CEFF0020C046C046FFF74BF900F0CE
:101A000002F80120704780B500F002F801BDFEE742
:101A10000746384600F002F8FBE7FEE780B5C0460F
:101A2000C046024A11001820ABBEFBE726000200A8
:101A30000148804701480047E1180008411A0008A2
:101A4000C046C046C046C046FFF7CEFFFEE7FEE7F1
:101A5000FEE7FEE7FEE7FEE7FEE7FEE7FEE7FEE75E
:101A6000FEE7FEE7FEE7FEE70300040050C40006C1
:091A7000E803000080841ED3008D
:0400000508001A4194
:00000001FF
