:020000040800F2
:1000000070090020B58D0008518D0008538D00083F
:1000100000000000000000000000000000000000E0
:10002000000000000000000000000000558D0008E6
:100030000000000000000000578D0008598D0008E6
:10004000073D00089F5300085B6900086F810008A6
:10005000778B0008938D00089F8D0008618D000844
:10006000D18D0008D38D0008D58D0008D78D0008EC
:10007000D98D0008DB8D000800000000DD8D000830
:1000800000000000DF8D00080000000000000000FC
:10009000E18D000800000000E38D0008E58D0008F8
:1000A000E78D0008E98D0008EB8D0008ED8D000854
:1000B000EF8D0008F18D0008F38D0008F58D000824
:1000C0000000000000000000000000000000000030
:1000D0000000000000000000000000000000000020
:1000E0000000000000000000000000000000000010
:1000F0000000000000000000000000000000000000
:10010000000000000000000000000000000003806C
:100110000003800003800003800003800003800050
:100120000380000380000380000100000100000044
:1001300000000000000380000380000000000000B9
:1001400000000000000000000000000000000000AF
:100150000000000000000000000E70000E70000E95
:10016000700004200004200004200004200000008F
:10017000000000000000000000000000000000007F
:10018000000000000000000000000000000000006F
:1001900000000000000000000000000000000660F9
:1001A000000660000660000660000660003FF80080
:1001B0003FF8000660000CC0003FF8003FF8000C5C
:1001C000C0000CC0000CC0000CC0000CC00000003F
:1001D000000000000000000000000000000000001F
:1001E00000000001800001800007B0000FF000183F
:1001F00070001870001C00000F800007E00000F085
:10020000001830001C30001C70001FE0001BC000F4
:1002100001800001800001800001800000000000DA
:100220000000000000000000000000000000078047
:10023000000FC0001CE0001860001860001CE00007
:100240000FF80007E0001FF000073800061800064E
:10025000180007380003F00001E000000000000073
:10026000000000000000000000000000000000008E
:1002700000000000000000000000000003F0000784
:10028000F0000C60000C00000C00000600000700ED
:10029000000F9C001DFC0018F0001870000FFC00FF
:1002A00007DC00000000000000000000000000006B
:1002B000000000000000000000000000000000003E
:1002C00000038000038000038000010000010000A3
:1002D000010000010000000000000000000000001C
:1002E000000000000000000000000000000000000E
:1002F00000000000000000000000000000000000FE
:10030000000000000000001800003800007000002D
:10031000F00000E00000E00001C00001C00001C0EA
:100320000001C00001C00001C00000E00000E000CA
:10033000007000007000003800001800000000008D
:100340000000000000000000000000000000180095
:10035000001C00000E00000E000007000007000057
:1003600003800003800003800003800003800003FB
:1003700080000700000700000F00000E00001C00B6
:100380000018000000000000000000000000000055
:100390000000000000000180000180000180001DBD
:1003A000B8001FF80007E00003C00003C0000660AB
:1003B00000066000000000000000000000000000D7
:1003C000000000000000000000000000000000002D
:1003D000000000000000000000000000000000001D
:1003E0000000000001800001800001800001800009
:1003F0000180003FFC003FFC000180000180000103
:10040000800001800001800000000000000000006A
:1004100000000000000000000000000000000000DC
:1004200000000000000000000000000000000000CC
:1004300000000000000000000000000000000000BC
:100440000000000000000000000000E00000C0000C
:1004500001C00001800001800003000003000000D3
:10046000000000000000000000000000000000008C
:10047000000000000000000000000000000000007C
:100480000000001FF8001FF800000000000000003E
:10049000000000000000000000000000000000005C
:1004A000000000000000000000000000000000004C
:1004B000000000000000000000000000000000003C
:1004C000000000000000000000000000000000002C
:1004D0000000000000000000000003C00003C00096
:1004E00003C0000000000000000000000000000049
:1004F0000000000000000000001800001800003894
:100500000000300000700000600000600000C000CB
:1005100000C000018000018000030000030000060D
:1005200000000600000E00000C00001C0000180077
:1005300000180000000000000000000000000000A3
:1005400000000000000003C00007E0000C30000CB9
:10055000300018180018180018180018180018187B
:10056000001818001818000C30000C300007E000CC
:1005700003C00000000000000000000000000000B8
:1005800000000000000000000000000000000080EB
:10059000000780001F80001D800001800001800096
:1005A00001800001800001800001800001800001C5
:1005B00080000180001FF8001FF80000000000000C
:1005C000000000000000000000000000000000002B
:1005D00000000000000007C0001FF00038300030AD
:1005E000180030180000180000300000600001C042
:1005F000000380000600000C00001800003FF80017
:100600003FF80000000000000000000000000000B3
:10061000000000000000000000000000000003C017
:10062000000FE0000C70000030000030000060009F
:1006300003C00003E0000070000018000018000074
:1006400018001838001FF0000FC000000000000064
:10065000000000000000000000000000000000009A
:1006600000000000000000E00001E00001E00003E5
:1006700060000660000660000C60000C60001860FE
:10068000003060003FF8003FF80000600003F80011
:1006900003F800000000000000000000000000005F
:1006A00000000000000000000000000000001FF03B
:1006B000001FF0001800001800001800001BC00008
:1006C0001FF0001C30000018000018000018000087
:1006D00018003030003FF0000FC0000000000000A4
:1006E000000000000000000000000000000000000A
:1006F00000000000000000F80003F8000700000EF2
:1007000000000C00001800001BC0001FF0001C308F
:10071000001818001818001818000C38000FF00006
:1007200003E00000000000000000000000000000E6
:1007300000000000000000000000000000001FF8A2
:10074000001FF800181800183800003000003000B2
:1007500000700000600000600000E00000C00000C9
:10076000C00001C000018000018000000000000006
:100770000000000000000000000000000000000079
:1007800000000000000007E0000FF0001C38001817
:1007900018001818000C300007E00007E0000C30CB
:1007A000001818001818001818001C38000FF00066
:1007B00007E0000000000000000000000000000052
:1007C000000000000000000000000000000007C062
:1007D000000FF0001C30001818001818001818003E
:1007E0000C38000FF80003D800001800003000009B
:1007F000700000E0001FC0001F00000000000000AB
:1008000000000000000000000000000000000000E8
:1008100000000000000000000000000000000000D8
:10082000000003C00003C00003C00000000000007F
:100830000000000000000000000003C00003C00032
:1008400003C00000000000000000000000000000E5
:100850000000000000000000000000000000000098
:100860000000000000000000000000F00000F000A8
:1008700000F0000000000000000000000000000088
:10088000E00001C0000180000180000300000200C0
:100890000000000000000000000000000000000058
:1008A000000000000000000000000000001C00002C
:1008B0003C0000F00003C0000F00003C0000F0000E
:1008C000003C00000F000003C00000F000003C00EE
:1008D000001C0000000000000000000000000000FC
:1008E0000000000000000000000000000000000008
:1008F000000000000000000000000000007FFC007D
:100900007FFC000000000000007FFC007FFC000076
:1009100000000000000000000000000000000000D7
:1009200000000000000000000000000000000000C7
:1009300000000000000000000000000070000078CF
:1009400000001E000007800001E000007800001E8B
:100950000000780001E0000780001E000078000021
:100960007000000000000000000000000000000017
:100970000000000000000000000000000000000077
:100980000007C0000FE00018700018300018300099
:1009900000700000E00003C00003800003000000BE
:1009A0000000000000070000070000000000000039
:1009B0000000000000000000000000000000000037
:1009C00000000000000003E00007F0000E38000CFB
:1009D000180018780018F80019D80019980019980C
:1009E0000019980018F8001878001800000C000092
:1009F0000E180007F80003E00000000000000000EF
:100A000000000000000000000000000000000000E6
:100A1000001F80001FC00001C000036000036000D1
:100A20000630000630000C30000FF8001FF80018E8
:100A30000C00300C00FC7F00FC7F00000000000078
:100A400000000000000000000000000000000000A6
:100A50000000000000000000007FE0007FF00018B0
:100A600038001818001818001838001FF0001FF878
:100A700000181C00180C00180C00180C007FF8005F
:100A80007FF00000000000000000000000000000F7
:100A90000000000000000000000000000000000056
:100AA0000003EC000FFC001C1C00180C00300C00B4
:100AB000300000300000300000300000300000182E
:100AC0000C001C1C000FF80003F0000000000000E8
:100AD0000000000000000000000000000000000016
:100AE0000000000000000000007FC0007FF0001840
:100AF0003800181800180C00180C00180C00180CFE
:100B000000180C00180C001818001838007FF000AE
:100B10007FE0000000000000000000000000000076
:100B200000000000000000000000000000000000C5
:100B3000007FF8007FF800181800181800199800B6
:100B40001980001F80001F8000198000199800186C
:100B500018001818007FF8007FF80000000000005F
:100B60000000000000000000000000000000000085
:100B70000000000000000000003FFC003FFC000CF3
:100B80000C000C0C000CCC000CC0000FC0000FC0FF
:100B9000000CC0000CC0000C00000C00003FC000A6
:100BA0003FC0000000000000000000000000000046
:100BB0000000000000000000000000000000000035
:100BC0000003EC000FFC001C1C00180C00300C0093
:100BD00030000030000030FE0030FE00300C0038E5
:100BE0000C001C1C000FFC0003F0000000000000C3
:100BF00000000000000000000000000000000000F5
:100C00000000000000000000007E7E007E7E0018D4
:100C100018001818001818001818001FF8001FF8FE
:100C2000001818001818001818001818007E7E0008
:100C30007E7E0000000000000000000000000000B8
:100C400000000000000000000000000000000000A4
:100C5000001FF8001FF800018000018000018000E3
:100C600001800001800001800001800001800001FE
:100C700080000180001FF8001FF800000000000045
:100C80000000000000000000000000000000000064
:100C900000000000000000000007FE0007FE00004A
:100CA00030000030000030000030000030003030F4
:100CB000003030003030003030003060003FE00065
:100CC0000F80000000000000000000000000000095
:100CD0000000000000000000000000000000000014
:100CE000007F3E007F3E0018300018600018C000F2
:100CF0001980001B80001FC0001CE0001870001845
:100D000030001838007F1F007F1F00000000000027
:100D100000000000000000000000000000000000D3
:100D20000000000000000000007F80007F80000CB9
:100D300000000C00000C00000C00000C00000C0077
:100D4000000C0C000C0C000C0C000C0C007FFC00C8
:100D50007FFC000000000000000000000000000018
:100D60000000000000000000000000000000000083
:100D700000F00F00F81F00381C003C3C003C3C0019
:100D8000366C00366C0033CC0033CC00318C003034
:100D90000C00300C00FE7F00FE7F00000000000011
:100DA0000000000000000000000000000000000043
:100DB00000000000000000000078FE0078FE001C2B
:100DC00018001E18001F18001B18001B980019D8C7
:100DD0000018D80018F8001878001838007F18009C
:100DE0007F1800000000000000000000000000006C
:100DF00000000000000000000000000000000000F3
:100E00000003C0000FF0001C3800181800381C0048
:100E1000300C00300C00300C00300C00381C001876
:100E200018001C38000FF00003C000000000000094
:100E300000000000000000000000000000000000B2
:100E40000000000000000000003FF0003FF8000C30
:100E50001C000C0C000C0C000C0C000C18000FF803
:100E6000000FE0000C00000C00000C00003FC00070
:100E70003FC0000000000000000000000000000073
:100E80000000000000000000000000000000000062
:100E90000003C0000FF0001C3800181800381C00B8
:100EA000300C00300C00300C00300C00381C0018E6
:100EB00018001C38000FF00007C00007CC000FFC22
:100EC000000C3800000000000000000000000000DE
:100ED0000000000000000000007FE0007FF000182C
:100EE00038001818001818001838001FF0001FC02C
:100EF0000018E0001870001830001838007F1E003D
:100F00007F0E000000000000000000000000000054
:100F100000000000000000000000000000000000D1
:100F20000007D8000FF8001C380018180018180027
:100F30001E00000FC00003F0000078001818001811
:100F400018001C38001FF0001BE00000000000002B
:100F50000000000000000000000000000000000091
:100F60000000000000000000003FFC003FFC0031DA
:100F70008C00318C00318C00318C000180000180AC
:100F8000000180000180000180000180000FF0005E
:100F90000FF0000000000000000000000000000052
:100FA0000000000000000000000000000000000041
:100FB000007E7E007E7E00181800181800181800A9
:100FC0001818001818001818001818001818001819
:100FD00018000C30000FF00003C0000000000000FB
:100FE0000000000000000000000000000000000001
:100FF0000000000000000000007F7F007F7F0018DD
:101000000C000C18000C18000C18000630000630FC
:101010000003600003600003600001C00001C00025
:101020000080000000000000000000000000000040
:1010300000000000000000000000000000000000B0
:1010400000FE3F80FE3F8030060030060030860004
:1010500019CC0019CC001B6C001B6C001E7C000E10
:1010600038000E38000C18000C18000000000000BA
:101070000000000000000000000000000000000070
:101080000000000000000000007E7E007E7E001850
:1010900018000C300006600003C0000180000180D1
:1010A0000003C0000660000C30001818007E7E00AF
:1010B0007E7E000000000000000000000000000034
:1010C0000000000000000000000000000000000020
:1010D000007C7E007C7E001818000C30000660004A
:1010E00006600003C0000180000180000180000153
:1010F00080000180000FF0000FF0000000000000F1
:1011000000000000000000000000000000000000DF
:101110000000000000000000001FF8001FF8001889
:10112000180018300018600018C00001800003008B
:10113000000618000C18001818003018003FF800BE
:101140003FF8000000000000000000000000000068
:10115000000000000000000000000000000001F09E
:101160000001F0000180000180000180000180008A
:1011700001800001800001800001800001800001E9
:10118000800001800001800001800001800001F0EA
:101190000001F0000000000000000000000000005E
:1011A0001800001800001C00000C00000E000006D3
:1011B0000000060000030000030000018000018021
:1011C0000000C00000C0000060000060000070006F
:1011D0000030000038000018000018000000000077
:1011E00000000000000000000000000000000F8070
:1011F000000F80000180000180000180000180005C
:101200000180000180000180000180000180000158
:1012100080000180000180000180000180000F80BB
:10122000000F80000000000000000000000000002F
:1012300000000000800001C00003E000077000060D
:1012400030000C1800180C00100400000000000012
:10125000000000000000000000000000000000008E
:10126000000000000000000000000000000000007E
:10127000000000000000000000000000000000006E
:10128000000000000000000000000000000000005E
:10129000000000000000000000000000000000004E
:1012A000000000000000000000000000000000003E
:1012B00000000000000000000000FFFF00FFFF0032
:1012C00000000003000003800000E0000060000058
:1012D000000000000000000000000000000000000E
:1012E00000000000000000000000000000000000FE
:1012F00000000000000000000000000000000000EE
:1013000000000000000000000000000000000000DD
:10131000000000000000000000000FC0001FE000FF
:1013200000300000300007F0001FF00038300030BF
:1013300030003070001FFC000FBC000000000000F7
:10134000000000000000000000000000000000009D
:10135000000000000000780000780000180000186D
:1013600000001BE0001FF8001C1800180C00180CEF
:1013700000180C00180C00180C001C18007FF80056
:101380007BE0000000000000000000000000000002
:10139000000000000000000000000000000000004D
:1013A0000000000000000000000003EC000FFC0043
:1013B0001C1C00380C00300C0030000030000038DD
:1013C0000C001C1C000FF80003F0000000000000DF
:1013D000000000000000000000000000000000000D
:1013E00000000000000000780000780000180000F5
:1013F000180007D8001FF8001838003018003018FF
:10140000003018003018003018001838001FFE0097
:1014100007DE0000000000000000000000000000E7
:1014200000000000000000000000000000000000BC
:101430000000000000000000000007E0001FF800AE
:10144000181800300C003FFC003FFC00300000305A
:101450000000180C001FFC0007F000000000000056
:10146000000000000000000000000000000000007C
:1014700000000000000001FC0003FC000600000664
:1014800000003FF8003FF8000600000600000600DC
:10149000000600000600000600000600003FF00005
:1014A0003FF000000000000000000000000000000D
:1014B000000000000000000000000000000000002C
:1014C0000000000000000000000007DE001FFE001A
:1014D000183800301800301800301800301800306C
:1014E00018001838001FF80007D80000180000186E
:1014F000000038000FF0000FC000000000000000E6
:1015000000000000000078000078000018000018BB
:1015100000001BE0001FF0001C380018180018180D
:10152000001818001818001818001818007E7E00FF
:101530007E7E0000000000000000000000000000AF
:10154000000000000000000000000000000001801A
:10155000000180000000000000001F80001F8000CC
:1015600001800001800001800001800001800001F5
:1015700080000180003FFC003FFC000000000000F4
:10158000000000000000000000000000000000005B
:1015900000000000000000C00000C00000000000CB
:1015A00000001FF0001FF00000300000300000308D
:1015B000000030000030000030000030000030003B
:1015C0000030000030000030000070001FE0001FFD
:1015D00080000000000000000000000000003C004F
:1015E000003C00000C00000C00000CF8000CF8009F
:1015F0000CC0000D80000F80000F00000F80000D58
:10160000C0000CE0003C7C003C7C000000000000BE
:1016100000000000000000000000000000000000CA
:101620000000000000001F80001F800001800001FA
:1016300080000180000180000180000180000180A5
:10164000000180000180000180000180003FFC005B
:101650003FFC00000000000000000000000000004F
:10166000000000000000000000000000000000007A
:1016700000000000000000000000F77800FFFC0000
:1016800039CC00318C00318C00318C00318C003130
:101690008C00318C00FDEF00FDEF00000000000029
:1016A000000000000000000000000000000000003A
:1016B000000000000000000000000000000000002A
:1016C00000007BE0007FF0001C380018180018189C
:1016D000001818001818001818001818007E7E004E
:1016E0007E7E0000000000000000000000000000FE
:1016F00000000000000000000000000000000000EA
:101700000000000000000000000003C0000FF00017
:101710001C3800381C00300C00300C00300C003835
:101720001C001C38000FF00003C000000000000087
:1017300000000000000000000000000000000000A9
:101740000000000000000000000000000000000099
:1017500000007BE0007FF8001C1800180C00180C3B
:1017600000180C00180C00180C001C18001FF800C2
:101770001BE0001800001800001800007F00007F28
:101780000000000000000000000000000000000059
:101790000000000000000000000007DE001FFE0047
:1017A0001838003018003018003018003018003099
:1017B00018001838001FF80007D80000180000189B
:1017C0000000180000FE0000FE0000000000000005
:1017D0000000000000000000000000000000000009
:1017E00000003E78003EFC0007CC00070000060029
:1017F000000600000600000600000600003FF000A2
:101800003FF00000000000000000000000000000A9
:1018100000000000000000000000000000000000C8
:101820000000000000000000000007F8000FF800B2
:101830001818001818001F80000FF00000F800189A
:1018400018001838001FF0001FE000000000000022
:101850000000000000000000000000000000000088
:101860000000000000000C00000C00000C00000C48
:1018700000003FF0003FF0000C00000C00000C00E6
:10188000000C00000C00000C00000C1C0007FC0009
:1018900003F0000000000000000000000000000055
:1018A0000000000000000000000000000000000038
:1018B0000000000000000000000078780078780048
:1018C0001818001818001818001818001818001810
:1018D00018001838000FFE0007DE000000000000AE
:1018E00000000000000000000000000000000000F8
:1018F00000000000000000000000000000000000E8
:1019000000007C3E007C3E001818001818000C30C7
:10191000000C300006600006600007E00003C00015
:1019200003C00000000000000000000000000000F4
:1019300000000000000000000000000000000000A7
:1019400000000000000000000000783C00783C002F
:101950003118003398003398001AB0001EF0001EB2
:10196000F0001C60000C60000C6000000000000033
:101970000000000000000000000000000000000067
:101980000000000000000000000000000000000057
:1019900000003E7C003E7C000C300006600003C06E
:1019A0000001800003C0000660000C30003E7C0097
:1019B0003E7C00000000000000000000000000006D
:1019C0000000000000000000000000000000000017
:1019D000000000000000000000007E1F007E1F00CD
:1019E000180C000C18000C1800063000063000031C
:1019F000600003E00001C00000C000018000018021
:101A0000000300003FC0003FC000000000000000D5
:101A100000000000000000000000000000000000C6
:101A200000001FF8001FF80018300018600000C008
:101A3000000180000300000618000C18001FF800C9
:101A40001FF800000000000000000000000000007F
:101A5000000000000000000000000000000000E0A6
:101A60000001E00001800001800001800001800091
:101A70000180000180000380000700000380000156
:101A8000800001800001800001800001800001E0F1
:101A90000000E00000000000000000000000000066
:101AA00000000000000001800001800001800001B2
:101AB0008000018000018000018000018000018021
:101AC0000001800001800001800001800001800091
:101AD0000180000180000180000180000000000002
:101AE00000000000000000000000000000000700EF
:101AF000000780000180000180000180000180005B
:101B000001800001800001C00000E00001C0000170
:101B100080000180000180000180000180000780BA
:101B200000070000000000000000000000000000AE
:101B300000000000000000000000000000000000A5
:101B400000000000000000000E00001F18003BB85D
:101B50000031F00000E00000000000000000000084
:101B60000000000000000000000000000000000075
:101B70000000000000000000000000000000000065
:101B800000000000001010101010000010000000F5
:101B9000006C4848000000000000000000141428F9
:101BA0007C287C2850500000001038404038487095
:101BB00010100000002050200C70081408000000D5
:101BC00000000018202054483400000000101010BD
:101BD0001000000000000000000808101010101095
:101BE00010080800002020101010101010202000F5
:101BF00000107C10282800000000000000001010D9
:101C000010FE10101000000000000000000000187E
:101C10001030200000000000007C000000000000E8
:101C20000000000000000030300000000004040844
:101C3000081010202040000000384444444444442C
:101C40003800000000301010101010107C00000050
:101C500000384404081020447C000000003844048C
:101C60001804044438000000000C141424447E04BA
:101C70000E000000003C202038040444380000001E
:101C8000001C20407844444438000000007C440498
:101C90000808081010000000003844443844444448
:101CA0003800000000384444443C04087000000040
:101CB000000000303000003030000000000000184C
:101CC000180000183020000000000C106080601028
:101CD0000C000000000000007C007C000000000000
:101CE0000000C02018041820C000000000001824C4
:101CF00004081000300000003844444C54544C4058
:101D0000443800000030102828287C44EE000000F1
:101D100000F8444478444444F8000000003C444047
:101D2000404040443800000000F0484444444448E7
:101D3000F000000000FC445070504044FC000000E3
:101D4000007E22283828202070000000003C4440FB
:101D5000404E44443800000000EE44447C44444477
:101D6000EE000000007C1010101010107C0000002D
:101D7000003C0808084848483000000000EE44488D
:101D800050704844E60000000070202020202424E9
:101D90007C00000000EE6C6C54544444EE000000E3
:101DA00000EE64645454544CEC0000000038444489
:101DB000444444443800000000782424243820207F
:101DC000700000000038444444444444381C00007F
:101DD00000F8444444784844E200000000344C4099
:101DE000380404645800000000FE92101010101017
:101DF0003800000000EE44444444444438000000ED
:101E000000EE4444282828101000000000EE44444E
:101E1000545454542800000000C64428101028448C
:101E2000C600000000EE4428281010103800000002
:101E3000007C4408101020447C0000000038202062
:101E400020202020202038000040202020101008D2
:101E500008080000003808080808080808083800C2
:101E600000101028440000000000000000000000E6
:101E700000000000000000FE00100800000000004C
:101E80000000000000000038443C44443E000000D4
:101E900000C0405864444444F80000000000003C86
:101EA0004440404438000000000C04344C44444496
:101EB0003E00000000000038447C40403C00000030
:101EC000001C207C202020207C0000000000003628
:101ED0004C4444443C04380000C0405864444444EA
:101EE000EE00000000100070101010107C000000C8
:101EF00000100078080808080808700000C0405C5E
:101F000048705048DC000000003010101010101015
:101F10007C000000000000E854545454FE0000000F
:101F2000000000D864444444EE0000000000003883
:101F30004444444438000000000000D86444444451
:101F40007840E000000000364C4444443C040E005D
:101F50000000006C302020207C0000000000003CCD
:101F600044380444780000000000207C2020202217
:101F70001C000000000000CC4444444C360000002B
:101F8000000000EE4444282810000000000000EE8D
:101F90004454545428000000000000CC483030481D
:101FA000CC000000000000EE442428181010780037
:101FB0000000007C481020447C0000000008101045
:101FC0001010201010100800001010101010101029
:101FD0001010000000201010101008101010200029
:101FE0000000000000245800000000000000000075
:101FF00000000000202020200020000050500000A1
:10200000000000002850F850F850A0002030603048
:1020100010602000202018601010000000382060A0
:102020005078000020202000000000001020202018
:102030002020100040202020202040002070205030
:1020400000000000002020F8202000000000000018
:1020500010202000000000700000000000000000C0
:1020600000200000102020204040800020505050D0
:10207000502000006020202020F800002050202068
:102080004070000020501020106000001030507888
:102090001038000070406010502000003040605048
:1020A0005060000070501020202000002050205070
:1020B0005020000030505030106000000000200020
:1020C000002000000000100010200000001020C0C0
:1020D0002010000000700070000000000040201878
:1020E00020400000205010200020000030484858B8
:1020F000484038006020507088D80000F048704890
:1021000048F000007050404040300000F04848481F
:1021100048F00000F848604048F80000F848604087
:1021200040E000007040405850300000E8487848D7
:1021300048E8000070202020207000003810105067
:1021400050200000D850607050D80000E04040405F
:1021500048F80000D8D8D8A888D80000D8686858AF
:1021600058E800003048484848300000F0484870BF
:1021700040E000003048484848301800F0484870B7
:1021800048E800007050201050700000F8A820208F
:1021900020700000D848484848300000D88848508F
:1021A00050300000D888A8A8A8500000D85020209F
:1021B00050D80000D88850202070000078481020A7
:1021C000487800003020202020203000804040202F
:1021D00020201000602020202020600020205000BF
:1021E0000000000000000000000000F820100000C7
:1021F000000000000000301070780000C0407048FF
:1022000048F0000000007040407000001808384896
:10221000483800000000707040300000102070202E
:10222000207000000000384848380830C04070482E
:1022300048E800002000602020700000200070109E
:1022400010101070C040587050D80000602020203E
:10225000207000000000D0A8A8A800000000F048EE
:1022600048C8000000003048483000000000F04836
:10227000487040E0000038484838081800007820CE
:102280002070000000003020106000000040F0408E
:10229000483000000000D848483800000000C84816
:1022A000303000000000D8A8A850000000004830DE
:1022B000304800000000D8505020206000007850C6
:1022C00028780000102020602020100020202020EE
:1022D0002020200040202030202040000000002846
:1022E0005000000003E00B780370491C401C1300F1
:1022F0005A1E002BF7D17047130000D1704780B5EC
:102300000A00190001F036FC01BDF1B500200022E1
:102310000023AF4C0C255D4365192F68002F18D0A2
:10232000BC46009F8026B600BE59B44512D16F68E6
:10233000BC46009F8026B600BE19B668B44509D1D8
:102340002D893E468027BF00F619F688B54201D197
:1023500003E001225B1C042BDCD3042B05D1002AF3
:102360000ED102290CD01220F2BD002907D10C2178
:102370004B43E118498980225200914200D110203C
:10238000F2BDF2B501000022002080239B00C91895
:102390000B688F4C8F680C25454365192E689E424B
:1023A00006D16E68BE4203D12D89CE88B54202D0D7
:1023B000401C0428EFD3042813D100200C254543EA
:1023C0006559002D02D0401C0428F7D3042811D0F1
:1023D0000C25454365192B608B686B60C988298182
:1023E0006A810C21414361184A89009B002B06D069
:1023F000002A01D00020F2BD8022520000E0521CD1
:102400004A81401CF2BD401E042813D270490C22A0
:10241000504309184A89002080235B009A4201D06A
:10242000002A01D1488103E0521E4A81120402D1E0
:10243000086070470220704710B500210022644BED
:102440000C2454431B191C68844200D11960521C8F
:10245000042AF4D310BDF8B50500002600275D4816
:102460002818C07800282DD08620800028184469BC
:102470000123220029005748285C01F0CCFB0028EA
:1024800001D001271EE053482818C670862080001E
:1024900028188068201A862189006958884211D23C
:1024A0004C48281886780BE086208000285824188D
:1024B0000123220029004748285C01F0ACFB761E6E
:1024C000022EF1D23800F2BDF8B506000C0000254E
:1024D0008B20800037183868844211D03000FFF715
:1024E000BAFF05000CD10123220031003948305CCD
:1024F00001F086FB002802D00024E44301253C6063
:102500002800F2BDF8B50500FFF7A5FF06004DD184
:10251000F22040002C18207F03283FD12E482F188E
:10252000387801283AD18022920000212800FFF754
:10253000E3FE5520A076AA20E0765220287068702D
:102540006120A8704121E970722222706270A1702E
:10255000E0708320800028184168217141680904D7
:10256000090E61714168090CA1714168090EE171A0
:102570000168217201680904090E61720168090C81
:10258000A1720168090EE1720269521C0262012304
:102590002900607F01F03FFB0020387000220021FD
:1025A000607F01F043FB002800D001263000F2BD1F
:1025B000891E85229200821813689B1E994201D3BE
:1025C00000207047054BC05C4143506908187047B4
:1025D000EC1E0020010200000502000002020000C3
:1025E000F8B504000D00022D71D380208000201862
:1025F000406985426BD20026F64380208000205C33
:10260000012804D063D3032845D030D35FE06808A5
:1026100028180090802080002018006A0099490A3C
:1026200041182000FFF750FF002851D10098C00545
:10263000C00D275C0098401C00908020800020186E
:10264000006A0099490A41182000FFF73DFF002861
:102650003ED10098C005C00D205C00023843070041
:10266000E80701D53E0933E03E05360D30E0802015
:1026700080002018006A290A41182000FFF724FF73
:10268000002825D16800C005C00D201841780E0231
:10269000007806431CE0802080002018006AE909C9
:1026A00041182000FFF710FF002811D1A800C00535
:1026B000C00D2018C1780906827812040A434178B7
:1026C00009021143007808430601360900E001269B
:1026D0003000F2BDF1B582B00C001500022C7AD3A7
:1026E0008021890047187869844274D2012638789D
:1026F000012804D06FD3032850D03DD36BE060088D
:1027000020180090386A0099490A41180298FFF78A
:10271000DBFE002860D102980099C905C90D421856
:102720000098401C0090344001940F240198002828
:1027300004D0117821402801084300E028001070DF
:102740003E71386A0099490A41180298FFF7BCFEA9
:10275000002841D10299009AD205D20D8A18019918
:10276000002901D02C0905E01378F02119402B0A2B
:102770001C400C4314702CE0386A210A411802985E
:10278000FFF7A2FE002827D102996200D205D20DE0
:102790008A1815702904090E51701AE0386AE10987
:1027A00041180298FFF790FE002815D10299A20067
:1027B000D205D20D8A18D1780906090F09072943D5
:1027C0000D0011700904090E5170290C9170290E29
:1027D000D1703E71FEBD0220FEBDF1B582B00C008D
:1027E000022C13D384218900401800904068844251
:1027F0000CD2002502980B39401801902100029854
:10280000FFF7EEFE070024D0012F01D1022520E0C2
:1028100001260020C043874201D1012519E0002292
:1028200021000298FFF756FF050012D100980068BA
:102830000021C943884207D0401C009908600198D4
:1028400000780643019806703C0000984068844276
:10285000D4D32800FEBDF2B582B0050001260027C2
:10286000FF4300290DD183208000285800900028C4
:1028700005D08321890069188968884211D30096A0
:102880000FE0FFF7ADFE022801D20120FEBDB842E5
:102890004BD08321890069188968884245D3029802
:1028A0000090009C641C832080002818806884426B
:1028B00003D30224009802282FD321002800FFF719
:1028C0008FFE002822D13A0921002800FFF702FFDD
:1028D000002807D10298002806D0220001462800CF
:1028E000FFF7F8FE00281AD1832080002C5028180A
:1028F0004068B84218D0401E83218900691848609A
:102900007B48281801780E4306700DE0B8420CD0C1
:1029100001280AD000988442C4D10020FEBD0128BD
:1029200001D13C0000E001242000FEBD10B5802252
:1029300092008218546A241D480A11686D4A895C05
:1029400001F084F901E0401A08342168002901D11E
:10295000002010BD8842F6D26168401810BDF8B55D
:102960000C00802189004518EC80AE68012E31D022
:102970002868401841698E422CD2002E03D101787C
:10298000032902D1466A002E04D101898C4221D24A
:10299000406A1CE08078070100E0E41B2868BC4224
:1029A00012D33100FFF71CFE06000020C043864210
:1029B00001D10120F2BD022E0CD3286885218900A7
:1029C00040588642E9D305E03100FFF7F1FDEE60A3
:1029D000002801D10220F2BD210940182861286891
:1029E0002107C90D401868610020F2BDF8B50E003E
:1029F000802189004418E7887F1C380426D020698C
:102A0000002823D039076AD1401C20612068394949
:102A10004218E168002903D1D08887425FD315E0CE
:102A20003B091278521E1A4059D1FFF7D9FD050013
:102A3000022D16D30020C043854242D02068852154
:102A4000890041588D4244D3002E01D10420F2BDAB
:102A5000E168FFF700FF050001D10720F2BD012D5D
:102A600001D10220F2BD0020C043854229D0206858
:102A7000FFF7F1FC002824D1802292000021206879
:102A8000FFF73AFC29002068FFF792FD21688B22AE
:102A900092008850002607E020688B2189004018AA
:102AA0000168491C0160761C2068124941180A78A7
:102AB000964208D2012088702068FFF7CCFC0028DD
:102AC000EAD00120F2BD8B21890040180168891BE2
:102AD0000160E56029002068FFF76AFD2061E7805A
:102AE00020683907C90D401860610020F2BD000060
:102AF00005020000020200000200C87E00028B7E78
:102B0000184380239B00D25C032A06D10200487D33
:102B10000002097D084300041043704781760A04CF
:102B2000120EC276090C0175090A41757047BAB5D3
:102B300007000420C1017C1800252169002923D049
:102B40002068FFF7C1FC00281ED1626911780029B6
:102B500001D104201AE0D27A9206920EE5290DD016
:102B60002E290BD00F2A09D020218A43082A01D10F
:102B7000012100E00021009A914208D00021380094
:102B8000FFF734FF0028D8D0002800D02561B6BD5B
:102B900070B504000021FFF7E2FE8021890066186D
:102BA000002817D1002531693068FFF78DFC002817
:102BB00010D171690978E52903D0002901D00025D9
:102BC00002E06D1C012D08D001212000FFF70EFF4F
:102BD0000028E8D0042800D10720040014D131696E
:102BE0003068FFF771FC04000ED1202200217069CB
:102BF000FFF782FB0B22B1697069FFF773FB0120BD
:102C00003168812292008854200070BD70B50A009E
:102C1000093284239B00C31800201C68002C28D094
:102C20005B6800241D5D641C202D09D0052D00D19A
:102C3000E525092C02D12E261670521C1570521C47
:102C40000B2CEFD3DC7A0C72DC7F24069D7F2D04E5
:102C500025435C7F24022C431D7F25430D605C7E51
:102C600024021D7E2C438C80DC7D24029B7D1C4332
:102C7000CC80107070BD0000F2B584B0096801E02E
:102C80000199491C0191019909782F29F8D05C29F3
:102C9000F6D086218900405800900B222021FFF7B2
:102CA0002BFB002300200022082104E008294BD13F
:102CB00008200B212B00019CA45C521C9D00EDB24E
:102CC0000326212C03DB2F2C01D05C2C07D1019F84
:102CD000BA18049F3A60212C33DA042432E02E2CF7
:102CE000E4D0884230D2802C08DB1D0003232B4324
:102CF000DBB200BF23A52C19803C2478029400BFCE
:102D000040A500E06D1C2E78002E01D0A642F9D11E
:102D1000002E19D12500413D1A2D04D21D00022399
:102D20002B43DBB209E02500613D1A2D05D21D00C1
:102D300001232B43DBB2203CE4B2009D2C54401C09
:102D4000B9E70024002801D1062019E00098007896
:102D5000E52802D10520009A1070082900D12B0027
:102D60001E40012E02D12000102404430C201840E4
:102D7000042802D12000082404430098C4720020D3
:102D800005B0F0BD808182838485868788898A8B9F
:102D90008C8D8E8F90919293949596979899AD9BE8
:102DA0008C9DAE9FA021A2A3A4A5A6A7A8A9AAAB6B
:102DB000ACADAEAFB0B1B2B3B4B5B6B7B8B9BABBDB
:102DC000BCBDBEBFC0C1C2C3C4C5C6C7C8C9CACBCB
:102DD000CCCDCECFD0D1D2D3D4D5D6D7D8D9DADBBB
:102DE000DCDDDEDFC0C1C2C3C4C5C6C7C8C9CACB2B
:102DF000CCCDCECFD0D1D2D3D4D5D6F7D8D9DADB7B
:102E0000DCDDDE9F222A2B2C3A3B3C3D3E3F5B5DC6
:102E10007C7F0000F3B581B008782F2801D05C28B2
:102E200001D1481C0290019880218900441800209B
:102E3000A0600298007820280AD200210198FFF7AC
:102E40008EFD00216161FEBD2068FFF755FEA06088
:102E500002A90198FFF710FF00283CD1002101983A
:102E6000FFF77DFD0425002824D121692068FFF7A4
:102E70002BFB00281ED161690A78002A01D10420A9
:102E800018E0CA7A12070FD40B23A26900261F008C
:102E90007B1E002F06D00E781778F61B521C491C9B
:102EA000002EF4D0002E05D000210198FFF79EFDE2
:102EB0000028DAD0A169C97A0D40002804D004287E
:102EC00009D1002D07D105E0002D04D16169C87A30
:102ED000C006B9D40520FEBD01000020C0430A6829
:102EE000002A00D1704730B5130000E05B1C1C784D
:102EF000212C01D33A2CF9D13A2C0CD11578303D44
:102F0000521C0A2D08D29A4206D1002D04D100206D
:102F10005B1C0B6030BD002030BD38B50400FF20C5
:102F2000400025180020A871C0438B229200A050B9
:102F30002000FFF7C9FA002801D0032032BD6878CD
:102F40000002297808430E49884201D0022032BD90
:102F500036340C48A1780904627812020A432178B9
:102F60001143814208D0A17F0904627F12020A4303
:102F7000217F1143814201D1002032BD012032BDA9
:102F800055AA000046415400F0B589B0060008007B
:102F9000170000213160FFF79FFF050001D50B20CE
:102FA000C1E19748A90040184468002C01D10C20C9
:102FB000B9E134600426F22040002018007F002888
:102FC0000CD0F22040002018407F00F0FDFDC1072A
:102FD00004D4002F01D0304217D1A3E10020F22108
:102FE000490061180877F220400020184577F22048
:102FF00040002018407F00F0F2FDC10701D50320FA
:1030000091E1002F03D0304201D00A208BE1002053
:10301000019000212000FFF780FF0500012D2CD139
:10302000002001016118DF22520089180A79002A64
:103030000AD0CA7A12068B7A1B0413434A7A120208
:103040001A43097A114300E0002104AA8300D150F9
:10305000401C0428E5D3002604A8B1004058019084
:10306000002804D001462000FFF757FF00E00220AF
:10307000050002D0761C042EEED3032D01D10120D1
:1030800051E1002D3ED1207B0002E17A08438021EE
:103090008900884236D1E07D0002A17D084300907E
:1030A0002700213700280AD1B87900067979090468
:1030B0000143387900020843F978014300910098F0
:1030C000832189006118C860207CF22149006118C1
:1030D000C877012801D0022814D1009941430091FA
:1030E000617BF220400020188177002920D0481E03
:1030F000014207D1A07C0602607C0643B04820183C
:103100004680300779D1207D0002E27C10430AD14D
:10311000B87800067A781204024338780302134321
:103120002020205C1843E27B1202A37B1A43039207
:1031300063D0009BD2183309D218029290425CD31C
:10314000801A00F083FD002857D0012101259D4AF7
:10315000904200D302259C4A904200D30325801C54
:1031600083229200A2189060019883229200A218F4
:1031700010610198039A801883229200A21850616E
:103180000198029A801883229200A218D061032D20
:1031900011D1002E31D1B87B0006797B090401439F
:1031A000387B02020A43F87A1043832189006118B0
:1031B0008968890014E0002E1FD083208000201829
:1031C0004069009A801883229200A2189268022D0A
:1031D00001D1510004E053009B185B0811405918BD
:1031E00083229200A2189061832080002018C0687A
:1031F000764A8918490A884204D20D2093E000BF1C
:10320000401F00200020C0438321890061184860CE
:103210008321890060506E48261880203070032D6D
:1032200072D1387C0002F97B084301286CD10199E6
:10323000491C2000FFF748F9002865D13070F220C2
:1032400040002018C07E0002F22149006118897EEA
:1032500008436049884257D1E0780006A178090404
:103260000143607800020843217801435A488142B3
:103270004AD1F22040002018C0780006F22149000F
:103280006118897809040143F22040002018407831
:1032900000020843F2214900615C01434F4881422A
:1032A00032D1F22040002018C0790006F2214900F6
:1032B0006118897909040143F220400020184079FF
:1032C00000020843F2214900611809790143832073
:1032D000800020184160F22040002018C07A0006CB
:1032E000F22149006118897A09040143F220400063
:1032F0002018407A00020843F22149006118097A37
:103300000143832080002150F220400020180577DF
:10331000B1480088401CB04908802949605220000B
:10332000FFF78AF8002009B0F0BD80B5002814D05E
:10333000802189004018016800290ED08022920067
:1033400089180A78002A08D0CA888088824204D165
:10335000487800F039FCC00701D5092002BD0020E3
:1033600002BDF3B581B0170000916846FFF7B4FDC8
:10337000002801D50B20FEBD974980000C18656818
:103380000026002D05D02800FFF756F8802189007F
:103390006E540198002801D1666009E080218900FF
:1033A0004654019860600198002801D0012F01D097
:1033B0000020FEBD002202A901A8FFF7E5FDFEBD29
:1033C00006020000F60F0000F6FF0000FF010000FB
:1033D0000502000055AA000052526141727241611B
:1033E000F2B5FFB08FB0070001D10920F0E0002056
:1033F000802189007850D406E40EFE2222408EA956
:1034000005A880239B00C018FFF7BEFD050072D100
:1034100002A88B908E9905A8FFF7FCFC05008A9EF8
:103420000CD1002E01D1062508E0FE20204001002D
:1034300000D0012105A8FEF768FF050004201C212B
:103440000C4200D180E0002D76D0042D11D1002057
:10345000BC490C2242438A58002A02D0401C04284E
:10346000F7D3042801D1122002E005A8FFF790FB52
:1034700005002000082404438A9E002D3AD120072D
:103480003FD500F0E1FB0090B07300980004000EFF
:10349000F0730098000C30740098000E70740020D7
:1034A000F07230777077B077F07731008598FFF75A
:1034B00023FB019000213000FFF730FB01208599AC
:1034C0008122920088540198002815D085988B217C
:1034D0008900415800910199FFF77FF9050009D152
:1034E00085980199491E8322920081500099FEF728
:1034F000EBFF0500002D6AD1200702D52000202413
:10350000044385988B21890040582C397918C8616B
:103510008020800038180662FE202040010000D084
:10352000012105A8FEF72DFF802189007918886206
:10353000002816D102254AE0F17A112211420ED15B
:1035400004429CD0082542E0002DD3D1F17ACA066E
:1035500001D504253BE0A007CED5C807CCD507256B
:1035600035E0802080003818847100208021890097
:103570007918C871859C31002000FFF7BDFA8021C1
:10358000890079180861F07F0006B17F09040143C2
:10359000707F00020843317F01438020800038188B
:1035A000C16000208021890079188860802189000D
:1035B000791888618021890079184862802080000C
:1035C0003C50801D205A802189007918888028006D
:1035D0007FB010B0F0BD0000401F0020F9B583B0EF
:1035E000160000910020049908600398FFF79DFEE3
:1035F00000280AD10398802189004418E079002826
:1036000003D1A079C00701D4072099E0E068A16840
:10361000401AB0421ED806001CE0A561A068C00593
:10362000C00D80218900091A35008E4200D90D0095
:103630002A00039909180098FEF754FE00984019D3
:103640000090A0684019A06004980068401904998F
:103650000860761B002E72D0A168C805DED12068F4
:103660004A0A394BC35C5B1E1340DBB2002B01934B
:1036700014D1002901D1206909E0626A002A03D02F
:103680000398FFF753F902E06169FEF7A9FF0228EA
:103690000AD30021C94388424ED060616169206825
:1036A000FEF786FF050001D1022046E001982D18A3
:1036B000770A24D020684F49401802904078019939
:1036C000C919884201D20199471A3B002A00009982
:1036D0000298007800F094FA00282DD1A0794006D5
:1036E0000BD5A069401BB84207D2802292000399F3
:1036F000009B40021818FEF7F5FD7D029EE7A269C7
:10370000AA428AD0A07940060CD5012303992068EB
:10371000384FC05D00F07FFA00280DD1A079BF219D
:103720000140A17101232A0003992068314FC05D37
:1037300000F066FA0028E4D00120E07100E00020EB
:1037400005B0F0BDEC1E00200202000070B50500BF
:10375000FFF7EBFD00284BD1802189006C18A1797F
:103760002026314244D048060FD50123A269290002
:103770002068204D405D00F04EFA002801D0012065
:1037800070BDA079BF210140A171E1692068FEF7F9
:103790009BFE00282CD1256AE87A0643EE72E06889
:1037A0002877E0680004000E6877E068000CA877CE
:1037B000E068000EE87721692800FFF7AFF900F014
:1037C00043FAA8750104090EE975010C2976000E6B
:1037D00068760020A874E874A079DF210140A17107
:1037E000012021688122920088542068FEF78AFE19
:1037F00070BD00000102000010B50400FFF7A6FF35
:1038000000280ED12000FFF790FD002809D180206C
:1038100080002418A06AFEF7F6FD002801D10021DF
:10382000216010BDF1B584B00D00FFF77EFD694643
:10383000087168460079002844D1049880218900E5
:103840004418E079002800D018E1606ABF270028FA
:1038500078D00021C9438D4239D101680291071DFA
:10386000022000902069002823D0039000250099B1
:10387000891C009106006D1C01002068FEF7B0FE57
:10388000022800D2C8E00021C943884200D1E6E006
:10389000761CB042EED00299009A914203D33D606B
:1038A00003997960083721688522920089588842F7
:1038B000DBD30098616A086002980099884202D3BD
:1038C00000203860D8E0112069460871D4E0E06833
:1038D000A84200D80500A560002DF7D06E1E31006B
:1038E0000498FFF723F8606101002068FEF760FE8E
:1038F00005005BD0206886494018710A4278521E44
:103900000A40AD18A168C905E0D0A269954218D057
:10391000A179490609D501230499007800F07BF9C3
:1039200000280BD1A0790740A77101232A00049930
:103930002068774E805D00F063F9002800D08EE0AB
:10394000A56199E0E068A84203D2A179890700D473
:103950000500A06803900026A660002D60D02068B6
:103960006C49405C400202900398002816D00398EE
:10397000401E029900F06AF90090681E029900F05A
:1039800065F901000098814208D30398401E02990E
:10399000491E8843A0602D1A61690EE02169002943
:1039A0000AD12068FEF757FF0100012934D000201A
:1039B000C043814253D021616161002916D12FE0BB
:1039C000FEF70EFE01000020C043814247D00229CD
:1039D00022D3206885229200805881421CD26161E6
:1039E000A068029A8018A06002982D1A0298A84236
:1039F00008D22068A2799207E2D5FEF72CFF0100D9
:103A0000E1D1029DA0684019A060E80508D02068B7
:103A1000FEF7CEFD060001D1022021E0680A36182B
:103A2000A068C0051FD0A26996421CD0A0794006AC
:103A30000BD5012304992068354D405D00F0EBF86B
:103A400000280CD1A0790740A77101233200049906
:103A500020682F4D405D00F0D3F8002802D00120EF
:103A6000E0710BE0A661A068E168814204D2E060E9
:103A7000A07920210143A1716846007905B0F0BD0D
:103A8000F2B584B0070001D109203FE0002204A96B
:103A90006846FFF779FA0400802080003E18002570
:103AA000002C2FD10098306001A8B0610499380033
:103AB000FFF7B0F9040021D17169002906D0C87A56
:103AC000C0061DD50098FFF717F8B0600098284988
:103AD000405AB08000213800FEF741FF04000DD1AC
:103AE000B068002801D1F5610FE000213800FEF731
:103AF00048FCF061002808D1122405E0042C01D113
:103B0000052401E0002C00D03560200005B0F0BD98
:103B10000102000002020000FEB504000E00FFF7E3
:103B200004FC002822D1002E04D100212000FEF741
:103B300016FFFEBD8420800027186846B86000216B
:103B40002000FEF7F4FF0025042801D13D6001E0CC
:103B500000280BD131002000FFF758F80021200089
:103B6000FEF744FF042801D13D600020FEBD0000A7
:103B7000060200001206130A1A43130C1A4300BF70
:103B8000094205D0830705D00270401C491EF9D1B7
:103B900070470000130030B414001500103902D330
:103BA00010393CC0FCD2490700D30CC000D504C07A
:103BB000890002D30280801C002900D5027030BC2D
:103BC000704700000022E5E780B501001D4A50184B
:103BD000007A8900511849684968884702BD10B5C4
:103BE00001000020174A53181C78002C07D101202F
:103BF0001870187A8900511849680968884710BDFB
:103C000038B504000F4D2819007AA4002C196468F7
:103C1000A468A04732BD38B504000A4D2819007ABF
:103C2000A4002C196468E468A04732BD10B50400F4
:103C3000044B1819007AA4001B195B681B6998478C
:103C400010BD0000341F0020002070470022030A2E
:103C50008B420BD203098B4219D243088B422ED2DE
:103C6000411A00D20146524110467047FF22090214
:103C70003FD012068B4205D3121209028B4201D3A8
:103C80001212090203098B4219D300E0090AC30981
:103C90008B4201D3CB01C01A524183098B4201D31D
:103CA0008B01C01A524143098B4201D34B01C01A08
:103CB000524103098B4201D30B01C01A5241C30880
:103CC0008B4201D3CB00C01A524183088B4201D3EF
:103CD0008B00C01A524143088B4201D34B00C01ADB
:103CE0005241884200D3401A5241CFD20146104679
:103CF000704708B500F006F808BD0268531C036061
:103D0000117070477047FEE7E02252008018026889
:103D1000914203D34368D218914202D380680028AD
:103D2000F5D170471948016800290ED18021490258
:103D30008160090941600021C943C160016104211A
:103D40004161134A1160134901600120704730B48A
:103D50000300072408000830204201D1002404E0B9
:103D6000082508000830281A04400819111B98611A
:103D7000D96001220A434260282240184260034869
:103D80000069D86130BC7047000000001C1F002093
:103D9000681E00206859883CF0B587B007000724EA
:103DA00008000830204201D1029106E008250800F1
:103DB0000830281A204008180290100008302042CD
:103DC00005D0082110000830081A04401219140008
:103DD0000298C018039005460298201AC01A019054
:103DE0000326334302984360A54201D301F0D2FA7F
:103DF0002079C00701D401F0CDFA0198102801D232
:103E000001F0C8FAB869844208D1F86801994018ED
:103E1000F860BD610121014369606EE17869844207
:103E200009D1B86801994018B8607D61012101434A
:103E30006960285061E160680640012E00D0BBE057
:103E4000072188430590C00820283ED2A168009130
:103E5000E6680490B44201D101F09CFA00988442D3
:103E600001D101F097FA6068072188430499C900DD
:103E7000884201D001F08EFA0498C0003918009AE7
:103E800008002830824208D010463A69904200D299
:103E90008AE0C068A04200D086E00098864206D141
:103EA00038680121049A9140884338607EE02831C7
:103EB0008E4205D03869864276D3B068A04273D16D
:103EC0000098C6600098B06070E0A0690090E66855
:103ED000A6420CD0A0683969884225D3C168A142A6
:103EE00022D1B168A1421FD1C660B0601EE021009E
:103EF00014310E68002E07D1210010310E68002EFB
:103F000014D001E001000E68300014300268002A6D
:103F1000F8D1300010300268002AF3D138698142AC
:103F200002D30020086001E001F034FA0098002874
:103F30003CD0E06980003818982149004018016899
:103F40008C4209D10660002E14D178680121E26903
:103F500091408843786029E000983969884207D306
:103F60000069A042009801D1066103E0466101E0CA
:103F700001F010FA002E19D03869864214D3009946
:103F8000B1612169002906D0814202D331618E617D
:103F900001E001F0FFF96069002807D03969884223
:103FA00002D37061866101E001F0F4F905982418EC
:103FB000019805994018019060680121884360606C
:103FC000019801436960019828500198C008202891
:103FD00022D20090C0003C182834260001981028F6
:103FE00001D201F0D7F9386800990200CA40D10720
:103FF00005D40121009A91400143396007E0A0688F
:104000003969884201D3060001E001F0C3F9A560D7
:10401000F560AE60EC6070E00198000A01D100220A
:1040200025E080214902884201D31F221FE0FF21A1
:10403000C9434118090C082211408840314A8218AE
:10404000120C04231A4090402F4BC3181B0C02245F
:1040500023400E24611A891AC91A9840C00B081807
:104060004100019AC01DC240D007C00F0A1890003D
:104070003818982149004118EA61002068612861D8
:104080007B681C00D440E40705D40120904018430D
:1040900078600D601DE009681F2A01D1002302E04D
:1040A000192352089B1A019A9A4000E019004B68A4
:1040B0000724A343019CA34210D0D30F9B00CC182C
:1040C000103452002368002BF0D13869844212D397
:1040D0002560A961ED600398A8600EE08A683B69DD
:1040E000994208D39A4206D3D560039B8B60AA609D
:1040F000E960A86101E001F04DF90298083007B0CD
:10410000F0BD000000F0FFFF00C0FFFFF2B586B079
:10411000040091480068002801D1FFF703FE8E4893
:104120008168069840182F30491E884306998142BD
:1041300000D3D9E1D821490061188968002909D044
:10414000D8225200A2581018824200D3CCE18142FA
:1041500000D2C9E101F024F9002800D1C4E1070030
:10416000006800900020C043874200D1BCE1D82005
:104170004000205800994018D8214900605061182B
:104180004968814200D20100D820400020184160D7
:10419000A069002838D12069002801D0874200D2C8
:1041A0002761D8204000201807610098D8214900D5
:1041B000611848610020D82149006118C86166482B
:1041C000006860620020C043206200202100283186
:1041D000C9600A0008321160D2609260801C103100
:1041E0002028F5D3C248844203D1009A283A3900E6
:1041F00028E0201F0068072188432118083900980B
:104200003818421A283A1DE0E0204000201800E04B
:10421000806800281AD00168426889188F42F7D157
:10422000017B090712D4A169026891420ED3436849
:10423000D21891420AD2009959184160E068009959
:104240004218A1692000FFF782FD3AE12069874208
:1042500000D22761E020400020180099791800E082
:104260008068002810D002688A42F9D1017B0907D2
:104270000AD407604168009BC9184160069B390059
:104280002000FFF789FD30E1A06902900546290072
:104290002000FFF739FD01684068081805900146C5
:1042A0002F3908000830400701D1002005E008221E
:1042B00008000830101A4007400F09182800103075
:1042C000814201D2019500E00191019808300490EB
:1042D000019E1836002003900099283938000830D4
:1042E000400701D1002205E0082238000830101AEA
:1042F0004207520FB818891AA061E16001220A43EF
:10430000426028224018426013480069E061049826
:10431000400701D001F03EF81B2001994860049845
:10432000E02149006118102201F064F8D820400013
:10433000201807610098D8214900611848610020C1
:10434000D82149006118C8610498D8214900611832
:104350008861059803E000BF1C1F00200E00311D7E
:1043600007227260039A521C03920A1D8242F5D3FF
:104370000398022801DA01F00DF80198A84200D153
:104380009FE0401B29184A6801239A434A60012292
:1043900002436A600860C108202921D20091C90047
:1043A000661828363700102801D200F0F3FF206885
:1043B00000990200CA40D10705D40121009A91401A
:1043C0000143216007E0B0682169884201D30700FA
:1043D00001E000F0DFFFB560FD60AF60EE6070E00F
:1043E000010A01D1002226E01A04914201D31F22C2
:1043F00021E0FF22D2438A18120C08231A400092AF
:1044000091403C4A8A18120C04231A4091403A4BBE
:10441000CB181B0C022633400E26009FF61BB21A47
:10442000D21A9940C90B51184A00C91D0300CB404C
:10443000D907C90F52189100611898235B00C91859
:10444000EA6100236B612B6163681E00D640F607AA
:1044500005D401209040184360600D601CE009689D
:104460001F2A01D1002302E0192352089B1A0200DF
:104470009A4000E019004B680726B343834210D0EE
:10448000D30F9B00CE18103652003368002BF1D1A9
:104490002069864213D33560A961ED600298A86057
:1044A0000FE088682269914209D3904207D3C56022
:1044B000029A8A60A860E9600020A86101E000F02B
:1044C00069FFE068069981420ED2411AE160A06955
:1044D000069A8218A26101230B43536006990322B6
:1044E0000A434260083000E0002007B0F0BD000041
:1044F000AC1C002000F0FFFF00C0FFFFF2B584B04D
:1045000007000020009004984442000A25D0802132
:104510004902884201D31F201FE0FF21C9434118EF
:10452000090C082211408840B64A8218120C042354
:104530001A4090400E4BC3181B0C02252B400E2531
:10454000691A891AC91A9840C00B08184100049AC0
:10455000C01DC240D007C00F0818810079189822EA
:1045600052008A58002A29D01F2803D1002304E0D2
:1045700000C0FFFF19214308CB1A0499994000237A
:1045800000E0490055680726B543049EAD1BA542CF
:1045900002D200922C000CD05569CE0FB6009219B1
:1045A0001269002D02D0954200D02B00002AE8D1DC
:1045B0001A00002A3FD1009900293ED10121012291
:1045C00082405000434203437A681A4000D17FE1A1
:1045D00050421040401E020B10231A40D0404309A5
:1045E00008252B400293D840830804252B40D8404F
:1045F0004508022635400195E84045082940029DBE
:104600005219D218019BD2185218C84010188000B5
:1046100038189821490042580DE0020050680721DF
:1046200088430499401AA04201D204000092106904
:104630000028F2D15269002AF0D10098002800D158
:1046400046E1B8680499401A844200D340E1009ED4
:104650003869864200D239E1701803900546049803
:1046600020180290009840680721884302998842E8
:1046700001D000F08FFEAE4200D327E100988069A0
:1046800001900098C66886420ED00098806839690B
:10469000884226D3C168009A914222D1B1689142E2
:1046A0001FD1C660B0601EE0009914310E68002E64
:1046B00007D1009910310E68002E14D001E00100DE
:1046C0000E68300014300268002AF8D13000103033
:1046D0000268002AF3D13869814202D300200860C1
:1046E00001E000F057FE0198002843D00098C0690F
:1046F00080003818982149004018009902689142BA
:104700000AD10660002E16D178680121009AD2697C
:104710009140884378602DE001983969884208D338
:10472000006900998842019801D1066103E0466161
:1047300001E000F02FFE002E1CD03869864217D30E
:104740000198B06100980069002807D03969884253
:1047500002D33061866101E000F01CFE00984069E0
:10476000002807D03969884202D37061866101E070
:1047700000F010FE03200121102C0AD2029A1043EF
:10478000009A50600098029A801842681143416074
:1047900099E0049A1043009A506001202043686019
:1047A0002C51E008202819D2C200BC182834260059
:1047B0003A681300C3400B4003D181401143396074
:1047C00007E0A0683969884201D3060001E000F0E3
:1047D000E1FDA560F560AE60EC6074E0200A01D1F7
:1047E00000222BE00A04904201D31F2226E0FF2280
:1047F000D2438218120C08231A4001929040014AB9
:1048000002E000BF00F0FFFF8218120C04231A40E0
:104810009040314BC3181B0C0226334002930E23E9
:10482000019E9B1B9A1A029BD21A9840C00B10182B
:104830004200C01D2300C3400B40D218900038181E
:1048400098235B00C018EA6100236B612B617B68D1
:104850001E00D6400E4004D1914019437960056096
:104860001CE000681F2A01D1002202E01921520831
:104870008A1A2100914000E01000426807239A4301
:10488000A24210D0CA0F92008318103349001A6850
:10489000002AF1D139698B4213D31D60A861ED6004
:1048A0000398A8600FE081683A69904209D3914269
:1048B00007D3CD60039A8260A960E8600020A861F8
:1048C00001E000F067FD0098083002E000F062FDB2
:1048D000002005B0F0BD000000C0FFFFF2B586B0BB
:1048E0000400616848420840401E010B102211403C
:1048F000C840420908231A40D040830804252B40B1
:10490000D840450802263540E8408607F60F89184A
:10491000C91849198919F0400818800020189821F1
:10492000490040580500416807229143069A8F1AB2
:1049300009E00800416807229143069A891AB942A2
:1049400001D20F00050001690029F2D14069002859
:10495000F0D12069854200D2D2E0A81803900698D1
:10496000381801906868072188430199884201D06E
:1049700000F010FD0398854200D3C1E0A8690090C3
:10498000EE68AE420CD0A8682169884225D3C16880
:10499000A94222D1B168A9421FD1C660B0601EE011
:1049A000290014310E68002E07D1290010310E683D
:1049B000002E14D001E001000E68300014300268AF
:1049C000002AF8D1300010300268002AF3D12069A3
:1049D000814202D30020086001E000F0DBFC009877
:1049E00000283DD0E869800020189821490040182F
:1049F00001688D4209D10660002E14D16068012142
:104A0000EA699140884360602AE000982169884201
:104A100007D30069A842009801D1066103E046610E
:104A200001E000F0B7FC002E1AD02069864215D3B1
:104A30000098B0612869002807D02169884202D314
:104A40003061866101E000F0A5FC6869002807D0AC
:104A50002169884202D37061866101E000F09AFC0E
:104A60000320102F09D20199084368600198281883
:104A7000416801220A4342603FE0069908436860AA
:104A800001203843039948600398C751A0680090FB
:104A9000C608202E01D300F07DFC0098002829D004
:104AA000606902900196F000261828360496009856
:104AB000102801D200F06EFC206801990200CA4063
:104AC000D10705D40121019A91400143216007E0FB
:104AD000B0682169884201D3049001E000F05AFCDB
:104AE0000298B06002980499C8600498029988609E
:104AF0000298C660A760039860610835280002E04C
:104B000000F048FC002007B0F0BDF0B587B004000D
:104B1000C046C046BB4DF52C00D328E10B2C01D27A
:104B2000102402E00B3407208443E0080190286839
:104B30000199C8400327384250D001260122824300
:104B400088180190C0002C182834A06800900198A3
:104B5000C000039000984068072188430399884269
:104B600001D000F017FC0098806802900098A042E5
:104B700001D100F00FFC00980299884201D100F0A9
:104B800009FC00984068072188430399884201D0B6
:104B900000F000FC0298844206D12968019A0120A5
:104BA0009040814329600DE02969884208D3C0689C
:104BB0000099884204D10298A0600298C46001E084
:104BC00000F0E8FB039807430098476000980399BA
:104BD000401841680E434660009E06E1A968A14264
:104BE00000D3D7E0002800D1B7E0012601990122C7
:104BF0008A405100019A90404A420A430240514281
:104C00001140491E080B10221040C1404A090823D8
:104C10001A400092D1408A0804231A400192D140E0
:104C20004A0802231A400292D1404A083240009BAF
:104C3000C018019BC018029BC0188018D1404018B2
:104C40000390C000281828300090806804900398D2
:104C5000C000029004984068072188430299884266
:104C600001D000F097FB04988068019004980099A7
:104C7000884201D100F08EFB04980199884201D14D
:104C800000F088FB04984068072188430299884215
:104C900001D000F07FFB00980199884206D1296875
:104CA000039A012090408143296010E00846296959
:104CB00088420AD3C0680499884206D101980099B5
:104CC000886000980199C86001E000F063FB0298D9
:104CD000001B03902743049847600498001905902F
:104CE0000398304305994860039805990850A868CF
:104CF0000190C408202C01D300F04CFB019800283F
:104D000025D0686902900094E0002C182834270010
:104D10000198102801D200F03DFB2868009902009C
:104D2000CA40324003D18E4006432E6007E0A0689F
:104D30002969884201D3070001E000F02BFB0298AB
:104D4000A0600298F860029887600298C460039897
:104D5000A86005986861049E47E06868002836D01E
:104D600021002800FFF7BAFD060013D044E03F20E1
:104D7000C043844202D30024E4430BE00B340720F9
:104D800084436868002805D021002800FFF7B6FB9F
:104D9000060031D1A968A14219D30A1B686901260E
:104DA0000327102A08D301196961AA6016434E60CF
:104DB0008A502743476008E00022AA606A610F43D7
:104DC000476041184A6816434E6006000DE0E868E7
:104DD00084420CD2001BE860AE693119A96101223E
:104DE00002434A60032020437060083604E021003B
:104DF0002800FFF78BF90600C046C046300007B018
:104E0000F0BD0000AC1C0020002800D17047F0B5B8
:104E100085B008380500C046C046474C21698D4220
:104E200000D2ADE26868032203230340012B00D1C6
:104E3000A6E2C308DB000293EB1800930126304280
:104E400040D12B68104000D19CE20298C01802901B
:104E5000ED1A8D4200D293E26069854200D1F0E004
:104E6000D808202800D37CE0A9680191EF6803905E
:104E7000BD4201D100F08EFA0198854201D100F0C7
:104E800089FA6868072188430399C900884201D0DC
:104E900000F080FA0398C0002118019A0800283019
:104EA000824206D010462269904257D3C068A84279
:104EB00054D10198874243D12168039A0120904040
:104EC000814321600098854200D359E24068304216
:104ED00000D155E2810700D5A6E10099A26991426F
:104EE00000D0C0E0E06802994118E160A5610E437E
:104EF0006E606069854202D100206061A060E06957
:104F0000884200D33EE20D480068002801D1FEF738
:104F100009FFA169002900D134E2E068292802D301
:104F20002000FEF7F1FEE069E168884200D329E243
:104F30000020C043E06125E2AC1C00201C1F0020C3
:104F400028318F4205D02069874207D3B868A8422C
:104F500004D10198C7600198B860B3E700F01AFA6D
:104F6000B0E7A8690190EF68AF420BD0A86888420B
:104F700024D3C168A94221D1B968A9421ED1C76012
:104F8000B8601DE02A0014321768002F07D12A00EC
:104F900010321768002F13D001E0020017683800A4
:104FA00014300368002BF8D1380010300368002B50
:104FB000F3D18A4202D30020106001E000F0EAF948
:104FC0000198002800D17DE7E86980002018982129
:104FD0004900401801688D4209D10760002F14D1A3
:104FE0006168EA6901209040814361606AE7019845
:104FF0002169884207D30069A842019801D107615D
:1050000003E0476101E000F0C5F9002F00D159E746
:1050100020698742A2D30199B9612969002906D084
:10502000814202D339618F6101E000F0B3F9686910
:10503000002800D146E7216988428FD378618761D3
:1050400040E7009840680240032A00D03AE70298FF
:10505000A06000984068B0430099486002980643F9
:105060006E60029809E06269914208D1A0680299D5
:105070004018A060656106436E60285082E10721F8
:105080008843029909180291C008202846D2009945
:10509000896803910099CF6801900098B84201D1C6
:1050A00000F078F900980399884201D100F072F974
:1050B00000984068072188430199C900884201D0BF
:1050C00000F068F90198C0002118039A0800283000
:1050D000824209D010462269904200D297E0C0680F
:1050E000009A904200D092E00398874206D121684E
:1050F000019A01209040814321608AE028318F424B
:1051000007D02069874200D281E0B86800998842C0
:105110007DD10398C7600398B8607AE000988069F1
:1051200001900098C76887420ED000988068216976
:10513000884226D3C168009A914222D1B96891422F
:105140001FD1C760B8601EE0009914310F68002FAE
:1051500007D1009910310F68002F14D001E0010031
:105160000F68380014300268002AF8D13800103077
:105170000268002AF3D12069814202D3002008602E
:1051800001E000F007F90198002842D00098C069BA
:105190008000201898214900401800990268914227
:1051A0000AD10760002F16D161680098C2690120FA
:1051B0009040814361602CE001982169884208D3C6
:1051C000006900998842019801D1076103E04761B5
:1051D00001E000F0DFF8002F1BD02069874216D3D2
:1051E0000199B96100990969002906D0814202D369
:1051F00039618F6101E000F0CDF800984069002826
:1052000007D02169884202D37861876101E000F00C
:10521000C1F802983043686002982850606985425E
:105220000AD10298A060ADE0B043009948600298AE
:1052300030436860029828500298C008202822D283
:105240000090C0002718283701970298102801D233
:1052500000F0A0F8206800990200CA40324003D153
:105260008E400643266007E0B8682169884201D372
:10527000019001E000F08EF8BD600198C5600198D2
:10528000A860EF607EE00298000A01D1002225E0CC
:105290003104884201D31F2220E0FF21C943411875
:1052A000090C082211400091884038494118090C26
:1052B000042211408840364A8218120C02231A40F8
:1052C0000E23009FDB1B591A891A9040C00B081847
:1052D0004100029AC01DC24032408A189000201836
:1052E000982149004118EA610020686128616368DB
:1052F0001F00D740374004D196401E4366600D60C2
:105300001DE009681F2A01D1002302E01923520879
:105310009B1A029A9A4000E019004B680726B34393
:10532000029EB3420FD0D30F9B00CE18103652000E
:105330003368002BF0D12069864210D33560A96113
:10534000ED60AD600DE08A682369994207D39A4207
:1053500005D3D5608D60AA60E960A86101E000F026
:1053600019F8206A401E20620CD1E4204000205829
:1053700000E080680028FCD10020C043206201E0EA
:1053800000F008F8C046C04605B0F0BD00F0FFFFD1
:1053900000C0FFFF80B5012000F046F801BDFEE728
:1053A00007490868002801D00020704705480722F7
:1053B0009043086004499143091A0160704700BF97
:1053C0004C1F002077090020700D0020124207D0EA
:1053D0008B0706D00B78491C0370401C521EF7D86F
:1053E0007047830706D00B78491C0370401C521E7F
:1053F000F9D1704770B4103A03D378C9103A78C025
:10540000FBD2530701D318C918C001D508C908C079
:10541000D20704D30B880380891C801C002A01D585
:105420000B78037070BC70472021090326311820C7
:10543000ABBEF9E780B500F011FD0120934908707B
:1054400000F029FB02BD38B5040000F03EF905006C
:105450002000183000F044FA28438D4909880129BA
:1054600009D1802189006163A1688A4A0A404032DB
:10547000D100216332BD21898904090D491C2163B2
:1054800001230A46217B4D076D0FAD1C0121A94068
:105490004A432263617909098B40636319464A4391
:1054A000226332BDF7B586B01C000026002501201E
:1054B0006946087200270095FF236846028C102178
:1054C00003A800F07BFA012000F0FDFCFF2000F0B3
:1054D0000BFD6846007B002846D16846008CFFF72C
:1054E00014FB070040D0FF226846018C3800FEF70D
:1054F00041FB2CE001210096FF23019307984019FE
:10550000FEF7A4FB0200FF23112103A800F056FAC6
:105510006846007B002827D1FE2000F07FFB002892
:1055200022D16846028C06984119380000F0D8FC58
:105530006846008C2D18FF2000F0D6FCFF2000F0FC
:10554000D3FC012000F0BFFCFF2000F0CDFC2000C8
:10555000441E002806D04E4800880128CAD168465B
:10556000018CC8E768460672012000F0ACFCFF2001
:1055700000F0BAFC002F02D03800FFF745FC684667
:10558000007A09B0F0BDF7B586B01C0000270025F1
:105590000120694608710095FF236846028C10219E
:1055A00003A800F00BFA012000F08DFCFF2000F0B2
:1055B0009BFC6846007B00285DD16846008CFFF7A5
:1055C000A4FA0290002811D155E0012000F07BFCE4
:1055D000002000F078FCFF2000F086FCFF28FAD1C4
:1055E000012000F070FCFF2000F07EFC2000441E33
:1055F000002802D1684607713AE0B64800880128C1
:1056000002D16846018C00E00121009707984019FB
:10561000FEF71CFB0200FF23182103A800F0CEF9BF
:105620006846007B002823D1FF2000F05DFCFF20AE
:1056300000F05AFCFE2000F057FC6846028C0299EC
:105640000698401900F04CFC6846008C2D18FF208D
:1056500000F04AFCFF2000F047FCFF2000F044FC73
:105660000600FF2000F040FCF006C00E0528ACD07C
:105670000298FFF7C9FB012000F025FCFF2000F095
:1056800033FC6846007909B0F0BD0000521F0020CD
:10569000501F0020C0FFFF0FE0B502200090FF2345
:1056A00000220D2101A800F089F9012000F00BFC77
:1056B000FF2000F019FC68460079002803D101A8FA
:1056C0004078002800D001200EBDF0B587B004005E
:1056D000002501260095FF230022092101A800F0E2
:1056E0006DF968460079002803D1FE2000F096FA93
:1056F000002800D0ECE003AEFF2000F0F5FB705571
:105700006D1C102DF7DBFF2000F0EEFBFF2000F0FA
:10571000EBFB307880093178890001432170707883
:105720006070B078A070F078E0707079A188F02295
:1057300012020A40010933791B010B431343A38072
:105740000F2561790F220A40000110436071B17981
:10575000A079F0230340C808042210404A08082713
:105760003A400243C80910434A0902273A4002431B
:105770001A43A271F279207A6B461870C023032075
:10578000544F3F88002F3BD16D462D78FC272F408A
:10579000BC468F0803253D4067463D432572278957
:1057A0004D4D3D4003270F40BF0291003943327AEF
:1057B000920911438900294321810722A17A1940C6
:1057C000357AEF0807253D40377A3A40D2002A4320
:1057D0000A43A272717AE27A13404A094D003827CF
:1057E0002F4017431F43E772237BF8221A40B37AF6
:1057F000DB0903250D40690019431143217319E0AA
:105800006F463F783B4097090D40A9003943194343
:105810002172A368314919409206920A337A1B0219
:105820001343727A1A4392010A43A260E17AEF228B
:105830000A40E272F27AB17A4B06DD0F8900294301
:10584000D3095B000B432374317B5206520E802335
:105850000B4013436374E022A37C13404F090325DC
:105860003D401C270F402F431F43A774737BE57CEB
:10587000154000959D09AC465F0810252F406546F0
:105880002F4303250D40A9003943009D2943E174AE
:10589000B17BDB06DB0ECD096D011D4340230B40C0
:1058A0002B434D09ED011D432575637D1A404B08BF
:1058B00006251D400840C0002843C906CB0F0343FE
:1058C00013436375F07B4108C0010843A0750026AF
:1058D0006AE00000501F002003C000003F0000F0FD
:1058E000F0B587B004000025012701260095FF23AD
:1058F00000220A2101A800F061F86846007900281A
:1059000052D1FE2000F08AF900284DD103AEFF20CD
:1059100000F0EAFA70556D1C102DF7D3FF2000F04F
:10592000E3FAFF2000F0E0FA30782070707800028F
:1059300060806088B17808436080F078000660601D
:105940006068317909040143616060687179090216
:10595000014361606068B17901436160F079207250
:10596000307A6072707A0006E060E068B17A09040B
:105970000143E160E068F17A09020143E160E06817
:10598000317B0143E160707B217C02090A43227470
:105990000007000D6082608AB17B08436082F07B63
:1059A0004008207567750026012000F08CFAFF2062
:1059B00000F09AFA300007B0F0BD000070B586B074
:1059C00004000D00A1A003C86E4603C602A8402132
:1059D00029430170110E4170110C8170110AC170C0
:1059E0000271012119434171002000F06CFA062276
:1059F00004A902A800F074FA0A98052844D801A165
:105A0000095C8F44040E3E52825200F0FCF8694655
:105A1000087039E000F0F7F869460870FF2000F0E0
:105A200063FA69464870012000F04DFA012000F049
:105A3000A9FB002000F047FAFF2000F055FAFF28EC
:105A400022D0F9E700F0DFF869460870FF2000F087
:105A50004BFA6946487017E000F0D5F869460870BF
:105A6000FF2000F041FA69464870FF2000F03CFA40
:105A700069468870FF2000F037FA6946C870FF2039
:105A800000F032FA69460871200069460522FFF7E6
:105A90009DFC06B070BD30B585B0002569460D711E
:105AA00068460079401C69460871009595230022DC
:105AB000002102A8FFF782FF012000F004FAFF2076
:105AC00000F012FA68460079642800DB99E0684625
:105AD000007A0128E4D1052000908723D5225200C6
